{
	"data": {
		"bytecode": {
			"linkReferences": {},
			"object": "60c06040526001600a553480156200001657600080fd5b50738c7382f9d8f56b33781fe506e897a4f1e2d1725573326c977e6efc84e512bb9c30f76e30c160ed06fb6040518060400160405280600381526020017f45524300000000000000000000000000000000000000000000000000000000008152506040518060400160405280600381526020017f45524300000000000000000000000000000000000000000000000000000000008152508160009080519060200190620000c5929190620001c3565b508060019080519060200190620000de929190620001c3565b5050508173ffffffffffffffffffffffffffffffffffffffff1660a08173ffffffffffffffffffffffffffffffffffffffff1660601b815250508073ffffffffffffffffffffffffffffffffffffffff1660808173ffffffffffffffffffffffffffffffffffffffff1660601b8152505050507f6e75b569a01ef56d18cab6a8e71e6600d6ce853834d4a5748b720d06f878b3a460001b601081905550655af3107a4000601181905550600060078190555061022b60088190555062087a236012600060018152602001908152602001600020819055506001600981905550620002d8565b828054620001d19062000273565b90600052602060002090601f016020900481019282620001f5576000855562000241565b82601f106200021057805160ff191683800117855562000241565b8280016001018555821562000241579182015b828111156200024057825182559160200191906001019062000223565b5b50905062000250919062000254565b5090565b5b808211156200026f57600081600090555060010162000255565b5090565b600060028204905060018216806200028c57607f821691505b60208210811415620002a357620002a2620002a9565b5b50919050565b7f4e487b7100000000000000000000000000000000000000000000000000000000600052602260045260246000fd5b60805160601c60a05160601c61561c62000312600039600081816109d7015261205f0152600081816115d60152612023015261561c6000f3fe6080604052600436106101145760003560e01c806370a08231116100a0578063a9010b0b11610064578063a9010b0b146103c3578063b88d4fde14610401578063c0702d9c1461042a578063c87b56dd14610434578063e985e9c51461047157610114565b806370a08231146102cc57806394985ddd1461030957806395d89b4114610332578063a0c4442d1461035d578063a22cb4651461039a57610114565b80631581b600116100e75780631581b600146101e757806323b872dd146102125780633eaaf86b1461023b57806342842e0e146102665780636352211e1461028f57610114565b806301ffc9a71461011957806306fdde0314610156578063081812fc14610181578063095ea7b3146101be575b600080fd5b34801561012557600080fd5b50610140600480360381019061013b91906127ee565b6104ae565b60405161014d9190612f0e565b60405180910390f35b34801561016257600080fd5b5061016b610590565b6040516101789190612f97565b60405180910390f35b34801561018d57600080fd5b506101a860048036038101906101a39190612848565b610622565b6040516101b59190612e69565b60405180910390f35b3480156101ca57600080fd5b506101e560048036038101906101e09190612741565b6106a7565b005b3480156101f357600080fd5b506101fc6107bf565b6040516102099190612e69565b60405180910390f35b34801561021e57600080fd5b506102396004803603810190610234919061262b565b6107e5565b005b34801561024757600080fd5b50610250610845565b60405161025d9190613209565b60405180910390f35b34801561027257600080fd5b5061028d6004803603810190610288919061262b565b61084b565b005b34801561029b57600080fd5b506102b660048036038101906102b19190612848565b61086b565b6040516102c39190612e69565b60405180910390f35b3480156102d857600080fd5b506102f360048036038101906102ee91906125be565b61091d565b6040516103009190613209565b60405180910390f35b34801561031557600080fd5b50610330600480360381019061032b91906127ae565b6109d5565b005b34801561033e57600080fd5b50610347610a71565b6040516103549190612f97565b60405180910390f35b34801561036957600080fd5b50610384600480360381019061037f9190612848565b610b03565b6040516103919190613209565b60405180910390f35b3480156103a657600080fd5b506103c160048036038101906103bc9190612701565b610b20565b005b3480156103cf57600080fd5b506103ea60048036038101906103e59190612848565b610b36565b6040516103f8929190612fb9565b60405180910390f35b34801561040d57600080fd5b506104286004803603810190610423919061267e565b610bfc565b005b610432610c5e565b005b34801561044057600080fd5b5061045b60048036038101906104569190612848565b610d25565b6040516104689190612f97565b60405180910390f35b34801561047d57600080fd5b50610498600480360381019061049391906125eb565b610e33565b6040516104a59190612f0e565b60405180910390f35b60007f80ac58cd000000000000000000000000000000000000000000000000000000007bffffffffffffffffffffffffffffffffffffffffffffffffffffffff1916827bffffffffffffffffffffffffffffffffffffffffffffffffffffffff1916148061057957507f5b5e139f000000000000000000000000000000000000000000000000000000007bffffffffffffffffffffffffffffffffffffffffffffffffffffffff1916827bffffffffffffffffffffffffffffffffffffffffffffffffffffffff1916145b80610589575061058882610ec7565b5b9050919050565b60606000805461059f906134bb565b80601f01602080910402602001604051908101604052809291908181526020018280546105cb906134bb565b80156106185780601f106105ed57610100808354040283529160200191610618565b820191906000526020600020905b8154815290600101906020018083116105fb57829003601f168201915b5050505050905090565b600061062d82610f31565b61066c576040517f08c379a000000000000000000000000000000000000000000000000000000000815260040161066390613189565b60405180910390fd5b6004600083815260200190815260200160002060009054906101000a900473ffffffffffffffffffffffffffffffffffffffff169050919050565b60006106b28261086b565b90508073ffffffffffffffffffffffffffffffffffffffff168373ffffffffffffffffffffffffffffffffffffffff161415610723576040517f08c379a000000000000000000000000000000000000000000000000000000000815260040161071a906131c9565b60405180910390fd5b8073ffffffffffffffffffffffffffffffffffffffff16610742610f9d565b73ffffffffffffffffffffffffffffffffffffffff16148061077157506107708161076b610f9d565b610e33565b5b6107b0576040517f08c379a00000000000000000000000000000000000000000000000000000000081526004016107a790613129565b60405180910390fd5b6107ba8383610fa5565b505050565b600c60009054906101000a900473ffffffffffffffffffffffffffffffffffffffff1681565b6107f66107f0610f9d565b8261105e565b610835576040517f08c379a000000000000000000000000000000000000000000000000000000000815260040161082c906131e9565b60405180910390fd5b61084083838361113c565b505050565b60075481565b61086683838360405180602001604052806000815250610bfc565b505050565b6000806002600084815260200190815260200160002060009054906101000a900473ffffffffffffffffffffffffffffffffffffffff169050600073ffffffffffffffffffffffffffffffffffffffff168173ffffffffffffffffffffffffffffffffffffffff161415610914576040517f08c379a000000000000000000000000000000000000000000000000000000000815260040161090b90613149565b60405180910390fd5b80915050919050565b60008073ffffffffffffffffffffffffffffffffffffffff168273ffffffffffffffffffffffffffffffffffffffff16141561098e576040517f08c379a000000000000000000000000000000000000000000000000000000000815260040161098590613109565b60405180910390fd5b600360008373ffffffffffffffffffffffffffffffffffffffff1673ffffffffffffffffffffffffffffffffffffffff168152602001908152602001600020549050919050565b7f000000000000000000000000000000000000000000000000000000000000000073ffffffffffffffffffffffffffffffffffffffff163373ffffffffffffffffffffffffffffffffffffffff1614610a63576040517f08c379a0000000000000000000000000000000000000000000000000000000008152600401610a5a906131a9565b60405180910390fd5b610a6d82826113a3565b5050565b606060018054610a80906134bb565b80601f0160208091040260200160405190810160405280929190818152602001828054610aac906134bb565b8015610af95780601f10610ace57610100808354040283529160200191610af9565b820191906000526020600020905b815481529060010190602001808311610adc57829003601f168201915b5050505050905090565b600060126000838152602001908152602001600020549050919050565b610b32610b2b610f9d565b83836113e8565b5050565b60606000600f6000848152602001908152602001600020600001600f600085815260200190815260200160002060010154818054610b73906134bb565b80601f0160208091040260200160405190810160405280929190818152602001828054610b9f906134bb565b8015610bec5780601f10610bc157610100808354040283529160200191610bec565b820191906000526020600020905b815481529060010190602001808311610bcf57829003601f168201915b5050505050915091509150915091565b610c0d610c07610f9d565b8361105e565b610c4c576040517f08c379a0000000000000000000000000000000000000000000000000000000008152600401610c43906131e9565b60405180910390fd5b610c5884848484611555565b50505050565b6009543414610ca2576040517f08c379a0000000000000000000000000000000000000000000000000000000008152600401610c99906130c9565b60405180910390fd5b60085460075410610ce8576040517f08c379a0000000000000000000000000000000000000000000000000000000008152600401610cdf90613089565b60405180910390fd5b610d00336001600754610cfb91906132e6565b6115b1565b600160076000828254610d1391906132e6565b92505081905550610d226115cf565b50565b60606000610d32836116d1565b610de1610ddc600f60008781526020019081526020016000206000018054610d59906134bb565b80601f0160208091040260200160405190810160405280929190818152602001828054610d85906134bb565b8015610dd25780601f10610da757610100808354040283529160200191610dd2565b820191906000526020600020905b815481529060010190602001808311610db557829003601f168201915b5050505050611832565b6119cb565b604051602001610df2929190612dcc565b6040516020818303038152906040529050610e0c816119cb565b604051602001610e1c9190612e32565b604051602081830303815290604052915050919050565b6000600560008473ffffffffffffffffffffffffffffffffffffffff1673ffffffffffffffffffffffffffffffffffffffff16815260200190815260200160002060008373ffffffffffffffffffffffffffffffffffffffff1673ffffffffffffffffffffffffffffffffffffffff16815260200190815260200160002060009054906101000a900460ff16905092915050565b60007f01ffc9a7000000000000000000000000000000000000000000000000000000007bffffffffffffffffffffffffffffffffffffffffffffffffffffffff1916827bffffffffffffffffffffffffffffffffffffffffffffffffffffffff1916149050919050565b60008073ffffffffffffffffffffffffffffffffffffffff166002600084815260200190815260200160002060009054906101000a900473ffffffffffffffffffffffffffffffffffffffff1673ffffffffffffffffffffffffffffffffffffffff1614159050919050565b600033905090565b816004600083815260200190815260200160002060006101000a81548173ffffffffffffffffffffffffffffffffffffffff021916908373ffffffffffffffffffffffffffffffffffffffff160217905550808273ffffffffffffffffffffffffffffffffffffffff166110188361086b565b73ffffffffffffffffffffffffffffffffffffffff167f8c5be1e5ebec7d5bd14f71427d1e84f3dd0314c0f7b2291e5b200ac8c7c3b92560405160405180910390a45050565b600061106982610f31565b6110a8576040517f08c379a000000000000000000000000000000000000000000000000000000000815260040161109f906130e9565b60405180910390fd5b60006110b38361086b565b90508073ffffffffffffffffffffffffffffffffffffffff168473ffffffffffffffffffffffffffffffffffffffff1614806110f557506110f48185610e33565b5b8061113357508373ffffffffffffffffffffffffffffffffffffffff1661111b84610622565b73ffffffffffffffffffffffffffffffffffffffff16145b91505092915050565b8273ffffffffffffffffffffffffffffffffffffffff1661115c8261086b565b73ffffffffffffffffffffffffffffffffffffffff16146111b2576040517f08c379a00000000000000000000000000000000000000000000000000000000081526004016111a990613009565b60405180910390fd5b600073ffffffffffffffffffffffffffffffffffffffff168273ffffffffffffffffffffffffffffffffffffffff161415611222576040517f08c379a000000000000000000000000000000000000000000000000000000000815260040161121990613049565b60405180910390fd5b61122d838383611b2f565b611238600082610fa5565b6001600360008573ffffffffffffffffffffffffffffffffffffffff1673ffffffffffffffffffffffffffffffffffffffff168152602001908152602001600020600082825461128891906133c7565b925050819055506001600360008473ffffffffffffffffffffffffffffffffffffffff1673ffffffffffffffffffffffffffffffffffffffff16815260200190815260200160002060008282546112df91906132e6565b92505081905550816002600083815260200190815260200160002060006101000a81548173ffffffffffffffffffffffffffffffffffffffff021916908373ffffffffffffffffffffffffffffffffffffffff160217905550808273ffffffffffffffffffffffffffffffffffffffff168473ffffffffffffffffffffffffffffffffffffffff167fddf252ad1be2c89b69c2b068fc378daa952ba7f163c4a11628f55a4df523b3ef60405160405180910390a461139e838383611b34565b505050565b60006013600084815260200190815260200160002060009054906101000a900460ff1660ff16905060008114156113e2576113dd82611b39565b6113e3565b5b505050565b8173ffffffffffffffffffffffffffffffffffffffff168373ffffffffffffffffffffffffffffffffffffffff161415611457576040517f08c379a000000000000000000000000000000000000000000000000000000000815260040161144e90613069565b60405180910390fd5b80600560008573ffffffffffffffffffffffffffffffffffffffff1673ffffffffffffffffffffffffffffffffffffffff16815260200190815260200160002060008473ffffffffffffffffffffffffffffffffffffffff1673ffffffffffffffffffffffffffffffffffffffff16815260200190815260200160002060006101000a81548160ff0219169083151502179055508173ffffffffffffffffffffffffffffffffffffffff168373ffffffffffffffffffffffffffffffffffffffff167f17307eab39ab6107e8899845ad3d59bd9653f200f220920489ca2b5937696c31836040516115489190612f0e565b60405180910390a3505050565b61156084848461113c565b61156c84848484611e2d565b6115ab576040517f08c379a00000000000000000000000000000000000000000000000000000000081526004016115a290612fe9565b60405180910390fd5b50505050565b6115cb828260405180602001604052806000815250611fc4565b5050565b60006011547f000000000000000000000000000000000000000000000000000000000000000073ffffffffffffffffffffffffffffffffffffffff166370a08231306040518263ffffffff1660e01b815260040161162d9190612e69565b60206040518083038186803b15801561164557600080fd5b505afa158015611659573d6000803e3d6000fd5b505050506040513d601f19601f8201168201806040525081019061167d9190612875565b10156116be576040517f08c379a00000000000000000000000000000000000000000000000000000000081526004016116b5906130a9565b60405180910390fd5b6116cc60105460115461201f565b905090565b60606000821415611719576040518060400160405280600181526020017f3000000000000000000000000000000000000000000000000000000000000000815250905061182d565b600082905060005b6000821461174b5780806117349061351e565b915050600a82611744919061333c565b9150611721565b60008167ffffffffffffffff81111561176757611766613668565b5b6040519080825280601f01601f1916602001820160405280156117995781602001600182028036833780820191505090505b5090505b60008514611826576001826117b291906133c7565b9150600a856117c1919061357b565b60306117cd91906132e6565b60f81b8183815181106117e3576117e2613639565b5b60200101907effffffffffffffffffffffffffffffffffffffffffffffffffffffffffffff1916908160001a905350600a8561181f919061333c565b945061179d565b8093505050505b919050565b606060405160200161184390612e54565b604051602081830303815290604052805190602001208260405160200161186a9190612d46565b60405160208183030381529060405280519060200120146119365760405180610100016040528060c4815260200161440d60c491396040518061110001604052806110d681526020016145116110d691396040518061072001604052806106ee8152602001613d1f6106ee91396040518060400160405280600681526020017f3c2f7376673e00000000000000000000000000000000000000000000000000008152506040516020016119209493929190612d8e565b60405160208183030381529060405290506119c6565b60405180610100016040528060c4815260200161440d60c491396040518061110001604052806110d681526020016145116110d691396040518060400160405280600681526020017f3c2f7376673e00000000000000000000000000000000000000000000000000008152506040516020016119b493929190612d5d565b60405160208183030381529060405290505b919050565b60606000825114156119ee57604051806020016040528060008152509050611b2a565b60006040518060600160405280604081526020016144d16040913990506000600360028551611a1d91906132e6565b611a27919061333c565b6004611a33919061336d565b67ffffffffffffffff811115611a4c57611a4b613668565b5b6040519080825280601f01601f191660200182016040528015611a7e5781602001600182028036833780820191505090505b509050600182016020820185865187015b80821015611aea576003820191508151603f8160121c168501518453600184019350603f81600c1c168501518453600184019350603f8160061c168501518453600184019350603f8116850151845360018401935050611a8f565b5050600386510660018114611b065760028114611b1957611b21565b603d6001830353603d6002830353611b21565b603d60018303535b50505080925050505b919050565b505050565b505050565b6001623fffff82611b4a919061357b565b611b5491906132e6565b600d6000600a548152602001908152602001600020819055506060600667ffffffffffffffff811115611b8a57611b89613668565b5b604051908082528060200260200182016040528015611bb85781602001602082028036833780820191505090505b50905060005b6006811015611c9f576001623fffff84611bd8919061357b565b611be291906132e6565b81604051602001611bf4929190613224565b6040516020818303038152906040528051906020012060001c828281518110611c2057611c1f613639565b5b6020026020010181815250506006828281518110611c4157611c40613639565b5b60200260200101818151611c55919061357b565b915081815250506005828281518110611c7157611c70613639565b5b60200260200101818151611c8591906132e6565b915081815250508080611c979061351e565b915050611bbe565b50600060405180606001604052806040518060400160405280600581526020017f526163653100000000000000000000000000000000000000000000000000000081525081526020016040518060400160405280600581526020017f526163653200000000000000000000000000000000000000000000000000000081525081526020016040518060400160405280600581526020017f52616365330000000000000000000000000000000000000000000000000000008152508152509050600082600081518110611d7457611d73613639565b5b6020026020010151905082600181518110611d9257611d91613639565b5b6020026020010151600f6000600a5481526020019081526020016000206001018190555081611dcb60018361218190919063ffffffff16565b60038110611ddc57611ddb613639565b5b6020020151600f6000600a5481526020019081526020016000206000019080519060200190611e0c929190612403565b506001600a6000828254611e2091906132e6565b9250508190555050505050565b6000611e4e8473ffffffffffffffffffffffffffffffffffffffff16612197565b15611fb7578373ffffffffffffffffffffffffffffffffffffffff1663150b7a02611e77610f9d565b8786866040518563ffffffff1660e01b8152600401611e999493929190612e84565b602060405180830381600087803b158015611eb357600080fd5b505af1925050508015611ee457506040513d601f19601f82011682018060405250810190611ee1919061281b565b60015b611f67573d8060008114611f14576040519150601f19603f3d011682016040523d82523d6000602084013e611f19565b606091505b50600081511415611f5f576040517f08c379a0000000000000000000000000000000000000000000000000000000008152600401611f5690612fe9565b60405180910390fd5b805181602001fd5b63150b7a0260e01b7bffffffffffffffffffffffffffffffffffffffffffffffffffffffff1916817bffffffffffffffffffffffffffffffffffffffffffffffffffffffff191614915050611fbc565b600190505b949350505050565b611fce83836121ba565b611fdb6000848484611e2d565b61201a576040517f08c379a000000000000000000000000000000000000000000000000000000000815260040161201190612fe9565b60405180910390fd5b505050565b60007f000000000000000000000000000000000000000000000000000000000000000073ffffffffffffffffffffffffffffffffffffffff16634000aea07f000000000000000000000000000000000000000000000000000000000000000084866000604051602001612093929190612f29565b6040516020818303038152906040526040518463ffffffff1660e01b81526004016120c093929190612ed0565b602060405180830381600087803b1580156120da57600080fd5b505af11580156120ee573d6000803e3d6000fd5b505050506040513d601f19601f820116820180604052508101906121129190612781565b506000612135846000306006600089815260200190815260200160002054612394565b90506001600660008681526020019081526020016000205461215791906132e6565b600660008681526020019081526020016000208190555061217884826123d0565b91505092915050565b6000818361218f91906133c7565b905092915050565b6000808273ffffffffffffffffffffffffffffffffffffffff163b119050919050565b600073ffffffffffffffffffffffffffffffffffffffff168273ffffffffffffffffffffffffffffffffffffffff16141561222a576040517f08c379a000000000000000000000000000000000000000000000000000000000815260040161222190613169565b60405180910390fd5b61223381610f31565b15612273576040517f08c379a000000000000000000000000000000000000000000000000000000000815260040161226a90613029565b60405180910390fd5b61227f60008383611b2f565b6001600360008473ffffffffffffffffffffffffffffffffffffffff1673ffffffffffffffffffffffffffffffffffffffff16815260200190815260200160002060008282546122cf91906132e6565b92505081905550816002600083815260200190815260200160002060006101000a81548173ffffffffffffffffffffffffffffffffffffffff021916908373ffffffffffffffffffffffffffffffffffffffff160217905550808273ffffffffffffffffffffffffffffffffffffffff16600073ffffffffffffffffffffffffffffffffffffffff167fddf252ad1be2c89b69c2b068fc378daa952ba7f163c4a11628f55a4df523b3ef60405160405180910390a461239060008383611b34565b5050565b6000848484846040516020016123ad9493929190612f52565b6040516020818303038152906040528051906020012060001c9050949350505050565b600082826040516020016123e5929190612d1a565b60405160208183030381529060405280519060200120905092915050565b82805461240f906134bb565b90600052602060002090601f0160209004810192826124315760008555612478565b82601f1061244a57805160ff1916838001178555612478565b82800160010185558215612478579182015b8281111561247757825182559160200191906001019061245c565b5b5090506124859190612489565b5090565b5b808211156124a257600081600090555060010161248a565b5090565b60006124b96124b484613272565b61324d565b9050828152602081018484840111156124d5576124d461369c565b5b6124e0848285613479565b509392505050565b6000813590506124f781613cab565b92915050565b60008135905061250c81613cc2565b92915050565b60008151905061252181613cc2565b92915050565b60008135905061253681613cd9565b92915050565b60008135905061254b81613cf0565b92915050565b60008151905061256081613cf0565b92915050565b600082601f83011261257b5761257a613697565b5b813561258b8482602086016124a6565b91505092915050565b6000813590506125a381613d07565b92915050565b6000815190506125b881613d07565b92915050565b6000602082840312156125d4576125d36136a6565b5b60006125e2848285016124e8565b91505092915050565b60008060408385031215612602576126016136a6565b5b6000612610858286016124e8565b9250506020612621858286016124e8565b9150509250929050565b600080600060608486031215612644576126436136a6565b5b6000612652868287016124e8565b9350506020612663868287016124e8565b925050604061267486828701612594565b9150509250925092565b60008060008060808587031215612698576126976136a6565b5b60006126a6878288016124e8565b94505060206126b7878288016124e8565b93505060406126c887828801612594565b925050606085013567ffffffffffffffff8111156126e9576126e86136a1565b5b6126f587828801612566565b91505092959194509250565b60008060408385031215612718576127176136a6565b5b6000612726858286016124e8565b9250506020612737858286016124fd565b9150509250929050565b60008060408385031215612758576127576136a6565b5b6000612766858286016124e8565b925050602061277785828601612594565b9150509250929050565b600060208284031215612797576127966136a6565b5b60006127a584828501612512565b91505092915050565b600080604083850312156127c5576127c46136a6565b5b60006127d385828601612527565b92505060206127e485828601612594565b9150509250929050565b600060208284031215612804576128036136a6565b5b60006128128482850161253c565b91505092915050565b600060208284031215612831576128306136a6565b5b600061283f84828501612551565b91505092915050565b60006020828403121561285e5761285d6136a6565b5b600061286c84828501612594565b91505092915050565b60006020828403121561288b5761288a6136a6565b5b6000612899848285016125a9565b91505092915050565b6128ab816133fb565b82525050565b6128ba8161340d565b82525050565b6128c981613419565b82525050565b6128e06128db82613419565b613567565b82525050565b60006128f1826132a3565b6128fb81856132b9565b935061290b818560208601613488565b612914816136ab565b840191505092915050565b600061292a826132ae565b61293481856132ca565b9350612944818560208601613488565b61294d816136ab565b840191505092915050565b6000612963826132ae565b61296d81856132db565b935061297d818560208601613488565b80840191505092915050565b60006129966032836132ca565b91506129a1826136bc565b604082019050919050565b60006129b96025836132ca565b91506129c48261370b565b604082019050919050565b60006129dc601c836132ca565b91506129e78261375a565b602082019050919050565b60006129ff6024836132ca565b9150612a0a82613783565b604082019050919050565b6000612a226019836132ca565b9150612a2d826137d2565b602082019050919050565b6000612a45602f836132ca565b9150612a50826137fb565b604082019050919050565b6000612a68602b836132ca565b9150612a738261384a565b604082019050919050565b6000612a8b6017836132ca565b9150612a9682613899565b602082019050919050565b6000612aae602c836132ca565b9150612ab9826138c2565b604082019050919050565b6000612ad16029836132ca565b9150612adc82613911565b604082019050919050565b6000612af46038836132ca565b9150612aff82613960565b604082019050919050565b6000612b176001836132db565b9150612b22826139af565b600182019050919050565b6000612b3a6029836132ca565b9150612b45826139d8565b604082019050919050565b6000612b5d6024836132db565b9150612b6882613a27565b602482019050919050565b6000612b806020836132ca565b9150612b8b82613a76565b602082019050919050565b6000612ba36001836132db565b9150612bae82613a9f565b600182019050919050565b6000612bc6602c836132ca565b9150612bd182613ac8565b604082019050919050565b6000612be96001836132db565b9150612bf482613b17565b600182019050919050565b6000612c0c601f836132ca565b9150612c1782613b40565b602082019050919050565b6000612c2f6021836132ca565b9150612c3a82613b69565b604082019050919050565b6000612c52601d836132db565b9150612c5d82613bb8565b601d82019050919050565b6000612c756005836132db565b9150612c8082613be1565b600582019050919050565b6000612c986002836132db565b9150612ca382613c0a565b600282019050919050565b6000612cbb6015836132db565b9150612cc682613c33565b601582019050919050565b6000612cde6031836132ca565b9150612ce982613c5c565b604082019050919050565b612cfd8161346f565b82525050565b612d14612d0f8261346f565b613571565b82525050565b6000612d2682856128cf565b602082019150612d368284612d03565b6020820191508190509392505050565b6000612d528284612958565b915081905092915050565b6000612d698286612958565b9150612d758285612958565b9150612d818284612958565b9150819050949350505050565b6000612d9a8287612958565b9150612da68286612958565b9150612db28285612958565b9150612dbe8284612958565b915081905095945050505050565b6000612dd782612bdc565b9150612de282612cae565b9150612dee8285612958565b9150612df982612c8b565b9150612e0482612b50565b9150612e108284612958565b9150612e1b82612b0a565b9150612e2682612b96565b91508190509392505050565b6000612e3d82612c45565b9150612e498284612958565b915081905092915050565b6000612e5f82612c68565b9150819050919050565b6000602082019050612e7e60008301846128a2565b92915050565b6000608082019050612e9960008301876128a2565b612ea660208301866128a2565b612eb36040830185612cf4565b8181036060830152612ec581846128e6565b905095945050505050565b6000606082019050612ee560008301866128a2565b612ef26020830185612cf4565b8181036040830152612f0481846128e6565b9050949350505050565b6000602082019050612f2360008301846128b1565b92915050565b6000604082019050612f3e60008301856128c0565b612f4b6020830184612cf4565b9392505050565b6000608082019050612f6760008301876128c0565b612f746020830186612cf4565b612f8160408301856128a2565b612f8e6060830184612cf4565b95945050505050565b60006020820190508181036000830152612fb1818461291f565b905092915050565b60006040820190508181036000830152612fd3818561291f565b9050612fe26020830184612cf4565b9392505050565b6000602082019050818103600083015261300281612989565b9050919050565b60006020820190508181036000830152613022816129ac565b9050919050565b60006020820190508181036000830152613042816129cf565b9050919050565b60006020820190508181036000830152613062816129f2565b9050919050565b6000602082019050818103600083015261308281612a15565b9050919050565b600060208201905081810360008301526130a281612a38565b9050919050565b600060208201905081810360008301526130c281612a5b565b9050919050565b600060208201905081810360008301526130e281612a7e565b9050919050565b6000602082019050818103600083015261310281612aa1565b9050919050565b6000602082019050818103600083015261312281612ac4565b9050919050565b6000602082019050818103600083015261314281612ae7565b9050919050565b6000602082019050818103600083015261316281612b2d565b9050919050565b6000602082019050818103600083015261318281612b73565b9050919050565b600060208201905081810360008301526131a281612bb9565b9050919050565b600060208201905081810360008301526131c281612bff565b9050919050565b600060208201905081810360008301526131e281612c22565b9050919050565b6000602082019050818103600083015261320281612cd1565b9050919050565b600060208201905061321e6000830184612cf4565b92915050565b60006040820190506132396000830185612cf4565b6132466020830184612cf4565b9392505050565b6000613257613268565b905061326382826134ed565b919050565b6000604051905090565b600067ffffffffffffffff82111561328d5761328c613668565b5b613296826136ab565b9050602081019050919050565b600081519050919050565b600081519050919050565b600082825260208201905092915050565b600082825260208201905092915050565b600081905092915050565b60006132f18261346f565b91506132fc8361346f565b9250827fffffffffffffffffffffffffffffffffffffffffffffffffffffffffffffffff03821115613331576133306135ac565b5b828201905092915050565b60006133478261346f565b91506133528361346f565b925082613362576133616135db565b5b828204905092915050565b60006133788261346f565b91506133838361346f565b9250817fffffffffffffffffffffffffffffffffffffffffffffffffffffffffffffffff04831182151516156133bc576133bb6135ac565b5b828202905092915050565b60006133d28261346f565b91506133dd8361346f565b9250828210156133f0576133ef6135ac565b5b828203905092915050565b60006134068261344f565b9050919050565b60008115159050919050565b6000819050919050565b60007fffffffff0000000000000000000000000000000000000000000000000000000082169050919050565b600073ffffffffffffffffffffffffffffffffffffffff82169050919050565b6000819050919050565b82818337600083830152505050565b60005b838110156134a657808201518184015260208101905061348b565b838111156134b5576000848401525b50505050565b600060028204905060018216806134d357607f821691505b602082108114156134e7576134e661360a565b5b50919050565b6134f6826136ab565b810181811067ffffffffffffffff8211171561351557613514613668565b5b80604052505050565b60006135298261346f565b91507fffffffffffffffffffffffffffffffffffffffffffffffffffffffffffffffff82141561355c5761355b6135ac565b5b600182019050919050565b6000819050919050565b6000819050919050565b60006135868261346f565b91506135918361346f565b9250826135a1576135a06135db565b5b828206905092915050565b7f4e487b7100000000000000000000000000000000000000000000000000000000600052601160045260246000fd5b7f4e487b7100000000000000000000000000000000000000000000000000000000600052601260045260246000fd5b7f4e487b7100000000000000000000000000000000000000000000000000000000600052602260045260246000fd5b7f4e487b7100000000000000000000000000000000000000000000000000000000600052603260045260246000fd5b7f4e487b7100000000000000000000000000000000000000000000000000000000600052604160045260246000fd5b600080fd5b600080fd5b600080fd5b600080fd5b6000601f19601f8301169050919050565b7f4552433732313a207472616e7366657220746f206e6f6e20455243373231526560008201527f63656976657220696d706c656d656e7465720000000000000000000000000000602082015250565b7f4552433732313a207472616e736665722066726f6d20696e636f72726563742060008201527f6f776e6572000000000000000000000000000000000000000000000000000000602082015250565b7f4552433732313a20746f6b656e20616c7265616479206d696e74656400000000600082015250565b7f4552433732313a207472616e7366657220746f20746865207a65726f2061646460008201527f7265737300000000000000000000000000000000000000000000000000000000602082015250565b7f4552433732313a20617070726f766520746f2063616c6c657200000000000000600082015250565b7f537570706c792063617020776173206d65742c20756e61626c6520746f20707260008201527f6f636564652077697468206d696e740000000000000000000000000000000000602082015250565b7f4e6f7420656e6f756768204c494e4b202d2066696c6c20636f6e74726163742060008201527f7769746820666175636574000000000000000000000000000000000000000000602082015250565b7f4e65656420746f2073656e6420302e3038206574686572000000000000000000600082015250565b7f4552433732313a206f70657261746f7220717565727920666f72206e6f6e657860008201527f697374656e7420746f6b656e0000000000000000000000000000000000000000602082015250565b7f4552433732313a2061646472657373207a65726f206973206e6f74206120766160008201527f6c6964206f776e65720000000000000000000000000000000000000000000000602082015250565b7f4552433732313a20617070726f76652063616c6c6572206973206e6f74206f7760008201527f6e6572206e6f7220617070726f76656420666f7220616c6c0000000000000000602082015250565b7f2200000000000000000000000000000000000000000000000000000000000000600082015250565b7f4552433732313a206f776e657220717565727920666f72206e6f6e657869737460008201527f656e7420746f6b656e0000000000000000000000000000000000000000000000602082015250565b7f22696d616765223a2022646174613a696d6167652f7376672b786d6c3b62617360008201527f6536342c00000000000000000000000000000000000000000000000000000000602082015250565b7f4552433732313a206d696e7420746f20746865207a65726f2061646472657373600082015250565b7f7d00000000000000000000000000000000000000000000000000000000000000600082015250565b7f4552433732313a20617070726f76656420717565727920666f72206e6f6e657860008201527f697374656e7420746f6b656e0000000000000000000000000000000000000000602082015250565b7f7b00000000000000000000000000000000000000000000000000000000000000600082015250565b7f4f6e6c7920565246436f6f7264696e61746f722063616e2066756c66696c6c00600082015250565b7f4552433732313a20617070726f76616c20746f2063757272656e74206f776e6560008201527f7200000000000000000000000000000000000000000000000000000000000000602082015250565b7f646174613a6170706c69636174696f6e2f6a736f6e3b6261736536342c000000600082015250565b7f5261636533000000000000000000000000000000000000000000000000000000600082015250565b7f2c22000000000000000000000000000000000000000000000000000000000000600082015250565b7f226e616d65223a20224d79373231546f6b656e20230000000000000000000000600082015250565b7f4552433732313a207472616e736665722063616c6c6572206973206e6f74206f60008201527f776e6572206e6f7220617070726f766564000000000000000000000000000000602082015250565b613cb4816133fb565b8114613cbf57600080fd5b50565b613ccb8161340d565b8114613cd657600080fd5b50565b613ce281613419565b8114613ced57600080fd5b50565b613cf981613423565b8114613d0457600080fd5b50565b613d108161346f565b8114613d1b57600080fd5b5056fe3c67207472616e73666f726d3d227472616e736c617465283020302e30303030303129223e3c7061746820643d224d3137382e3838312c3130386c31312e3332322c33382e3937336c362e3932312d322e3533396c362e3534332c32302e3535376c31332e3833332c332e3536326c332e3533332d31362e3530386c352e3734322e3536356c372e3234332d36332e3233312d352e3438362d2e3331342d332e3532372d32332e3539322d31352e362d312e3130322d362e3339392c32352e3030384c3139312e3432312c37382e31356c2d322e3233332c33302e362d31302e3330372d312e313733222066696c6c3d222366336134303722207374726f6b653d22726762612836332c38372c3133352c302922207374726f6b652d77696474683d22302e3835222f3e3c7061746820643d224d3138312e3337352c3131312e3934366c31302e3432342c33322e3930346c352e3034372d322e3337326c352e3232323030312c31312e3634376c312e3539383939392d372e3930326c382e3131392c362e3338372d2e3733372d382e3137366c31312e3236312c342e3831342d31342e3432352d32342e3837336c372e3834382d32322e3935332d362e3332382d33372e3035312d362e3339392c32352e3030384c3139312e3432312c37382e31356c2d312e3032352c33322e3136332d372e3931332d312e323536222066696c6c3d222365343831313722207374726f6b653d22726762612836332c38372c3133352c302922207374726f6b652d77696474683d22302e3835222f3e3c7061746820643d224d3232362e3737352c3131382e323936632e322e3337342e3235332c312e3631322e3136392c332e3934352d2e3139352c352e3433352d2e3737342c362e3236352d342e3633342c362e3634352d332e3032352e3239382d332e3231372d2e3333342d312e3237372d342e32303363322e3930312d352e3738342c342e3838342d372e39392c352e3734322d362e3338376d2d32382e3831332c332e37343263332e3139312c322e3339372c362e3832332c352e3535342c372e3137362c362e3233382e3737392c312e3530372d342e35332c312e3439382d352e3733352c312e3733372d332e3331362e3635392d352e3134342d312e3730352d352e3234352d362e3738322d2e3035372d322e3834372c312e3131332d332e3231342c332e3830342d312e313933222066696c6c3d227267626128372c352c352c302e393429222066696c6c2d72756c653d226576656e6f6464222f3e3c7061746820643d224d3231392e32323833312c3131302e333936313232712e3133333939382c302c31382e39383131392d392e3036373735346c2d32342e30373431392c32372e3537343735344c3231302e3630332c3134392e3632356c2d31322e39363736392d31372e39313338373822207472616e73666f726d3d227472616e736c6174652836322e31313436392d34322e35343137363229222066696c6c3d222365343831313722207374726f6b653d22726762612836332c38372c3133352c302922207374726f6b652d77696474683d22302e3835222f3e3c7061746820643d224d3231392e30363733312c3131392e353431373632712e3133333939382c302c31392e31343231392d31382e3231333339346c2d32372e39353631392c33342e3735373339344c3231302e3630332c3134392e3632356c2d352e32393436392d31342e39343332333822207472616e73666f726d3d227472616e736c6174652836322e31313436392d34322e35343137363229222066696c6c3d222366336134303722207374726f6b653d22726762612836332c38372c3133352c302922207374726f6b652d77696474683d22302e3835222f3e3c7061746820643d224d3131322e3937362c37342e3539343939396c2d31342e3534352d31342e3338366c31372e3830372c362e3434374c3134312e352c38352e37343431396c2d31302e3438312c31392e3532353830392d342e3036322d31332e37303722207472616e73666f726d3d227472616e736c617465283020302e30303030303129222066696c6c3d222365343831313722207374726f6b653d2272676261283235352c3137302c31352c302922207374726f6b652d77696474683d22302e3835222f3e3c7061746820643d224d3131392e3033322c37382e3134363939396c2d32302e3630312d31372e3933384c3132322c37352e3933353939394c3133322e3434372c39352e39393431396c2d312e3432382c392e3237353830392d2e3730352d372e36343522207472616e73666f726d3d227472616e736c617465283020302e30303030303129222066696c6c3d222366336134303722207374726f6b653d2272676261283235352c3137302c31352c302922207374726f6b652d77696474683d22302e3835222f3e3c2f673e3c7376672069643d22656c66624f704c4555356a312220786d6c6e733d22687474703a2f2f7777772e77332e6f72672f323030302f7376672220786d6c6e733a786c696e6b3d22687474703a2f2f7777772e77332e6f72672f313939392f786c696e6b222076696577426f783d223020302034303020343235222073686170652d72656e646572696e673d2267656f6d6574726963507265636973696f6e2220746578742d72656e646572696e673d2267656f6d6574726963507265636973696f6e223e4142434445464748494a4b4c4d4e4f505152535455565758595a6162636465666768696a6b6c6d6e6f707172737475767778797a303132333435363738392b2f3c7061746820643d224d3131312e3332322c3134352e3734336c33332e3237312d36362e3938333030324c3136372e3339352c38362e3539346c31382e32332d32362e3338356334382e3134342c31362e3739303939382c34382e3038342c32372e3734333939382c35372e3139342c33332e3935343939384c3235392e37352c38372e356c32372e3932332c33372e3535394c3237352e3937392c3135366c2d2e3933392c31302e3235712d372e3732352c31352e3730332d382e3139362c31352e373033742d392e3231392d382e3037383030316c2d32392e3333392c32352e3439393939392d382e3839372c33382e3632382d392e3838392d332e3133342d352e3833332c392e3536322d31312e3630372d312e3531352d31392e3536312d35342e3234312d31322e3237392d382e353032712d382e37352c392e3937322d392e3530312c392e393732632d2e3735312c302d31362e3732372d32352e3134392d31372e3032372d32352e313439712d2e332c302d372e36392c332e3933326c2d31342e36382d32332e31383522207472616e73666f726d3d227472616e736c617465283020302e30303030303229222066696c6c3d222336653832383322207374726f6b653d22726762612836332c38372c3133352c302922207374726f6b652d77696474683d22302e3835222f3e3c7061746820643d224d3131322e3630362c3134362e3937337133382e3131332d32382e34312c34312e3733392d34382e30333274352e3837352c31392e36323263302c302c31352e3938322d32342e3339392c32382e37382d34392e34373263322e3337323231332d342e3634373438332c33392e3238362c31372e3530333030322c33392e3238362c31372e35303330303273332e3332392c312e3034303939382c32392e3333392c31392e3430353939386331312e3033373431322c372e3739333233362c332e3035383838342d352e3434373835352c372e352c3063352e3930363539392c372e3234353534322c352e37352c33302e3632352c352e37352c33302e3632356c372e3935382d32322e3937356c31302e3232332c31312e3739382d31322e3331372c32372e3136322e39382c31322e37332d31302e3837352c31362e3631333030322d392e3231392d382e3037383030314c3232382e3238362c3139392e333735712d382e33332c362e36313532352d382e3839372c362e3631353235742d32392e3733332d352e36343932356c2d31332e3435342d382e3338382d31352e3938322d392e3939393939382d392e3530312c382e3139313939382d31372e3032372d32342e3830352d372e36392c332e3538382d31332e3339362d32312e393535222066696c6c3d222336613663366322207374726f6b653d22726762612836332c38372c3133352c302922207374726f6b652d77696474683d22302e3835222f3e3c7061746820643d224d3136382e3939362c3132362e3431356c31312e3038312c34312e3335336c32352e3833342c31392e3235346c31312e3532312d372e3032366c372e3339332d392e3739376c352e3138372d2e3537326c342e3836332d352e3832366c382e3536372d392e3231392d2e3530382d35362e3935372d31392e3635352d352e3933372d32302e3237332d31382e3137353734374c3138382e3333312c37332e3131326c2d352e3834382c32312e303532712d31322e3832372c31352e3536352d31322e3136362c31352e35363574352e3838352c31362e373731682d362e383636222066696c6c3d222335303562356122207374726f6b653d22726762612836332c38372c3133352c302922207374726f6b652d77696474683d22302e3835222f3e3c67207472616e73666f726d3d226d6174726978282e37393634312030203020302e3739363431332032332e3631353532362033302e37393735393429223e3c7061746820643d224d37392e3537353030362c3139382e32356c2d2e3234342c31362e3438382d362e352c332e3630316c352e3238362c35322e3834322d392e3430352d332e3031346c32342e3435372c33372e3032372d31302e3033322c342e3631386c33312e3135362c32382e3432377133342e3333392d322e3337362c33332e3636372d322e3337367431352e3331392d33312e3033386c2d31312e3534332d31332e3230392d312e3638343538392c392e3432333831342d332e3733363431312d362e3935343539362d392e3333323632382d352e3530373636376c342e3232373632382c372e3436383032332d31322e3337392d352e3131333537346c342e3836303939342c352e3934383734342d31312e3232363439322c322e3631333432314c3131382e3730363030362c3238352e3431346c32342e32352d31312e30336c332e362c382e30316c31352e3535372d31322e3038312d31302e3337372d32392e31372d31302e3532362c352e3831352d31302e3735342d332e3632392d352e3131372d31342e393531712d352e3932382e3632322d352e3932382d2e333738742d392e3135332d382e313235682d31372e3038396c2d31332e3833382d32312e363235222066696c6c3d222336653832383322207374726f6b653d227267626128302c302c302c302922207374726f6b652d77696474683d22302e383522207374726f6b652d6f7061636974793d2230222f3e3c7061746820643d224d39302e3234323030362c3232392e3133316c31352e3639332c34322e30356c382e3634362d392e39316c31362e3837352d352e3930356c32302e3532322d31352e3235346c392e3639352c32382e3234312d31322e3436352c31332e3433346c342e3439332d31382e3032312d382e3237372d382e342d33302e3436362c32362e3432316c362e3832312c33382e3038366c32342e3533362d312e33396c382e3836312d31322e3938332d332e3139382d31332e3233366c31312e3330312c31322e3536312d31342e3037312c33312e3033382d32362e3232342d362e3837382d382e3238392c332e3530396c322e3337342d372e3938312d31312e3133342d33322e3839372d32302e3839312d31352e3234316c382e3132352d362e30382d372e3130352d32322e3538396c372e3130352d312e3535382d322e3932372d31362e353233222066696c6c3d222339636238623822207374726f6b653d22726762612836332c38372c3133352c302922207374726f6b652d77696474683d22302e3835222f3e3c7061746820643d224d39332e3136393030362c3232302e3338386c31372e3038392d362e3531336c392e3135332c31342e32356c362e3132312c322e3938316c322e3033392c31332e3236396c362e3034322c342e3735312d372e3631313030362c342e343431712d382e3933323939342d31372e3835362d382e3933323939342d31382e3035742d392e3338382c382e3835386c2d31342e3531322d32312e393831762d322e303036222066696c6c3d222335303562356122207374726f6b653d22726762612836332c38372c3133352c302922207374726f6b652d77696474683d22302e3835222f3e3c7061746820643d224d3132372e3537313030352c3239302e3632356c382e3737383033382c342e34303136393876342e3236363433346c2d31332e3434333939312c31302e3331373833352d312e3639353939382d31302e3331373833356c352e3933303435372d312e3335363936396c352e30373630372d312e32353634353222207472616e73666f726d3d227472616e736c61746528312e32353634353420302e32303130333329222066696c6c3d222335303562356122207374726f6b653d22726762612836332c38372c3133352c302922207374726f6b652d77696474683d22302e3835222f3e3c2f673e3c67207472616e73666f726d3d226d6174726978282d2e37393634312030203020302e373936343133203338382e3832313138322033302e373937353829223e3c7061746820643d224d37392e3537353030362c3139382e32356c2d2e3234342c31362e3438382d362e352c332e3630316c352e3238362c35322e3834322d392e3430352d332e3031346c32342e3435372c33372e3032372d31302e3033322c342e3631386c33312e3135362c32382e3432377133342e3333392d322e3337362c33332e3636372d322e3337367431352e3331392d33312e3033386c2d31312e3534332d31332e3230392d312e3638343538392c392e3432333831342d332e3733363431312d362e3935343539362d392e3333323632382d352e3530373636376c342e3232373632382c372e3436383032332d31322e3337392d352e3131333537346c342e3836303939342c352e3934383734342d31312e3232363439322c322e3631333432314c3131382e3730363030362c3238352e3431346c32342e32352d31312e30336c332e362c382e30316c31352e3535372d31322e3038312d31302e3337372d32392e31372d31302e3532362c352e3831352d31302e3735342d332e3632392d352e3131372d31342e393531712d352e3932382e3632322d352e3932382d2e333738742d392e3135332d382e313235682d31372e3038396c2d31332e3833382d32312e363235222066696c6c3d222336653832383322207374726f6b653d227267626128302c302c302c302922207374726f6b652d77696474683d22302e383522207374726f6b652d6f7061636974793d2230222f3e3c7061746820643d224d39302e3234323030362c3232392e3133316c31352e3639332c34322e30356c382e3634362d392e39316c31362e3837352d352e3930356c32302e3532322d31352e3235346c392e3639352c32382e3234312d31322e3436352c31332e3433346c342e3439332d31382e3032312d382e3237372d382e342d33302e3436362c32362e3432316c362e3832312c33382e3038366c32342e3533362d312e33396c382e3836312d31322e3938332d332e3139382d31332e3233366c31312e3330312c31322e3536312d31342e3037312c33312e3033382d32362e3232342d362e3837382d382e3238392c332e3530396c322e3337342d372e3938312d31312e3133342d33322e3839372d32302e3839312d31352e3234316c382e3132352d362e30382d372e3130352d32322e3538396c372e3130352d312e3535382d322e3932372d31362e353233222066696c6c3d222339636238623822207374726f6b653d22726762612836332c38372c3133352c302922207374726f6b652d77696474683d22302e3835222f3e3c7061746820643d224d39332e3136393030362c3232302e3338386c31372e3038392d362e3531336c392e3135332c31342e32356c362e3132312c322e3938316c322e3033392c31332e3236396c362e3034322c342e3735312d372e3631313030362c342e343431712d382e3933323939342d31372e3835362d382e3933323939342d31382e3035742d392e3338382c382e3835386c2d31342e3531322d32312e393831762d322e303036222066696c6c3d222335303562356122207374726f6b653d22726762612836332c38372c3133352c302922207374726f6b652d77696474683d22302e3835222f3e3c7061746820643d224d3132372e3537313030352c3239302e3632356c382e3737383033382c342e34303136393876342e3236363433346c2d31332e3434333939312c31302e3331373833352d312e3639353939382d31302e3331373833356c352e3933303435372d312e3335363936396c352e30373630372d312e32353634353222207472616e73666f726d3d227472616e736c61746528312e32353634353420302e32303130333329222066696c6c3d222335303562356122207374726f6b653d22726762612836332c38372c3133352c302922207374726f6b652d77696474683d22302e3835222f3e3c2f673ea26469706673582212203f50c0d4cec9cf4d466c269524dadcb95010b5b2e494a2612888bf9d5b9d537064736f6c63430008070033",
			"opcodes": "PUSH1 0xC0 PUSH1 0x40 MSTORE PUSH1 0x1 PUSH1 0xA SSTORE CALLVALUE DUP1 ISZERO PUSH3 0x16 JUMPI PUSH1 0x0 DUP1 REVERT JUMPDEST POP PUSH20 0x8C7382F9D8F56B33781FE506E897A4F1E2D17255 PUSH20 0x326C977E6EFC84E512BB9C30F76E30C160ED06FB PUSH1 0x40 MLOAD DUP1 PUSH1 0x40 ADD PUSH1 0x40 MSTORE DUP1 PUSH1 0x3 DUP2 MSTORE PUSH1 0x20 ADD PUSH32 0x4552430000000000000000000000000000000000000000000000000000000000 DUP2 MSTORE POP PUSH1 0x40 MLOAD DUP1 PUSH1 0x40 ADD PUSH1 0x40 MSTORE DUP1 PUSH1 0x3 DUP2 MSTORE PUSH1 0x20 ADD PUSH32 0x4552430000000000000000000000000000000000000000000000000000000000 DUP2 MSTORE POP DUP2 PUSH1 0x0 SWAP1 DUP1 MLOAD SWAP1 PUSH1 0x20 ADD SWAP1 PUSH3 0xC5 SWAP3 SWAP2 SWAP1 PUSH3 0x1C3 JUMP JUMPDEST POP DUP1 PUSH1 0x1 SWAP1 DUP1 MLOAD SWAP1 PUSH1 0x20 ADD SWAP1 PUSH3 0xDE SWAP3 SWAP2 SWAP1 PUSH3 0x1C3 JUMP JUMPDEST POP POP POP DUP2 PUSH20 0xFFFFFFFFFFFFFFFFFFFFFFFFFFFFFFFFFFFFFFFF AND PUSH1 0xA0 DUP2 PUSH20 0xFFFFFFFFFFFFFFFFFFFFFFFFFFFFFFFFFFFFFFFF AND PUSH1 0x60 SHL DUP2 MSTORE POP POP DUP1 PUSH20 0xFFFFFFFFFFFFFFFFFFFFFFFFFFFFFFFFFFFFFFFF AND PUSH1 0x80 DUP2 PUSH20 0xFFFFFFFFFFFFFFFFFFFFFFFFFFFFFFFFFFFFFFFF AND PUSH1 0x60 SHL DUP2 MSTORE POP POP POP POP PUSH32 0x6E75B569A01EF56D18CAB6A8E71E6600D6CE853834D4A5748B720D06F878B3A4 PUSH1 0x0 SHL PUSH1 0x10 DUP2 SWAP1 SSTORE POP PUSH6 0x5AF3107A4000 PUSH1 0x11 DUP2 SWAP1 SSTORE POP PUSH1 0x0 PUSH1 0x7 DUP2 SWAP1 SSTORE POP PUSH2 0x22B PUSH1 0x8 DUP2 SWAP1 SSTORE POP PUSH3 0x87A23 PUSH1 0x12 PUSH1 0x0 PUSH1 0x1 DUP2 MSTORE PUSH1 0x20 ADD SWAP1 DUP2 MSTORE PUSH1 0x20 ADD PUSH1 0x0 KECCAK256 DUP2 SWAP1 SSTORE POP PUSH1 0x1 PUSH1 0x9 DUP2 SWAP1 SSTORE POP PUSH3 0x2D8 JUMP JUMPDEST DUP3 DUP1 SLOAD PUSH3 0x1D1 SWAP1 PUSH3 0x273 JUMP JUMPDEST SWAP1 PUSH1 0x0 MSTORE PUSH1 0x20 PUSH1 0x0 KECCAK256 SWAP1 PUSH1 0x1F ADD PUSH1 0x20 SWAP1 DIV DUP2 ADD SWAP3 DUP3 PUSH3 0x1F5 JUMPI PUSH1 0x0 DUP6 SSTORE PUSH3 0x241 JUMP JUMPDEST DUP3 PUSH1 0x1F LT PUSH3 0x210 JUMPI DUP1 MLOAD PUSH1 0xFF NOT AND DUP4 DUP1 ADD OR DUP6 SSTORE PUSH3 0x241 JUMP JUMPDEST DUP3 DUP1 ADD PUSH1 0x1 ADD DUP6 SSTORE DUP3 ISZERO PUSH3 0x241 JUMPI SWAP2 DUP3 ADD JUMPDEST DUP3 DUP2 GT ISZERO PUSH3 0x240 JUMPI DUP3 MLOAD DUP3 SSTORE SWAP2 PUSH1 0x20 ADD SWAP2 SWAP1 PUSH1 0x1 ADD SWAP1 PUSH3 0x223 JUMP JUMPDEST JUMPDEST POP SWAP1 POP PUSH3 0x250 SWAP2 SWAP1 PUSH3 0x254 JUMP JUMPDEST POP SWAP1 JUMP JUMPDEST JUMPDEST DUP1 DUP3 GT ISZERO PUSH3 0x26F JUMPI PUSH1 0x0 DUP2 PUSH1 0x0 SWAP1 SSTORE POP PUSH1 0x1 ADD PUSH3 0x255 JUMP JUMPDEST POP SWAP1 JUMP JUMPDEST PUSH1 0x0 PUSH1 0x2 DUP3 DIV SWAP1 POP PUSH1 0x1 DUP3 AND DUP1 PUSH3 0x28C JUMPI PUSH1 0x7F DUP3 AND SWAP2 POP JUMPDEST PUSH1 0x20 DUP3 LT DUP2 EQ ISZERO PUSH3 0x2A3 JUMPI PUSH3 0x2A2 PUSH3 0x2A9 JUMP JUMPDEST JUMPDEST POP SWAP2 SWAP1 POP JUMP JUMPDEST PUSH32 0x4E487B7100000000000000000000000000000000000000000000000000000000 PUSH1 0x0 MSTORE PUSH1 0x22 PUSH1 0x4 MSTORE PUSH1 0x24 PUSH1 0x0 REVERT JUMPDEST PUSH1 0x80 MLOAD PUSH1 0x60 SHR PUSH1 0xA0 MLOAD PUSH1 0x60 SHR PUSH2 0x561C PUSH3 0x312 PUSH1 0x0 CODECOPY PUSH1 0x0 DUP2 DUP2 PUSH2 0x9D7 ADD MSTORE PUSH2 0x205F ADD MSTORE PUSH1 0x0 DUP2 DUP2 PUSH2 0x15D6 ADD MSTORE PUSH2 0x2023 ADD MSTORE PUSH2 0x561C PUSH1 0x0 RETURN INVALID PUSH1 0x80 PUSH1 0x40 MSTORE PUSH1 0x4 CALLDATASIZE LT PUSH2 0x114 JUMPI PUSH1 0x0 CALLDATALOAD PUSH1 0xE0 SHR DUP1 PUSH4 0x70A08231 GT PUSH2 0xA0 JUMPI DUP1 PUSH4 0xA9010B0B GT PUSH2 0x64 JUMPI DUP1 PUSH4 0xA9010B0B EQ PUSH2 0x3C3 JUMPI DUP1 PUSH4 0xB88D4FDE EQ PUSH2 0x401 JUMPI DUP1 PUSH4 0xC0702D9C EQ PUSH2 0x42A JUMPI DUP1 PUSH4 0xC87B56DD EQ PUSH2 0x434 JUMPI DUP1 PUSH4 0xE985E9C5 EQ PUSH2 0x471 JUMPI PUSH2 0x114 JUMP JUMPDEST DUP1 PUSH4 0x70A08231 EQ PUSH2 0x2CC JUMPI DUP1 PUSH4 0x94985DDD EQ PUSH2 0x309 JUMPI DUP1 PUSH4 0x95D89B41 EQ PUSH2 0x332 JUMPI DUP1 PUSH4 0xA0C4442D EQ PUSH2 0x35D JUMPI DUP1 PUSH4 0xA22CB465 EQ PUSH2 0x39A JUMPI PUSH2 0x114 JUMP JUMPDEST DUP1 PUSH4 0x1581B600 GT PUSH2 0xE7 JUMPI DUP1 PUSH4 0x1581B600 EQ PUSH2 0x1E7 JUMPI DUP1 PUSH4 0x23B872DD EQ PUSH2 0x212 JUMPI DUP1 PUSH4 0x3EAAF86B EQ PUSH2 0x23B JUMPI DUP1 PUSH4 0x42842E0E EQ PUSH2 0x266 JUMPI DUP1 PUSH4 0x6352211E EQ PUSH2 0x28F JUMPI PUSH2 0x114 JUMP JUMPDEST DUP1 PUSH4 0x1FFC9A7 EQ PUSH2 0x119 JUMPI DUP1 PUSH4 0x6FDDE03 EQ PUSH2 0x156 JUMPI DUP1 PUSH4 0x81812FC EQ PUSH2 0x181 JUMPI DUP1 PUSH4 0x95EA7B3 EQ PUSH2 0x1BE JUMPI JUMPDEST PUSH1 0x0 DUP1 REVERT JUMPDEST CALLVALUE DUP1 ISZERO PUSH2 0x125 JUMPI PUSH1 0x0 DUP1 REVERT JUMPDEST POP PUSH2 0x140 PUSH1 0x4 DUP1 CALLDATASIZE SUB DUP2 ADD SWAP1 PUSH2 0x13B SWAP2 SWAP1 PUSH2 0x27EE JUMP JUMPDEST PUSH2 0x4AE JUMP JUMPDEST PUSH1 0x40 MLOAD PUSH2 0x14D SWAP2 SWAP1 PUSH2 0x2F0E JUMP JUMPDEST PUSH1 0x40 MLOAD DUP1 SWAP2 SUB SWAP1 RETURN JUMPDEST CALLVALUE DUP1 ISZERO PUSH2 0x162 JUMPI PUSH1 0x0 DUP1 REVERT JUMPDEST POP PUSH2 0x16B PUSH2 0x590 JUMP JUMPDEST PUSH1 0x40 MLOAD PUSH2 0x178 SWAP2 SWAP1 PUSH2 0x2F97 JUMP JUMPDEST PUSH1 0x40 MLOAD DUP1 SWAP2 SUB SWAP1 RETURN JUMPDEST CALLVALUE DUP1 ISZERO PUSH2 0x18D JUMPI PUSH1 0x0 DUP1 REVERT JUMPDEST POP PUSH2 0x1A8 PUSH1 0x4 DUP1 CALLDATASIZE SUB DUP2 ADD SWAP1 PUSH2 0x1A3 SWAP2 SWAP1 PUSH2 0x2848 JUMP JUMPDEST PUSH2 0x622 JUMP JUMPDEST PUSH1 0x40 MLOAD PUSH2 0x1B5 SWAP2 SWAP1 PUSH2 0x2E69 JUMP JUMPDEST PUSH1 0x40 MLOAD DUP1 SWAP2 SUB SWAP1 RETURN JUMPDEST CALLVALUE DUP1 ISZERO PUSH2 0x1CA JUMPI PUSH1 0x0 DUP1 REVERT JUMPDEST POP PUSH2 0x1E5 PUSH1 0x4 DUP1 CALLDATASIZE SUB DUP2 ADD SWAP1 PUSH2 0x1E0 SWAP2 SWAP1 PUSH2 0x2741 JUMP JUMPDEST PUSH2 0x6A7 JUMP JUMPDEST STOP JUMPDEST CALLVALUE DUP1 ISZERO PUSH2 0x1F3 JUMPI PUSH1 0x0 DUP1 REVERT JUMPDEST POP PUSH2 0x1FC PUSH2 0x7BF JUMP JUMPDEST PUSH1 0x40 MLOAD PUSH2 0x209 SWAP2 SWAP1 PUSH2 0x2E69 JUMP JUMPDEST PUSH1 0x40 MLOAD DUP1 SWAP2 SUB SWAP1 RETURN JUMPDEST CALLVALUE DUP1 ISZERO PUSH2 0x21E JUMPI PUSH1 0x0 DUP1 REVERT JUMPDEST POP PUSH2 0x239 PUSH1 0x4 DUP1 CALLDATASIZE SUB DUP2 ADD SWAP1 PUSH2 0x234 SWAP2 SWAP1 PUSH2 0x262B JUMP JUMPDEST PUSH2 0x7E5 JUMP JUMPDEST STOP JUMPDEST CALLVALUE DUP1 ISZERO PUSH2 0x247 JUMPI PUSH1 0x0 DUP1 REVERT JUMPDEST POP PUSH2 0x250 PUSH2 0x845 JUMP JUMPDEST PUSH1 0x40 MLOAD PUSH2 0x25D SWAP2 SWAP1 PUSH2 0x3209 JUMP JUMPDEST PUSH1 0x40 MLOAD DUP1 SWAP2 SUB SWAP1 RETURN JUMPDEST CALLVALUE DUP1 ISZERO PUSH2 0x272 JUMPI PUSH1 0x0 DUP1 REVERT JUMPDEST POP PUSH2 0x28D PUSH1 0x4 DUP1 CALLDATASIZE SUB DUP2 ADD SWAP1 PUSH2 0x288 SWAP2 SWAP1 PUSH2 0x262B JUMP JUMPDEST PUSH2 0x84B JUMP JUMPDEST STOP JUMPDEST CALLVALUE DUP1 ISZERO PUSH2 0x29B JUMPI PUSH1 0x0 DUP1 REVERT JUMPDEST POP PUSH2 0x2B6 PUSH1 0x4 DUP1 CALLDATASIZE SUB DUP2 ADD SWAP1 PUSH2 0x2B1 SWAP2 SWAP1 PUSH2 0x2848 JUMP JUMPDEST PUSH2 0x86B JUMP JUMPDEST PUSH1 0x40 MLOAD PUSH2 0x2C3 SWAP2 SWAP1 PUSH2 0x2E69 JUMP JUMPDEST PUSH1 0x40 MLOAD DUP1 SWAP2 SUB SWAP1 RETURN JUMPDEST CALLVALUE DUP1 ISZERO PUSH2 0x2D8 JUMPI PUSH1 0x0 DUP1 REVERT JUMPDEST POP PUSH2 0x2F3 PUSH1 0x4 DUP1 CALLDATASIZE SUB DUP2 ADD SWAP1 PUSH2 0x2EE SWAP2 SWAP1 PUSH2 0x25BE JUMP JUMPDEST PUSH2 0x91D JUMP JUMPDEST PUSH1 0x40 MLOAD PUSH2 0x300 SWAP2 SWAP1 PUSH2 0x3209 JUMP JUMPDEST PUSH1 0x40 MLOAD DUP1 SWAP2 SUB SWAP1 RETURN JUMPDEST CALLVALUE DUP1 ISZERO PUSH2 0x315 JUMPI PUSH1 0x0 DUP1 REVERT JUMPDEST POP PUSH2 0x330 PUSH1 0x4 DUP1 CALLDATASIZE SUB DUP2 ADD SWAP1 PUSH2 0x32B SWAP2 SWAP1 PUSH2 0x27AE JUMP JUMPDEST PUSH2 0x9D5 JUMP JUMPDEST STOP JUMPDEST CALLVALUE DUP1 ISZERO PUSH2 0x33E JUMPI PUSH1 0x0 DUP1 REVERT JUMPDEST POP PUSH2 0x347 PUSH2 0xA71 JUMP JUMPDEST PUSH1 0x40 MLOAD PUSH2 0x354 SWAP2 SWAP1 PUSH2 0x2F97 JUMP JUMPDEST PUSH1 0x40 MLOAD DUP1 SWAP2 SUB SWAP1 RETURN JUMPDEST CALLVALUE DUP1 ISZERO PUSH2 0x369 JUMPI PUSH1 0x0 DUP1 REVERT JUMPDEST POP PUSH2 0x384 PUSH1 0x4 DUP1 CALLDATASIZE SUB DUP2 ADD SWAP1 PUSH2 0x37F SWAP2 SWAP1 PUSH2 0x2848 JUMP JUMPDEST PUSH2 0xB03 JUMP JUMPDEST PUSH1 0x40 MLOAD PUSH2 0x391 SWAP2 SWAP1 PUSH2 0x3209 JUMP JUMPDEST PUSH1 0x40 MLOAD DUP1 SWAP2 SUB SWAP1 RETURN JUMPDEST CALLVALUE DUP1 ISZERO PUSH2 0x3A6 JUMPI PUSH1 0x0 DUP1 REVERT JUMPDEST POP PUSH2 0x3C1 PUSH1 0x4 DUP1 CALLDATASIZE SUB DUP2 ADD SWAP1 PUSH2 0x3BC SWAP2 SWAP1 PUSH2 0x2701 JUMP JUMPDEST PUSH2 0xB20 JUMP JUMPDEST STOP JUMPDEST CALLVALUE DUP1 ISZERO PUSH2 0x3CF JUMPI PUSH1 0x0 DUP1 REVERT JUMPDEST POP PUSH2 0x3EA PUSH1 0x4 DUP1 CALLDATASIZE SUB DUP2 ADD SWAP1 PUSH2 0x3E5 SWAP2 SWAP1 PUSH2 0x2848 JUMP JUMPDEST PUSH2 0xB36 JUMP JUMPDEST PUSH1 0x40 MLOAD PUSH2 0x3F8 SWAP3 SWAP2 SWAP1 PUSH2 0x2FB9 JUMP JUMPDEST PUSH1 0x40 MLOAD DUP1 SWAP2 SUB SWAP1 RETURN JUMPDEST CALLVALUE DUP1 ISZERO PUSH2 0x40D JUMPI PUSH1 0x0 DUP1 REVERT JUMPDEST POP PUSH2 0x428 PUSH1 0x4 DUP1 CALLDATASIZE SUB DUP2 ADD SWAP1 PUSH2 0x423 SWAP2 SWAP1 PUSH2 0x267E JUMP JUMPDEST PUSH2 0xBFC JUMP JUMPDEST STOP JUMPDEST PUSH2 0x432 PUSH2 0xC5E JUMP JUMPDEST STOP JUMPDEST CALLVALUE DUP1 ISZERO PUSH2 0x440 JUMPI PUSH1 0x0 DUP1 REVERT JUMPDEST POP PUSH2 0x45B PUSH1 0x4 DUP1 CALLDATASIZE SUB DUP2 ADD SWAP1 PUSH2 0x456 SWAP2 SWAP1 PUSH2 0x2848 JUMP JUMPDEST PUSH2 0xD25 JUMP JUMPDEST PUSH1 0x40 MLOAD PUSH2 0x468 SWAP2 SWAP1 PUSH2 0x2F97 JUMP JUMPDEST PUSH1 0x40 MLOAD DUP1 SWAP2 SUB SWAP1 RETURN JUMPDEST CALLVALUE DUP1 ISZERO PUSH2 0x47D JUMPI PUSH1 0x0 DUP1 REVERT JUMPDEST POP PUSH2 0x498 PUSH1 0x4 DUP1 CALLDATASIZE SUB DUP2 ADD SWAP1 PUSH2 0x493 SWAP2 SWAP1 PUSH2 0x25EB JUMP JUMPDEST PUSH2 0xE33 JUMP JUMPDEST PUSH1 0x40 MLOAD PUSH2 0x4A5 SWAP2 SWAP1 PUSH2 0x2F0E JUMP JUMPDEST PUSH1 0x40 MLOAD DUP1 SWAP2 SUB SWAP1 RETURN JUMPDEST PUSH1 0x0 PUSH32 0x80AC58CD00000000000000000000000000000000000000000000000000000000 PUSH28 0xFFFFFFFFFFFFFFFFFFFFFFFFFFFFFFFFFFFFFFFFFFFFFFFFFFFFFFFF NOT AND DUP3 PUSH28 0xFFFFFFFFFFFFFFFFFFFFFFFFFFFFFFFFFFFFFFFFFFFFFFFFFFFFFFFF NOT AND EQ DUP1 PUSH2 0x579 JUMPI POP PUSH32 0x5B5E139F00000000000000000000000000000000000000000000000000000000 PUSH28 0xFFFFFFFFFFFFFFFFFFFFFFFFFFFFFFFFFFFFFFFFFFFFFFFFFFFFFFFF NOT AND DUP3 PUSH28 0xFFFFFFFFFFFFFFFFFFFFFFFFFFFFFFFFFFFFFFFFFFFFFFFFFFFFFFFF NOT AND EQ JUMPDEST DUP1 PUSH2 0x589 JUMPI POP PUSH2 0x588 DUP3 PUSH2 0xEC7 JUMP JUMPDEST JUMPDEST SWAP1 POP SWAP2 SWAP1 POP JUMP JUMPDEST PUSH1 0x60 PUSH1 0x0 DUP1 SLOAD PUSH2 0x59F SWAP1 PUSH2 0x34BB JUMP JUMPDEST DUP1 PUSH1 0x1F ADD PUSH1 0x20 DUP1 SWAP2 DIV MUL PUSH1 0x20 ADD PUSH1 0x40 MLOAD SWAP1 DUP2 ADD PUSH1 0x40 MSTORE DUP1 SWAP3 SWAP2 SWAP1 DUP2 DUP2 MSTORE PUSH1 0x20 ADD DUP3 DUP1 SLOAD PUSH2 0x5CB SWAP1 PUSH2 0x34BB JUMP JUMPDEST DUP1 ISZERO PUSH2 0x618 JUMPI DUP1 PUSH1 0x1F LT PUSH2 0x5ED JUMPI PUSH2 0x100 DUP1 DUP4 SLOAD DIV MUL DUP4 MSTORE SWAP2 PUSH1 0x20 ADD SWAP2 PUSH2 0x618 JUMP JUMPDEST DUP3 ADD SWAP2 SWAP1 PUSH1 0x0 MSTORE PUSH1 0x20 PUSH1 0x0 KECCAK256 SWAP1 JUMPDEST DUP2 SLOAD DUP2 MSTORE SWAP1 PUSH1 0x1 ADD SWAP1 PUSH1 0x20 ADD DUP1 DUP4 GT PUSH2 0x5FB JUMPI DUP3 SWAP1 SUB PUSH1 0x1F AND DUP3 ADD SWAP2 JUMPDEST POP POP POP POP POP SWAP1 POP SWAP1 JUMP JUMPDEST PUSH1 0x0 PUSH2 0x62D DUP3 PUSH2 0xF31 JUMP JUMPDEST PUSH2 0x66C JUMPI PUSH1 0x40 MLOAD PUSH32 0x8C379A000000000000000000000000000000000000000000000000000000000 DUP2 MSTORE PUSH1 0x4 ADD PUSH2 0x663 SWAP1 PUSH2 0x3189 JUMP JUMPDEST PUSH1 0x40 MLOAD DUP1 SWAP2 SUB SWAP1 REVERT JUMPDEST PUSH1 0x4 PUSH1 0x0 DUP4 DUP2 MSTORE PUSH1 0x20 ADD SWAP1 DUP2 MSTORE PUSH1 0x20 ADD PUSH1 0x0 KECCAK256 PUSH1 0x0 SWAP1 SLOAD SWAP1 PUSH2 0x100 EXP SWAP1 DIV PUSH20 0xFFFFFFFFFFFFFFFFFFFFFFFFFFFFFFFFFFFFFFFF AND SWAP1 POP SWAP2 SWAP1 POP JUMP JUMPDEST PUSH1 0x0 PUSH2 0x6B2 DUP3 PUSH2 0x86B JUMP JUMPDEST SWAP1 POP DUP1 PUSH20 0xFFFFFFFFFFFFFFFFFFFFFFFFFFFFFFFFFFFFFFFF AND DUP4 PUSH20 0xFFFFFFFFFFFFFFFFFFFFFFFFFFFFFFFFFFFFFFFF AND EQ ISZERO PUSH2 0x723 JUMPI PUSH1 0x40 MLOAD PUSH32 0x8C379A000000000000000000000000000000000000000000000000000000000 DUP2 MSTORE PUSH1 0x4 ADD PUSH2 0x71A SWAP1 PUSH2 0x31C9 JUMP JUMPDEST PUSH1 0x40 MLOAD DUP1 SWAP2 SUB SWAP1 REVERT JUMPDEST DUP1 PUSH20 0xFFFFFFFFFFFFFFFFFFFFFFFFFFFFFFFFFFFFFFFF AND PUSH2 0x742 PUSH2 0xF9D JUMP JUMPDEST PUSH20 0xFFFFFFFFFFFFFFFFFFFFFFFFFFFFFFFFFFFFFFFF AND EQ DUP1 PUSH2 0x771 JUMPI POP PUSH2 0x770 DUP2 PUSH2 0x76B PUSH2 0xF9D JUMP JUMPDEST PUSH2 0xE33 JUMP JUMPDEST JUMPDEST PUSH2 0x7B0 JUMPI PUSH1 0x40 MLOAD PUSH32 0x8C379A000000000000000000000000000000000000000000000000000000000 DUP2 MSTORE PUSH1 0x4 ADD PUSH2 0x7A7 SWAP1 PUSH2 0x3129 JUMP JUMPDEST PUSH1 0x40 MLOAD DUP1 SWAP2 SUB SWAP1 REVERT JUMPDEST PUSH2 0x7BA DUP4 DUP4 PUSH2 0xFA5 JUMP JUMPDEST POP POP POP JUMP JUMPDEST PUSH1 0xC PUSH1 0x0 SWAP1 SLOAD SWAP1 PUSH2 0x100 EXP SWAP1 DIV PUSH20 0xFFFFFFFFFFFFFFFFFFFFFFFFFFFFFFFFFFFFFFFF AND DUP2 JUMP JUMPDEST PUSH2 0x7F6 PUSH2 0x7F0 PUSH2 0xF9D JUMP JUMPDEST DUP3 PUSH2 0x105E JUMP JUMPDEST PUSH2 0x835 JUMPI PUSH1 0x40 MLOAD PUSH32 0x8C379A000000000000000000000000000000000000000000000000000000000 DUP2 MSTORE PUSH1 0x4 ADD PUSH2 0x82C SWAP1 PUSH2 0x31E9 JUMP JUMPDEST PUSH1 0x40 MLOAD DUP1 SWAP2 SUB SWAP1 REVERT JUMPDEST PUSH2 0x840 DUP4 DUP4 DUP4 PUSH2 0x113C JUMP JUMPDEST POP POP POP JUMP JUMPDEST PUSH1 0x7 SLOAD DUP2 JUMP JUMPDEST PUSH2 0x866 DUP4 DUP4 DUP4 PUSH1 0x40 MLOAD DUP1 PUSH1 0x20 ADD PUSH1 0x40 MSTORE DUP1 PUSH1 0x0 DUP2 MSTORE POP PUSH2 0xBFC JUMP JUMPDEST POP POP POP JUMP JUMPDEST PUSH1 0x0 DUP1 PUSH1 0x2 PUSH1 0x0 DUP5 DUP2 MSTORE PUSH1 0x20 ADD SWAP1 DUP2 MSTORE PUSH1 0x20 ADD PUSH1 0x0 KECCAK256 PUSH1 0x0 SWAP1 SLOAD SWAP1 PUSH2 0x100 EXP SWAP1 DIV PUSH20 0xFFFFFFFFFFFFFFFFFFFFFFFFFFFFFFFFFFFFFFFF AND SWAP1 POP PUSH1 0x0 PUSH20 0xFFFFFFFFFFFFFFFFFFFFFFFFFFFFFFFFFFFFFFFF AND DUP2 PUSH20 0xFFFFFFFFFFFFFFFFFFFFFFFFFFFFFFFFFFFFFFFF AND EQ ISZERO PUSH2 0x914 JUMPI PUSH1 0x40 MLOAD PUSH32 0x8C379A000000000000000000000000000000000000000000000000000000000 DUP2 MSTORE PUSH1 0x4 ADD PUSH2 0x90B SWAP1 PUSH2 0x3149 JUMP JUMPDEST PUSH1 0x40 MLOAD DUP1 SWAP2 SUB SWAP1 REVERT JUMPDEST DUP1 SWAP2 POP POP SWAP2 SWAP1 POP JUMP JUMPDEST PUSH1 0x0 DUP1 PUSH20 0xFFFFFFFFFFFFFFFFFFFFFFFFFFFFFFFFFFFFFFFF AND DUP3 PUSH20 0xFFFFFFFFFFFFFFFFFFFFFFFFFFFFFFFFFFFFFFFF AND EQ ISZERO PUSH2 0x98E JUMPI PUSH1 0x40 MLOAD PUSH32 0x8C379A000000000000000000000000000000000000000000000000000000000 DUP2 MSTORE PUSH1 0x4 ADD PUSH2 0x985 SWAP1 PUSH2 0x3109 JUMP JUMPDEST PUSH1 0x40 MLOAD DUP1 SWAP2 SUB SWAP1 REVERT JUMPDEST PUSH1 0x3 PUSH1 0x0 DUP4 PUSH20 0xFFFFFFFFFFFFFFFFFFFFFFFFFFFFFFFFFFFFFFFF AND PUSH20 0xFFFFFFFFFFFFFFFFFFFFFFFFFFFFFFFFFFFFFFFF AND DUP2 MSTORE PUSH1 0x20 ADD SWAP1 DUP2 MSTORE PUSH1 0x20 ADD PUSH1 0x0 KECCAK256 SLOAD SWAP1 POP SWAP2 SWAP1 POP JUMP JUMPDEST PUSH32 0x0 PUSH20 0xFFFFFFFFFFFFFFFFFFFFFFFFFFFFFFFFFFFFFFFF AND CALLER PUSH20 0xFFFFFFFFFFFFFFFFFFFFFFFFFFFFFFFFFFFFFFFF AND EQ PUSH2 0xA63 JUMPI PUSH1 0x40 MLOAD PUSH32 0x8C379A000000000000000000000000000000000000000000000000000000000 DUP2 MSTORE PUSH1 0x4 ADD PUSH2 0xA5A SWAP1 PUSH2 0x31A9 JUMP JUMPDEST PUSH1 0x40 MLOAD DUP1 SWAP2 SUB SWAP1 REVERT JUMPDEST PUSH2 0xA6D DUP3 DUP3 PUSH2 0x13A3 JUMP JUMPDEST POP POP JUMP JUMPDEST PUSH1 0x60 PUSH1 0x1 DUP1 SLOAD PUSH2 0xA80 SWAP1 PUSH2 0x34BB JUMP JUMPDEST DUP1 PUSH1 0x1F ADD PUSH1 0x20 DUP1 SWAP2 DIV MUL PUSH1 0x20 ADD PUSH1 0x40 MLOAD SWAP1 DUP2 ADD PUSH1 0x40 MSTORE DUP1 SWAP3 SWAP2 SWAP1 DUP2 DUP2 MSTORE PUSH1 0x20 ADD DUP3 DUP1 SLOAD PUSH2 0xAAC SWAP1 PUSH2 0x34BB JUMP JUMPDEST DUP1 ISZERO PUSH2 0xAF9 JUMPI DUP1 PUSH1 0x1F LT PUSH2 0xACE JUMPI PUSH2 0x100 DUP1 DUP4 SLOAD DIV MUL DUP4 MSTORE SWAP2 PUSH1 0x20 ADD SWAP2 PUSH2 0xAF9 JUMP JUMPDEST DUP3 ADD SWAP2 SWAP1 PUSH1 0x0 MSTORE PUSH1 0x20 PUSH1 0x0 KECCAK256 SWAP1 JUMPDEST DUP2 SLOAD DUP2 MSTORE SWAP1 PUSH1 0x1 ADD SWAP1 PUSH1 0x20 ADD DUP1 DUP4 GT PUSH2 0xADC JUMPI DUP3 SWAP1 SUB PUSH1 0x1F AND DUP3 ADD SWAP2 JUMPDEST POP POP POP POP POP SWAP1 POP SWAP1 JUMP JUMPDEST PUSH1 0x0 PUSH1 0x12 PUSH1 0x0 DUP4 DUP2 MSTORE PUSH1 0x20 ADD SWAP1 DUP2 MSTORE PUSH1 0x20 ADD PUSH1 0x0 KECCAK256 SLOAD SWAP1 POP SWAP2 SWAP1 POP JUMP JUMPDEST PUSH2 0xB32 PUSH2 0xB2B PUSH2 0xF9D JUMP JUMPDEST DUP4 DUP4 PUSH2 0x13E8 JUMP JUMPDEST POP POP JUMP JUMPDEST PUSH1 0x60 PUSH1 0x0 PUSH1 0xF PUSH1 0x0 DUP5 DUP2 MSTORE PUSH1 0x20 ADD SWAP1 DUP2 MSTORE PUSH1 0x20 ADD PUSH1 0x0 KECCAK256 PUSH1 0x0 ADD PUSH1 0xF PUSH1 0x0 DUP6 DUP2 MSTORE PUSH1 0x20 ADD SWAP1 DUP2 MSTORE PUSH1 0x20 ADD PUSH1 0x0 KECCAK256 PUSH1 0x1 ADD SLOAD DUP2 DUP1 SLOAD PUSH2 0xB73 SWAP1 PUSH2 0x34BB JUMP JUMPDEST DUP1 PUSH1 0x1F ADD PUSH1 0x20 DUP1 SWAP2 DIV MUL PUSH1 0x20 ADD PUSH1 0x40 MLOAD SWAP1 DUP2 ADD PUSH1 0x40 MSTORE DUP1 SWAP3 SWAP2 SWAP1 DUP2 DUP2 MSTORE PUSH1 0x20 ADD DUP3 DUP1 SLOAD PUSH2 0xB9F SWAP1 PUSH2 0x34BB JUMP JUMPDEST DUP1 ISZERO PUSH2 0xBEC JUMPI DUP1 PUSH1 0x1F LT PUSH2 0xBC1 JUMPI PUSH2 0x100 DUP1 DUP4 SLOAD DIV MUL DUP4 MSTORE SWAP2 PUSH1 0x20 ADD SWAP2 PUSH2 0xBEC JUMP JUMPDEST DUP3 ADD SWAP2 SWAP1 PUSH1 0x0 MSTORE PUSH1 0x20 PUSH1 0x0 KECCAK256 SWAP1 JUMPDEST DUP2 SLOAD DUP2 MSTORE SWAP1 PUSH1 0x1 ADD SWAP1 PUSH1 0x20 ADD DUP1 DUP4 GT PUSH2 0xBCF JUMPI DUP3 SWAP1 SUB PUSH1 0x1F AND DUP3 ADD SWAP2 JUMPDEST POP POP POP POP POP SWAP2 POP SWAP2 POP SWAP2 POP SWAP2 POP SWAP2 JUMP JUMPDEST PUSH2 0xC0D PUSH2 0xC07 PUSH2 0xF9D JUMP JUMPDEST DUP4 PUSH2 0x105E JUMP JUMPDEST PUSH2 0xC4C JUMPI PUSH1 0x40 MLOAD PUSH32 0x8C379A000000000000000000000000000000000000000000000000000000000 DUP2 MSTORE PUSH1 0x4 ADD PUSH2 0xC43 SWAP1 PUSH2 0x31E9 JUMP JUMPDEST PUSH1 0x40 MLOAD DUP1 SWAP2 SUB SWAP1 REVERT JUMPDEST PUSH2 0xC58 DUP5 DUP5 DUP5 DUP5 PUSH2 0x1555 JUMP JUMPDEST POP POP POP POP JUMP JUMPDEST PUSH1 0x9 SLOAD CALLVALUE EQ PUSH2 0xCA2 JUMPI PUSH1 0x40 MLOAD PUSH32 0x8C379A000000000000000000000000000000000000000000000000000000000 DUP2 MSTORE PUSH1 0x4 ADD PUSH2 0xC99 SWAP1 PUSH2 0x30C9 JUMP JUMPDEST PUSH1 0x40 MLOAD DUP1 SWAP2 SUB SWAP1 REVERT JUMPDEST PUSH1 0x8 SLOAD PUSH1 0x7 SLOAD LT PUSH2 0xCE8 JUMPI PUSH1 0x40 MLOAD PUSH32 0x8C379A000000000000000000000000000000000000000000000000000000000 DUP2 MSTORE PUSH1 0x4 ADD PUSH2 0xCDF SWAP1 PUSH2 0x3089 JUMP JUMPDEST PUSH1 0x40 MLOAD DUP1 SWAP2 SUB SWAP1 REVERT JUMPDEST PUSH2 0xD00 CALLER PUSH1 0x1 PUSH1 0x7 SLOAD PUSH2 0xCFB SWAP2 SWAP1 PUSH2 0x32E6 JUMP JUMPDEST PUSH2 0x15B1 JUMP JUMPDEST PUSH1 0x1 PUSH1 0x7 PUSH1 0x0 DUP3 DUP3 SLOAD PUSH2 0xD13 SWAP2 SWAP1 PUSH2 0x32E6 JUMP JUMPDEST SWAP3 POP POP DUP2 SWAP1 SSTORE POP PUSH2 0xD22 PUSH2 0x15CF JUMP JUMPDEST POP JUMP JUMPDEST PUSH1 0x60 PUSH1 0x0 PUSH2 0xD32 DUP4 PUSH2 0x16D1 JUMP JUMPDEST PUSH2 0xDE1 PUSH2 0xDDC PUSH1 0xF PUSH1 0x0 DUP8 DUP2 MSTORE PUSH1 0x20 ADD SWAP1 DUP2 MSTORE PUSH1 0x20 ADD PUSH1 0x0 KECCAK256 PUSH1 0x0 ADD DUP1 SLOAD PUSH2 0xD59 SWAP1 PUSH2 0x34BB JUMP JUMPDEST DUP1 PUSH1 0x1F ADD PUSH1 0x20 DUP1 SWAP2 DIV MUL PUSH1 0x20 ADD PUSH1 0x40 MLOAD SWAP1 DUP2 ADD PUSH1 0x40 MSTORE DUP1 SWAP3 SWAP2 SWAP1 DUP2 DUP2 MSTORE PUSH1 0x20 ADD DUP3 DUP1 SLOAD PUSH2 0xD85 SWAP1 PUSH2 0x34BB JUMP JUMPDEST DUP1 ISZERO PUSH2 0xDD2 JUMPI DUP1 PUSH1 0x1F LT PUSH2 0xDA7 JUMPI PUSH2 0x100 DUP1 DUP4 SLOAD DIV MUL DUP4 MSTORE SWAP2 PUSH1 0x20 ADD SWAP2 PUSH2 0xDD2 JUMP JUMPDEST DUP3 ADD SWAP2 SWAP1 PUSH1 0x0 MSTORE PUSH1 0x20 PUSH1 0x0 KECCAK256 SWAP1 JUMPDEST DUP2 SLOAD DUP2 MSTORE SWAP1 PUSH1 0x1 ADD SWAP1 PUSH1 0x20 ADD DUP1 DUP4 GT PUSH2 0xDB5 JUMPI DUP3 SWAP1 SUB PUSH1 0x1F AND DUP3 ADD SWAP2 JUMPDEST POP POP POP POP POP PUSH2 0x1832 JUMP JUMPDEST PUSH2 0x19CB JUMP JUMPDEST PUSH1 0x40 MLOAD PUSH1 0x20 ADD PUSH2 0xDF2 SWAP3 SWAP2 SWAP1 PUSH2 0x2DCC JUMP JUMPDEST PUSH1 0x40 MLOAD PUSH1 0x20 DUP2 DUP4 SUB SUB DUP2 MSTORE SWAP1 PUSH1 0x40 MSTORE SWAP1 POP PUSH2 0xE0C DUP2 PUSH2 0x19CB JUMP JUMPDEST PUSH1 0x40 MLOAD PUSH1 0x20 ADD PUSH2 0xE1C SWAP2 SWAP1 PUSH2 0x2E32 JUMP JUMPDEST PUSH1 0x40 MLOAD PUSH1 0x20 DUP2 DUP4 SUB SUB DUP2 MSTORE SWAP1 PUSH1 0x40 MSTORE SWAP2 POP POP SWAP2 SWAP1 POP JUMP JUMPDEST PUSH1 0x0 PUSH1 0x5 PUSH1 0x0 DUP5 PUSH20 0xFFFFFFFFFFFFFFFFFFFFFFFFFFFFFFFFFFFFFFFF AND PUSH20 0xFFFFFFFFFFFFFFFFFFFFFFFFFFFFFFFFFFFFFFFF AND DUP2 MSTORE PUSH1 0x20 ADD SWAP1 DUP2 MSTORE PUSH1 0x20 ADD PUSH1 0x0 KECCAK256 PUSH1 0x0 DUP4 PUSH20 0xFFFFFFFFFFFFFFFFFFFFFFFFFFFFFFFFFFFFFFFF AND PUSH20 0xFFFFFFFFFFFFFFFFFFFFFFFFFFFFFFFFFFFFFFFF AND DUP2 MSTORE PUSH1 0x20 ADD SWAP1 DUP2 MSTORE PUSH1 0x20 ADD PUSH1 0x0 KECCAK256 PUSH1 0x0 SWAP1 SLOAD SWAP1 PUSH2 0x100 EXP SWAP1 DIV PUSH1 0xFF AND SWAP1 POP SWAP3 SWAP2 POP POP JUMP JUMPDEST PUSH1 0x0 PUSH32 0x1FFC9A700000000000000000000000000000000000000000000000000000000 PUSH28 0xFFFFFFFFFFFFFFFFFFFFFFFFFFFFFFFFFFFFFFFFFFFFFFFFFFFFFFFF NOT AND DUP3 PUSH28 0xFFFFFFFFFFFFFFFFFFFFFFFFFFFFFFFFFFFFFFFFFFFFFFFFFFFFFFFF NOT AND EQ SWAP1 POP SWAP2 SWAP1 POP JUMP JUMPDEST PUSH1 0x0 DUP1 PUSH20 0xFFFFFFFFFFFFFFFFFFFFFFFFFFFFFFFFFFFFFFFF AND PUSH1 0x2 PUSH1 0x0 DUP5 DUP2 MSTORE PUSH1 0x20 ADD SWAP1 DUP2 MSTORE PUSH1 0x20 ADD PUSH1 0x0 KECCAK256 PUSH1 0x0 SWAP1 SLOAD SWAP1 PUSH2 0x100 EXP SWAP1 DIV PUSH20 0xFFFFFFFFFFFFFFFFFFFFFFFFFFFFFFFFFFFFFFFF AND PUSH20 0xFFFFFFFFFFFFFFFFFFFFFFFFFFFFFFFFFFFFFFFF AND EQ ISZERO SWAP1 POP SWAP2 SWAP1 POP JUMP JUMPDEST PUSH1 0x0 CALLER SWAP1 POP SWAP1 JUMP JUMPDEST DUP2 PUSH1 0x4 PUSH1 0x0 DUP4 DUP2 MSTORE PUSH1 0x20 ADD SWAP1 DUP2 MSTORE PUSH1 0x20 ADD PUSH1 0x0 KECCAK256 PUSH1 0x0 PUSH2 0x100 EXP DUP2 SLOAD DUP2 PUSH20 0xFFFFFFFFFFFFFFFFFFFFFFFFFFFFFFFFFFFFFFFF MUL NOT AND SWAP1 DUP4 PUSH20 0xFFFFFFFFFFFFFFFFFFFFFFFFFFFFFFFFFFFFFFFF AND MUL OR SWAP1 SSTORE POP DUP1 DUP3 PUSH20 0xFFFFFFFFFFFFFFFFFFFFFFFFFFFFFFFFFFFFFFFF AND PUSH2 0x1018 DUP4 PUSH2 0x86B JUMP JUMPDEST PUSH20 0xFFFFFFFFFFFFFFFFFFFFFFFFFFFFFFFFFFFFFFFF AND PUSH32 0x8C5BE1E5EBEC7D5BD14F71427D1E84F3DD0314C0F7B2291E5B200AC8C7C3B925 PUSH1 0x40 MLOAD PUSH1 0x40 MLOAD DUP1 SWAP2 SUB SWAP1 LOG4 POP POP JUMP JUMPDEST PUSH1 0x0 PUSH2 0x1069 DUP3 PUSH2 0xF31 JUMP JUMPDEST PUSH2 0x10A8 JUMPI PUSH1 0x40 MLOAD PUSH32 0x8C379A000000000000000000000000000000000000000000000000000000000 DUP2 MSTORE PUSH1 0x4 ADD PUSH2 0x109F SWAP1 PUSH2 0x30E9 JUMP JUMPDEST PUSH1 0x40 MLOAD DUP1 SWAP2 SUB SWAP1 REVERT JUMPDEST PUSH1 0x0 PUSH2 0x10B3 DUP4 PUSH2 0x86B JUMP JUMPDEST SWAP1 POP DUP1 PUSH20 0xFFFFFFFFFFFFFFFFFFFFFFFFFFFFFFFFFFFFFFFF AND DUP5 PUSH20 0xFFFFFFFFFFFFFFFFFFFFFFFFFFFFFFFFFFFFFFFF AND EQ DUP1 PUSH2 0x10F5 JUMPI POP PUSH2 0x10F4 DUP2 DUP6 PUSH2 0xE33 JUMP JUMPDEST JUMPDEST DUP1 PUSH2 0x1133 JUMPI POP DUP4 PUSH20 0xFFFFFFFFFFFFFFFFFFFFFFFFFFFFFFFFFFFFFFFF AND PUSH2 0x111B DUP5 PUSH2 0x622 JUMP JUMPDEST PUSH20 0xFFFFFFFFFFFFFFFFFFFFFFFFFFFFFFFFFFFFFFFF AND EQ JUMPDEST SWAP2 POP POP SWAP3 SWAP2 POP POP JUMP JUMPDEST DUP3 PUSH20 0xFFFFFFFFFFFFFFFFFFFFFFFFFFFFFFFFFFFFFFFF AND PUSH2 0x115C DUP3 PUSH2 0x86B JUMP JUMPDEST PUSH20 0xFFFFFFFFFFFFFFFFFFFFFFFFFFFFFFFFFFFFFFFF AND EQ PUSH2 0x11B2 JUMPI PUSH1 0x40 MLOAD PUSH32 0x8C379A000000000000000000000000000000000000000000000000000000000 DUP2 MSTORE PUSH1 0x4 ADD PUSH2 0x11A9 SWAP1 PUSH2 0x3009 JUMP JUMPDEST PUSH1 0x40 MLOAD DUP1 SWAP2 SUB SWAP1 REVERT JUMPDEST PUSH1 0x0 PUSH20 0xFFFFFFFFFFFFFFFFFFFFFFFFFFFFFFFFFFFFFFFF AND DUP3 PUSH20 0xFFFFFFFFFFFFFFFFFFFFFFFFFFFFFFFFFFFFFFFF AND EQ ISZERO PUSH2 0x1222 JUMPI PUSH1 0x40 MLOAD PUSH32 0x8C379A000000000000000000000000000000000000000000000000000000000 DUP2 MSTORE PUSH1 0x4 ADD PUSH2 0x1219 SWAP1 PUSH2 0x3049 JUMP JUMPDEST PUSH1 0x40 MLOAD DUP1 SWAP2 SUB SWAP1 REVERT JUMPDEST PUSH2 0x122D DUP4 DUP4 DUP4 PUSH2 0x1B2F JUMP JUMPDEST PUSH2 0x1238 PUSH1 0x0 DUP3 PUSH2 0xFA5 JUMP JUMPDEST PUSH1 0x1 PUSH1 0x3 PUSH1 0x0 DUP6 PUSH20 0xFFFFFFFFFFFFFFFFFFFFFFFFFFFFFFFFFFFFFFFF AND PUSH20 0xFFFFFFFFFFFFFFFFFFFFFFFFFFFFFFFFFFFFFFFF AND DUP2 MSTORE PUSH1 0x20 ADD SWAP1 DUP2 MSTORE PUSH1 0x20 ADD PUSH1 0x0 KECCAK256 PUSH1 0x0 DUP3 DUP3 SLOAD PUSH2 0x1288 SWAP2 SWAP1 PUSH2 0x33C7 JUMP JUMPDEST SWAP3 POP POP DUP2 SWAP1 SSTORE POP PUSH1 0x1 PUSH1 0x3 PUSH1 0x0 DUP5 PUSH20 0xFFFFFFFFFFFFFFFFFFFFFFFFFFFFFFFFFFFFFFFF AND PUSH20 0xFFFFFFFFFFFFFFFFFFFFFFFFFFFFFFFFFFFFFFFF AND DUP2 MSTORE PUSH1 0x20 ADD SWAP1 DUP2 MSTORE PUSH1 0x20 ADD PUSH1 0x0 KECCAK256 PUSH1 0x0 DUP3 DUP3 SLOAD PUSH2 0x12DF SWAP2 SWAP1 PUSH2 0x32E6 JUMP JUMPDEST SWAP3 POP POP DUP2 SWAP1 SSTORE POP DUP2 PUSH1 0x2 PUSH1 0x0 DUP4 DUP2 MSTORE PUSH1 0x20 ADD SWAP1 DUP2 MSTORE PUSH1 0x20 ADD PUSH1 0x0 KECCAK256 PUSH1 0x0 PUSH2 0x100 EXP DUP2 SLOAD DUP2 PUSH20 0xFFFFFFFFFFFFFFFFFFFFFFFFFFFFFFFFFFFFFFFF MUL NOT AND SWAP1 DUP4 PUSH20 0xFFFFFFFFFFFFFFFFFFFFFFFFFFFFFFFFFFFFFFFF AND MUL OR SWAP1 SSTORE POP DUP1 DUP3 PUSH20 0xFFFFFFFFFFFFFFFFFFFFFFFFFFFFFFFFFFFFFFFF AND DUP5 PUSH20 0xFFFFFFFFFFFFFFFFFFFFFFFFFFFFFFFFFFFFFFFF AND PUSH32 0xDDF252AD1BE2C89B69C2B068FC378DAA952BA7F163C4A11628F55A4DF523B3EF PUSH1 0x40 MLOAD PUSH1 0x40 MLOAD DUP1 SWAP2 SUB SWAP1 LOG4 PUSH2 0x139E DUP4 DUP4 DUP4 PUSH2 0x1B34 JUMP JUMPDEST POP POP POP JUMP JUMPDEST PUSH1 0x0 PUSH1 0x13 PUSH1 0x0 DUP5 DUP2 MSTORE PUSH1 0x20 ADD SWAP1 DUP2 MSTORE PUSH1 0x20 ADD PUSH1 0x0 KECCAK256 PUSH1 0x0 SWAP1 SLOAD SWAP1 PUSH2 0x100 EXP SWAP1 DIV PUSH1 0xFF AND PUSH1 0xFF AND SWAP1 POP PUSH1 0x0 DUP2 EQ ISZERO PUSH2 0x13E2 JUMPI PUSH2 0x13DD DUP3 PUSH2 0x1B39 JUMP JUMPDEST PUSH2 0x13E3 JUMP JUMPDEST JUMPDEST POP POP POP JUMP JUMPDEST DUP2 PUSH20 0xFFFFFFFFFFFFFFFFFFFFFFFFFFFFFFFFFFFFFFFF AND DUP4 PUSH20 0xFFFFFFFFFFFFFFFFFFFFFFFFFFFFFFFFFFFFFFFF AND EQ ISZERO PUSH2 0x1457 JUMPI PUSH1 0x40 MLOAD PUSH32 0x8C379A000000000000000000000000000000000000000000000000000000000 DUP2 MSTORE PUSH1 0x4 ADD PUSH2 0x144E SWAP1 PUSH2 0x3069 JUMP JUMPDEST PUSH1 0x40 MLOAD DUP1 SWAP2 SUB SWAP1 REVERT JUMPDEST DUP1 PUSH1 0x5 PUSH1 0x0 DUP6 PUSH20 0xFFFFFFFFFFFFFFFFFFFFFFFFFFFFFFFFFFFFFFFF AND PUSH20 0xFFFFFFFFFFFFFFFFFFFFFFFFFFFFFFFFFFFFFFFF AND DUP2 MSTORE PUSH1 0x20 ADD SWAP1 DUP2 MSTORE PUSH1 0x20 ADD PUSH1 0x0 KECCAK256 PUSH1 0x0 DUP5 PUSH20 0xFFFFFFFFFFFFFFFFFFFFFFFFFFFFFFFFFFFFFFFF AND PUSH20 0xFFFFFFFFFFFFFFFFFFFFFFFFFFFFFFFFFFFFFFFF AND DUP2 MSTORE PUSH1 0x20 ADD SWAP1 DUP2 MSTORE PUSH1 0x20 ADD PUSH1 0x0 KECCAK256 PUSH1 0x0 PUSH2 0x100 EXP DUP2 SLOAD DUP2 PUSH1 0xFF MUL NOT AND SWAP1 DUP4 ISZERO ISZERO MUL OR SWAP1 SSTORE POP DUP2 PUSH20 0xFFFFFFFFFFFFFFFFFFFFFFFFFFFFFFFFFFFFFFFF AND DUP4 PUSH20 0xFFFFFFFFFFFFFFFFFFFFFFFFFFFFFFFFFFFFFFFF AND PUSH32 0x17307EAB39AB6107E8899845AD3D59BD9653F200F220920489CA2B5937696C31 DUP4 PUSH1 0x40 MLOAD PUSH2 0x1548 SWAP2 SWAP1 PUSH2 0x2F0E JUMP JUMPDEST PUSH1 0x40 MLOAD DUP1 SWAP2 SUB SWAP1 LOG3 POP POP POP JUMP JUMPDEST PUSH2 0x1560 DUP5 DUP5 DUP5 PUSH2 0x113C JUMP JUMPDEST PUSH2 0x156C DUP5 DUP5 DUP5 DUP5 PUSH2 0x1E2D JUMP JUMPDEST PUSH2 0x15AB JUMPI PUSH1 0x40 MLOAD PUSH32 0x8C379A000000000000000000000000000000000000000000000000000000000 DUP2 MSTORE PUSH1 0x4 ADD PUSH2 0x15A2 SWAP1 PUSH2 0x2FE9 JUMP JUMPDEST PUSH1 0x40 MLOAD DUP1 SWAP2 SUB SWAP1 REVERT JUMPDEST POP POP POP POP JUMP JUMPDEST PUSH2 0x15CB DUP3 DUP3 PUSH1 0x40 MLOAD DUP1 PUSH1 0x20 ADD PUSH1 0x40 MSTORE DUP1 PUSH1 0x0 DUP2 MSTORE POP PUSH2 0x1FC4 JUMP JUMPDEST POP POP JUMP JUMPDEST PUSH1 0x0 PUSH1 0x11 SLOAD PUSH32 0x0 PUSH20 0xFFFFFFFFFFFFFFFFFFFFFFFFFFFFFFFFFFFFFFFF AND PUSH4 0x70A08231 ADDRESS PUSH1 0x40 MLOAD DUP3 PUSH4 0xFFFFFFFF AND PUSH1 0xE0 SHL DUP2 MSTORE PUSH1 0x4 ADD PUSH2 0x162D SWAP2 SWAP1 PUSH2 0x2E69 JUMP JUMPDEST PUSH1 0x20 PUSH1 0x40 MLOAD DUP1 DUP4 SUB DUP2 DUP7 DUP1 EXTCODESIZE ISZERO DUP1 ISZERO PUSH2 0x1645 JUMPI PUSH1 0x0 DUP1 REVERT JUMPDEST POP GAS STATICCALL ISZERO DUP1 ISZERO PUSH2 0x1659 JUMPI RETURNDATASIZE PUSH1 0x0 DUP1 RETURNDATACOPY RETURNDATASIZE PUSH1 0x0 REVERT JUMPDEST POP POP POP POP PUSH1 0x40 MLOAD RETURNDATASIZE PUSH1 0x1F NOT PUSH1 0x1F DUP3 ADD AND DUP3 ADD DUP1 PUSH1 0x40 MSTORE POP DUP2 ADD SWAP1 PUSH2 0x167D SWAP2 SWAP1 PUSH2 0x2875 JUMP JUMPDEST LT ISZERO PUSH2 0x16BE JUMPI PUSH1 0x40 MLOAD PUSH32 0x8C379A000000000000000000000000000000000000000000000000000000000 DUP2 MSTORE PUSH1 0x4 ADD PUSH2 0x16B5 SWAP1 PUSH2 0x30A9 JUMP JUMPDEST PUSH1 0x40 MLOAD DUP1 SWAP2 SUB SWAP1 REVERT JUMPDEST PUSH2 0x16CC PUSH1 0x10 SLOAD PUSH1 0x11 SLOAD PUSH2 0x201F JUMP JUMPDEST SWAP1 POP SWAP1 JUMP JUMPDEST PUSH1 0x60 PUSH1 0x0 DUP3 EQ ISZERO PUSH2 0x1719 JUMPI PUSH1 0x40 MLOAD DUP1 PUSH1 0x40 ADD PUSH1 0x40 MSTORE DUP1 PUSH1 0x1 DUP2 MSTORE PUSH1 0x20 ADD PUSH32 0x3000000000000000000000000000000000000000000000000000000000000000 DUP2 MSTORE POP SWAP1 POP PUSH2 0x182D JUMP JUMPDEST PUSH1 0x0 DUP3 SWAP1 POP PUSH1 0x0 JUMPDEST PUSH1 0x0 DUP3 EQ PUSH2 0x174B JUMPI DUP1 DUP1 PUSH2 0x1734 SWAP1 PUSH2 0x351E JUMP JUMPDEST SWAP2 POP POP PUSH1 0xA DUP3 PUSH2 0x1744 SWAP2 SWAP1 PUSH2 0x333C JUMP JUMPDEST SWAP2 POP PUSH2 0x1721 JUMP JUMPDEST PUSH1 0x0 DUP2 PUSH8 0xFFFFFFFFFFFFFFFF DUP2 GT ISZERO PUSH2 0x1767 JUMPI PUSH2 0x1766 PUSH2 0x3668 JUMP JUMPDEST JUMPDEST PUSH1 0x40 MLOAD SWAP1 DUP1 DUP3 MSTORE DUP1 PUSH1 0x1F ADD PUSH1 0x1F NOT AND PUSH1 0x20 ADD DUP3 ADD PUSH1 0x40 MSTORE DUP1 ISZERO PUSH2 0x1799 JUMPI DUP2 PUSH1 0x20 ADD PUSH1 0x1 DUP3 MUL DUP1 CALLDATASIZE DUP4 CALLDATACOPY DUP1 DUP3 ADD SWAP2 POP POP SWAP1 POP JUMPDEST POP SWAP1 POP JUMPDEST PUSH1 0x0 DUP6 EQ PUSH2 0x1826 JUMPI PUSH1 0x1 DUP3 PUSH2 0x17B2 SWAP2 SWAP1 PUSH2 0x33C7 JUMP JUMPDEST SWAP2 POP PUSH1 0xA DUP6 PUSH2 0x17C1 SWAP2 SWAP1 PUSH2 0x357B JUMP JUMPDEST PUSH1 0x30 PUSH2 0x17CD SWAP2 SWAP1 PUSH2 0x32E6 JUMP JUMPDEST PUSH1 0xF8 SHL DUP2 DUP4 DUP2 MLOAD DUP2 LT PUSH2 0x17E3 JUMPI PUSH2 0x17E2 PUSH2 0x3639 JUMP JUMPDEST JUMPDEST PUSH1 0x20 ADD ADD SWAP1 PUSH31 0xFFFFFFFFFFFFFFFFFFFFFFFFFFFFFFFFFFFFFFFFFFFFFFFFFFFFFFFFFFFFFF NOT AND SWAP1 DUP2 PUSH1 0x0 BYTE SWAP1 MSTORE8 POP PUSH1 0xA DUP6 PUSH2 0x181F SWAP2 SWAP1 PUSH2 0x333C JUMP JUMPDEST SWAP5 POP PUSH2 0x179D JUMP JUMPDEST DUP1 SWAP4 POP POP POP POP JUMPDEST SWAP2 SWAP1 POP JUMP JUMPDEST PUSH1 0x60 PUSH1 0x40 MLOAD PUSH1 0x20 ADD PUSH2 0x1843 SWAP1 PUSH2 0x2E54 JUMP JUMPDEST PUSH1 0x40 MLOAD PUSH1 0x20 DUP2 DUP4 SUB SUB DUP2 MSTORE SWAP1 PUSH1 0x40 MSTORE DUP1 MLOAD SWAP1 PUSH1 0x20 ADD KECCAK256 DUP3 PUSH1 0x40 MLOAD PUSH1 0x20 ADD PUSH2 0x186A SWAP2 SWAP1 PUSH2 0x2D46 JUMP JUMPDEST PUSH1 0x40 MLOAD PUSH1 0x20 DUP2 DUP4 SUB SUB DUP2 MSTORE SWAP1 PUSH1 0x40 MSTORE DUP1 MLOAD SWAP1 PUSH1 0x20 ADD KECCAK256 EQ PUSH2 0x1936 JUMPI PUSH1 0x40 MLOAD DUP1 PUSH2 0x100 ADD PUSH1 0x40 MSTORE DUP1 PUSH1 0xC4 DUP2 MSTORE PUSH1 0x20 ADD PUSH2 0x440D PUSH1 0xC4 SWAP2 CODECOPY PUSH1 0x40 MLOAD DUP1 PUSH2 0x1100 ADD PUSH1 0x40 MSTORE DUP1 PUSH2 0x10D6 DUP2 MSTORE PUSH1 0x20 ADD PUSH2 0x4511 PUSH2 0x10D6 SWAP2 CODECOPY PUSH1 0x40 MLOAD DUP1 PUSH2 0x720 ADD PUSH1 0x40 MSTORE DUP1 PUSH2 0x6EE DUP2 MSTORE PUSH1 0x20 ADD PUSH2 0x3D1F PUSH2 0x6EE SWAP2 CODECOPY PUSH1 0x40 MLOAD DUP1 PUSH1 0x40 ADD PUSH1 0x40 MSTORE DUP1 PUSH1 0x6 DUP2 MSTORE PUSH1 0x20 ADD PUSH32 0x3C2F7376673E0000000000000000000000000000000000000000000000000000 DUP2 MSTORE POP PUSH1 0x40 MLOAD PUSH1 0x20 ADD PUSH2 0x1920 SWAP5 SWAP4 SWAP3 SWAP2 SWAP1 PUSH2 0x2D8E JUMP JUMPDEST PUSH1 0x40 MLOAD PUSH1 0x20 DUP2 DUP4 SUB SUB DUP2 MSTORE SWAP1 PUSH1 0x40 MSTORE SWAP1 POP PUSH2 0x19C6 JUMP JUMPDEST PUSH1 0x40 MLOAD DUP1 PUSH2 0x100 ADD PUSH1 0x40 MSTORE DUP1 PUSH1 0xC4 DUP2 MSTORE PUSH1 0x20 ADD PUSH2 0x440D PUSH1 0xC4 SWAP2 CODECOPY PUSH1 0x40 MLOAD DUP1 PUSH2 0x1100 ADD PUSH1 0x40 MSTORE DUP1 PUSH2 0x10D6 DUP2 MSTORE PUSH1 0x20 ADD PUSH2 0x4511 PUSH2 0x10D6 SWAP2 CODECOPY PUSH1 0x40 MLOAD DUP1 PUSH1 0x40 ADD PUSH1 0x40 MSTORE DUP1 PUSH1 0x6 DUP2 MSTORE PUSH1 0x20 ADD PUSH32 0x3C2F7376673E0000000000000000000000000000000000000000000000000000 DUP2 MSTORE POP PUSH1 0x40 MLOAD PUSH1 0x20 ADD PUSH2 0x19B4 SWAP4 SWAP3 SWAP2 SWAP1 PUSH2 0x2D5D JUMP JUMPDEST PUSH1 0x40 MLOAD PUSH1 0x20 DUP2 DUP4 SUB SUB DUP2 MSTORE SWAP1 PUSH1 0x40 MSTORE SWAP1 POP JUMPDEST SWAP2 SWAP1 POP JUMP JUMPDEST PUSH1 0x60 PUSH1 0x0 DUP3 MLOAD EQ ISZERO PUSH2 0x19EE JUMPI PUSH1 0x40 MLOAD DUP1 PUSH1 0x20 ADD PUSH1 0x40 MSTORE DUP1 PUSH1 0x0 DUP2 MSTORE POP SWAP1 POP PUSH2 0x1B2A JUMP JUMPDEST PUSH1 0x0 PUSH1 0x40 MLOAD DUP1 PUSH1 0x60 ADD PUSH1 0x40 MSTORE DUP1 PUSH1 0x40 DUP2 MSTORE PUSH1 0x20 ADD PUSH2 0x44D1 PUSH1 0x40 SWAP2 CODECOPY SWAP1 POP PUSH1 0x0 PUSH1 0x3 PUSH1 0x2 DUP6 MLOAD PUSH2 0x1A1D SWAP2 SWAP1 PUSH2 0x32E6 JUMP JUMPDEST PUSH2 0x1A27 SWAP2 SWAP1 PUSH2 0x333C JUMP JUMPDEST PUSH1 0x4 PUSH2 0x1A33 SWAP2 SWAP1 PUSH2 0x336D JUMP JUMPDEST PUSH8 0xFFFFFFFFFFFFFFFF DUP2 GT ISZERO PUSH2 0x1A4C JUMPI PUSH2 0x1A4B PUSH2 0x3668 JUMP JUMPDEST JUMPDEST PUSH1 0x40 MLOAD SWAP1 DUP1 DUP3 MSTORE DUP1 PUSH1 0x1F ADD PUSH1 0x1F NOT AND PUSH1 0x20 ADD DUP3 ADD PUSH1 0x40 MSTORE DUP1 ISZERO PUSH2 0x1A7E JUMPI DUP2 PUSH1 0x20 ADD PUSH1 0x1 DUP3 MUL DUP1 CALLDATASIZE DUP4 CALLDATACOPY DUP1 DUP3 ADD SWAP2 POP POP SWAP1 POP JUMPDEST POP SWAP1 POP PUSH1 0x1 DUP3 ADD PUSH1 0x20 DUP3 ADD DUP6 DUP7 MLOAD DUP8 ADD JUMPDEST DUP1 DUP3 LT ISZERO PUSH2 0x1AEA JUMPI PUSH1 0x3 DUP3 ADD SWAP2 POP DUP2 MLOAD PUSH1 0x3F DUP2 PUSH1 0x12 SHR AND DUP6 ADD MLOAD DUP5 MSTORE8 PUSH1 0x1 DUP5 ADD SWAP4 POP PUSH1 0x3F DUP2 PUSH1 0xC SHR AND DUP6 ADD MLOAD DUP5 MSTORE8 PUSH1 0x1 DUP5 ADD SWAP4 POP PUSH1 0x3F DUP2 PUSH1 0x6 SHR AND DUP6 ADD MLOAD DUP5 MSTORE8 PUSH1 0x1 DUP5 ADD SWAP4 POP PUSH1 0x3F DUP2 AND DUP6 ADD MLOAD DUP5 MSTORE8 PUSH1 0x1 DUP5 ADD SWAP4 POP POP PUSH2 0x1A8F JUMP JUMPDEST POP POP PUSH1 0x3 DUP7 MLOAD MOD PUSH1 0x1 DUP2 EQ PUSH2 0x1B06 JUMPI PUSH1 0x2 DUP2 EQ PUSH2 0x1B19 JUMPI PUSH2 0x1B21 JUMP JUMPDEST PUSH1 0x3D PUSH1 0x1 DUP4 SUB MSTORE8 PUSH1 0x3D PUSH1 0x2 DUP4 SUB MSTORE8 PUSH2 0x1B21 JUMP JUMPDEST PUSH1 0x3D PUSH1 0x1 DUP4 SUB MSTORE8 JUMPDEST POP POP POP DUP1 SWAP3 POP POP POP JUMPDEST SWAP2 SWAP1 POP JUMP JUMPDEST POP POP POP JUMP JUMPDEST POP POP POP JUMP JUMPDEST PUSH1 0x1 PUSH3 0x3FFFFF DUP3 PUSH2 0x1B4A SWAP2 SWAP1 PUSH2 0x357B JUMP JUMPDEST PUSH2 0x1B54 SWAP2 SWAP1 PUSH2 0x32E6 JUMP JUMPDEST PUSH1 0xD PUSH1 0x0 PUSH1 0xA SLOAD DUP2 MSTORE PUSH1 0x20 ADD SWAP1 DUP2 MSTORE PUSH1 0x20 ADD PUSH1 0x0 KECCAK256 DUP2 SWAP1 SSTORE POP PUSH1 0x60 PUSH1 0x6 PUSH8 0xFFFFFFFFFFFFFFFF DUP2 GT ISZERO PUSH2 0x1B8A JUMPI PUSH2 0x1B89 PUSH2 0x3668 JUMP JUMPDEST JUMPDEST PUSH1 0x40 MLOAD SWAP1 DUP1 DUP3 MSTORE DUP1 PUSH1 0x20 MUL PUSH1 0x20 ADD DUP3 ADD PUSH1 0x40 MSTORE DUP1 ISZERO PUSH2 0x1BB8 JUMPI DUP2 PUSH1 0x20 ADD PUSH1 0x20 DUP3 MUL DUP1 CALLDATASIZE DUP4 CALLDATACOPY DUP1 DUP3 ADD SWAP2 POP POP SWAP1 POP JUMPDEST POP SWAP1 POP PUSH1 0x0 JUMPDEST PUSH1 0x6 DUP2 LT ISZERO PUSH2 0x1C9F JUMPI PUSH1 0x1 PUSH3 0x3FFFFF DUP5 PUSH2 0x1BD8 SWAP2 SWAP1 PUSH2 0x357B JUMP JUMPDEST PUSH2 0x1BE2 SWAP2 SWAP1 PUSH2 0x32E6 JUMP JUMPDEST DUP2 PUSH1 0x40 MLOAD PUSH1 0x20 ADD PUSH2 0x1BF4 SWAP3 SWAP2 SWAP1 PUSH2 0x3224 JUMP JUMPDEST PUSH1 0x40 MLOAD PUSH1 0x20 DUP2 DUP4 SUB SUB DUP2 MSTORE SWAP1 PUSH1 0x40 MSTORE DUP1 MLOAD SWAP1 PUSH1 0x20 ADD KECCAK256 PUSH1 0x0 SHR DUP3 DUP3 DUP2 MLOAD DUP2 LT PUSH2 0x1C20 JUMPI PUSH2 0x1C1F PUSH2 0x3639 JUMP JUMPDEST JUMPDEST PUSH1 0x20 MUL PUSH1 0x20 ADD ADD DUP2 DUP2 MSTORE POP POP PUSH1 0x6 DUP3 DUP3 DUP2 MLOAD DUP2 LT PUSH2 0x1C41 JUMPI PUSH2 0x1C40 PUSH2 0x3639 JUMP JUMPDEST JUMPDEST PUSH1 0x20 MUL PUSH1 0x20 ADD ADD DUP2 DUP2 MLOAD PUSH2 0x1C55 SWAP2 SWAP1 PUSH2 0x357B JUMP JUMPDEST SWAP2 POP DUP2 DUP2 MSTORE POP POP PUSH1 0x5 DUP3 DUP3 DUP2 MLOAD DUP2 LT PUSH2 0x1C71 JUMPI PUSH2 0x1C70 PUSH2 0x3639 JUMP JUMPDEST JUMPDEST PUSH1 0x20 MUL PUSH1 0x20 ADD ADD DUP2 DUP2 MLOAD PUSH2 0x1C85 SWAP2 SWAP1 PUSH2 0x32E6 JUMP JUMPDEST SWAP2 POP DUP2 DUP2 MSTORE POP POP DUP1 DUP1 PUSH2 0x1C97 SWAP1 PUSH2 0x351E JUMP JUMPDEST SWAP2 POP POP PUSH2 0x1BBE JUMP JUMPDEST POP PUSH1 0x0 PUSH1 0x40 MLOAD DUP1 PUSH1 0x60 ADD PUSH1 0x40 MSTORE DUP1 PUSH1 0x40 MLOAD DUP1 PUSH1 0x40 ADD PUSH1 0x40 MSTORE DUP1 PUSH1 0x5 DUP2 MSTORE PUSH1 0x20 ADD PUSH32 0x5261636531000000000000000000000000000000000000000000000000000000 DUP2 MSTORE POP DUP2 MSTORE PUSH1 0x20 ADD PUSH1 0x40 MLOAD DUP1 PUSH1 0x40 ADD PUSH1 0x40 MSTORE DUP1 PUSH1 0x5 DUP2 MSTORE PUSH1 0x20 ADD PUSH32 0x5261636532000000000000000000000000000000000000000000000000000000 DUP2 MSTORE POP DUP2 MSTORE PUSH1 0x20 ADD PUSH1 0x40 MLOAD DUP1 PUSH1 0x40 ADD PUSH1 0x40 MSTORE DUP1 PUSH1 0x5 DUP2 MSTORE PUSH1 0x20 ADD PUSH32 0x5261636533000000000000000000000000000000000000000000000000000000 DUP2 MSTORE POP DUP2 MSTORE POP SWAP1 POP PUSH1 0x0 DUP3 PUSH1 0x0 DUP2 MLOAD DUP2 LT PUSH2 0x1D74 JUMPI PUSH2 0x1D73 PUSH2 0x3639 JUMP JUMPDEST JUMPDEST PUSH1 0x20 MUL PUSH1 0x20 ADD ADD MLOAD SWAP1 POP DUP3 PUSH1 0x1 DUP2 MLOAD DUP2 LT PUSH2 0x1D92 JUMPI PUSH2 0x1D91 PUSH2 0x3639 JUMP JUMPDEST JUMPDEST PUSH1 0x20 MUL PUSH1 0x20 ADD ADD MLOAD PUSH1 0xF PUSH1 0x0 PUSH1 0xA SLOAD DUP2 MSTORE PUSH1 0x20 ADD SWAP1 DUP2 MSTORE PUSH1 0x20 ADD PUSH1 0x0 KECCAK256 PUSH1 0x1 ADD DUP2 SWAP1 SSTORE POP DUP2 PUSH2 0x1DCB PUSH1 0x1 DUP4 PUSH2 0x2181 SWAP1 SWAP2 SWAP1 PUSH4 0xFFFFFFFF AND JUMP JUMPDEST PUSH1 0x3 DUP2 LT PUSH2 0x1DDC JUMPI PUSH2 0x1DDB PUSH2 0x3639 JUMP JUMPDEST JUMPDEST PUSH1 0x20 MUL ADD MLOAD PUSH1 0xF PUSH1 0x0 PUSH1 0xA SLOAD DUP2 MSTORE PUSH1 0x20 ADD SWAP1 DUP2 MSTORE PUSH1 0x20 ADD PUSH1 0x0 KECCAK256 PUSH1 0x0 ADD SWAP1 DUP1 MLOAD SWAP1 PUSH1 0x20 ADD SWAP1 PUSH2 0x1E0C SWAP3 SWAP2 SWAP1 PUSH2 0x2403 JUMP JUMPDEST POP PUSH1 0x1 PUSH1 0xA PUSH1 0x0 DUP3 DUP3 SLOAD PUSH2 0x1E20 SWAP2 SWAP1 PUSH2 0x32E6 JUMP JUMPDEST SWAP3 POP POP DUP2 SWAP1 SSTORE POP POP POP POP POP JUMP JUMPDEST PUSH1 0x0 PUSH2 0x1E4E DUP5 PUSH20 0xFFFFFFFFFFFFFFFFFFFFFFFFFFFFFFFFFFFFFFFF AND PUSH2 0x2197 JUMP JUMPDEST ISZERO PUSH2 0x1FB7 JUMPI DUP4 PUSH20 0xFFFFFFFFFFFFFFFFFFFFFFFFFFFFFFFFFFFFFFFF AND PUSH4 0x150B7A02 PUSH2 0x1E77 PUSH2 0xF9D JUMP JUMPDEST DUP8 DUP7 DUP7 PUSH1 0x40 MLOAD DUP6 PUSH4 0xFFFFFFFF AND PUSH1 0xE0 SHL DUP2 MSTORE PUSH1 0x4 ADD PUSH2 0x1E99 SWAP5 SWAP4 SWAP3 SWAP2 SWAP1 PUSH2 0x2E84 JUMP JUMPDEST PUSH1 0x20 PUSH1 0x40 MLOAD DUP1 DUP4 SUB DUP2 PUSH1 0x0 DUP8 DUP1 EXTCODESIZE ISZERO DUP1 ISZERO PUSH2 0x1EB3 JUMPI PUSH1 0x0 DUP1 REVERT JUMPDEST POP GAS CALL SWAP3 POP POP POP DUP1 ISZERO PUSH2 0x1EE4 JUMPI POP PUSH1 0x40 MLOAD RETURNDATASIZE PUSH1 0x1F NOT PUSH1 0x1F DUP3 ADD AND DUP3 ADD DUP1 PUSH1 0x40 MSTORE POP DUP2 ADD SWAP1 PUSH2 0x1EE1 SWAP2 SWAP1 PUSH2 0x281B JUMP JUMPDEST PUSH1 0x1 JUMPDEST PUSH2 0x1F67 JUMPI RETURNDATASIZE DUP1 PUSH1 0x0 DUP2 EQ PUSH2 0x1F14 JUMPI PUSH1 0x40 MLOAD SWAP2 POP PUSH1 0x1F NOT PUSH1 0x3F RETURNDATASIZE ADD AND DUP3 ADD PUSH1 0x40 MSTORE RETURNDATASIZE DUP3 MSTORE RETURNDATASIZE PUSH1 0x0 PUSH1 0x20 DUP5 ADD RETURNDATACOPY PUSH2 0x1F19 JUMP JUMPDEST PUSH1 0x60 SWAP2 POP JUMPDEST POP PUSH1 0x0 DUP2 MLOAD EQ ISZERO PUSH2 0x1F5F JUMPI PUSH1 0x40 MLOAD PUSH32 0x8C379A000000000000000000000000000000000000000000000000000000000 DUP2 MSTORE PUSH1 0x4 ADD PUSH2 0x1F56 SWAP1 PUSH2 0x2FE9 JUMP JUMPDEST PUSH1 0x40 MLOAD DUP1 SWAP2 SUB SWAP1 REVERT JUMPDEST DUP1 MLOAD DUP2 PUSH1 0x20 ADD REVERT JUMPDEST PUSH4 0x150B7A02 PUSH1 0xE0 SHL PUSH28 0xFFFFFFFFFFFFFFFFFFFFFFFFFFFFFFFFFFFFFFFFFFFFFFFFFFFFFFFF NOT AND DUP2 PUSH28 0xFFFFFFFFFFFFFFFFFFFFFFFFFFFFFFFFFFFFFFFFFFFFFFFFFFFFFFFF NOT AND EQ SWAP2 POP POP PUSH2 0x1FBC JUMP JUMPDEST PUSH1 0x1 SWAP1 POP JUMPDEST SWAP5 SWAP4 POP POP POP POP JUMP JUMPDEST PUSH2 0x1FCE DUP4 DUP4 PUSH2 0x21BA JUMP JUMPDEST PUSH2 0x1FDB PUSH1 0x0 DUP5 DUP5 DUP5 PUSH2 0x1E2D JUMP JUMPDEST PUSH2 0x201A JUMPI PUSH1 0x40 MLOAD PUSH32 0x8C379A000000000000000000000000000000000000000000000000000000000 DUP2 MSTORE PUSH1 0x4 ADD PUSH2 0x2011 SWAP1 PUSH2 0x2FE9 JUMP JUMPDEST PUSH1 0x40 MLOAD DUP1 SWAP2 SUB SWAP1 REVERT JUMPDEST POP POP POP JUMP JUMPDEST PUSH1 0x0 PUSH32 0x0 PUSH20 0xFFFFFFFFFFFFFFFFFFFFFFFFFFFFFFFFFFFFFFFF AND PUSH4 0x4000AEA0 PUSH32 0x0 DUP5 DUP7 PUSH1 0x0 PUSH1 0x40 MLOAD PUSH1 0x20 ADD PUSH2 0x2093 SWAP3 SWAP2 SWAP1 PUSH2 0x2F29 JUMP JUMPDEST PUSH1 0x40 MLOAD PUSH1 0x20 DUP2 DUP4 SUB SUB DUP2 MSTORE SWAP1 PUSH1 0x40 MSTORE PUSH1 0x40 MLOAD DUP5 PUSH4 0xFFFFFFFF AND PUSH1 0xE0 SHL DUP2 MSTORE PUSH1 0x4 ADD PUSH2 0x20C0 SWAP4 SWAP3 SWAP2 SWAP1 PUSH2 0x2ED0 JUMP JUMPDEST PUSH1 0x20 PUSH1 0x40 MLOAD DUP1 DUP4 SUB DUP2 PUSH1 0x0 DUP8 DUP1 EXTCODESIZE ISZERO DUP1 ISZERO PUSH2 0x20DA JUMPI PUSH1 0x0 DUP1 REVERT JUMPDEST POP GAS CALL ISZERO DUP1 ISZERO PUSH2 0x20EE JUMPI RETURNDATASIZE PUSH1 0x0 DUP1 RETURNDATACOPY RETURNDATASIZE PUSH1 0x0 REVERT JUMPDEST POP POP POP POP PUSH1 0x40 MLOAD RETURNDATASIZE PUSH1 0x1F NOT PUSH1 0x1F DUP3 ADD AND DUP3 ADD DUP1 PUSH1 0x40 MSTORE POP DUP2 ADD SWAP1 PUSH2 0x2112 SWAP2 SWAP1 PUSH2 0x2781 JUMP JUMPDEST POP PUSH1 0x0 PUSH2 0x2135 DUP5 PUSH1 0x0 ADDRESS PUSH1 0x6 PUSH1 0x0 DUP10 DUP2 MSTORE PUSH1 0x20 ADD SWAP1 DUP2 MSTORE PUSH1 0x20 ADD PUSH1 0x0 KECCAK256 SLOAD PUSH2 0x2394 JUMP JUMPDEST SWAP1 POP PUSH1 0x1 PUSH1 0x6 PUSH1 0x0 DUP7 DUP2 MSTORE PUSH1 0x20 ADD SWAP1 DUP2 MSTORE PUSH1 0x20 ADD PUSH1 0x0 KECCAK256 SLOAD PUSH2 0x2157 SWAP2 SWAP1 PUSH2 0x32E6 JUMP JUMPDEST PUSH1 0x6 PUSH1 0x0 DUP7 DUP2 MSTORE PUSH1 0x20 ADD SWAP1 DUP2 MSTORE PUSH1 0x20 ADD PUSH1 0x0 KECCAK256 DUP2 SWAP1 SSTORE POP PUSH2 0x2178 DUP5 DUP3 PUSH2 0x23D0 JUMP JUMPDEST SWAP2 POP POP SWAP3 SWAP2 POP POP JUMP JUMPDEST PUSH1 0x0 DUP2 DUP4 PUSH2 0x218F SWAP2 SWAP1 PUSH2 0x33C7 JUMP JUMPDEST SWAP1 POP SWAP3 SWAP2 POP POP JUMP JUMPDEST PUSH1 0x0 DUP1 DUP3 PUSH20 0xFFFFFFFFFFFFFFFFFFFFFFFFFFFFFFFFFFFFFFFF AND EXTCODESIZE GT SWAP1 POP SWAP2 SWAP1 POP JUMP JUMPDEST PUSH1 0x0 PUSH20 0xFFFFFFFFFFFFFFFFFFFFFFFFFFFFFFFFFFFFFFFF AND DUP3 PUSH20 0xFFFFFFFFFFFFFFFFFFFFFFFFFFFFFFFFFFFFFFFF AND EQ ISZERO PUSH2 0x222A JUMPI PUSH1 0x40 MLOAD PUSH32 0x8C379A000000000000000000000000000000000000000000000000000000000 DUP2 MSTORE PUSH1 0x4 ADD PUSH2 0x2221 SWAP1 PUSH2 0x3169 JUMP JUMPDEST PUSH1 0x40 MLOAD DUP1 SWAP2 SUB SWAP1 REVERT JUMPDEST PUSH2 0x2233 DUP2 PUSH2 0xF31 JUMP JUMPDEST ISZERO PUSH2 0x2273 JUMPI PUSH1 0x40 MLOAD PUSH32 0x8C379A000000000000000000000000000000000000000000000000000000000 DUP2 MSTORE PUSH1 0x4 ADD PUSH2 0x226A SWAP1 PUSH2 0x3029 JUMP JUMPDEST PUSH1 0x40 MLOAD DUP1 SWAP2 SUB SWAP1 REVERT JUMPDEST PUSH2 0x227F PUSH1 0x0 DUP4 DUP4 PUSH2 0x1B2F JUMP JUMPDEST PUSH1 0x1 PUSH1 0x3 PUSH1 0x0 DUP5 PUSH20 0xFFFFFFFFFFFFFFFFFFFFFFFFFFFFFFFFFFFFFFFF AND PUSH20 0xFFFFFFFFFFFFFFFFFFFFFFFFFFFFFFFFFFFFFFFF AND DUP2 MSTORE PUSH1 0x20 ADD SWAP1 DUP2 MSTORE PUSH1 0x20 ADD PUSH1 0x0 KECCAK256 PUSH1 0x0 DUP3 DUP3 SLOAD PUSH2 0x22CF SWAP2 SWAP1 PUSH2 0x32E6 JUMP JUMPDEST SWAP3 POP POP DUP2 SWAP1 SSTORE POP DUP2 PUSH1 0x2 PUSH1 0x0 DUP4 DUP2 MSTORE PUSH1 0x20 ADD SWAP1 DUP2 MSTORE PUSH1 0x20 ADD PUSH1 0x0 KECCAK256 PUSH1 0x0 PUSH2 0x100 EXP DUP2 SLOAD DUP2 PUSH20 0xFFFFFFFFFFFFFFFFFFFFFFFFFFFFFFFFFFFFFFFF MUL NOT AND SWAP1 DUP4 PUSH20 0xFFFFFFFFFFFFFFFFFFFFFFFFFFFFFFFFFFFFFFFF AND MUL OR SWAP1 SSTORE POP DUP1 DUP3 PUSH20 0xFFFFFFFFFFFFFFFFFFFFFFFFFFFFFFFFFFFFFFFF AND PUSH1 0x0 PUSH20 0xFFFFFFFFFFFFFFFFFFFFFFFFFFFFFFFFFFFFFFFF AND PUSH32 0xDDF252AD1BE2C89B69C2B068FC378DAA952BA7F163C4A11628F55A4DF523B3EF PUSH1 0x40 MLOAD PUSH1 0x40 MLOAD DUP1 SWAP2 SUB SWAP1 LOG4 PUSH2 0x2390 PUSH1 0x0 DUP4 DUP4 PUSH2 0x1B34 JUMP JUMPDEST POP POP JUMP JUMPDEST PUSH1 0x0 DUP5 DUP5 DUP5 DUP5 PUSH1 0x40 MLOAD PUSH1 0x20 ADD PUSH2 0x23AD SWAP5 SWAP4 SWAP3 SWAP2 SWAP1 PUSH2 0x2F52 JUMP JUMPDEST PUSH1 0x40 MLOAD PUSH1 0x20 DUP2 DUP4 SUB SUB DUP2 MSTORE SWAP1 PUSH1 0x40 MSTORE DUP1 MLOAD SWAP1 PUSH1 0x20 ADD KECCAK256 PUSH1 0x0 SHR SWAP1 POP SWAP5 SWAP4 POP POP POP POP JUMP JUMPDEST PUSH1 0x0 DUP3 DUP3 PUSH1 0x40 MLOAD PUSH1 0x20 ADD PUSH2 0x23E5 SWAP3 SWAP2 SWAP1 PUSH2 0x2D1A JUMP JUMPDEST PUSH1 0x40 MLOAD PUSH1 0x20 DUP2 DUP4 SUB SUB DUP2 MSTORE SWAP1 PUSH1 0x40 MSTORE DUP1 MLOAD SWAP1 PUSH1 0x20 ADD KECCAK256 SWAP1 POP SWAP3 SWAP2 POP POP JUMP JUMPDEST DUP3 DUP1 SLOAD PUSH2 0x240F SWAP1 PUSH2 0x34BB JUMP JUMPDEST SWAP1 PUSH1 0x0 MSTORE PUSH1 0x20 PUSH1 0x0 KECCAK256 SWAP1 PUSH1 0x1F ADD PUSH1 0x20 SWAP1 DIV DUP2 ADD SWAP3 DUP3 PUSH2 0x2431 JUMPI PUSH1 0x0 DUP6 SSTORE PUSH2 0x2478 JUMP JUMPDEST DUP3 PUSH1 0x1F LT PUSH2 0x244A JUMPI DUP1 MLOAD PUSH1 0xFF NOT AND DUP4 DUP1 ADD OR DUP6 SSTORE PUSH2 0x2478 JUMP JUMPDEST DUP3 DUP1 ADD PUSH1 0x1 ADD DUP6 SSTORE DUP3 ISZERO PUSH2 0x2478 JUMPI SWAP2 DUP3 ADD JUMPDEST DUP3 DUP2 GT ISZERO PUSH2 0x2477 JUMPI DUP3 MLOAD DUP3 SSTORE SWAP2 PUSH1 0x20 ADD SWAP2 SWAP1 PUSH1 0x1 ADD SWAP1 PUSH2 0x245C JUMP JUMPDEST JUMPDEST POP SWAP1 POP PUSH2 0x2485 SWAP2 SWAP1 PUSH2 0x2489 JUMP JUMPDEST POP SWAP1 JUMP JUMPDEST JUMPDEST DUP1 DUP3 GT ISZERO PUSH2 0x24A2 JUMPI PUSH1 0x0 DUP2 PUSH1 0x0 SWAP1 SSTORE POP PUSH1 0x1 ADD PUSH2 0x248A JUMP JUMPDEST POP SWAP1 JUMP JUMPDEST PUSH1 0x0 PUSH2 0x24B9 PUSH2 0x24B4 DUP5 PUSH2 0x3272 JUMP JUMPDEST PUSH2 0x324D JUMP JUMPDEST SWAP1 POP DUP3 DUP2 MSTORE PUSH1 0x20 DUP2 ADD DUP5 DUP5 DUP5 ADD GT ISZERO PUSH2 0x24D5 JUMPI PUSH2 0x24D4 PUSH2 0x369C JUMP JUMPDEST JUMPDEST PUSH2 0x24E0 DUP5 DUP3 DUP6 PUSH2 0x3479 JUMP JUMPDEST POP SWAP4 SWAP3 POP POP POP JUMP JUMPDEST PUSH1 0x0 DUP2 CALLDATALOAD SWAP1 POP PUSH2 0x24F7 DUP2 PUSH2 0x3CAB JUMP JUMPDEST SWAP3 SWAP2 POP POP JUMP JUMPDEST PUSH1 0x0 DUP2 CALLDATALOAD SWAP1 POP PUSH2 0x250C DUP2 PUSH2 0x3CC2 JUMP JUMPDEST SWAP3 SWAP2 POP POP JUMP JUMPDEST PUSH1 0x0 DUP2 MLOAD SWAP1 POP PUSH2 0x2521 DUP2 PUSH2 0x3CC2 JUMP JUMPDEST SWAP3 SWAP2 POP POP JUMP JUMPDEST PUSH1 0x0 DUP2 CALLDATALOAD SWAP1 POP PUSH2 0x2536 DUP2 PUSH2 0x3CD9 JUMP JUMPDEST SWAP3 SWAP2 POP POP JUMP JUMPDEST PUSH1 0x0 DUP2 CALLDATALOAD SWAP1 POP PUSH2 0x254B DUP2 PUSH2 0x3CF0 JUMP JUMPDEST SWAP3 SWAP2 POP POP JUMP JUMPDEST PUSH1 0x0 DUP2 MLOAD SWAP1 POP PUSH2 0x2560 DUP2 PUSH2 0x3CF0 JUMP JUMPDEST SWAP3 SWAP2 POP POP JUMP JUMPDEST PUSH1 0x0 DUP3 PUSH1 0x1F DUP4 ADD SLT PUSH2 0x257B JUMPI PUSH2 0x257A PUSH2 0x3697 JUMP JUMPDEST JUMPDEST DUP2 CALLDATALOAD PUSH2 0x258B DUP5 DUP3 PUSH1 0x20 DUP7 ADD PUSH2 0x24A6 JUMP JUMPDEST SWAP2 POP POP SWAP3 SWAP2 POP POP JUMP JUMPDEST PUSH1 0x0 DUP2 CALLDATALOAD SWAP1 POP PUSH2 0x25A3 DUP2 PUSH2 0x3D07 JUMP JUMPDEST SWAP3 SWAP2 POP POP JUMP JUMPDEST PUSH1 0x0 DUP2 MLOAD SWAP1 POP PUSH2 0x25B8 DUP2 PUSH2 0x3D07 JUMP JUMPDEST SWAP3 SWAP2 POP POP JUMP JUMPDEST PUSH1 0x0 PUSH1 0x20 DUP3 DUP5 SUB SLT ISZERO PUSH2 0x25D4 JUMPI PUSH2 0x25D3 PUSH2 0x36A6 JUMP JUMPDEST JUMPDEST PUSH1 0x0 PUSH2 0x25E2 DUP5 DUP3 DUP6 ADD PUSH2 0x24E8 JUMP JUMPDEST SWAP2 POP POP SWAP3 SWAP2 POP POP JUMP JUMPDEST PUSH1 0x0 DUP1 PUSH1 0x40 DUP4 DUP6 SUB SLT ISZERO PUSH2 0x2602 JUMPI PUSH2 0x2601 PUSH2 0x36A6 JUMP JUMPDEST JUMPDEST PUSH1 0x0 PUSH2 0x2610 DUP6 DUP3 DUP7 ADD PUSH2 0x24E8 JUMP JUMPDEST SWAP3 POP POP PUSH1 0x20 PUSH2 0x2621 DUP6 DUP3 DUP7 ADD PUSH2 0x24E8 JUMP JUMPDEST SWAP2 POP POP SWAP3 POP SWAP3 SWAP1 POP JUMP JUMPDEST PUSH1 0x0 DUP1 PUSH1 0x0 PUSH1 0x60 DUP5 DUP7 SUB SLT ISZERO PUSH2 0x2644 JUMPI PUSH2 0x2643 PUSH2 0x36A6 JUMP JUMPDEST JUMPDEST PUSH1 0x0 PUSH2 0x2652 DUP7 DUP3 DUP8 ADD PUSH2 0x24E8 JUMP JUMPDEST SWAP4 POP POP PUSH1 0x20 PUSH2 0x2663 DUP7 DUP3 DUP8 ADD PUSH2 0x24E8 JUMP JUMPDEST SWAP3 POP POP PUSH1 0x40 PUSH2 0x2674 DUP7 DUP3 DUP8 ADD PUSH2 0x2594 JUMP JUMPDEST SWAP2 POP POP SWAP3 POP SWAP3 POP SWAP3 JUMP JUMPDEST PUSH1 0x0 DUP1 PUSH1 0x0 DUP1 PUSH1 0x80 DUP6 DUP8 SUB SLT ISZERO PUSH2 0x2698 JUMPI PUSH2 0x2697 PUSH2 0x36A6 JUMP JUMPDEST JUMPDEST PUSH1 0x0 PUSH2 0x26A6 DUP8 DUP3 DUP9 ADD PUSH2 0x24E8 JUMP JUMPDEST SWAP5 POP POP PUSH1 0x20 PUSH2 0x26B7 DUP8 DUP3 DUP9 ADD PUSH2 0x24E8 JUMP JUMPDEST SWAP4 POP POP PUSH1 0x40 PUSH2 0x26C8 DUP8 DUP3 DUP9 ADD PUSH2 0x2594 JUMP JUMPDEST SWAP3 POP POP PUSH1 0x60 DUP6 ADD CALLDATALOAD PUSH8 0xFFFFFFFFFFFFFFFF DUP2 GT ISZERO PUSH2 0x26E9 JUMPI PUSH2 0x26E8 PUSH2 0x36A1 JUMP JUMPDEST JUMPDEST PUSH2 0x26F5 DUP8 DUP3 DUP9 ADD PUSH2 0x2566 JUMP JUMPDEST SWAP2 POP POP SWAP3 SWAP6 SWAP2 SWAP5 POP SWAP3 POP JUMP JUMPDEST PUSH1 0x0 DUP1 PUSH1 0x40 DUP4 DUP6 SUB SLT ISZERO PUSH2 0x2718 JUMPI PUSH2 0x2717 PUSH2 0x36A6 JUMP JUMPDEST JUMPDEST PUSH1 0x0 PUSH2 0x2726 DUP6 DUP3 DUP7 ADD PUSH2 0x24E8 JUMP JUMPDEST SWAP3 POP POP PUSH1 0x20 PUSH2 0x2737 DUP6 DUP3 DUP7 ADD PUSH2 0x24FD JUMP JUMPDEST SWAP2 POP POP SWAP3 POP SWAP3 SWAP1 POP JUMP JUMPDEST PUSH1 0x0 DUP1 PUSH1 0x40 DUP4 DUP6 SUB SLT ISZERO PUSH2 0x2758 JUMPI PUSH2 0x2757 PUSH2 0x36A6 JUMP JUMPDEST JUMPDEST PUSH1 0x0 PUSH2 0x2766 DUP6 DUP3 DUP7 ADD PUSH2 0x24E8 JUMP JUMPDEST SWAP3 POP POP PUSH1 0x20 PUSH2 0x2777 DUP6 DUP3 DUP7 ADD PUSH2 0x2594 JUMP JUMPDEST SWAP2 POP POP SWAP3 POP SWAP3 SWAP1 POP JUMP JUMPDEST PUSH1 0x0 PUSH1 0x20 DUP3 DUP5 SUB SLT ISZERO PUSH2 0x2797 JUMPI PUSH2 0x2796 PUSH2 0x36A6 JUMP JUMPDEST JUMPDEST PUSH1 0x0 PUSH2 0x27A5 DUP5 DUP3 DUP6 ADD PUSH2 0x2512 JUMP JUMPDEST SWAP2 POP POP SWAP3 SWAP2 POP POP JUMP JUMPDEST PUSH1 0x0 DUP1 PUSH1 0x40 DUP4 DUP6 SUB SLT ISZERO PUSH2 0x27C5 JUMPI PUSH2 0x27C4 PUSH2 0x36A6 JUMP JUMPDEST JUMPDEST PUSH1 0x0 PUSH2 0x27D3 DUP6 DUP3 DUP7 ADD PUSH2 0x2527 JUMP JUMPDEST SWAP3 POP POP PUSH1 0x20 PUSH2 0x27E4 DUP6 DUP3 DUP7 ADD PUSH2 0x2594 JUMP JUMPDEST SWAP2 POP POP SWAP3 POP SWAP3 SWAP1 POP JUMP JUMPDEST PUSH1 0x0 PUSH1 0x20 DUP3 DUP5 SUB SLT ISZERO PUSH2 0x2804 JUMPI PUSH2 0x2803 PUSH2 0x36A6 JUMP JUMPDEST JUMPDEST PUSH1 0x0 PUSH2 0x2812 DUP5 DUP3 DUP6 ADD PUSH2 0x253C JUMP JUMPDEST SWAP2 POP POP SWAP3 SWAP2 POP POP JUMP JUMPDEST PUSH1 0x0 PUSH1 0x20 DUP3 DUP5 SUB SLT ISZERO PUSH2 0x2831 JUMPI PUSH2 0x2830 PUSH2 0x36A6 JUMP JUMPDEST JUMPDEST PUSH1 0x0 PUSH2 0x283F DUP5 DUP3 DUP6 ADD PUSH2 0x2551 JUMP JUMPDEST SWAP2 POP POP SWAP3 SWAP2 POP POP JUMP JUMPDEST PUSH1 0x0 PUSH1 0x20 DUP3 DUP5 SUB SLT ISZERO PUSH2 0x285E JUMPI PUSH2 0x285D PUSH2 0x36A6 JUMP JUMPDEST JUMPDEST PUSH1 0x0 PUSH2 0x286C DUP5 DUP3 DUP6 ADD PUSH2 0x2594 JUMP JUMPDEST SWAP2 POP POP SWAP3 SWAP2 POP POP JUMP JUMPDEST PUSH1 0x0 PUSH1 0x20 DUP3 DUP5 SUB SLT ISZERO PUSH2 0x288B JUMPI PUSH2 0x288A PUSH2 0x36A6 JUMP JUMPDEST JUMPDEST PUSH1 0x0 PUSH2 0x2899 DUP5 DUP3 DUP6 ADD PUSH2 0x25A9 JUMP JUMPDEST SWAP2 POP POP SWAP3 SWAP2 POP POP JUMP JUMPDEST PUSH2 0x28AB DUP2 PUSH2 0x33FB JUMP JUMPDEST DUP3 MSTORE POP POP JUMP JUMPDEST PUSH2 0x28BA DUP2 PUSH2 0x340D JUMP JUMPDEST DUP3 MSTORE POP POP JUMP JUMPDEST PUSH2 0x28C9 DUP2 PUSH2 0x3419 JUMP JUMPDEST DUP3 MSTORE POP POP JUMP JUMPDEST PUSH2 0x28E0 PUSH2 0x28DB DUP3 PUSH2 0x3419 JUMP JUMPDEST PUSH2 0x3567 JUMP JUMPDEST DUP3 MSTORE POP POP JUMP JUMPDEST PUSH1 0x0 PUSH2 0x28F1 DUP3 PUSH2 0x32A3 JUMP JUMPDEST PUSH2 0x28FB DUP2 DUP6 PUSH2 0x32B9 JUMP JUMPDEST SWAP4 POP PUSH2 0x290B DUP2 DUP6 PUSH1 0x20 DUP7 ADD PUSH2 0x3488 JUMP JUMPDEST PUSH2 0x2914 DUP2 PUSH2 0x36AB JUMP JUMPDEST DUP5 ADD SWAP2 POP POP SWAP3 SWAP2 POP POP JUMP JUMPDEST PUSH1 0x0 PUSH2 0x292A DUP3 PUSH2 0x32AE JUMP JUMPDEST PUSH2 0x2934 DUP2 DUP6 PUSH2 0x32CA JUMP JUMPDEST SWAP4 POP PUSH2 0x2944 DUP2 DUP6 PUSH1 0x20 DUP7 ADD PUSH2 0x3488 JUMP JUMPDEST PUSH2 0x294D DUP2 PUSH2 0x36AB JUMP JUMPDEST DUP5 ADD SWAP2 POP POP SWAP3 SWAP2 POP POP JUMP JUMPDEST PUSH1 0x0 PUSH2 0x2963 DUP3 PUSH2 0x32AE JUMP JUMPDEST PUSH2 0x296D DUP2 DUP6 PUSH2 0x32DB JUMP JUMPDEST SWAP4 POP PUSH2 0x297D DUP2 DUP6 PUSH1 0x20 DUP7 ADD PUSH2 0x3488 JUMP JUMPDEST DUP1 DUP5 ADD SWAP2 POP POP SWAP3 SWAP2 POP POP JUMP JUMPDEST PUSH1 0x0 PUSH2 0x2996 PUSH1 0x32 DUP4 PUSH2 0x32CA JUMP JUMPDEST SWAP2 POP PUSH2 0x29A1 DUP3 PUSH2 0x36BC JUMP JUMPDEST PUSH1 0x40 DUP3 ADD SWAP1 POP SWAP2 SWAP1 POP JUMP JUMPDEST PUSH1 0x0 PUSH2 0x29B9 PUSH1 0x25 DUP4 PUSH2 0x32CA JUMP JUMPDEST SWAP2 POP PUSH2 0x29C4 DUP3 PUSH2 0x370B JUMP JUMPDEST PUSH1 0x40 DUP3 ADD SWAP1 POP SWAP2 SWAP1 POP JUMP JUMPDEST PUSH1 0x0 PUSH2 0x29DC PUSH1 0x1C DUP4 PUSH2 0x32CA JUMP JUMPDEST SWAP2 POP PUSH2 0x29E7 DUP3 PUSH2 0x375A JUMP JUMPDEST PUSH1 0x20 DUP3 ADD SWAP1 POP SWAP2 SWAP1 POP JUMP JUMPDEST PUSH1 0x0 PUSH2 0x29FF PUSH1 0x24 DUP4 PUSH2 0x32CA JUMP JUMPDEST SWAP2 POP PUSH2 0x2A0A DUP3 PUSH2 0x3783 JUMP JUMPDEST PUSH1 0x40 DUP3 ADD SWAP1 POP SWAP2 SWAP1 POP JUMP JUMPDEST PUSH1 0x0 PUSH2 0x2A22 PUSH1 0x19 DUP4 PUSH2 0x32CA JUMP JUMPDEST SWAP2 POP PUSH2 0x2A2D DUP3 PUSH2 0x37D2 JUMP JUMPDEST PUSH1 0x20 DUP3 ADD SWAP1 POP SWAP2 SWAP1 POP JUMP JUMPDEST PUSH1 0x0 PUSH2 0x2A45 PUSH1 0x2F DUP4 PUSH2 0x32CA JUMP JUMPDEST SWAP2 POP PUSH2 0x2A50 DUP3 PUSH2 0x37FB JUMP JUMPDEST PUSH1 0x40 DUP3 ADD SWAP1 POP SWAP2 SWAP1 POP JUMP JUMPDEST PUSH1 0x0 PUSH2 0x2A68 PUSH1 0x2B DUP4 PUSH2 0x32CA JUMP JUMPDEST SWAP2 POP PUSH2 0x2A73 DUP3 PUSH2 0x384A JUMP JUMPDEST PUSH1 0x40 DUP3 ADD SWAP1 POP SWAP2 SWAP1 POP JUMP JUMPDEST PUSH1 0x0 PUSH2 0x2A8B PUSH1 0x17 DUP4 PUSH2 0x32CA JUMP JUMPDEST SWAP2 POP PUSH2 0x2A96 DUP3 PUSH2 0x3899 JUMP JUMPDEST PUSH1 0x20 DUP3 ADD SWAP1 POP SWAP2 SWAP1 POP JUMP JUMPDEST PUSH1 0x0 PUSH2 0x2AAE PUSH1 0x2C DUP4 PUSH2 0x32CA JUMP JUMPDEST SWAP2 POP PUSH2 0x2AB9 DUP3 PUSH2 0x38C2 JUMP JUMPDEST PUSH1 0x40 DUP3 ADD SWAP1 POP SWAP2 SWAP1 POP JUMP JUMPDEST PUSH1 0x0 PUSH2 0x2AD1 PUSH1 0x29 DUP4 PUSH2 0x32CA JUMP JUMPDEST SWAP2 POP PUSH2 0x2ADC DUP3 PUSH2 0x3911 JUMP JUMPDEST PUSH1 0x40 DUP3 ADD SWAP1 POP SWAP2 SWAP1 POP JUMP JUMPDEST PUSH1 0x0 PUSH2 0x2AF4 PUSH1 0x38 DUP4 PUSH2 0x32CA JUMP JUMPDEST SWAP2 POP PUSH2 0x2AFF DUP3 PUSH2 0x3960 JUMP JUMPDEST PUSH1 0x40 DUP3 ADD SWAP1 POP SWAP2 SWAP1 POP JUMP JUMPDEST PUSH1 0x0 PUSH2 0x2B17 PUSH1 0x1 DUP4 PUSH2 0x32DB JUMP JUMPDEST SWAP2 POP PUSH2 0x2B22 DUP3 PUSH2 0x39AF JUMP JUMPDEST PUSH1 0x1 DUP3 ADD SWAP1 POP SWAP2 SWAP1 POP JUMP JUMPDEST PUSH1 0x0 PUSH2 0x2B3A PUSH1 0x29 DUP4 PUSH2 0x32CA JUMP JUMPDEST SWAP2 POP PUSH2 0x2B45 DUP3 PUSH2 0x39D8 JUMP JUMPDEST PUSH1 0x40 DUP3 ADD SWAP1 POP SWAP2 SWAP1 POP JUMP JUMPDEST PUSH1 0x0 PUSH2 0x2B5D PUSH1 0x24 DUP4 PUSH2 0x32DB JUMP JUMPDEST SWAP2 POP PUSH2 0x2B68 DUP3 PUSH2 0x3A27 JUMP JUMPDEST PUSH1 0x24 DUP3 ADD SWAP1 POP SWAP2 SWAP1 POP JUMP JUMPDEST PUSH1 0x0 PUSH2 0x2B80 PUSH1 0x20 DUP4 PUSH2 0x32CA JUMP JUMPDEST SWAP2 POP PUSH2 0x2B8B DUP3 PUSH2 0x3A76 JUMP JUMPDEST PUSH1 0x20 DUP3 ADD SWAP1 POP SWAP2 SWAP1 POP JUMP JUMPDEST PUSH1 0x0 PUSH2 0x2BA3 PUSH1 0x1 DUP4 PUSH2 0x32DB JUMP JUMPDEST SWAP2 POP PUSH2 0x2BAE DUP3 PUSH2 0x3A9F JUMP JUMPDEST PUSH1 0x1 DUP3 ADD SWAP1 POP SWAP2 SWAP1 POP JUMP JUMPDEST PUSH1 0x0 PUSH2 0x2BC6 PUSH1 0x2C DUP4 PUSH2 0x32CA JUMP JUMPDEST SWAP2 POP PUSH2 0x2BD1 DUP3 PUSH2 0x3AC8 JUMP JUMPDEST PUSH1 0x40 DUP3 ADD SWAP1 POP SWAP2 SWAP1 POP JUMP JUMPDEST PUSH1 0x0 PUSH2 0x2BE9 PUSH1 0x1 DUP4 PUSH2 0x32DB JUMP JUMPDEST SWAP2 POP PUSH2 0x2BF4 DUP3 PUSH2 0x3B17 JUMP JUMPDEST PUSH1 0x1 DUP3 ADD SWAP1 POP SWAP2 SWAP1 POP JUMP JUMPDEST PUSH1 0x0 PUSH2 0x2C0C PUSH1 0x1F DUP4 PUSH2 0x32CA JUMP JUMPDEST SWAP2 POP PUSH2 0x2C17 DUP3 PUSH2 0x3B40 JUMP JUMPDEST PUSH1 0x20 DUP3 ADD SWAP1 POP SWAP2 SWAP1 POP JUMP JUMPDEST PUSH1 0x0 PUSH2 0x2C2F PUSH1 0x21 DUP4 PUSH2 0x32CA JUMP JUMPDEST SWAP2 POP PUSH2 0x2C3A DUP3 PUSH2 0x3B69 JUMP JUMPDEST PUSH1 0x40 DUP3 ADD SWAP1 POP SWAP2 SWAP1 POP JUMP JUMPDEST PUSH1 0x0 PUSH2 0x2C52 PUSH1 0x1D DUP4 PUSH2 0x32DB JUMP JUMPDEST SWAP2 POP PUSH2 0x2C5D DUP3 PUSH2 0x3BB8 JUMP JUMPDEST PUSH1 0x1D DUP3 ADD SWAP1 POP SWAP2 SWAP1 POP JUMP JUMPDEST PUSH1 0x0 PUSH2 0x2C75 PUSH1 0x5 DUP4 PUSH2 0x32DB JUMP JUMPDEST SWAP2 POP PUSH2 0x2C80 DUP3 PUSH2 0x3BE1 JUMP JUMPDEST PUSH1 0x5 DUP3 ADD SWAP1 POP SWAP2 SWAP1 POP JUMP JUMPDEST PUSH1 0x0 PUSH2 0x2C98 PUSH1 0x2 DUP4 PUSH2 0x32DB JUMP JUMPDEST SWAP2 POP PUSH2 0x2CA3 DUP3 PUSH2 0x3C0A JUMP JUMPDEST PUSH1 0x2 DUP3 ADD SWAP1 POP SWAP2 SWAP1 POP JUMP JUMPDEST PUSH1 0x0 PUSH2 0x2CBB PUSH1 0x15 DUP4 PUSH2 0x32DB JUMP JUMPDEST SWAP2 POP PUSH2 0x2CC6 DUP3 PUSH2 0x3C33 JUMP JUMPDEST PUSH1 0x15 DUP3 ADD SWAP1 POP SWAP2 SWAP1 POP JUMP JUMPDEST PUSH1 0x0 PUSH2 0x2CDE PUSH1 0x31 DUP4 PUSH2 0x32CA JUMP JUMPDEST SWAP2 POP PUSH2 0x2CE9 DUP3 PUSH2 0x3C5C JUMP JUMPDEST PUSH1 0x40 DUP3 ADD SWAP1 POP SWAP2 SWAP1 POP JUMP JUMPDEST PUSH2 0x2CFD DUP2 PUSH2 0x346F JUMP JUMPDEST DUP3 MSTORE POP POP JUMP JUMPDEST PUSH2 0x2D14 PUSH2 0x2D0F DUP3 PUSH2 0x346F JUMP JUMPDEST PUSH2 0x3571 JUMP JUMPDEST DUP3 MSTORE POP POP JUMP JUMPDEST PUSH1 0x0 PUSH2 0x2D26 DUP3 DUP6 PUSH2 0x28CF JUMP JUMPDEST PUSH1 0x20 DUP3 ADD SWAP2 POP PUSH2 0x2D36 DUP3 DUP5 PUSH2 0x2D03 JUMP JUMPDEST PUSH1 0x20 DUP3 ADD SWAP2 POP DUP2 SWAP1 POP SWAP4 SWAP3 POP POP POP JUMP JUMPDEST PUSH1 0x0 PUSH2 0x2D52 DUP3 DUP5 PUSH2 0x2958 JUMP JUMPDEST SWAP2 POP DUP2 SWAP1 POP SWAP3 SWAP2 POP POP JUMP JUMPDEST PUSH1 0x0 PUSH2 0x2D69 DUP3 DUP7 PUSH2 0x2958 JUMP JUMPDEST SWAP2 POP PUSH2 0x2D75 DUP3 DUP6 PUSH2 0x2958 JUMP JUMPDEST SWAP2 POP PUSH2 0x2D81 DUP3 DUP5 PUSH2 0x2958 JUMP JUMPDEST SWAP2 POP DUP2 SWAP1 POP SWAP5 SWAP4 POP POP POP POP JUMP JUMPDEST PUSH1 0x0 PUSH2 0x2D9A DUP3 DUP8 PUSH2 0x2958 JUMP JUMPDEST SWAP2 POP PUSH2 0x2DA6 DUP3 DUP7 PUSH2 0x2958 JUMP JUMPDEST SWAP2 POP PUSH2 0x2DB2 DUP3 DUP6 PUSH2 0x2958 JUMP JUMPDEST SWAP2 POP PUSH2 0x2DBE DUP3 DUP5 PUSH2 0x2958 JUMP JUMPDEST SWAP2 POP DUP2 SWAP1 POP SWAP6 SWAP5 POP POP POP POP POP JUMP JUMPDEST PUSH1 0x0 PUSH2 0x2DD7 DUP3 PUSH2 0x2BDC JUMP JUMPDEST SWAP2 POP PUSH2 0x2DE2 DUP3 PUSH2 0x2CAE JUMP JUMPDEST SWAP2 POP PUSH2 0x2DEE DUP3 DUP6 PUSH2 0x2958 JUMP JUMPDEST SWAP2 POP PUSH2 0x2DF9 DUP3 PUSH2 0x2C8B JUMP JUMPDEST SWAP2 POP PUSH2 0x2E04 DUP3 PUSH2 0x2B50 JUMP JUMPDEST SWAP2 POP PUSH2 0x2E10 DUP3 DUP5 PUSH2 0x2958 JUMP JUMPDEST SWAP2 POP PUSH2 0x2E1B DUP3 PUSH2 0x2B0A JUMP JUMPDEST SWAP2 POP PUSH2 0x2E26 DUP3 PUSH2 0x2B96 JUMP JUMPDEST SWAP2 POP DUP2 SWAP1 POP SWAP4 SWAP3 POP POP POP JUMP JUMPDEST PUSH1 0x0 PUSH2 0x2E3D DUP3 PUSH2 0x2C45 JUMP JUMPDEST SWAP2 POP PUSH2 0x2E49 DUP3 DUP5 PUSH2 0x2958 JUMP JUMPDEST SWAP2 POP DUP2 SWAP1 POP SWAP3 SWAP2 POP POP JUMP JUMPDEST PUSH1 0x0 PUSH2 0x2E5F DUP3 PUSH2 0x2C68 JUMP JUMPDEST SWAP2 POP DUP2 SWAP1 POP SWAP2 SWAP1 POP JUMP JUMPDEST PUSH1 0x0 PUSH1 0x20 DUP3 ADD SWAP1 POP PUSH2 0x2E7E PUSH1 0x0 DUP4 ADD DUP5 PUSH2 0x28A2 JUMP JUMPDEST SWAP3 SWAP2 POP POP JUMP JUMPDEST PUSH1 0x0 PUSH1 0x80 DUP3 ADD SWAP1 POP PUSH2 0x2E99 PUSH1 0x0 DUP4 ADD DUP8 PUSH2 0x28A2 JUMP JUMPDEST PUSH2 0x2EA6 PUSH1 0x20 DUP4 ADD DUP7 PUSH2 0x28A2 JUMP JUMPDEST PUSH2 0x2EB3 PUSH1 0x40 DUP4 ADD DUP6 PUSH2 0x2CF4 JUMP JUMPDEST DUP2 DUP2 SUB PUSH1 0x60 DUP4 ADD MSTORE PUSH2 0x2EC5 DUP2 DUP5 PUSH2 0x28E6 JUMP JUMPDEST SWAP1 POP SWAP6 SWAP5 POP POP POP POP POP JUMP JUMPDEST PUSH1 0x0 PUSH1 0x60 DUP3 ADD SWAP1 POP PUSH2 0x2EE5 PUSH1 0x0 DUP4 ADD DUP7 PUSH2 0x28A2 JUMP JUMPDEST PUSH2 0x2EF2 PUSH1 0x20 DUP4 ADD DUP6 PUSH2 0x2CF4 JUMP JUMPDEST DUP2 DUP2 SUB PUSH1 0x40 DUP4 ADD MSTORE PUSH2 0x2F04 DUP2 DUP5 PUSH2 0x28E6 JUMP JUMPDEST SWAP1 POP SWAP5 SWAP4 POP POP POP POP JUMP JUMPDEST PUSH1 0x0 PUSH1 0x20 DUP3 ADD SWAP1 POP PUSH2 0x2F23 PUSH1 0x0 DUP4 ADD DUP5 PUSH2 0x28B1 JUMP JUMPDEST SWAP3 SWAP2 POP POP JUMP JUMPDEST PUSH1 0x0 PUSH1 0x40 DUP3 ADD SWAP1 POP PUSH2 0x2F3E PUSH1 0x0 DUP4 ADD DUP6 PUSH2 0x28C0 JUMP JUMPDEST PUSH2 0x2F4B PUSH1 0x20 DUP4 ADD DUP5 PUSH2 0x2CF4 JUMP JUMPDEST SWAP4 SWAP3 POP POP POP JUMP JUMPDEST PUSH1 0x0 PUSH1 0x80 DUP3 ADD SWAP1 POP PUSH2 0x2F67 PUSH1 0x0 DUP4 ADD DUP8 PUSH2 0x28C0 JUMP JUMPDEST PUSH2 0x2F74 PUSH1 0x20 DUP4 ADD DUP7 PUSH2 0x2CF4 JUMP JUMPDEST PUSH2 0x2F81 PUSH1 0x40 DUP4 ADD DUP6 PUSH2 0x28A2 JUMP JUMPDEST PUSH2 0x2F8E PUSH1 0x60 DUP4 ADD DUP5 PUSH2 0x2CF4 JUMP JUMPDEST SWAP6 SWAP5 POP POP POP POP POP JUMP JUMPDEST PUSH1 0x0 PUSH1 0x20 DUP3 ADD SWAP1 POP DUP2 DUP2 SUB PUSH1 0x0 DUP4 ADD MSTORE PUSH2 0x2FB1 DUP2 DUP5 PUSH2 0x291F JUMP JUMPDEST SWAP1 POP SWAP3 SWAP2 POP POP JUMP JUMPDEST PUSH1 0x0 PUSH1 0x40 DUP3 ADD SWAP1 POP DUP2 DUP2 SUB PUSH1 0x0 DUP4 ADD MSTORE PUSH2 0x2FD3 DUP2 DUP6 PUSH2 0x291F JUMP JUMPDEST SWAP1 POP PUSH2 0x2FE2 PUSH1 0x20 DUP4 ADD DUP5 PUSH2 0x2CF4 JUMP JUMPDEST SWAP4 SWAP3 POP POP POP JUMP JUMPDEST PUSH1 0x0 PUSH1 0x20 DUP3 ADD SWAP1 POP DUP2 DUP2 SUB PUSH1 0x0 DUP4 ADD MSTORE PUSH2 0x3002 DUP2 PUSH2 0x2989 JUMP JUMPDEST SWAP1 POP SWAP2 SWAP1 POP JUMP JUMPDEST PUSH1 0x0 PUSH1 0x20 DUP3 ADD SWAP1 POP DUP2 DUP2 SUB PUSH1 0x0 DUP4 ADD MSTORE PUSH2 0x3022 DUP2 PUSH2 0x29AC JUMP JUMPDEST SWAP1 POP SWAP2 SWAP1 POP JUMP JUMPDEST PUSH1 0x0 PUSH1 0x20 DUP3 ADD SWAP1 POP DUP2 DUP2 SUB PUSH1 0x0 DUP4 ADD MSTORE PUSH2 0x3042 DUP2 PUSH2 0x29CF JUMP JUMPDEST SWAP1 POP SWAP2 SWAP1 POP JUMP JUMPDEST PUSH1 0x0 PUSH1 0x20 DUP3 ADD SWAP1 POP DUP2 DUP2 SUB PUSH1 0x0 DUP4 ADD MSTORE PUSH2 0x3062 DUP2 PUSH2 0x29F2 JUMP JUMPDEST SWAP1 POP SWAP2 SWAP1 POP JUMP JUMPDEST PUSH1 0x0 PUSH1 0x20 DUP3 ADD SWAP1 POP DUP2 DUP2 SUB PUSH1 0x0 DUP4 ADD MSTORE PUSH2 0x3082 DUP2 PUSH2 0x2A15 JUMP JUMPDEST SWAP1 POP SWAP2 SWAP1 POP JUMP JUMPDEST PUSH1 0x0 PUSH1 0x20 DUP3 ADD SWAP1 POP DUP2 DUP2 SUB PUSH1 0x0 DUP4 ADD MSTORE PUSH2 0x30A2 DUP2 PUSH2 0x2A38 JUMP JUMPDEST SWAP1 POP SWAP2 SWAP1 POP JUMP JUMPDEST PUSH1 0x0 PUSH1 0x20 DUP3 ADD SWAP1 POP DUP2 DUP2 SUB PUSH1 0x0 DUP4 ADD MSTORE PUSH2 0x30C2 DUP2 PUSH2 0x2A5B JUMP JUMPDEST SWAP1 POP SWAP2 SWAP1 POP JUMP JUMPDEST PUSH1 0x0 PUSH1 0x20 DUP3 ADD SWAP1 POP DUP2 DUP2 SUB PUSH1 0x0 DUP4 ADD MSTORE PUSH2 0x30E2 DUP2 PUSH2 0x2A7E JUMP JUMPDEST SWAP1 POP SWAP2 SWAP1 POP JUMP JUMPDEST PUSH1 0x0 PUSH1 0x20 DUP3 ADD SWAP1 POP DUP2 DUP2 SUB PUSH1 0x0 DUP4 ADD MSTORE PUSH2 0x3102 DUP2 PUSH2 0x2AA1 JUMP JUMPDEST SWAP1 POP SWAP2 SWAP1 POP JUMP JUMPDEST PUSH1 0x0 PUSH1 0x20 DUP3 ADD SWAP1 POP DUP2 DUP2 SUB PUSH1 0x0 DUP4 ADD MSTORE PUSH2 0x3122 DUP2 PUSH2 0x2AC4 JUMP JUMPDEST SWAP1 POP SWAP2 SWAP1 POP JUMP JUMPDEST PUSH1 0x0 PUSH1 0x20 DUP3 ADD SWAP1 POP DUP2 DUP2 SUB PUSH1 0x0 DUP4 ADD MSTORE PUSH2 0x3142 DUP2 PUSH2 0x2AE7 JUMP JUMPDEST SWAP1 POP SWAP2 SWAP1 POP JUMP JUMPDEST PUSH1 0x0 PUSH1 0x20 DUP3 ADD SWAP1 POP DUP2 DUP2 SUB PUSH1 0x0 DUP4 ADD MSTORE PUSH2 0x3162 DUP2 PUSH2 0x2B2D JUMP JUMPDEST SWAP1 POP SWAP2 SWAP1 POP JUMP JUMPDEST PUSH1 0x0 PUSH1 0x20 DUP3 ADD SWAP1 POP DUP2 DUP2 SUB PUSH1 0x0 DUP4 ADD MSTORE PUSH2 0x3182 DUP2 PUSH2 0x2B73 JUMP JUMPDEST SWAP1 POP SWAP2 SWAP1 POP JUMP JUMPDEST PUSH1 0x0 PUSH1 0x20 DUP3 ADD SWAP1 POP DUP2 DUP2 SUB PUSH1 0x0 DUP4 ADD MSTORE PUSH2 0x31A2 DUP2 PUSH2 0x2BB9 JUMP JUMPDEST SWAP1 POP SWAP2 SWAP1 POP JUMP JUMPDEST PUSH1 0x0 PUSH1 0x20 DUP3 ADD SWAP1 POP DUP2 DUP2 SUB PUSH1 0x0 DUP4 ADD MSTORE PUSH2 0x31C2 DUP2 PUSH2 0x2BFF JUMP JUMPDEST SWAP1 POP SWAP2 SWAP1 POP JUMP JUMPDEST PUSH1 0x0 PUSH1 0x20 DUP3 ADD SWAP1 POP DUP2 DUP2 SUB PUSH1 0x0 DUP4 ADD MSTORE PUSH2 0x31E2 DUP2 PUSH2 0x2C22 JUMP JUMPDEST SWAP1 POP SWAP2 SWAP1 POP JUMP JUMPDEST PUSH1 0x0 PUSH1 0x20 DUP3 ADD SWAP1 POP DUP2 DUP2 SUB PUSH1 0x0 DUP4 ADD MSTORE PUSH2 0x3202 DUP2 PUSH2 0x2CD1 JUMP JUMPDEST SWAP1 POP SWAP2 SWAP1 POP JUMP JUMPDEST PUSH1 0x0 PUSH1 0x20 DUP3 ADD SWAP1 POP PUSH2 0x321E PUSH1 0x0 DUP4 ADD DUP5 PUSH2 0x2CF4 JUMP JUMPDEST SWAP3 SWAP2 POP POP JUMP JUMPDEST PUSH1 0x0 PUSH1 0x40 DUP3 ADD SWAP1 POP PUSH2 0x3239 PUSH1 0x0 DUP4 ADD DUP6 PUSH2 0x2CF4 JUMP JUMPDEST PUSH2 0x3246 PUSH1 0x20 DUP4 ADD DUP5 PUSH2 0x2CF4 JUMP JUMPDEST SWAP4 SWAP3 POP POP POP JUMP JUMPDEST PUSH1 0x0 PUSH2 0x3257 PUSH2 0x3268 JUMP JUMPDEST SWAP1 POP PUSH2 0x3263 DUP3 DUP3 PUSH2 0x34ED JUMP JUMPDEST SWAP2 SWAP1 POP JUMP JUMPDEST PUSH1 0x0 PUSH1 0x40 MLOAD SWAP1 POP SWAP1 JUMP JUMPDEST PUSH1 0x0 PUSH8 0xFFFFFFFFFFFFFFFF DUP3 GT ISZERO PUSH2 0x328D JUMPI PUSH2 0x328C PUSH2 0x3668 JUMP JUMPDEST JUMPDEST PUSH2 0x3296 DUP3 PUSH2 0x36AB JUMP JUMPDEST SWAP1 POP PUSH1 0x20 DUP2 ADD SWAP1 POP SWAP2 SWAP1 POP JUMP JUMPDEST PUSH1 0x0 DUP2 MLOAD SWAP1 POP SWAP2 SWAP1 POP JUMP JUMPDEST PUSH1 0x0 DUP2 MLOAD SWAP1 POP SWAP2 SWAP1 POP JUMP JUMPDEST PUSH1 0x0 DUP3 DUP3 MSTORE PUSH1 0x20 DUP3 ADD SWAP1 POP SWAP3 SWAP2 POP POP JUMP JUMPDEST PUSH1 0x0 DUP3 DUP3 MSTORE PUSH1 0x20 DUP3 ADD SWAP1 POP SWAP3 SWAP2 POP POP JUMP JUMPDEST PUSH1 0x0 DUP2 SWAP1 POP SWAP3 SWAP2 POP POP JUMP JUMPDEST PUSH1 0x0 PUSH2 0x32F1 DUP3 PUSH2 0x346F JUMP JUMPDEST SWAP2 POP PUSH2 0x32FC DUP4 PUSH2 0x346F JUMP JUMPDEST SWAP3 POP DUP3 PUSH32 0xFFFFFFFFFFFFFFFFFFFFFFFFFFFFFFFFFFFFFFFFFFFFFFFFFFFFFFFFFFFFFFFF SUB DUP3 GT ISZERO PUSH2 0x3331 JUMPI PUSH2 0x3330 PUSH2 0x35AC JUMP JUMPDEST JUMPDEST DUP3 DUP3 ADD SWAP1 POP SWAP3 SWAP2 POP POP JUMP JUMPDEST PUSH1 0x0 PUSH2 0x3347 DUP3 PUSH2 0x346F JUMP JUMPDEST SWAP2 POP PUSH2 0x3352 DUP4 PUSH2 0x346F JUMP JUMPDEST SWAP3 POP DUP3 PUSH2 0x3362 JUMPI PUSH2 0x3361 PUSH2 0x35DB JUMP JUMPDEST JUMPDEST DUP3 DUP3 DIV SWAP1 POP SWAP3 SWAP2 POP POP JUMP JUMPDEST PUSH1 0x0 PUSH2 0x3378 DUP3 PUSH2 0x346F JUMP JUMPDEST SWAP2 POP PUSH2 0x3383 DUP4 PUSH2 0x346F JUMP JUMPDEST SWAP3 POP DUP2 PUSH32 0xFFFFFFFFFFFFFFFFFFFFFFFFFFFFFFFFFFFFFFFFFFFFFFFFFFFFFFFFFFFFFFFF DIV DUP4 GT DUP3 ISZERO ISZERO AND ISZERO PUSH2 0x33BC JUMPI PUSH2 0x33BB PUSH2 0x35AC JUMP JUMPDEST JUMPDEST DUP3 DUP3 MUL SWAP1 POP SWAP3 SWAP2 POP POP JUMP JUMPDEST PUSH1 0x0 PUSH2 0x33D2 DUP3 PUSH2 0x346F JUMP JUMPDEST SWAP2 POP PUSH2 0x33DD DUP4 PUSH2 0x346F JUMP JUMPDEST SWAP3 POP DUP3 DUP3 LT ISZERO PUSH2 0x33F0 JUMPI PUSH2 0x33EF PUSH2 0x35AC JUMP JUMPDEST JUMPDEST DUP3 DUP3 SUB SWAP1 POP SWAP3 SWAP2 POP POP JUMP JUMPDEST PUSH1 0x0 PUSH2 0x3406 DUP3 PUSH2 0x344F JUMP JUMPDEST SWAP1 POP SWAP2 SWAP1 POP JUMP JUMPDEST PUSH1 0x0 DUP2 ISZERO ISZERO SWAP1 POP SWAP2 SWAP1 POP JUMP JUMPDEST PUSH1 0x0 DUP2 SWAP1 POP SWAP2 SWAP1 POP JUMP JUMPDEST PUSH1 0x0 PUSH32 0xFFFFFFFF00000000000000000000000000000000000000000000000000000000 DUP3 AND SWAP1 POP SWAP2 SWAP1 POP JUMP JUMPDEST PUSH1 0x0 PUSH20 0xFFFFFFFFFFFFFFFFFFFFFFFFFFFFFFFFFFFFFFFF DUP3 AND SWAP1 POP SWAP2 SWAP1 POP JUMP JUMPDEST PUSH1 0x0 DUP2 SWAP1 POP SWAP2 SWAP1 POP JUMP JUMPDEST DUP3 DUP2 DUP4 CALLDATACOPY PUSH1 0x0 DUP4 DUP4 ADD MSTORE POP POP POP JUMP JUMPDEST PUSH1 0x0 JUMPDEST DUP4 DUP2 LT ISZERO PUSH2 0x34A6 JUMPI DUP1 DUP3 ADD MLOAD DUP2 DUP5 ADD MSTORE PUSH1 0x20 DUP2 ADD SWAP1 POP PUSH2 0x348B JUMP JUMPDEST DUP4 DUP2 GT ISZERO PUSH2 0x34B5 JUMPI PUSH1 0x0 DUP5 DUP5 ADD MSTORE JUMPDEST POP POP POP POP JUMP JUMPDEST PUSH1 0x0 PUSH1 0x2 DUP3 DIV SWAP1 POP PUSH1 0x1 DUP3 AND DUP1 PUSH2 0x34D3 JUMPI PUSH1 0x7F DUP3 AND SWAP2 POP JUMPDEST PUSH1 0x20 DUP3 LT DUP2 EQ ISZERO PUSH2 0x34E7 JUMPI PUSH2 0x34E6 PUSH2 0x360A JUMP JUMPDEST JUMPDEST POP SWAP2 SWAP1 POP JUMP JUMPDEST PUSH2 0x34F6 DUP3 PUSH2 0x36AB JUMP JUMPDEST DUP2 ADD DUP2 DUP2 LT PUSH8 0xFFFFFFFFFFFFFFFF DUP3 GT OR ISZERO PUSH2 0x3515 JUMPI PUSH2 0x3514 PUSH2 0x3668 JUMP JUMPDEST JUMPDEST DUP1 PUSH1 0x40 MSTORE POP POP POP JUMP JUMPDEST PUSH1 0x0 PUSH2 0x3529 DUP3 PUSH2 0x346F JUMP JUMPDEST SWAP2 POP PUSH32 0xFFFFFFFFFFFFFFFFFFFFFFFFFFFFFFFFFFFFFFFFFFFFFFFFFFFFFFFFFFFFFFFF DUP3 EQ ISZERO PUSH2 0x355C JUMPI PUSH2 0x355B PUSH2 0x35AC JUMP JUMPDEST JUMPDEST PUSH1 0x1 DUP3 ADD SWAP1 POP SWAP2 SWAP1 POP JUMP JUMPDEST PUSH1 0x0 DUP2 SWAP1 POP SWAP2 SWAP1 POP JUMP JUMPDEST PUSH1 0x0 DUP2 SWAP1 POP SWAP2 SWAP1 POP JUMP JUMPDEST PUSH1 0x0 PUSH2 0x3586 DUP3 PUSH2 0x346F JUMP JUMPDEST SWAP2 POP PUSH2 0x3591 DUP4 PUSH2 0x346F JUMP JUMPDEST SWAP3 POP DUP3 PUSH2 0x35A1 JUMPI PUSH2 0x35A0 PUSH2 0x35DB JUMP JUMPDEST JUMPDEST DUP3 DUP3 MOD SWAP1 POP SWAP3 SWAP2 POP POP JUMP JUMPDEST PUSH32 0x4E487B7100000000000000000000000000000000000000000000000000000000 PUSH1 0x0 MSTORE PUSH1 0x11 PUSH1 0x4 MSTORE PUSH1 0x24 PUSH1 0x0 REVERT JUMPDEST PUSH32 0x4E487B7100000000000000000000000000000000000000000000000000000000 PUSH1 0x0 MSTORE PUSH1 0x12 PUSH1 0x4 MSTORE PUSH1 0x24 PUSH1 0x0 REVERT JUMPDEST PUSH32 0x4E487B7100000000000000000000000000000000000000000000000000000000 PUSH1 0x0 MSTORE PUSH1 0x22 PUSH1 0x4 MSTORE PUSH1 0x24 PUSH1 0x0 REVERT JUMPDEST PUSH32 0x4E487B7100000000000000000000000000000000000000000000000000000000 PUSH1 0x0 MSTORE PUSH1 0x32 PUSH1 0x4 MSTORE PUSH1 0x24 PUSH1 0x0 REVERT JUMPDEST PUSH32 0x4E487B7100000000000000000000000000000000000000000000000000000000 PUSH1 0x0 MSTORE PUSH1 0x41 PUSH1 0x4 MSTORE PUSH1 0x24 PUSH1 0x0 REVERT JUMPDEST PUSH1 0x0 DUP1 REVERT JUMPDEST PUSH1 0x0 DUP1 REVERT JUMPDEST PUSH1 0x0 DUP1 REVERT JUMPDEST PUSH1 0x0 DUP1 REVERT JUMPDEST PUSH1 0x0 PUSH1 0x1F NOT PUSH1 0x1F DUP4 ADD AND SWAP1 POP SWAP2 SWAP1 POP JUMP JUMPDEST PUSH32 0x4552433732313A207472616E7366657220746F206E6F6E204552433732315265 PUSH1 0x0 DUP3 ADD MSTORE PUSH32 0x63656976657220696D706C656D656E7465720000000000000000000000000000 PUSH1 0x20 DUP3 ADD MSTORE POP JUMP JUMPDEST PUSH32 0x4552433732313A207472616E736665722066726F6D20696E636F727265637420 PUSH1 0x0 DUP3 ADD MSTORE PUSH32 0x6F776E6572000000000000000000000000000000000000000000000000000000 PUSH1 0x20 DUP3 ADD MSTORE POP JUMP JUMPDEST PUSH32 0x4552433732313A20746F6B656E20616C7265616479206D696E74656400000000 PUSH1 0x0 DUP3 ADD MSTORE POP JUMP JUMPDEST PUSH32 0x4552433732313A207472616E7366657220746F20746865207A65726F20616464 PUSH1 0x0 DUP3 ADD MSTORE PUSH32 0x7265737300000000000000000000000000000000000000000000000000000000 PUSH1 0x20 DUP3 ADD MSTORE POP JUMP JUMPDEST PUSH32 0x4552433732313A20617070726F766520746F2063616C6C657200000000000000 PUSH1 0x0 DUP3 ADD MSTORE POP JUMP JUMPDEST PUSH32 0x537570706C792063617020776173206D65742C20756E61626C6520746F207072 PUSH1 0x0 DUP3 ADD MSTORE PUSH32 0x6F636564652077697468206D696E740000000000000000000000000000000000 PUSH1 0x20 DUP3 ADD MSTORE POP JUMP JUMPDEST PUSH32 0x4E6F7420656E6F756768204C494E4B202D2066696C6C20636F6E747261637420 PUSH1 0x0 DUP3 ADD MSTORE PUSH32 0x7769746820666175636574000000000000000000000000000000000000000000 PUSH1 0x20 DUP3 ADD MSTORE POP JUMP JUMPDEST PUSH32 0x4E65656420746F2073656E6420302E3038206574686572000000000000000000 PUSH1 0x0 DUP3 ADD MSTORE POP JUMP JUMPDEST PUSH32 0x4552433732313A206F70657261746F7220717565727920666F72206E6F6E6578 PUSH1 0x0 DUP3 ADD MSTORE PUSH32 0x697374656E7420746F6B656E0000000000000000000000000000000000000000 PUSH1 0x20 DUP3 ADD MSTORE POP JUMP JUMPDEST PUSH32 0x4552433732313A2061646472657373207A65726F206973206E6F742061207661 PUSH1 0x0 DUP3 ADD MSTORE PUSH32 0x6C6964206F776E65720000000000000000000000000000000000000000000000 PUSH1 0x20 DUP3 ADD MSTORE POP JUMP JUMPDEST PUSH32 0x4552433732313A20617070726F76652063616C6C6572206973206E6F74206F77 PUSH1 0x0 DUP3 ADD MSTORE PUSH32 0x6E6572206E6F7220617070726F76656420666F7220616C6C0000000000000000 PUSH1 0x20 DUP3 ADD MSTORE POP JUMP JUMPDEST PUSH32 0x2200000000000000000000000000000000000000000000000000000000000000 PUSH1 0x0 DUP3 ADD MSTORE POP JUMP JUMPDEST PUSH32 0x4552433732313A206F776E657220717565727920666F72206E6F6E6578697374 PUSH1 0x0 DUP3 ADD MSTORE PUSH32 0x656E7420746F6B656E0000000000000000000000000000000000000000000000 PUSH1 0x20 DUP3 ADD MSTORE POP JUMP JUMPDEST PUSH32 0x22696D616765223A2022646174613A696D6167652F7376672B786D6C3B626173 PUSH1 0x0 DUP3 ADD MSTORE PUSH32 0x6536342C00000000000000000000000000000000000000000000000000000000 PUSH1 0x20 DUP3 ADD MSTORE POP JUMP JUMPDEST PUSH32 0x4552433732313A206D696E7420746F20746865207A65726F2061646472657373 PUSH1 0x0 DUP3 ADD MSTORE POP JUMP JUMPDEST PUSH32 0x7D00000000000000000000000000000000000000000000000000000000000000 PUSH1 0x0 DUP3 ADD MSTORE POP JUMP JUMPDEST PUSH32 0x4552433732313A20617070726F76656420717565727920666F72206E6F6E6578 PUSH1 0x0 DUP3 ADD MSTORE PUSH32 0x697374656E7420746F6B656E0000000000000000000000000000000000000000 PUSH1 0x20 DUP3 ADD MSTORE POP JUMP JUMPDEST PUSH32 0x7B00000000000000000000000000000000000000000000000000000000000000 PUSH1 0x0 DUP3 ADD MSTORE POP JUMP JUMPDEST PUSH32 0x4F6E6C7920565246436F6F7264696E61746F722063616E2066756C66696C6C00 PUSH1 0x0 DUP3 ADD MSTORE POP JUMP JUMPDEST PUSH32 0x4552433732313A20617070726F76616C20746F2063757272656E74206F776E65 PUSH1 0x0 DUP3 ADD MSTORE PUSH32 0x7200000000000000000000000000000000000000000000000000000000000000 PUSH1 0x20 DUP3 ADD MSTORE POP JUMP JUMPDEST PUSH32 0x646174613A6170706C69636174696F6E2F6A736F6E3B6261736536342C000000 PUSH1 0x0 DUP3 ADD MSTORE POP JUMP JUMPDEST PUSH32 0x5261636533000000000000000000000000000000000000000000000000000000 PUSH1 0x0 DUP3 ADD MSTORE POP JUMP JUMPDEST PUSH32 0x2C22000000000000000000000000000000000000000000000000000000000000 PUSH1 0x0 DUP3 ADD MSTORE POP JUMP JUMPDEST PUSH32 0x226E616D65223A20224D79373231546F6B656E20230000000000000000000000 PUSH1 0x0 DUP3 ADD MSTORE POP JUMP JUMPDEST PUSH32 0x4552433732313A207472616E736665722063616C6C6572206973206E6F74206F PUSH1 0x0 DUP3 ADD MSTORE PUSH32 0x776E6572206E6F7220617070726F766564000000000000000000000000000000 PUSH1 0x20 DUP3 ADD MSTORE POP JUMP JUMPDEST PUSH2 0x3CB4 DUP2 PUSH2 0x33FB JUMP JUMPDEST DUP2 EQ PUSH2 0x3CBF JUMPI PUSH1 0x0 DUP1 REVERT JUMPDEST POP JUMP JUMPDEST PUSH2 0x3CCB DUP2 PUSH2 0x340D JUMP JUMPDEST DUP2 EQ PUSH2 0x3CD6 JUMPI PUSH1 0x0 DUP1 REVERT JUMPDEST POP JUMP JUMPDEST PUSH2 0x3CE2 DUP2 PUSH2 0x3419 JUMP JUMPDEST DUP2 EQ PUSH2 0x3CED JUMPI PUSH1 0x0 DUP1 REVERT JUMPDEST POP JUMP JUMPDEST PUSH2 0x3CF9 DUP2 PUSH2 0x3423 JUMP JUMPDEST DUP2 EQ PUSH2 0x3D04 JUMPI PUSH1 0x0 DUP1 REVERT JUMPDEST POP JUMP JUMPDEST PUSH2 0x3D10 DUP2 PUSH2 0x346F JUMP JUMPDEST DUP2 EQ PUSH2 0x3D1B JUMPI PUSH1 0x0 DUP1 REVERT JUMPDEST POP JUMP INVALID EXTCODECOPY PUSH8 0x207472616E73666F PUSH19 0x6D3D227472616E736C617465283020302E3030 ADDRESS ADDRESS ADDRESS BALANCE 0x29 0x22 RETURNDATACOPY EXTCODECOPY PUSH17 0x61746820643D224D3137382E3838312C31 ADDRESS CODESIZE PUSH13 0x31312E3332322C33382E393733 PUSH13 0x362E3932312D322E3533396C36 0x2E CALLDATALOAD CALLVALUE CALLER 0x2C ORIGIN ADDRESS 0x2E CALLDATALOAD CALLDATALOAD CALLDATACOPY PUSH13 0x31332E3833332C332E3536326C CALLER 0x2E CALLDATALOAD CALLER CALLER 0x2D BALANCE CALLDATASIZE 0x2E CALLDATALOAD ADDRESS CODESIZE PUSH13 0x352E3734322E3536356C372E32 CALLVALUE CALLER 0x2D CALLDATASIZE CALLER 0x2E ORIGIN CALLER BALANCE 0x2D CALLDATALOAD 0x2E CALLVALUE CODESIZE CALLDATASIZE 0x2D 0x2E CALLER BALANCE CALLVALUE 0x2D CALLER 0x2E CALLDATALOAD ORIGIN CALLDATACOPY 0x2D ORIGIN CALLER 0x2E CALLDATALOAD CODECOPY ORIGIN 0x2D BALANCE CALLDATALOAD 0x2E CALLDATASIZE 0x2D BALANCE 0x2E BALANCE ADDRESS ORIGIN 0x2D CALLDATASIZE 0x2E CALLER CODECOPY CODECOPY 0x2C ORIGIN CALLDATALOAD 0x2E ADDRESS ADDRESS CODESIZE 0x4C BALANCE CODECOPY BALANCE 0x2E CALLVALUE ORIGIN BALANCE 0x2C CALLDATACOPY CODESIZE 0x2E BALANCE CALLDATALOAD PUSH13 0x2D322E3233332C33302E362D31 ADDRESS 0x2E CALLER ADDRESS CALLDATACOPY 0x2D BALANCE 0x2E BALANCE CALLDATACOPY CALLER 0x22 KECCAK256 PUSH7 0x696C6C3D222366 CALLER PUSH2 0x3430 CALLDATACOPY 0x22 KECCAK256 PUSH20 0x74726F6B653D22726762612836332C38372C3133 CALLDATALOAD 0x2C ADDRESS 0x29 0x22 KECCAK256 PUSH20 0x74726F6B652D77696474683D22302E3835222F3E EXTCODECOPY PUSH17 0x61746820643D224D3138312E3337352C31 BALANCE BALANCE 0x2E CODECOPY CALLVALUE CALLDATASIZE PUSH13 0x31302E3432342C33322E393034 PUSH13 0x352E3034372D322E3337326C35 0x2E ORIGIN ORIGIN ORIGIN ADDRESS ADDRESS BALANCE 0x2C BALANCE BALANCE 0x2E CALLDATASIZE CALLVALUE CALLDATACOPY PUSH13 0x312E3539383939392D372E3930 ORIGIN PUSH13 0x382E3131392C362E3338372D2E CALLDATACOPY CALLER CALLDATACOPY 0x2D CODESIZE 0x2E BALANCE CALLDATACOPY CALLDATASIZE PUSH13 0x31312E3236312C342E3831342D BALANCE CALLVALUE 0x2E CALLVALUE ORIGIN CALLDATALOAD 0x2D ORIGIN CALLVALUE 0x2E CODESIZE CALLDATACOPY CALLER PUSH13 0x372E3834382D32322E3935332D CALLDATASIZE 0x2E CALLER ORIGIN CODESIZE 0x2D CALLER CALLDATACOPY 0x2E ADDRESS CALLDATALOAD BALANCE 0x2D CALLDATASIZE 0x2E CALLER CODECOPY CODECOPY 0x2C ORIGIN CALLDATALOAD 0x2E ADDRESS ADDRESS CODESIZE 0x4C BALANCE CODECOPY BALANCE 0x2E CALLVALUE ORIGIN BALANCE 0x2C CALLDATACOPY CODESIZE 0x2E BALANCE CALLDATALOAD PUSH13 0x2D312E3032352C33322E313633 0x2D CALLDATACOPY 0x2E CODECOPY BALANCE CALLER 0x2D BALANCE 0x2E ORIGIN CALLDATALOAD CALLDATASIZE 0x22 KECCAK256 PUSH7 0x696C6C3D222365 CALLVALUE CODESIZE BALANCE BALANCE CALLDATACOPY 0x22 KECCAK256 PUSH20 0x74726F6B653D22726762612836332C38372C3133 CALLDATALOAD 0x2C ADDRESS 0x29 0x22 KECCAK256 PUSH20 0x74726F6B652D77696474683D22302E3835222F3E EXTCODECOPY PUSH17 0x61746820643D224D3232362E3737352C31 BALANCE CODESIZE 0x2E ORIGIN CODECOPY CALLDATASIZE PUSH4 0x2E322E33 CALLDATACOPY CALLVALUE 0x2E ORIGIN CALLDATALOAD CALLER 0x2C BALANCE 0x2E CALLDATASIZE BALANCE ORIGIN 0x2E BALANCE CALLDATASIZE CODECOPY 0x2C CALLER 0x2E CODECOPY CALLVALUE CALLDATALOAD 0x2D 0x2E BALANCE CODECOPY CALLDATALOAD 0x2C CALLDATALOAD 0x2E CALLVALUE CALLER CALLDATALOAD 0x2D 0x2E CALLDATACOPY CALLDATACOPY CALLVALUE 0x2C CALLDATASIZE 0x2E ORIGIN CALLDATASIZE CALLDATALOAD 0x2D CALLVALUE 0x2E CALLDATASIZE CALLER CALLVALUE 0x2C CALLDATASIZE 0x2E CALLDATASIZE CALLVALUE CALLDATALOAD 0x2D CALLER 0x2E ADDRESS ORIGIN CALLDATALOAD 0x2E ORIGIN CODECOPY CODESIZE 0x2D CALLER 0x2E ORIGIN BALANCE CALLDATACOPY 0x2D 0x2E CALLER CALLER CALLVALUE 0x2D BALANCE 0x2E ORIGIN CALLDATACOPY CALLDATACOPY 0x2D CALLVALUE 0x2E ORIGIN ADDRESS CALLER PUSH4 0x322E3930 BALANCE 0x2D CALLDATALOAD 0x2E CALLDATACOPY CODESIZE CALLVALUE 0x2C CALLVALUE 0x2E CODESIZE CODESIZE CALLVALUE 0x2D CALLDATACOPY 0x2E CODECOPY CODECOPY 0x2C CALLDATALOAD 0x2E CALLDATACOPY CALLVALUE ORIGIN 0x2D CALLDATASIZE 0x2E CALLER CODESIZE CALLDATACOPY PUSH14 0x2D32382E3831332C332E37343263 CALLER 0x2E BALANCE CODECOPY BALANCE 0x2C ORIGIN 0x2E CALLER CODECOPY CALLDATACOPY 0x2C CALLDATASIZE 0x2E CODESIZE ORIGIN CALLER 0x2C CALLDATALOAD 0x2E CALLDATALOAD CALLDATALOAD CALLVALUE 0x2C CALLDATACOPY 0x2E BALANCE CALLDATACOPY CALLDATASIZE 0x2C CALLDATASIZE 0x2E ORIGIN CALLER CODESIZE 0x2E CALLDATACOPY CALLDATACOPY CODECOPY 0x2C BALANCE 0x2E CALLDATALOAD ADDRESS CALLDATACOPY 0x2D CALLVALUE 0x2E CALLDATALOAD CALLER 0x2C BALANCE 0x2E CALLVALUE CODECOPY CODESIZE 0x2D CALLDATALOAD 0x2E CALLDATACOPY CALLER CALLDATALOAD 0x2C BALANCE 0x2E CALLDATACOPY CALLER CALLDATACOPY 0x2D CALLER 0x2E CALLER BALANCE CALLDATASIZE 0x2E CALLDATASIZE CALLDATALOAD CODECOPY 0x2D CALLDATALOAD 0x2E BALANCE CALLVALUE CALLVALUE 0x2D BALANCE 0x2E CALLDATACOPY ADDRESS CALLDATALOAD 0x2D CALLDATALOAD 0x2E ORIGIN CALLVALUE CALLDATALOAD 0x2D CALLDATASIZE 0x2E CALLDATACOPY CODESIZE ORIGIN 0x2D 0x2E ADDRESS CALLDATALOAD CALLDATACOPY 0x2D ORIGIN 0x2E CODESIZE CALLVALUE CALLDATACOPY 0x2C BALANCE 0x2E BALANCE BALANCE CALLER 0x2D CALLER 0x2E ORIGIN BALANCE CALLVALUE 0x2C CALLER 0x2E CODESIZE ADDRESS CALLVALUE 0x2D BALANCE 0x2E BALANCE CODECOPY CALLER 0x22 KECCAK256 PUSH7 0x696C6C3D227267 PUSH3 0x612837 0x2C CALLDATALOAD 0x2C CALLDATALOAD 0x2C ADDRESS 0x2E CODECOPY CALLVALUE 0x29 0x22 KECCAK256 PUSH7 0x696C6C2D72756C PUSH6 0x3D226576656E PUSH16 0x6464222F3E3C7061746820643D224D32 BALANCE CODECOPY 0x2E ORIGIN ORIGIN CODESIZE CALLER BALANCE 0x2C BALANCE BALANCE ADDRESS 0x2E CALLER CODECOPY CALLDATASIZE BALANCE ORIGIN ORIGIN PUSH18 0x2E3133333939382C302C31382E3938313139 0x2D CODECOPY 0x2E ADDRESS CALLDATASIZE CALLDATACOPY CALLDATACOPY CALLDATALOAD CALLVALUE PUSH13 0x2D32342E30373431392C32372E CALLDATALOAD CALLDATACOPY CALLVALUE CALLDATACOPY CALLDATALOAD CALLVALUE 0x4C ORIGIN BALANCE ADDRESS 0x2E CALLDATASIZE ADDRESS CALLER 0x2C BALANCE CALLVALUE CODECOPY 0x2E CALLDATASIZE ORIGIN CALLDATALOAD PUSH13 0x2D31322E39363736392D31372E CODECOPY BALANCE CALLER CODESIZE CALLDATACOPY CODESIZE 0x22 KECCAK256 PUSH21 0x72616E73666F726D3D227472616E736C6174652836 ORIGIN 0x2E BALANCE BALANCE CALLVALUE CALLDATASIZE CODECOPY 0x2D CALLVALUE ORIGIN 0x2E CALLDATALOAD CALLVALUE BALANCE CALLDATACOPY CALLDATASIZE ORIGIN 0x29 0x22 KECCAK256 PUSH7 0x696C6C3D222365 CALLVALUE CODESIZE BALANCE BALANCE CALLDATACOPY 0x22 KECCAK256 PUSH20 0x74726F6B653D22726762612836332C38372C3133 CALLDATALOAD 0x2C ADDRESS 0x29 0x22 KECCAK256 PUSH20 0x74726F6B652D77696474683D22302E3835222F3E EXTCODECOPY PUSH17 0x61746820643D224D3231392E3036373331 0x2C BALANCE BALANCE CODECOPY 0x2E CALLDATALOAD CALLVALUE BALANCE CALLDATACOPY CALLDATASIZE ORIGIN PUSH18 0x2E3133333939382C302C31392E3134323139 0x2D BALANCE CODESIZE 0x2E ORIGIN BALANCE CALLER CALLER CODECOPY CALLVALUE PUSH13 0x2D32372E39353631392C33342E CALLDATACOPY CALLDATALOAD CALLDATACOPY CALLER CODECOPY CALLVALUE 0x4C ORIGIN BALANCE ADDRESS 0x2E CALLDATASIZE ADDRESS CALLER 0x2C BALANCE CALLVALUE CODECOPY 0x2E CALLDATASIZE ORIGIN CALLDATALOAD PUSH13 0x2D352E32393436392D31342E39 CALLVALUE CALLER ORIGIN CALLER CODESIZE 0x22 KECCAK256 PUSH21 0x72616E73666F726D3D227472616E736C6174652836 ORIGIN 0x2E BALANCE BALANCE CALLVALUE CALLDATASIZE CODECOPY 0x2D CALLVALUE ORIGIN 0x2E CALLDATALOAD CALLVALUE BALANCE CALLDATACOPY CALLDATASIZE ORIGIN 0x29 0x22 KECCAK256 PUSH7 0x696C6C3D222366 CALLER PUSH2 0x3430 CALLDATACOPY 0x22 KECCAK256 PUSH20 0x74726F6B653D22726762612836332C38372C3133 CALLDATALOAD 0x2C ADDRESS 0x29 0x22 KECCAK256 PUSH20 0x74726F6B652D77696474683D22302E3835222F3E EXTCODECOPY PUSH17 0x61746820643D224D3131322E3937362C37 CALLVALUE 0x2E CALLDATALOAD CODECOPY CALLVALUE CODECOPY CODECOPY CODECOPY PUSH13 0x2D31342E3534352D31342E3338 CALLDATASIZE PUSH13 0x31372E3830372C362E3434374C BALANCE CALLVALUE BALANCE 0x2E CALLDATALOAD 0x2C CODESIZE CALLDATALOAD 0x2E CALLDATACOPY CALLVALUE CALLVALUE BALANCE CODECOPY PUSH13 0x2D31302E3438312C31392E3532 CALLDATALOAD CODESIZE ADDRESS CODECOPY 0x2D CALLVALUE 0x2E ADDRESS CALLDATASIZE ORIGIN 0x2D BALANCE CALLER 0x2E CALLDATACOPY ADDRESS CALLDATACOPY 0x22 KECCAK256 PUSH21 0x72616E73666F726D3D227472616E736C6174652830 KECCAK256 ADDRESS 0x2E ADDRESS ADDRESS ADDRESS ADDRESS ADDRESS BALANCE 0x29 0x22 KECCAK256 PUSH7 0x696C6C3D222365 CALLVALUE CODESIZE BALANCE BALANCE CALLDATACOPY 0x22 KECCAK256 PUSH20 0x74726F6B653D2272676261283235352C3137302C BALANCE CALLDATALOAD 0x2C ADDRESS 0x29 0x22 KECCAK256 PUSH20 0x74726F6B652D77696474683D22302E3835222F3E EXTCODECOPY PUSH17 0x61746820643D224D3131392E3033322C37 CODESIZE 0x2E BALANCE CALLVALUE CALLDATASIZE CODECOPY CODECOPY CODECOPY PUSH13 0x2D32302E3630312D31372E3933 CODESIZE 0x4C BALANCE ORIGIN ORIGIN 0x2C CALLDATACOPY CALLDATALOAD 0x2E CODECOPY CALLER CALLDATALOAD CODECOPY CODECOPY CODECOPY 0x4C BALANCE CALLER ORIGIN 0x2E CALLVALUE CALLVALUE CALLDATACOPY 0x2C CODECOPY CALLDATALOAD 0x2E CODECOPY CODECOPY CALLVALUE BALANCE CODECOPY PUSH13 0x2D312E3432382C392E32373538 ADDRESS CODECOPY 0x2D 0x2E CALLDATACOPY ADDRESS CALLDATALOAD 0x2D CALLDATACOPY 0x2E CALLDATASIZE CALLVALUE CALLDATALOAD 0x22 KECCAK256 PUSH21 0x72616E73666F726D3D227472616E736C6174652830 KECCAK256 ADDRESS 0x2E ADDRESS ADDRESS ADDRESS ADDRESS ADDRESS BALANCE 0x29 0x22 KECCAK256 PUSH7 0x696C6C3D222366 CALLER PUSH2 0x3430 CALLDATACOPY 0x22 KECCAK256 PUSH20 0x74726F6B653D2272676261283235352C3137302C BALANCE CALLDATALOAD 0x2C ADDRESS 0x29 0x22 KECCAK256 PUSH20 0x74726F6B652D77696474683D22302E3835222F3E EXTCODECOPY 0x2F PUSH8 0x3E3C737667206964 RETURNDATASIZE 0x22 PUSH6 0x6C66624F704C GASLIMIT SSTORE CALLDATALOAD PUSH11 0x312220786D6C6E733D2268 PUSH21 0x74703A2F2F7777772E77332E6F72672F323030302F PUSH20 0x76672220786D6C6E733A786C696E6B3D22687474 PUSH17 0x3A2F2F7777772E77332E6F72672F313939 CODECOPY 0x2F PUSH25 0x6C696E6B222076696577426F783D2230203020343030203432 CALLDATALOAD 0x22 KECCAK256 PUSH20 0x686170652D72656E646572696E673D2267656F6D PUSH6 0x747269635072 PUSH6 0x636973696F6E 0x22 KECCAK256 PUSH21 0x6578742D72656E646572696E673D2267656F6D6574 PUSH19 0x6963507265636973696F6E223E414243444546 SELFBALANCE BASEFEE 0x49 0x4A 0x4B 0x4C 0x4D 0x4E 0x4F POP MLOAD MSTORE MSTORE8 SLOAD SSTORE JUMP JUMPI PC MSIZE GAS PUSH2 0x6263 PUSH5 0x6566676869 PUSH11 0x6B6C6D6E6F707172737475 PUSH23 0x7778797A303132333435363738392B2F3C706174682064 RETURNDATASIZE 0x22 0x4D BALANCE BALANCE BALANCE 0x2E CALLER ORIGIN ORIGIN 0x2C BALANCE CALLVALUE CALLDATALOAD 0x2E CALLDATACOPY CALLVALUE CALLER PUSH13 0x33332E3237312D36362E393833 ADDRESS ADDRESS ORIGIN 0x4C BALANCE CALLDATASIZE CALLDATACOPY 0x2E CALLER CODECOPY CALLDATALOAD 0x2C CODESIZE CALLDATASIZE 0x2E CALLDATALOAD CODECOPY CALLVALUE PUSH13 0x31382E32332D32362E33383563 CALLVALUE CODESIZE 0x2E BALANCE CALLVALUE CALLVALUE 0x2C BALANCE CALLDATASIZE 0x2E CALLDATACOPY CODECOPY ADDRESS CODECOPY CODECOPY CODESIZE 0x2C CALLVALUE CODESIZE 0x2E ADDRESS CODESIZE CALLVALUE 0x2C ORIGIN CALLDATACOPY 0x2E CALLDATACOPY CALLVALUE CALLER CODECOPY CODECOPY CODESIZE 0x2C CALLDATALOAD CALLDATACOPY 0x2E BALANCE CODECOPY CALLVALUE 0x2C CALLER CALLER 0x2E CODECOPY CALLDATALOAD CALLVALUE CODECOPY CODECOPY CODESIZE 0x4C ORIGIN CALLDATALOAD CODECOPY 0x2E CALLDATACOPY CALLDATALOAD 0x2C CODESIZE CALLDATACOPY 0x2E CALLDATALOAD PUSH13 0x32372E3932332C33372E353539 0x4C ORIGIN CALLDATACOPY CALLDATALOAD 0x2E CODECOPY CALLDATACOPY CODECOPY 0x2C BALANCE CALLDATALOAD CALLDATASIZE PUSH13 0x2D2E3933392C31302E3235712D CALLDATACOPY 0x2E CALLDATACOPY ORIGIN CALLDATALOAD 0x2C BALANCE CALLDATALOAD 0x2E CALLDATACOPY ADDRESS CALLER 0x2D CODESIZE 0x2E BALANCE CODECOPY CALLDATASIZE 0x2C BALANCE CALLDATALOAD 0x2E CALLDATACOPY ADDRESS CALLER PUSH21 0x2D392E3231392D382E3037383030316C2D32392E33 CALLER CODECOPY 0x2C ORIGIN CALLDATALOAD 0x2E CALLVALUE CODECOPY CODECOPY CODECOPY CODECOPY CODECOPY 0x2D CODESIZE 0x2E CODESIZE CODECOPY CALLDATACOPY 0x2C CALLER CODESIZE 0x2E CALLDATASIZE ORIGIN CODESIZE 0x2D CODECOPY 0x2E CODESIZE CODESIZE CODECOPY 0x2D CALLER 0x2E BALANCE CALLER CALLVALUE 0x2D CALLDATALOAD 0x2E CODESIZE CALLER CALLER 0x2C CODECOPY 0x2E CALLDATALOAD CALLDATASIZE ORIGIN 0x2D BALANCE BALANCE 0x2E CALLDATASIZE ADDRESS CALLDATACOPY 0x2D BALANCE 0x2E CALLDATALOAD BALANCE CALLDATALOAD 0x2D BALANCE CODECOPY 0x2E CALLDATALOAD CALLDATASIZE BALANCE 0x2D CALLDATALOAD CALLVALUE 0x2E ORIGIN CALLVALUE BALANCE 0x2D BALANCE ORIGIN 0x2E ORIGIN CALLDATACOPY CODECOPY 0x2D CODESIZE 0x2E CALLDATALOAD ADDRESS ORIGIN PUSH18 0x2D382E37352C392E3937322D392E3530312C CODECOPY 0x2E CODECOPY CALLDATACOPY ORIGIN PUSH4 0x2D2E3735 BALANCE 0x2C ADDRESS 0x2D BALANCE CALLDATASIZE 0x2E CALLDATACOPY ORIGIN CALLDATACOPY 0x2D ORIGIN CALLDATALOAD 0x2E BALANCE CALLVALUE CODECOPY 0x2D BALANCE CALLDATACOPY 0x2E ADDRESS ORIGIN CALLDATACOPY 0x2D ORIGIN CALLDATALOAD 0x2E BALANCE CALLVALUE CODECOPY PUSH18 0x2D2E332C302D372E36392C332E3933326C2D BALANCE CALLVALUE 0x2E CALLDATASIZE CODESIZE 0x2D ORIGIN CALLER 0x2E BALANCE CODESIZE CALLDATALOAD 0x22 KECCAK256 PUSH21 0x72616E73666F726D3D227472616E736C6174652830 KECCAK256 ADDRESS 0x2E ADDRESS ADDRESS ADDRESS ADDRESS ADDRESS ORIGIN 0x29 0x22 KECCAK256 PUSH7 0x696C6C3D222336 PUSH6 0x383238332220 PUSH20 0x74726F6B653D22726762612836332C38372C3133 CALLDATALOAD 0x2C ADDRESS 0x29 0x22 KECCAK256 PUSH20 0x74726F6B652D77696474683D22302E3835222F3E EXTCODECOPY PUSH17 0x61746820643D224D3131322E3630362C31 CALLVALUE CALLDATASIZE 0x2E CODECOPY CALLDATACOPY CALLER PUSH18 0x33382E3131332D32382E34312C34312E3733 CODECOPY 0x2D CALLVALUE CODESIZE 0x2E ADDRESS CALLER ORIGIN PUSH21 0x352E3837352C31392E36323263302C302C31352E39 CODESIZE ORIGIN 0x2D ORIGIN CALLVALUE 0x2E CALLER CODECOPY CODECOPY 0x2C ORIGIN CODESIZE 0x2E CALLDATACOPY CODESIZE 0x2D CALLVALUE CODECOPY 0x2E CALLVALUE CALLDATACOPY ORIGIN PUSH4 0x322E3337 ORIGIN ORIGIN BALANCE CALLER 0x2D CALLVALUE 0x2E CALLDATASIZE CALLVALUE CALLDATACOPY CALLVALUE CODESIZE CALLER 0x2C CALLER CODECOPY 0x2E ORIGIN CODESIZE CALLDATASIZE 0x2C BALANCE CALLDATACOPY 0x2E CALLDATALOAD ADDRESS CALLER ADDRESS ADDRESS ORIGIN 0x2C CALLER CODECOPY 0x2E ORIGIN CODESIZE CALLDATASIZE 0x2C BALANCE CALLDATACOPY 0x2E CALLDATALOAD ADDRESS CALLER ADDRESS ADDRESS ORIGIN PUSH20 0x332E3332392C312E3034303939382C32392E3333 CODECOPY 0x2C BALANCE CODECOPY 0x2E CALLVALUE ADDRESS CALLDATALOAD CODECOPY CODECOPY CODESIZE PUSH4 0x31312E30 CALLER CALLDATACOPY CALLVALUE BALANCE ORIGIN 0x2C CALLDATACOPY 0x2E CALLDATACOPY CODECOPY CALLER ORIGIN CALLER CALLDATASIZE 0x2C CALLER 0x2E ADDRESS CALLDATALOAD CODESIZE CODESIZE CODESIZE CALLVALUE 0x2D CALLDATALOAD 0x2E CALLVALUE CALLVALUE CALLDATACOPY CODESIZE CALLDATALOAD CALLDATALOAD 0x2C CALLDATACOPY 0x2E CALLDATALOAD 0x2C ADDRESS PUSH4 0x352E3930 CALLDATASIZE CALLDATALOAD CODECOPY CODECOPY 0x2C CALLDATACOPY 0x2E ORIGIN CALLVALUE CALLDATALOAD CALLDATALOAD CALLVALUE ORIGIN 0x2C CALLDATALOAD 0x2E CALLDATACOPY CALLDATALOAD 0x2C CALLER ADDRESS 0x2E CALLDATASIZE ORIGIN CALLDATALOAD 0x2C CALLDATALOAD 0x2E CALLDATACOPY CALLDATALOAD 0x2C CALLER ADDRESS 0x2E CALLDATASIZE ORIGIN CALLDATALOAD PUSH13 0x372E3935382D32322E3937356C BALANCE ADDRESS 0x2E ORIGIN ORIGIN CALLER 0x2C BALANCE BALANCE 0x2E CALLDATACOPY CODECOPY CODESIZE 0x2D BALANCE ORIGIN 0x2E CALLER BALANCE CALLDATACOPY 0x2C ORIGIN CALLDATACOPY 0x2E BALANCE CALLDATASIZE ORIGIN 0x2E CODECOPY CODESIZE 0x2C BALANCE ORIGIN 0x2E CALLDATACOPY CALLER 0x2D BALANCE ADDRESS 0x2E CODESIZE CALLDATACOPY CALLDATALOAD 0x2C BALANCE CALLDATASIZE 0x2E CALLDATASIZE BALANCE CALLER ADDRESS ADDRESS ORIGIN 0x2D CODECOPY 0x2E ORIGIN BALANCE CODECOPY 0x2D CODESIZE 0x2E ADDRESS CALLDATACOPY CODESIZE ADDRESS ADDRESS BALANCE 0x4C ORIGIN ORIGIN CODESIZE 0x2E ORIGIN CODESIZE CALLDATASIZE 0x2C BALANCE CODECOPY CODECOPY 0x2E CALLER CALLDATACOPY CALLDATALOAD PUSH18 0x2D382E33332C362E36313532352D382E3839 CALLDATACOPY 0x2C CALLDATASIZE 0x2E CALLDATASIZE BALANCE CALLDATALOAD ORIGIN CALLDATALOAD PUSH21 0x2D32392E3733332D352E36343932356C2D31332E34 CALLDATALOAD CALLVALUE 0x2D CODESIZE 0x2E CALLER CODESIZE CODESIZE 0x2D BALANCE CALLDATALOAD 0x2E CODECOPY CODESIZE ORIGIN 0x2D CODECOPY 0x2E CODECOPY CODECOPY CODECOPY CODECOPY CODECOPY CODESIZE 0x2D CODECOPY 0x2E CALLDATALOAD ADDRESS BALANCE 0x2C CODESIZE 0x2E BALANCE CODECOPY BALANCE CODECOPY CODECOPY CODESIZE 0x2D BALANCE CALLDATACOPY 0x2E ADDRESS ORIGIN CALLDATACOPY 0x2D ORIGIN CALLVALUE 0x2E CODESIZE ADDRESS CALLDATALOAD 0x2D CALLDATACOPY 0x2E CALLDATASIZE CODECOPY 0x2C CALLER 0x2E CALLDATALOAD CODESIZE CODESIZE 0x2D BALANCE CALLER 0x2E CALLER CODECOPY CALLDATASIZE 0x2D ORIGIN BALANCE 0x2E CODECOPY CALLDATALOAD CALLDATALOAD 0x22 KECCAK256 PUSH7 0x696C6C3D222336 PUSH2 0x3663 CALLDATASIZE PUSH4 0x22207374 PUSH19 0x6F6B653D22726762612836332C38372C313335 0x2C ADDRESS 0x29 0x22 KECCAK256 PUSH20 0x74726F6B652D77696474683D22302E3835222F3E EXTCODECOPY PUSH17 0x61746820643D224D3136382E3939362C31 ORIGIN CALLDATASIZE 0x2E CALLVALUE BALANCE CALLDATALOAD PUSH13 0x31312E3038312C34312E333533 PUSH13 0x32352E3833342C31392E323534 PUSH13 0x31312E3532312D372E3032366C CALLDATACOPY 0x2E CALLER CODECOPY CALLER 0x2D CODECOPY 0x2E CALLDATACOPY CODECOPY CALLDATACOPY PUSH13 0x352E3138372D2E3537326C342E CODESIZE CALLDATASIZE CALLER 0x2D CALLDATALOAD 0x2E CODESIZE ORIGIN CALLDATASIZE PUSH13 0x382E3536372D392E3231392D2E CALLDATALOAD ADDRESS CODESIZE 0x2D CALLDATALOAD CALLDATASIZE 0x2E CODECOPY CALLDATALOAD CALLDATACOPY 0x2D BALANCE CODECOPY 0x2E CALLDATASIZE CALLDATALOAD CALLDATALOAD 0x2D CALLDATALOAD 0x2E CODECOPY CALLER CALLDATACOPY 0x2D ORIGIN ADDRESS 0x2E ORIGIN CALLDATACOPY CALLER 0x2D BALANCE CODESIZE 0x2E BALANCE CALLDATACOPY CALLDATALOAD CALLDATACOPY CALLVALUE CALLDATACOPY 0x4C BALANCE CODESIZE CODESIZE 0x2E CALLER CALLER BALANCE 0x2C CALLDATACOPY CALLER 0x2E BALANCE BALANCE ORIGIN PUSH13 0x2D352E3834382C32312E303532 PUSH18 0x2D31322E3832372C31352E3536352D31322E BALANCE CALLDATASIZE CALLDATASIZE 0x2C BALANCE CALLDATALOAD 0x2E CALLDATALOAD CALLDATASIZE CALLDATALOAD PUSH21 0x352E3838352C31362E373731682D362E3836362220 PUSH7 0x696C6C3D222335 ADDRESS CALLDATALOAD PUSH3 0x356122 KECCAK256 PUSH20 0x74726F6B653D22726762612836332C38372C3133 CALLDATALOAD 0x2C ADDRESS 0x29 0x22 KECCAK256 PUSH20 0x74726F6B652D77696474683D22302E3835222F3E EXTCODECOPY PUSH8 0x207472616E73666F PUSH19 0x6D3D226D6174726978282E3739363431203020 ADDRESS KECCAK256 ADDRESS 0x2E CALLDATACOPY CODECOPY CALLDATASIZE CALLVALUE BALANCE CALLER KECCAK256 ORIGIN CALLER 0x2E CALLDATASIZE BALANCE CALLDATALOAD CALLDATALOAD ORIGIN CALLDATASIZE KECCAK256 CALLER ADDRESS 0x2E CALLDATACOPY CODECOPY CALLDATACOPY CALLDATALOAD CODECOPY CALLVALUE 0x29 0x22 RETURNDATACOPY EXTCODECOPY PUSH17 0x61746820643D224D37392E353735303036 0x2C BALANCE CODECOPY CODESIZE 0x2E ORIGIN CALLDATALOAD PUSH13 0x2D2E3234342C31362E3438382D CALLDATASIZE 0x2E CALLDATALOAD 0x2C CALLER 0x2E CALLDATASIZE ADDRESS BALANCE PUSH13 0x352E3238362C35322E3834322D CODECOPY 0x2E CALLVALUE ADDRESS CALLDATALOAD 0x2D CALLER 0x2E ADDRESS BALANCE CALLVALUE PUSH13 0x32342E3435372C33372E303237 0x2D BALANCE ADDRESS 0x2E ADDRESS CALLER ORIGIN 0x2C CALLVALUE 0x2E CALLDATASIZE BALANCE CODESIZE PUSH13 0x33312E3135362C32382E343237 PUSH18 0x33342E3333392D322E3337362C33332E3636 CALLDATACOPY 0x2D ORIGIN 0x2E CALLER CALLDATACOPY CALLDATASIZE PUSH21 0x31352E3331392D33312E3033386C2D31312E353433 0x2D BALANCE CALLER 0x2E ORIGIN ADDRESS CODECOPY 0x2D BALANCE 0x2E CALLDATASIZE CODESIZE CALLVALUE CALLDATALOAD CODESIZE CODECOPY 0x2C CODECOPY 0x2E CALLVALUE ORIGIN CALLER CODESIZE BALANCE CALLVALUE 0x2D CALLER 0x2E CALLDATACOPY CALLER CALLDATASIZE CALLVALUE BALANCE BALANCE 0x2D CALLDATASIZE 0x2E CODECOPY CALLDATALOAD CALLVALUE CALLDATALOAD CODECOPY CALLDATASIZE 0x2D CODECOPY 0x2E CALLER CALLER ORIGIN CALLDATASIZE ORIGIN CODESIZE 0x2D CALLDATALOAD 0x2E CALLDATALOAD ADDRESS CALLDATACOPY CALLDATASIZE CALLDATASIZE CALLDATACOPY PUSH13 0x342E3232373632382C372E3436 CODESIZE ADDRESS ORIGIN CALLER 0x2D BALANCE ORIGIN 0x2E CALLER CALLDATACOPY CODECOPY 0x2D CALLDATALOAD 0x2E BALANCE BALANCE CALLER CALLDATALOAD CALLDATACOPY CALLVALUE PUSH13 0x342E3836303939342C352E3934 CODESIZE CALLDATACOPY CALLVALUE CALLVALUE 0x2D BALANCE BALANCE 0x2E ORIGIN ORIGIN CALLDATASIZE CALLVALUE CODECOPY ORIGIN 0x2C ORIGIN 0x2E CALLDATASIZE BALANCE CALLER CALLVALUE ORIGIN BALANCE 0x4C BALANCE BALANCE CODESIZE 0x2E CALLDATACOPY ADDRESS CALLDATASIZE ADDRESS ADDRESS CALLDATASIZE 0x2C ORIGIN CODESIZE CALLDATALOAD 0x2E CALLVALUE BALANCE CALLVALUE PUSH13 0x32342E32352D31312E30336C33 0x2E CALLDATASIZE 0x2C CODESIZE 0x2E ADDRESS BALANCE PUSH13 0x31352E3535372D31322E303831 0x2D BALANCE ADDRESS 0x2E CALLER CALLDATACOPY CALLDATACOPY 0x2D ORIGIN CODECOPY 0x2E BALANCE CALLDATACOPY 0x2D BALANCE ADDRESS 0x2E CALLDATALOAD ORIGIN CALLDATASIZE 0x2C CALLDATALOAD 0x2E CODESIZE BALANCE CALLDATALOAD 0x2D BALANCE ADDRESS 0x2E CALLDATACOPY CALLDATALOAD CALLVALUE 0x2D CALLER 0x2E CALLDATASIZE ORIGIN CODECOPY 0x2D CALLDATALOAD 0x2E BALANCE BALANCE CALLDATACOPY 0x2D BALANCE CALLVALUE 0x2E CODECOPY CALLDATALOAD BALANCE PUSH18 0x2D352E3932382E3632322D352E3932382D2E CALLER CALLDATACOPY CODESIZE PUSH21 0x2D392E3135332D382E313235682D31372E3038396C 0x2D BALANCE CALLER 0x2E CODESIZE CALLER CODESIZE 0x2D ORIGIN BALANCE 0x2E CALLDATASIZE ORIGIN CALLDATALOAD 0x22 KECCAK256 PUSH7 0x696C6C3D222336 PUSH6 0x383238332220 PUSH20 0x74726F6B653D227267626128302C302C302C3029 0x22 KECCAK256 PUSH20 0x74726F6B652D77696474683D22302E3835222073 PUSH21 0x726F6B652D6F7061636974793D2230222F3E3C7061 PUSH21 0x6820643D224D39302E3234323030362C3232392E31 CALLER BALANCE PUSH13 0x31352E3639332C34322E30356C CODESIZE 0x2E CALLDATASIZE CALLVALUE CALLDATASIZE 0x2D CODECOPY 0x2E CODECOPY BALANCE PUSH13 0x31362E3837352D352E3930356C ORIGIN ADDRESS 0x2E CALLDATALOAD ORIGIN ORIGIN 0x2D BALANCE CALLDATALOAD 0x2E ORIGIN CALLDATALOAD CALLVALUE PUSH13 0x392E3639352C32382E3234312D BALANCE ORIGIN 0x2E CALLVALUE CALLDATASIZE CALLDATALOAD 0x2C BALANCE CALLER 0x2E CALLVALUE CALLER CALLVALUE PUSH13 0x342E3439332D31382E3032312D CODESIZE 0x2E ORIGIN CALLDATACOPY CALLDATACOPY 0x2D CODESIZE 0x2E CALLVALUE 0x2D CALLER ADDRESS 0x2E CALLVALUE CALLDATASIZE CALLDATASIZE 0x2C ORIGIN CALLDATASIZE 0x2E CALLVALUE ORIGIN BALANCE PUSH13 0x362E3832312C33382E3038366C ORIGIN CALLVALUE 0x2E CALLDATALOAD CALLER CALLDATASIZE 0x2D BALANCE 0x2E CALLER CODECOPY PUSH13 0x382E3836312D31322E3938332D CALLER 0x2E BALANCE CODECOPY CODESIZE 0x2D BALANCE CALLER 0x2E ORIGIN CALLER CALLDATASIZE PUSH13 0x31312E3330312C31322E353631 0x2D BALANCE CALLVALUE 0x2E ADDRESS CALLDATACOPY BALANCE 0x2C CALLER BALANCE 0x2E ADDRESS CALLER CODESIZE 0x2D ORIGIN CALLDATASIZE 0x2E ORIGIN ORIGIN CALLVALUE 0x2D CALLDATASIZE 0x2E CODESIZE CALLDATACOPY CODESIZE 0x2D CODESIZE 0x2E ORIGIN CODESIZE CODECOPY 0x2C CALLER 0x2E CALLDATALOAD ADDRESS CODECOPY PUSH13 0x322E3337342D372E3938312D31 BALANCE 0x2E BALANCE CALLER CALLVALUE 0x2D CALLER ORIGIN 0x2E CODESIZE CODECOPY CALLDATACOPY 0x2D ORIGIN ADDRESS 0x2E CODESIZE CODECOPY BALANCE 0x2D BALANCE CALLDATALOAD 0x2E ORIGIN CALLVALUE BALANCE PUSH13 0x382E3132352D362E30382D372E BALANCE ADDRESS CALLDATALOAD 0x2D ORIGIN ORIGIN 0x2E CALLDATALOAD CODESIZE CODECOPY PUSH13 0x372E3130352D312E3535382D32 0x2E CODECOPY ORIGIN CALLDATACOPY 0x2D BALANCE CALLDATASIZE 0x2E CALLDATALOAD ORIGIN CALLER 0x22 KECCAK256 PUSH7 0x696C6C3D222339 PUSH4 0x62386238 0x22 KECCAK256 PUSH20 0x74726F6B653D22726762612836332C38372C3133 CALLDATALOAD 0x2C ADDRESS 0x29 0x22 KECCAK256 PUSH20 0x74726F6B652D77696474683D22302E3835222F3E EXTCODECOPY PUSH17 0x61746820643D224D39332E313639303036 0x2C ORIGIN ORIGIN ADDRESS 0x2E CALLER CODESIZE CODESIZE PUSH13 0x31372E3038392D362E3531336C CODECOPY 0x2E BALANCE CALLDATALOAD CALLER 0x2C BALANCE CALLVALUE 0x2E ORIGIN CALLDATALOAD PUSH13 0x362E3132312C322E3938316C32 0x2E ADDRESS CALLER CODECOPY 0x2C BALANCE CALLER 0x2E ORIGIN CALLDATASIZE CODECOPY PUSH13 0x362E3034322C342E3735312D37 0x2E CALLDATASIZE BALANCE BALANCE ADDRESS ADDRESS CALLDATASIZE 0x2C CALLVALUE 0x2E CALLVALUE CALLVALUE BALANCE PUSH18 0x2D382E3933323939342D31372E3835362D38 0x2E CODECOPY CALLER ORIGIN CODECOPY CODECOPY CALLVALUE 0x2D BALANCE CODESIZE 0x2E ADDRESS CALLDATALOAD PUSH21 0x2D392E3338382C382E3835386C2D31342E3531322D ORIGIN BALANCE 0x2E CODECOPY CODESIZE BALANCE PUSH23 0x2D322E303036222066696C6C3D22233530356235612220 PUSH20 0x74726F6B653D22726762612836332C38372C3133 CALLDATALOAD 0x2C ADDRESS 0x29 0x22 KECCAK256 PUSH20 0x74726F6B652D77696474683D22302E3835222F3E EXTCODECOPY PUSH17 0x61746820643D224D3132372E3537313030 CALLDATALOAD 0x2C ORIGIN CODECOPY ADDRESS 0x2E CALLDATASIZE ORIGIN CALLDATALOAD PUSH13 0x382E3737383033382C342E3430 BALANCE CALLDATASIZE CODECOPY CODESIZE PUSH23 0x342E3236363433346C2D31332E3434333939312C31302E CALLER BALANCE CALLDATACOPY CODESIZE CALLER CALLDATALOAD 0x2D BALANCE 0x2E CALLDATASIZE CODECOPY CALLDATALOAD CODECOPY CODECOPY CODESIZE 0x2D BALANCE ADDRESS 0x2E CALLER BALANCE CALLDATACOPY CODESIZE CALLER CALLDATALOAD PUSH13 0x352E3933303435372D312E3335 CALLDATASIZE CODECOPY CALLDATASIZE CODECOPY PUSH13 0x352E30373630372D312E323536 CALLVALUE CALLDATALOAD ORIGIN 0x22 KECCAK256 PUSH21 0x72616E73666F726D3D227472616E736C6174652831 0x2E ORIGIN CALLDATALOAD CALLDATASIZE CALLVALUE CALLDATALOAD CALLVALUE KECCAK256 ADDRESS 0x2E ORIGIN ADDRESS BALANCE ADDRESS CALLER CALLER 0x29 0x22 KECCAK256 PUSH7 0x696C6C3D222335 ADDRESS CALLDATALOAD PUSH3 0x356122 KECCAK256 PUSH20 0x74726F6B653D22726762612836332C38372C3133 CALLDATALOAD 0x2C ADDRESS 0x29 0x22 KECCAK256 PUSH20 0x74726F6B652D77696474683D22302E3835222F3E EXTCODECOPY 0x2F PUSH8 0x3E3C67207472616E PUSH20 0x666F726D3D226D6174726978282D2E3739363431 KECCAK256 ADDRESS KECCAK256 ADDRESS KECCAK256 ADDRESS 0x2E CALLDATACOPY CODECOPY CALLDATASIZE CALLVALUE BALANCE CALLER KECCAK256 CALLER CODESIZE CODESIZE 0x2E CODESIZE ORIGIN BALANCE BALANCE CODESIZE ORIGIN KECCAK256 CALLER ADDRESS 0x2E CALLDATACOPY CODECOPY CALLDATACOPY CALLDATALOAD CODESIZE 0x29 0x22 RETURNDATACOPY EXTCODECOPY PUSH17 0x61746820643D224D37392E353735303036 0x2C BALANCE CODECOPY CODESIZE 0x2E ORIGIN CALLDATALOAD PUSH13 0x2D2E3234342C31362E3438382D CALLDATASIZE 0x2E CALLDATALOAD 0x2C CALLER 0x2E CALLDATASIZE ADDRESS BALANCE PUSH13 0x352E3238362C35322E3834322D CODECOPY 0x2E CALLVALUE ADDRESS CALLDATALOAD 0x2D CALLER 0x2E ADDRESS BALANCE CALLVALUE PUSH13 0x32342E3435372C33372E303237 0x2D BALANCE ADDRESS 0x2E ADDRESS CALLER ORIGIN 0x2C CALLVALUE 0x2E CALLDATASIZE BALANCE CODESIZE PUSH13 0x33312E3135362C32382E343237 PUSH18 0x33342E3333392D322E3337362C33332E3636 CALLDATACOPY 0x2D ORIGIN 0x2E CALLER CALLDATACOPY CALLDATASIZE PUSH21 0x31352E3331392D33312E3033386C2D31312E353433 0x2D BALANCE CALLER 0x2E ORIGIN ADDRESS CODECOPY 0x2D BALANCE 0x2E CALLDATASIZE CODESIZE CALLVALUE CALLDATALOAD CODESIZE CODECOPY 0x2C CODECOPY 0x2E CALLVALUE ORIGIN CALLER CODESIZE BALANCE CALLVALUE 0x2D CALLER 0x2E CALLDATACOPY CALLER CALLDATASIZE CALLVALUE BALANCE BALANCE 0x2D CALLDATASIZE 0x2E CODECOPY CALLDATALOAD CALLVALUE CALLDATALOAD CODECOPY CALLDATASIZE 0x2D CODECOPY 0x2E CALLER CALLER ORIGIN CALLDATASIZE ORIGIN CODESIZE 0x2D CALLDATALOAD 0x2E CALLDATALOAD ADDRESS CALLDATACOPY CALLDATASIZE CALLDATASIZE CALLDATACOPY PUSH13 0x342E3232373632382C372E3436 CODESIZE ADDRESS ORIGIN CALLER 0x2D BALANCE ORIGIN 0x2E CALLER CALLDATACOPY CODECOPY 0x2D CALLDATALOAD 0x2E BALANCE BALANCE CALLER CALLDATALOAD CALLDATACOPY CALLVALUE PUSH13 0x342E3836303939342C352E3934 CODESIZE CALLDATACOPY CALLVALUE CALLVALUE 0x2D BALANCE BALANCE 0x2E ORIGIN ORIGIN CALLDATASIZE CALLVALUE CODECOPY ORIGIN 0x2C ORIGIN 0x2E CALLDATASIZE BALANCE CALLER CALLVALUE ORIGIN BALANCE 0x4C BALANCE BALANCE CODESIZE 0x2E CALLDATACOPY ADDRESS CALLDATASIZE ADDRESS ADDRESS CALLDATASIZE 0x2C ORIGIN CODESIZE CALLDATALOAD 0x2E CALLVALUE BALANCE CALLVALUE PUSH13 0x32342E32352D31312E30336C33 0x2E CALLDATASIZE 0x2C CODESIZE 0x2E ADDRESS BALANCE PUSH13 0x31352E3535372D31322E303831 0x2D BALANCE ADDRESS 0x2E CALLER CALLDATACOPY CALLDATACOPY 0x2D ORIGIN CODECOPY 0x2E BALANCE CALLDATACOPY 0x2D BALANCE ADDRESS 0x2E CALLDATALOAD ORIGIN CALLDATASIZE 0x2C CALLDATALOAD 0x2E CODESIZE BALANCE CALLDATALOAD 0x2D BALANCE ADDRESS 0x2E CALLDATACOPY CALLDATALOAD CALLVALUE 0x2D CALLER 0x2E CALLDATASIZE ORIGIN CODECOPY 0x2D CALLDATALOAD 0x2E BALANCE BALANCE CALLDATACOPY 0x2D BALANCE CALLVALUE 0x2E CODECOPY CALLDATALOAD BALANCE PUSH18 0x2D352E3932382E3632322D352E3932382D2E CALLER CALLDATACOPY CODESIZE PUSH21 0x2D392E3135332D382E313235682D31372E3038396C 0x2D BALANCE CALLER 0x2E CODESIZE CALLER CODESIZE 0x2D ORIGIN BALANCE 0x2E CALLDATASIZE ORIGIN CALLDATALOAD 0x22 KECCAK256 PUSH7 0x696C6C3D222336 PUSH6 0x383238332220 PUSH20 0x74726F6B653D227267626128302C302C302C3029 0x22 KECCAK256 PUSH20 0x74726F6B652D77696474683D22302E3835222073 PUSH21 0x726F6B652D6F7061636974793D2230222F3E3C7061 PUSH21 0x6820643D224D39302E3234323030362C3232392E31 CALLER BALANCE PUSH13 0x31352E3639332C34322E30356C CODESIZE 0x2E CALLDATASIZE CALLVALUE CALLDATASIZE 0x2D CODECOPY 0x2E CODECOPY BALANCE PUSH13 0x31362E3837352D352E3930356C ORIGIN ADDRESS 0x2E CALLDATALOAD ORIGIN ORIGIN 0x2D BALANCE CALLDATALOAD 0x2E ORIGIN CALLDATALOAD CALLVALUE PUSH13 0x392E3639352C32382E3234312D BALANCE ORIGIN 0x2E CALLVALUE CALLDATASIZE CALLDATALOAD 0x2C BALANCE CALLER 0x2E CALLVALUE CALLER CALLVALUE PUSH13 0x342E3439332D31382E3032312D CODESIZE 0x2E ORIGIN CALLDATACOPY CALLDATACOPY 0x2D CODESIZE 0x2E CALLVALUE 0x2D CALLER ADDRESS 0x2E CALLVALUE CALLDATASIZE CALLDATASIZE 0x2C ORIGIN CALLDATASIZE 0x2E CALLVALUE ORIGIN BALANCE PUSH13 0x362E3832312C33382E3038366C ORIGIN CALLVALUE 0x2E CALLDATALOAD CALLER CALLDATASIZE 0x2D BALANCE 0x2E CALLER CODECOPY PUSH13 0x382E3836312D31322E3938332D CALLER 0x2E BALANCE CODECOPY CODESIZE 0x2D BALANCE CALLER 0x2E ORIGIN CALLER CALLDATASIZE PUSH13 0x31312E3330312C31322E353631 0x2D BALANCE CALLVALUE 0x2E ADDRESS CALLDATACOPY BALANCE 0x2C CALLER BALANCE 0x2E ADDRESS CALLER CODESIZE 0x2D ORIGIN CALLDATASIZE 0x2E ORIGIN ORIGIN CALLVALUE 0x2D CALLDATASIZE 0x2E CODESIZE CALLDATACOPY CODESIZE 0x2D CODESIZE 0x2E ORIGIN CODESIZE CODECOPY 0x2C CALLER 0x2E CALLDATALOAD ADDRESS CODECOPY PUSH13 0x322E3337342D372E3938312D31 BALANCE 0x2E BALANCE CALLER CALLVALUE 0x2D CALLER ORIGIN 0x2E CODESIZE CODECOPY CALLDATACOPY 0x2D ORIGIN ADDRESS 0x2E CODESIZE CODECOPY BALANCE 0x2D BALANCE CALLDATALOAD 0x2E ORIGIN CALLVALUE BALANCE PUSH13 0x382E3132352D362E30382D372E BALANCE ADDRESS CALLDATALOAD 0x2D ORIGIN ORIGIN 0x2E CALLDATALOAD CODESIZE CODECOPY PUSH13 0x372E3130352D312E3535382D32 0x2E CODECOPY ORIGIN CALLDATACOPY 0x2D BALANCE CALLDATASIZE 0x2E CALLDATALOAD ORIGIN CALLER 0x22 KECCAK256 PUSH7 0x696C6C3D222339 PUSH4 0x62386238 0x22 KECCAK256 PUSH20 0x74726F6B653D22726762612836332C38372C3133 CALLDATALOAD 0x2C ADDRESS 0x29 0x22 KECCAK256 PUSH20 0x74726F6B652D77696474683D22302E3835222F3E EXTCODECOPY PUSH17 0x61746820643D224D39332E313639303036 0x2C ORIGIN ORIGIN ADDRESS 0x2E CALLER CODESIZE CODESIZE PUSH13 0x31372E3038392D362E3531336C CODECOPY 0x2E BALANCE CALLDATALOAD CALLER 0x2C BALANCE CALLVALUE 0x2E ORIGIN CALLDATALOAD PUSH13 0x362E3132312C322E3938316C32 0x2E ADDRESS CALLER CODECOPY 0x2C BALANCE CALLER 0x2E ORIGIN CALLDATASIZE CODECOPY PUSH13 0x362E3034322C342E3735312D37 0x2E CALLDATASIZE BALANCE BALANCE ADDRESS ADDRESS CALLDATASIZE 0x2C CALLVALUE 0x2E CALLVALUE CALLVALUE BALANCE PUSH18 0x2D382E3933323939342D31372E3835362D38 0x2E CODECOPY CALLER ORIGIN CODECOPY CODECOPY CALLVALUE 0x2D BALANCE CODESIZE 0x2E ADDRESS CALLDATALOAD PUSH21 0x2D392E3338382C382E3835386C2D31342E3531322D ORIGIN BALANCE 0x2E CODECOPY CODESIZE BALANCE PUSH23 0x2D322E303036222066696C6C3D22233530356235612220 PUSH20 0x74726F6B653D22726762612836332C38372C3133 CALLDATALOAD 0x2C ADDRESS 0x29 0x22 KECCAK256 PUSH20 0x74726F6B652D77696474683D22302E3835222F3E EXTCODECOPY PUSH17 0x61746820643D224D3132372E3537313030 CALLDATALOAD 0x2C ORIGIN CODECOPY ADDRESS 0x2E CALLDATASIZE ORIGIN CALLDATALOAD PUSH13 0x382E3737383033382C342E3430 BALANCE CALLDATASIZE CODECOPY CODESIZE PUSH23 0x342E3236363433346C2D31332E3434333939312C31302E CALLER BALANCE CALLDATACOPY CODESIZE CALLER CALLDATALOAD 0x2D BALANCE 0x2E CALLDATASIZE CODECOPY CALLDATALOAD CODECOPY CODECOPY CODESIZE 0x2D BALANCE ADDRESS 0x2E CALLER BALANCE CALLDATACOPY CODESIZE CALLER CALLDATALOAD PUSH13 0x352E3933303435372D312E3335 CALLDATASIZE CODECOPY CALLDATASIZE CODECOPY PUSH13 0x352E30373630372D312E323536 CALLVALUE CALLDATALOAD ORIGIN 0x22 KECCAK256 PUSH21 0x72616E73666F726D3D227472616E736C6174652831 0x2E ORIGIN CALLDATALOAD CALLDATASIZE CALLVALUE CALLDATALOAD CALLVALUE KECCAK256 ADDRESS 0x2E ORIGIN ADDRESS BALANCE ADDRESS CALLER CALLER 0x29 0x22 KECCAK256 PUSH7 0x696C6C3D222335 ADDRESS CALLDATALOAD PUSH3 0x356122 KECCAK256 PUSH20 0x74726F6B653D22726762612836332C38372C3133 CALLDATALOAD 0x2C ADDRESS 0x29 0x22 KECCAK256 PUSH20 0x74726F6B652D77696474683D22302E3835222F3E EXTCODECOPY 0x2F PUSH8 0x3EA2646970667358 0x22 SLT KECCAK256 EXTCODEHASH POP 0xC0 0xD4 0xCE 0xC9 0xCF 0x4D CHAINID PUSH13 0x269524DADCB95010B5B2E494A2 PUSH2 0x2888 0xBF SWAP14 JUMPDEST SWAP14 MSTORE8 PUSH17 0x64736F6C63430008070033000000000000 "
		},
		"gasEstimates": {
			"creation": {
				"codeDepositCost": "4408800",
				"executionCost": "infinite",
				"totalCost": "infinite"
			},
			"external": {
				"CharacterStats(uint256)": "infinite",
				"_mint()": "infinite",
				"_totalSupply()": "2496",
				"approve(address,uint256)": "infinite",
				"balanceOf(address)": "2902",
				"getApproved(uint256)": "5228",
				"getTrophies(uint256)": "infinite",
				"isApprovedForAll(address,address)": "infinite",
				"name()": "infinite",
				"ownerOf(uint256)": "3088",
				"rawFulfillRandomness(bytes32,uint256)": "infinite",
				"safeTransferFrom(address,address,uint256)": "infinite",
				"safeTransferFrom(address,address,uint256,bytes)": "infinite",
				"setApprovalForAll(address,bool)": "infinite",
				"supportsInterface(bytes4)": "797",
				"symbol()": "infinite",
				"tokenURI(uint256)": "infinite",
				"transferFrom(address,address,uint256)": "infinite",
				"withdrawAddress()": "2537"
			},
			"internal": {
				"fulfillMint(uint256)": "infinite",
				"fulfillRandomness(bytes32,uint256)": "infinite",
				"getRandomNumber()": "infinite"
			}
		},
		"methodIdentifiers": {
			"CharacterStats(uint256)": "a9010b0b",
			"_mint()": "c0702d9c",
			"_totalSupply()": "3eaaf86b",
			"approve(address,uint256)": "095ea7b3",
			"balanceOf(address)": "70a08231",
			"getApproved(uint256)": "081812fc",
			"getTrophies(uint256)": "a0c4442d",
			"isApprovedForAll(address,address)": "e985e9c5",
			"name()": "06fdde03",
			"ownerOf(uint256)": "6352211e",
			"rawFulfillRandomness(bytes32,uint256)": "94985ddd",
			"safeTransferFrom(address,address,uint256)": "42842e0e",
			"safeTransferFrom(address,address,uint256,bytes)": "b88d4fde",
			"setApprovalForAll(address,bool)": "a22cb465",
			"supportsInterface(bytes4)": "01ffc9a7",
			"symbol()": "95d89b41",
			"tokenURI(uint256)": "c87b56dd",
			"transferFrom(address,address,uint256)": "23b872dd",
			"withdrawAddress()": "1581b600"
		}
	},
	"abi": [
		{
			"inputs": [],
			"stateMutability": "nonpayable",
			"type": "constructor"
		},
		{
			"anonymous": false,
			"inputs": [
				{
					"indexed": true,
					"internalType": "address",
					"name": "owner",
					"type": "address"
				},
				{
					"indexed": true,
					"internalType": "address",
					"name": "approved",
					"type": "address"
				},
				{
					"indexed": true,
					"internalType": "uint256",
					"name": "tokenId",
					"type": "uint256"
				}
			],
			"name": "Approval",
			"type": "event"
		},
		{
			"anonymous": false,
			"inputs": [
				{
					"indexed": true,
					"internalType": "address",
					"name": "owner",
					"type": "address"
				},
				{
					"indexed": true,
					"internalType": "address",
					"name": "operator",
					"type": "address"
				},
				{
					"indexed": false,
					"internalType": "bool",
					"name": "approved",
					"type": "bool"
				}
			],
			"name": "ApprovalForAll",
			"type": "event"
		},
		{
			"anonymous": false,
			"inputs": [
				{
					"indexed": true,
					"internalType": "address",
					"name": "from",
					"type": "address"
				},
				{
					"indexed": true,
					"internalType": "address",
					"name": "to",
					"type": "address"
				},
				{
					"indexed": true,
					"internalType": "uint256",
					"name": "tokenId",
					"type": "uint256"
				}
			],
			"name": "Transfer",
			"type": "event"
		},
		{
			"anonymous": false,
			"inputs": [
				{
					"indexed": false,
					"internalType": "uint256",
					"name": "tokenID",
					"type": "uint256"
				},
				{
					"indexed": false,
					"internalType": "uint256",
					"name": "seed",
					"type": "uint256"
				}
			],
			"name": "statsFilled",
			"type": "event"
		},
		{
			"inputs": [
				{
					"internalType": "uint256",
					"name": "charID",
					"type": "uint256"
				}
			],
			"name": "CharacterStats",
			"outputs": [
				{
					"internalType": "string",
					"name": "Race",
					"type": "string"
				},
				{
					"internalType": "uint256",
					"name": "Attack",
					"type": "uint256"
				}
			],
			"stateMutability": "view",
			"type": "function"
		},
		{
			"inputs": [],
			"name": "_mint",
			"outputs": [],
			"stateMutability": "payable",
			"type": "function"
		},
		{
			"inputs": [],
			"name": "_totalSupply",
			"outputs": [
				{
					"internalType": "uint256",
					"name": "",
					"type": "uint256"
				}
			],
			"stateMutability": "view",
			"type": "function"
		},
		{
			"inputs": [
				{
					"internalType": "address",
					"name": "to",
					"type": "address"
				},
				{
					"internalType": "uint256",
					"name": "tokenId",
					"type": "uint256"
				}
			],
			"name": "approve",
			"outputs": [],
			"stateMutability": "nonpayable",
			"type": "function"
		},
		{
			"inputs": [
				{
					"internalType": "address",
					"name": "owner",
					"type": "address"
				}
			],
			"name": "balanceOf",
			"outputs": [
				{
					"internalType": "uint256",
					"name": "",
					"type": "uint256"
				}
			],
			"stateMutability": "view",
			"type": "function"
		},
		{
			"inputs": [
				{
					"internalType": "uint256",
					"name": "tokenId",
					"type": "uint256"
				}
			],
			"name": "getApproved",
			"outputs": [
				{
					"internalType": "address",
					"name": "",
					"type": "address"
				}
			],
			"stateMutability": "view",
			"type": "function"
		},
		{
			"inputs": [
				{
					"internalType": "uint256",
					"name": "_tokenID",
					"type": "uint256"
				}
			],
			"name": "getTrophies",
			"outputs": [
				{
					"internalType": "uint256",
					"name": "trophies",
					"type": "uint256"
				}
			],
			"stateMutability": "view",
			"type": "function"
		},
		{
			"inputs": [
				{
					"internalType": "address",
					"name": "owner",
					"type": "address"
				},
				{
					"internalType": "address",
					"name": "operator",
					"type": "address"
				}
			],
			"name": "isApprovedForAll",
			"outputs": [
				{
					"internalType": "bool",
					"name": "",
					"type": "bool"
				}
			],
			"stateMutability": "view",
			"type": "function"
		},
		{
			"inputs": [],
			"name": "name",
			"outputs": [
				{
					"internalType": "string",
					"name": "",
					"type": "string"
				}
			],
			"stateMutability": "view",
			"type": "function"
		},
		{
			"inputs": [
				{
					"internalType": "uint256",
					"name": "tokenId",
					"type": "uint256"
				}
			],
			"name": "ownerOf",
			"outputs": [
				{
					"internalType": "address",
					"name": "",
					"type": "address"
				}
			],
			"stateMutability": "view",
			"type": "function"
		},
		{
			"inputs": [
				{
					"internalType": "bytes32",
					"name": "requestId",
					"type": "bytes32"
				},
				{
					"internalType": "uint256",
					"name": "randomness",
					"type": "uint256"
				}
			],
			"name": "rawFulfillRandomness",
			"outputs": [],
			"stateMutability": "nonpayable",
			"type": "function"
		},
		{
			"inputs": [
				{
					"internalType": "address",
					"name": "from",
					"type": "address"
				},
				{
					"internalType": "address",
					"name": "to",
					"type": "address"
				},
				{
					"internalType": "uint256",
					"name": "tokenId",
					"type": "uint256"
				}
			],
			"name": "safeTransferFrom",
			"outputs": [],
			"stateMutability": "nonpayable",
			"type": "function"
		},
		{
			"inputs": [
				{
					"internalType": "address",
					"name": "from",
					"type": "address"
				},
				{
					"internalType": "address",
					"name": "to",
					"type": "address"
				},
				{
					"internalType": "uint256",
					"name": "tokenId",
					"type": "uint256"
				},
				{
					"internalType": "bytes",
					"name": "data",
					"type": "bytes"
				}
			],
			"name": "safeTransferFrom",
			"outputs": [],
			"stateMutability": "nonpayable",
			"type": "function"
		},
		{
			"inputs": [
				{
					"internalType": "address",
					"name": "operator",
					"type": "address"
				},
				{
					"internalType": "bool",
					"name": "approved",
					"type": "bool"
				}
			],
			"name": "setApprovalForAll",
			"outputs": [],
			"stateMutability": "nonpayable",
			"type": "function"
		},
		{
			"inputs": [
				{
					"internalType": "bytes4",
					"name": "interfaceId",
					"type": "bytes4"
				}
			],
			"name": "supportsInterface",
			"outputs": [
				{
					"internalType": "bool",
					"name": "",
					"type": "bool"
				}
			],
			"stateMutability": "view",
			"type": "function"
		},
		{
			"inputs": [],
			"name": "symbol",
			"outputs": [
				{
					"internalType": "string",
					"name": "",
					"type": "string"
				}
			],
			"stateMutability": "view",
			"type": "function"
		},
		{
			"inputs": [
				{
					"internalType": "uint256",
					"name": "tokenId",
					"type": "uint256"
				}
			],
			"name": "tokenURI",
			"outputs": [
				{
					"internalType": "string",
					"name": "",
					"type": "string"
				}
			],
			"stateMutability": "view",
			"type": "function"
		},
		{
			"inputs": [
				{
					"internalType": "address",
					"name": "from",
					"type": "address"
				},
				{
					"internalType": "address",
					"name": "to",
					"type": "address"
				},
				{
					"internalType": "uint256",
					"name": "tokenId",
					"type": "uint256"
				}
			],
			"name": "transferFrom",
			"outputs": [],
			"stateMutability": "nonpayable",
			"type": "function"
		},
		{
			"inputs": [],
			"name": "withdrawAddress",
			"outputs": [
				{
					"internalType": "address",
					"name": "",
					"type": "address"
				}
			],
			"stateMutability": "view",
			"type": "function"
		}
	]
}