{
	"contracts/StakingNFT.sol": {
		"Staking": {
			"abi": [
				{
					"inputs": [
						{
							"internalType": "address",
							"name": "_nftContract",
							"type": "address"
						},
						{
							"internalType": "address",
							"name": "_tokenContract",
							"type": "address"
						}
					],
					"stateMutability": "nonpayable",
					"type": "constructor"
				},
				{
					"inputs": [
						{
							"internalType": "uint256",
							"name": "_tokenID",
							"type": "uint256"
						}
					],
					"name": "claim",
					"outputs": [],
					"stateMutability": "nonpayable",
					"type": "function"
				},
				{
					"inputs": [
						{
							"internalType": "uint256",
							"name": "_tokenID",
							"type": "uint256"
						}
					],
					"name": "claimedTrophies",
					"outputs": [
						{
							"internalType": "uint256",
							"name": "",
							"type": "uint256"
						}
					],
					"stateMutability": "view",
					"type": "function"
				},
				{
					"inputs": [
						{
							"internalType": "address",
							"name": "operator",
							"type": "address"
						},
						{
							"internalType": "address",
							"name": "from",
							"type": "address"
						},
						{
							"internalType": "uint256",
							"name": "id",
							"type": "uint256"
						},
						{
							"internalType": "uint256",
							"name": "value",
							"type": "uint256"
						},
						{
							"internalType": "bytes",
							"name": "data",
							"type": "bytes"
						}
					],
					"name": "onERC721Received",
					"outputs": [
						{
							"internalType": "bytes4",
							"name": "",
							"type": "bytes4"
						}
					],
					"stateMutability": "nonpayable",
					"type": "function"
				},
				{
					"inputs": [],
					"name": "parentNFT",
					"outputs": [
						{
							"internalType": "contract IERC721",
							"name": "",
							"type": "address"
						}
					],
					"stateMutability": "view",
					"type": "function"
				},
				{
					"inputs": [],
					"name": "parentNFTAddress",
					"outputs": [
						{
							"internalType": "address",
							"name": "",
							"type": "address"
						}
					],
					"stateMutability": "view",
					"type": "function"
				},
				{
					"inputs": [],
					"name": "parentNftFunctions",
					"outputs": [
						{
							"internalType": "contract INFTGame",
							"name": "",
							"type": "address"
						}
					],
					"stateMutability": "view",
					"type": "function"
				},
				{
					"inputs": [],
					"name": "parentToken",
					"outputs": [
						{
							"internalType": "contract IERC20",
							"name": "",
							"type": "address"
						}
					],
					"stateMutability": "view",
					"type": "function"
				},
				{
					"inputs": [
						{
							"internalType": "uint256",
							"name": "_tokenID",
							"type": "uint256"
						}
					],
					"name": "refreshTrophies",
					"outputs": [],
					"stateMutability": "nonpayable",
					"type": "function"
				},
				{
					"inputs": [
						{
							"internalType": "uint256",
							"name": "_tokenID",
							"type": "uint256"
						}
					],
					"name": "stake",
					"outputs": [],
					"stateMutability": "nonpayable",
					"type": "function"
				},
				{
					"inputs": [
						{
							"internalType": "uint256",
							"name": "_tokenID",
							"type": "uint256"
						}
					],
					"name": "unstake",
					"outputs": [],
					"stateMutability": "nonpayable",
					"type": "function"
				}
			],
			"devdoc": {
				"kind": "dev",
				"methods": {},
				"version": 1
			},
			"evm": {
				"assembly": "    /* \"contracts/StakingNFT.sol\":341:3724  contract Staking is ReentrancyGuard {\r... */\n  mstore(0x40, 0x80)\n    /* \"contracts/StakingNFT.sol\":526:780  constructor(address _nftContract, address _tokenContract){\r... */\n  callvalue\n  dup1\n  iszero\n  tag_1\n  jumpi\n  0x00\n  dup1\n  revert\ntag_1:\n  pop\n  mload(0x40)\n  sub(codesize, bytecodeSize)\n  dup1\n  bytecodeSize\n  dup4\n  codecopy\n  dup2\n  dup2\n  add\n  0x40\n  mstore\n  dup2\n  add\n  swap1\n  tag_2\n  swap2\n  swap1\n  tag_3\n  jump\t// in\ntag_2:\n    /* \"@openzeppelin/contracts/security/ReentrancyGuard.sol\":1701:1702  1 */\n  0x01\n    /* \"@openzeppelin/contracts/security/ReentrancyGuard.sol\":1806:1813  _status */\n  0x00\n    /* \"@openzeppelin/contracts/security/ReentrancyGuard.sol\":1806:1828  _status = _NOT_ENTERED */\n  dup2\n  swap1\n  sstore\n  pop\n    /* \"contracts/StakingNFT.sol\":614:626  _nftContract */\n  dup2\n    /* \"contracts/StakingNFT.sol\":594:603  parentNFT */\n  0x02\n  0x00\n    /* \"contracts/StakingNFT.sol\":594:627  parentNFT = IERC721(_nftContract) */\n  0x0100\n  exp\n  dup2\n  sload\n  dup2\n  0xffffffffffffffffffffffffffffffffffffffff\n  mul\n  not\n  and\n  swap1\n  dup4\n  0xffffffffffffffffffffffffffffffffffffffff\n  and\n  mul\n  or\n  swap1\n  sstore\n  pop\n    /* \"contracts/StakingNFT.sol\":668:680  _nftContract */\n  dup2\n    /* \"contracts/StakingNFT.sol\":638:656  parentNftFunctions */\n  0x03\n  0x00\n    /* \"contracts/StakingNFT.sol\":638:681  parentNftFunctions = INFTGame(_nftContract) */\n  0x0100\n  exp\n  dup2\n  sload\n  dup2\n  0xffffffffffffffffffffffffffffffffffffffff\n  mul\n  not\n  and\n  swap1\n  dup4\n  0xffffffffffffffffffffffffffffffffffffffff\n  and\n  mul\n  or\n  swap1\n  sstore\n  pop\n    /* \"contracts/StakingNFT.sol\":713:727  _tokenContract */\n  dup1\n    /* \"contracts/StakingNFT.sol\":692:703  parentToken */\n  0x01\n  0x00\n    /* \"contracts/StakingNFT.sol\":692:728  parentToken = IERC20(_tokenContract) */\n  0x0100\n  exp\n  dup2\n  sload\n  dup2\n  0xffffffffffffffffffffffffffffffffffffffff\n  mul\n  not\n  and\n  swap1\n  dup4\n  0xffffffffffffffffffffffffffffffffffffffff\n  and\n  mul\n  or\n  swap1\n  sstore\n  pop\n    /* \"contracts/StakingNFT.sol\":758:770  _nftContract */\n  dup2\n    /* \"contracts/StakingNFT.sol\":739:755  parentNFTAddress */\n  0x04\n  0x00\n    /* \"contracts/StakingNFT.sol\":739:770  parentNFTAddress = _nftContract */\n  0x0100\n  exp\n  dup2\n  sload\n  dup2\n  0xffffffffffffffffffffffffffffffffffffffff\n  mul\n  not\n  and\n  swap1\n  dup4\n  0xffffffffffffffffffffffffffffffffffffffff\n  and\n  mul\n  or\n  swap1\n  sstore\n  pop\n    /* \"contracts/StakingNFT.sol\":526:780  constructor(address _nftContract, address _tokenContract){\r... */\n  pop\n  pop\n    /* \"contracts/StakingNFT.sol\":341:3724  contract Staking is ReentrancyGuard {\r... */\n  jump(tag_8)\n    /* \"#utility.yul\":7:150   */\ntag_10:\n    /* \"#utility.yul\":64:69   */\n  0x00\n    /* \"#utility.yul\":95:101   */\n  dup2\n    /* \"#utility.yul\":89:102   */\n  mload\n    /* \"#utility.yul\":80:102   */\n  swap1\n  pop\n    /* \"#utility.yul\":111:144   */\n  tag_12\n    /* \"#utility.yul\":138:143   */\n  dup2\n    /* \"#utility.yul\":111:144   */\n  tag_13\n  jump\t// in\ntag_12:\n    /* \"#utility.yul\":7:150   */\n  swap3\n  swap2\n  pop\n  pop\n  jump\t// out\n    /* \"#utility.yul\":156:663   */\ntag_3:\n    /* \"#utility.yul\":235:241   */\n  0x00\n    /* \"#utility.yul\":243:249   */\n  dup1\n    /* \"#utility.yul\":292:294   */\n  0x40\n    /* \"#utility.yul\":280:289   */\n  dup4\n    /* \"#utility.yul\":271:278   */\n  dup6\n    /* \"#utility.yul\":267:290   */\n  sub\n    /* \"#utility.yul\":263:295   */\n  slt\n    /* \"#utility.yul\":260:379   */\n  iszero\n  tag_15\n  jumpi\n    /* \"#utility.yul\":298:377   */\n  tag_16\n  tag_17\n  jump\t// in\ntag_16:\n    /* \"#utility.yul\":260:379   */\ntag_15:\n    /* \"#utility.yul\":418:419   */\n  0x00\n    /* \"#utility.yul\":443:507   */\n  tag_18\n    /* \"#utility.yul\":499:506   */\n  dup6\n    /* \"#utility.yul\":490:496   */\n  dup3\n    /* \"#utility.yul\":479:488   */\n  dup7\n    /* \"#utility.yul\":475:497   */\n  add\n    /* \"#utility.yul\":443:507   */\n  tag_10\n  jump\t// in\ntag_18:\n    /* \"#utility.yul\":433:507   */\n  swap3\n  pop\n    /* \"#utility.yul\":389:517   */\n  pop\n    /* \"#utility.yul\":556:558   */\n  0x20\n    /* \"#utility.yul\":582:646   */\n  tag_19\n    /* \"#utility.yul\":638:645   */\n  dup6\n    /* \"#utility.yul\":629:635   */\n  dup3\n    /* \"#utility.yul\":618:627   */\n  dup7\n    /* \"#utility.yul\":614:636   */\n  add\n    /* \"#utility.yul\":582:646   */\n  tag_10\n  jump\t// in\ntag_19:\n    /* \"#utility.yul\":572:646   */\n  swap2\n  pop\n    /* \"#utility.yul\":527:656   */\n  pop\n    /* \"#utility.yul\":156:663   */\n  swap3\n  pop\n  swap3\n  swap1\n  pop\n  jump\t// out\n    /* \"#utility.yul\":750:846   */\ntag_22:\n    /* \"#utility.yul\":787:794   */\n  0x00\n    /* \"#utility.yul\":816:840   */\n  tag_24\n    /* \"#utility.yul\":834:839   */\n  dup3\n    /* \"#utility.yul\":816:840   */\n  tag_25\n  jump\t// in\ntag_24:\n    /* \"#utility.yul\":805:840   */\n  swap1\n  pop\n    /* \"#utility.yul\":750:846   */\n  swap2\n  swap1\n  pop\n  jump\t// out\n    /* \"#utility.yul\":852:978   */\ntag_25:\n    /* \"#utility.yul\":889:896   */\n  0x00\n    /* \"#utility.yul\":929:971   */\n  0xffffffffffffffffffffffffffffffffffffffff\n    /* \"#utility.yul\":922:927   */\n  dup3\n    /* \"#utility.yul\":918:972   */\n  and\n    /* \"#utility.yul\":907:972   */\n  swap1\n  pop\n    /* \"#utility.yul\":852:978   */\n  swap2\n  swap1\n  pop\n  jump\t// out\n    /* \"#utility.yul\":1107:1224   */\ntag_17:\n    /* \"#utility.yul\":1216:1217   */\n  0x00\n    /* \"#utility.yul\":1213:1214   */\n  dup1\n    /* \"#utility.yul\":1206:1218   */\n  revert\n    /* \"#utility.yul\":1230:1352   */\ntag_13:\n    /* \"#utility.yul\":1303:1327   */\n  tag_31\n    /* \"#utility.yul\":1321:1326   */\n  dup2\n    /* \"#utility.yul\":1303:1327   */\n  tag_22\n  jump\t// in\ntag_31:\n    /* \"#utility.yul\":1296:1301   */\n  dup2\n    /* \"#utility.yul\":1293:1328   */\n  eq\n    /* \"#utility.yul\":1283:1346   */\n  tag_32\n  jumpi\n    /* \"#utility.yul\":1342:1343   */\n  0x00\n    /* \"#utility.yul\":1339:1340   */\n  dup1\n    /* \"#utility.yul\":1332:1344   */\n  revert\n    /* \"#utility.yul\":1283:1346   */\ntag_32:\n    /* \"#utility.yul\":1230:1352   */\n  pop\n  jump\t// out\n    /* \"contracts/StakingNFT.sol\":341:3724  contract Staking is ReentrancyGuard {\r... */\ntag_8:\n  dataSize(sub_0)\n  dup1\n  dataOffset(sub_0)\n  0x00\n  codecopy\n  0x00\n  return\nstop\n\nsub_0: assembly {\n        /* \"contracts/StakingNFT.sol\":341:3724  contract Staking is ReentrancyGuard {\r... */\n      mstore(0x40, 0x80)\n      callvalue\n      dup1\n      iszero\n      tag_1\n      jumpi\n      0x00\n      dup1\n      revert\n    tag_1:\n      pop\n      jumpi(tag_2, lt(calldatasize, 0x04))\n      shr(0xe0, calldataload(0x00))\n      dup1\n      0x7636e245\n      gt\n      tag_13\n      jumpi\n      dup1\n      0x7636e245\n      eq\n      tag_8\n      jumpi\n      dup1\n      0x80a54001\n      eq\n      tag_9\n      jumpi\n      dup1\n      0xa694fc3a\n      eq\n      tag_10\n      jumpi\n      dup1\n      0xb8e33fb2\n      eq\n      tag_11\n      jumpi\n      dup1\n      0xfead3d6e\n      eq\n      tag_12\n      jumpi\n      jump(tag_2)\n    tag_13:\n      dup1\n      0x0eeadd30\n      eq\n      tag_3\n      jumpi\n      dup1\n      0x2e17de78\n      eq\n      tag_4\n      jumpi\n      dup1\n      0x379607f5\n      eq\n      tag_5\n      jumpi\n      dup1\n      0x53eebc6d\n      eq\n      tag_6\n      jumpi\n      dup1\n      0x66bb863b\n      eq\n      tag_7\n      jumpi\n    tag_2:\n      0x00\n      dup1\n      revert\n        /* \"contracts/StakingNFT.sol\":1078:1237  function refreshTrophies(uint256 _tokenID) public {\r... */\n    tag_3:\n      tag_14\n      0x04\n      dup1\n      calldatasize\n      sub\n      dup2\n      add\n      swap1\n      tag_15\n      swap2\n      swap1\n      tag_16\n      jump\t// in\n    tag_15:\n      tag_17\n      jump\t// in\n    tag_14:\n      stop\n        /* \"contracts/StakingNFT.sol\":2540:3387  function unstake(uint256 _tokenID) public {\r... */\n    tag_4:\n      tag_18\n      0x04\n      dup1\n      calldatasize\n      sub\n      dup2\n      add\n      swap1\n      tag_19\n      swap2\n      swap1\n      tag_16\n      jump\t// in\n    tag_19:\n      tag_20\n      jump\t// in\n    tag_18:\n      stop\n        /* \"contracts/StakingNFT.sol\":1738:2534  function claim(uint256 _tokenID) public nonReentrant {\r... */\n    tag_5:\n      tag_21\n      0x04\n      dup1\n      calldatasize\n      sub\n      dup2\n      add\n      swap1\n      tag_22\n      swap2\n      swap1\n      tag_16\n      jump\t// in\n    tag_22:\n      tag_23\n      jump\t// in\n    tag_21:\n      stop\n        /* \"contracts/StakingNFT.sol\":1243:1380  function claimedTrophies(uint256 _tokenID) public view returns (uint256){\r... */\n    tag_6:\n      tag_24\n      0x04\n      dup1\n      calldatasize\n      sub\n      dup2\n      add\n      swap1\n      tag_25\n      swap2\n      swap1\n      tag_16\n      jump\t// in\n    tag_25:\n      tag_26\n      jump\t// in\n    tag_24:\n      mload(0x40)\n      tag_27\n      swap2\n      swap1\n      tag_28\n      jump\t// in\n    tag_27:\n      mload(0x40)\n      dup1\n      swap2\n      sub\n      swap1\n      return\n        /* \"contracts/StakingNFT.sol\":488:519  address public parentNFTAddress */\n    tag_7:\n      tag_29\n      tag_30\n      jump\t// in\n    tag_29:\n      mload(0x40)\n      tag_31\n      swap2\n      swap1\n      tag_32\n      jump\t// in\n    tag_31:\n      mload(0x40)\n      dup1\n      swap2\n      sub\n      swap1\n      return\n        /* \"contracts/StakingNFT.sol\":3415:3701  function onERC721Received(\r... */\n    tag_8:\n      tag_33\n      0x04\n      dup1\n      calldatasize\n      sub\n      dup2\n      add\n      swap1\n      tag_34\n      swap2\n      swap1\n      tag_35\n      jump\t// in\n    tag_34:\n      tag_36\n      jump\t// in\n    tag_33:\n      mload(0x40)\n      tag_37\n      swap2\n      swap1\n      tag_38\n      jump\t// in\n    tag_37:\n      mload(0x40)\n      dup1\n      swap2\n      sub\n      swap1\n      return\n        /* \"contracts/StakingNFT.sol\":384:409  IERC20 public parentToken */\n    tag_9:\n      tag_39\n      tag_40\n      jump\t// in\n    tag_39:\n      mload(0x40)\n      tag_41\n      swap2\n      swap1\n      tag_42\n      jump\t// in\n    tag_41:\n      mload(0x40)\n      dup1\n      swap2\n      sub\n      swap1\n      return\n        /* \"contracts/StakingNFT.sol\":1386:1726  function stake(uint256 _tokenID) public nonReentrant() {\r... */\n    tag_10:\n      tag_43\n      0x04\n      dup1\n      calldatasize\n      sub\n      dup2\n      add\n      swap1\n      tag_44\n      swap2\n      swap1\n      tag_16\n      jump\t// in\n    tag_44:\n      tag_45\n      jump\t// in\n    tag_43:\n      stop\n        /* \"contracts/StakingNFT.sol\":416:440  IERC721 public parentNFT */\n    tag_11:\n      tag_46\n      tag_47\n      jump\t// in\n    tag_46:\n      mload(0x40)\n      tag_48\n      swap2\n      swap1\n      tag_49\n      jump\t// in\n    tag_48:\n      mload(0x40)\n      dup1\n      swap2\n      sub\n      swap1\n      return\n        /* \"contracts/StakingNFT.sol\":447:481  INFTGame public parentNftFunctions */\n    tag_12:\n      tag_50\n      tag_51\n      jump\t// in\n    tag_50:\n      mload(0x40)\n      tag_52\n      swap2\n      swap1\n      tag_53\n      jump\t// in\n    tag_52:\n      mload(0x40)\n      dup1\n      swap2\n      sub\n      swap1\n      return\n        /* \"contracts/StakingNFT.sol\":1078:1237  function refreshTrophies(uint256 _tokenID) public {\r... */\n    tag_17:\n        /* \"contracts/StakingNFT.sol\":1180:1198  parentNftFunctions */\n      0x03\n      0x00\n      swap1\n      sload\n      swap1\n      0x0100\n      exp\n      swap1\n      div\n      0xffffffffffffffffffffffffffffffffffffffff\n      and\n        /* \"contracts/StakingNFT.sol\":1180:1210  parentNftFunctions.getTrophies */\n      0xffffffffffffffffffffffffffffffffffffffff\n      and\n      0xa0c4442d\n        /* \"contracts/StakingNFT.sol\":1211:1219  _tokenID */\n      dup3\n        /* \"contracts/StakingNFT.sol\":1180:1220  parentNftFunctions.getTrophies(_tokenID) */\n      mload(0x40)\n      dup3\n      0xffffffff\n      and\n      0xe0\n      shl\n      dup2\n      mstore\n      0x04\n      add\n      tag_55\n      swap2\n      swap1\n      tag_28\n      jump\t// in\n    tag_55:\n      0x20\n      mload(0x40)\n      dup1\n      dup4\n      sub\n      dup2\n      0x00\n      dup8\n      dup1\n      extcodesize\n      iszero\n      dup1\n      iszero\n      tag_56\n      jumpi\n      0x00\n      dup1\n      revert\n    tag_56:\n      pop\n      gas\n      call\n      iszero\n      dup1\n      iszero\n      tag_58\n      jumpi\n      returndatasize\n      0x00\n      dup1\n      returndatacopy\n      revert(0x00, returndatasize)\n    tag_58:\n      pop\n      pop\n      pop\n      pop\n      mload(0x40)\n      returndatasize\n      not(0x1f)\n      0x1f\n      dup3\n      add\n      and\n      dup3\n      add\n      dup1\n      0x40\n      mstore\n      pop\n      dup2\n      add\n      swap1\n      tag_59\n      swap2\n      swap1\n      tag_60\n      jump\t// in\n    tag_59:\n        /* \"contracts/StakingNFT.sol\":1138:1151  s_stakeReview */\n      0x05\n        /* \"contracts/StakingNFT.sol\":1138:1161  s_stakeReview[_tokenID] */\n      0x00\n        /* \"contracts/StakingNFT.sol\":1152:1160  _tokenID */\n      dup4\n        /* \"contracts/StakingNFT.sol\":1138:1161  s_stakeReview[_tokenID] */\n      dup2\n      mstore\n      0x20\n      add\n      swap1\n      dup2\n      mstore\n      0x20\n      add\n      0x00\n      keccak256\n        /* \"contracts/StakingNFT.sol\":1138:1177  s_stakeReview[_tokenID].claimedTrophies */\n      0x01\n      add\n        /* \"contracts/StakingNFT.sol\":1138:1220  s_stakeReview[_tokenID].claimedTrophies = parentNftFunctions.getTrophies(_tokenID) */\n      dup2\n      swap1\n      sstore\n      pop\n        /* \"contracts/StakingNFT.sol\":1078:1237  function refreshTrophies(uint256 _tokenID) public {\r... */\n      pop\n      jump\t// out\n        /* \"contracts/StakingNFT.sol\":2540:3387  function unstake(uint256 _tokenID) public {\r... */\n    tag_20:\n        /* \"contracts/StakingNFT.sol\":2640:2644  this */\n      address\n        /* \"contracts/StakingNFT.sol\":2601:2645  parentNFT.ownerOf(_tokenID) == address(this) */\n      0xffffffffffffffffffffffffffffffffffffffff\n      and\n        /* \"contracts/StakingNFT.sol\":2601:2610  parentNFT */\n      0x02\n      0x00\n      swap1\n      sload\n      swap1\n      0x0100\n      exp\n      swap1\n      div\n      0xffffffffffffffffffffffffffffffffffffffff\n      and\n        /* \"contracts/StakingNFT.sol\":2601:2618  parentNFT.ownerOf */\n      0xffffffffffffffffffffffffffffffffffffffff\n      and\n      0x6352211e\n        /* \"contracts/StakingNFT.sol\":2619:2627  _tokenID */\n      dup4\n        /* \"contracts/StakingNFT.sol\":2601:2628  parentNFT.ownerOf(_tokenID) */\n      mload(0x40)\n      dup3\n      0xffffffff\n      and\n      0xe0\n      shl\n      dup2\n      mstore\n      0x04\n      add\n      tag_62\n      swap2\n      swap1\n      tag_28\n      jump\t// in\n    tag_62:\n      0x20\n      mload(0x40)\n      dup1\n      dup4\n      sub\n      dup2\n      dup7\n      dup1\n      extcodesize\n      iszero\n      dup1\n      iszero\n      tag_63\n      jumpi\n      0x00\n      dup1\n      revert\n    tag_63:\n      pop\n      gas\n      staticcall\n      iszero\n      dup1\n      iszero\n      tag_65\n      jumpi\n      returndatasize\n      0x00\n      dup1\n      returndatacopy\n      revert(0x00, returndatasize)\n    tag_65:\n      pop\n      pop\n      pop\n      pop\n      mload(0x40)\n      returndatasize\n      not(0x1f)\n      0x1f\n      dup3\n      add\n      and\n      dup3\n      add\n      dup1\n      0x40\n      mstore\n      pop\n      dup2\n      add\n      swap1\n      tag_66\n      swap2\n      swap1\n      tag_67\n      jump\t// in\n    tag_66:\n        /* \"contracts/StakingNFT.sol\":2601:2645  parentNFT.ownerOf(_tokenID) == address(this) */\n      0xffffffffffffffffffffffffffffffffffffffff\n      and\n      eq\n        /* \"contracts/StakingNFT.sol\":2593:2660  require(parentNFT.ownerOf(_tokenID) == address(this), \"Not staked\") */\n      tag_68\n      jumpi\n      mload(0x40)\n      0x08c379a000000000000000000000000000000000000000000000000000000000\n      dup2\n      mstore\n      0x04\n      add\n      tag_69\n      swap1\n      tag_70\n      jump\t// in\n    tag_69:\n      mload(0x40)\n      dup1\n      swap2\n      sub\n      swap1\n      revert\n    tag_68:\n        /* \"contracts/StakingNFT.sol\":2716:2726  msg.sender */\n      caller\n        /* \"contracts/StakingNFT.sol\":2679:2726  s_stakeReview[_tokenID].realOwner == msg.sender */\n      0xffffffffffffffffffffffffffffffffffffffff\n      and\n        /* \"contracts/StakingNFT.sol\":2679:2692  s_stakeReview */\n      0x05\n        /* \"contracts/StakingNFT.sol\":2679:2702  s_stakeReview[_tokenID] */\n      0x00\n        /* \"contracts/StakingNFT.sol\":2693:2701  _tokenID */\n      dup4\n        /* \"contracts/StakingNFT.sol\":2679:2702  s_stakeReview[_tokenID] */\n      dup2\n      mstore\n      0x20\n      add\n      swap1\n      dup2\n      mstore\n      0x20\n      add\n      0x00\n      keccak256\n        /* \"contracts/StakingNFT.sol\":2679:2712  s_stakeReview[_tokenID].realOwner */\n      0x00\n      add\n      0x00\n      swap1\n      sload\n      swap1\n      0x0100\n      exp\n      swap1\n      div\n      0xffffffffffffffffffffffffffffffffffffffff\n      and\n        /* \"contracts/StakingNFT.sol\":2679:2726  s_stakeReview[_tokenID].realOwner == msg.sender */\n      0xffffffffffffffffffffffffffffffffffffffff\n      and\n      eq\n        /* \"contracts/StakingNFT.sol\":2671:2744  require(s_stakeReview[_tokenID].realOwner == msg.sender, \"Not realOwner\") */\n      tag_71\n      jumpi\n      mload(0x40)\n      0x08c379a000000000000000000000000000000000000000000000000000000000\n      dup2\n      mstore\n      0x04\n      add\n      tag_72\n      swap1\n      tag_73\n      jump\t// in\n    tag_72:\n      mload(0x40)\n      dup1\n      swap2\n      sub\n      swap1\n      revert\n    tag_71:\n        /* \"contracts/StakingNFT.sol\":2755:2769  uint256 amount */\n      0x00\n        /* \"contracts/StakingNFT.sol\":2877:2890  s_stakeReview */\n      0x05\n        /* \"contracts/StakingNFT.sol\":2877:2900  s_stakeReview[_tokenID] */\n      0x00\n        /* \"contracts/StakingNFT.sol\":2891:2899  _tokenID */\n      dup4\n        /* \"contracts/StakingNFT.sol\":2877:2900  s_stakeReview[_tokenID] */\n      dup2\n      mstore\n      0x20\n      add\n      swap1\n      dup2\n      mstore\n      0x20\n      add\n      0x00\n      keccak256\n        /* \"contracts/StakingNFT.sol\":2877:2916  s_stakeReview[_tokenID].claimedTrophies */\n      0x01\n      add\n      sload\n        /* \"contracts/StakingNFT.sol\":2834:2852  parentNftFunctions */\n      0x03\n      0x00\n      swap1\n      sload\n      swap1\n      0x0100\n      exp\n      swap1\n      div\n      0xffffffffffffffffffffffffffffffffffffffff\n      and\n        /* \"contracts/StakingNFT.sol\":2834:2864  parentNftFunctions.getTrophies */\n      0xffffffffffffffffffffffffffffffffffffffff\n      and\n      0xa0c4442d\n        /* \"contracts/StakingNFT.sol\":2865:2873  _tokenID */\n      dup5\n        /* \"contracts/StakingNFT.sol\":2834:2874  parentNftFunctions.getTrophies(_tokenID) */\n      mload(0x40)\n      dup3\n      0xffffffff\n      and\n      0xe0\n      shl\n      dup2\n      mstore\n      0x04\n      add\n      tag_74\n      swap2\n      swap1\n      tag_28\n      jump\t// in\n    tag_74:\n      0x20\n      mload(0x40)\n      dup1\n      dup4\n      sub\n      dup2\n      0x00\n      dup8\n      dup1\n      extcodesize\n      iszero\n      dup1\n      iszero\n      tag_75\n      jumpi\n      0x00\n      dup1\n      revert\n    tag_75:\n      pop\n      gas\n      call\n      iszero\n      dup1\n      iszero\n      tag_77\n      jumpi\n      returndatasize\n      0x00\n      dup1\n      returndatacopy\n      revert(0x00, returndatasize)\n    tag_77:\n      pop\n      pop\n      pop\n      pop\n      mload(0x40)\n      returndatasize\n      not(0x1f)\n      0x1f\n      dup3\n      add\n      and\n      dup3\n      add\n      dup1\n      0x40\n      mstore\n      pop\n      dup2\n      add\n      swap1\n      tag_78\n      swap2\n      swap1\n      tag_60\n      jump\t// in\n    tag_78:\n        /* \"contracts/StakingNFT.sol\":2834:2916  parentNftFunctions.getTrophies(_tokenID) - s_stakeReview[_tokenID].claimedTrophies */\n      tag_79\n      swap2\n      swap1\n      tag_80\n      jump\t// in\n    tag_79:\n        /* \"contracts/StakingNFT.sol\":2792:2805  s_stakeReview */\n      0x05\n        /* \"contracts/StakingNFT.sol\":2792:2815  s_stakeReview[_tokenID] */\n      0x00\n        /* \"contracts/StakingNFT.sol\":2806:2814  _tokenID */\n      dup5\n        /* \"contracts/StakingNFT.sol\":2792:2815  s_stakeReview[_tokenID] */\n      dup2\n      mstore\n      0x20\n      add\n      swap1\n      dup2\n      mstore\n      0x20\n      add\n      0x00\n      keccak256\n        /* \"contracts/StakingNFT.sol\":2792:2829  s_stakeReview[_tokenID].lastClaimTime */\n      0x02\n      add\n      sload\n        /* \"contracts/StakingNFT.sol\":2774:2789  block.timestamp */\n      timestamp\n        /* \"contracts/StakingNFT.sol\":2774:2829  block.timestamp - s_stakeReview[_tokenID].lastClaimTime */\n      tag_81\n      swap2\n      swap1\n      tag_80\n      jump\t// in\n    tag_81:\n        /* \"contracts/StakingNFT.sol\":2773:2917  (block.timestamp - s_stakeReview[_tokenID].lastClaimTime) + (parentNftFunctions.getTrophies(_tokenID) - s_stakeReview[_tokenID].claimedTrophies) */\n      tag_82\n      swap2\n      swap1\n      tag_83\n      jump\t// in\n    tag_82:\n        /* \"contracts/StakingNFT.sol\":2755:2919  uint256 amount = ((block.timestamp - s_stakeReview[_tokenID].lastClaimTime) + (parentNftFunctions.getTrophies(_tokenID) - s_stakeReview[_tokenID].claimedTrophies) ) */\n      swap1\n      pop\n        /* \"contracts/StakingNFT.sol\":2931:2954  uint256 currentTrophies */\n      0x00\n        /* \"contracts/StakingNFT.sol\":2957:2975  parentNftFunctions */\n      0x03\n      0x00\n      swap1\n      sload\n      swap1\n      0x0100\n      exp\n      swap1\n      div\n      0xffffffffffffffffffffffffffffffffffffffff\n      and\n        /* \"contracts/StakingNFT.sol\":2957:2987  parentNftFunctions.getTrophies */\n      0xffffffffffffffffffffffffffffffffffffffff\n      and\n      0xa0c4442d\n        /* \"contracts/StakingNFT.sol\":2988:2996  _tokenID */\n      dup5\n        /* \"contracts/StakingNFT.sol\":2957:2997  parentNftFunctions.getTrophies(_tokenID) */\n      mload(0x40)\n      dup3\n      0xffffffff\n      and\n      0xe0\n      shl\n      dup2\n      mstore\n      0x04\n      add\n      tag_84\n      swap2\n      swap1\n      tag_28\n      jump\t// in\n    tag_84:\n      0x20\n      mload(0x40)\n      dup1\n      dup4\n      sub\n      dup2\n      0x00\n      dup8\n      dup1\n      extcodesize\n      iszero\n      dup1\n      iszero\n      tag_85\n      jumpi\n      0x00\n      dup1\n      revert\n    tag_85:\n      pop\n      gas\n      call\n      iszero\n      dup1\n      iszero\n      tag_87\n      jumpi\n      returndatasize\n      0x00\n      dup1\n      returndatacopy\n      revert(0x00, returndatasize)\n    tag_87:\n      pop\n      pop\n      pop\n      pop\n      mload(0x40)\n      returndatasize\n      not(0x1f)\n      0x1f\n      dup3\n      add\n      and\n      dup3\n      add\n      dup1\n      0x40\n      mstore\n      pop\n      dup2\n      add\n      swap1\n      tag_88\n      swap2\n      swap1\n      tag_60\n      jump\t// in\n    tag_88:\n        /* \"contracts/StakingNFT.sol\":2931:2997  uint256 currentTrophies = parentNftFunctions.getTrophies(_tokenID) */\n      swap1\n      pop\n        /* \"contracts/StakingNFT.sol\":3012:3023  parentToken */\n      0x01\n      0x00\n      swap1\n      sload\n      swap1\n      0x0100\n      exp\n      swap1\n      div\n      0xffffffffffffffffffffffffffffffffffffffff\n      and\n        /* \"contracts/StakingNFT.sol\":3012:3032  parentToken.transfer */\n      0xffffffffffffffffffffffffffffffffffffffff\n      and\n      0xa9059cbb\n        /* \"contracts/StakingNFT.sol\":3033:3043  msg.sender */\n      caller\n        /* \"contracts/StakingNFT.sol\":3045:3051  amount */\n      dup5\n        /* \"contracts/StakingNFT.sol\":3012:3052  parentToken.transfer(msg.sender, amount) */\n      mload(0x40)\n      dup4\n      0xffffffff\n      and\n      0xe0\n      shl\n      dup2\n      mstore\n      0x04\n      add\n      tag_89\n      swap3\n      swap2\n      swap1\n      tag_90\n      jump\t// in\n    tag_89:\n      0x20\n      mload(0x40)\n      dup1\n      dup4\n      sub\n      dup2\n      0x00\n      dup8\n      dup1\n      extcodesize\n      iszero\n      dup1\n      iszero\n      tag_91\n      jumpi\n      0x00\n      dup1\n      revert\n    tag_91:\n      pop\n      gas\n      call\n      iszero\n      dup1\n      iszero\n      tag_93\n      jumpi\n      returndatasize\n      0x00\n      dup1\n      returndatacopy\n      revert(0x00, returndatasize)\n    tag_93:\n      pop\n      pop\n      pop\n      pop\n      mload(0x40)\n      returndatasize\n      not(0x1f)\n      0x1f\n      dup3\n      add\n      and\n      dup3\n      add\n      dup1\n      0x40\n      mstore\n      pop\n      dup2\n      add\n      swap1\n      tag_94\n      swap2\n      swap1\n      tag_95\n      jump\t// in\n    tag_94:\n        /* \"contracts/StakingNFT.sol\":3008:3253  if (parentToken.transfer(msg.sender, amount)){\r... */\n      iszero\n      tag_96\n      jumpi\n        /* \"contracts/StakingNFT.sol\":3108:3123  block.timestamp */\n      timestamp\n        /* \"contracts/StakingNFT.sol\":3068:3081  s_stakeReview */\n      0x05\n        /* \"contracts/StakingNFT.sol\":3068:3091  s_stakeReview[_tokenID] */\n      0x00\n        /* \"contracts/StakingNFT.sol\":3082:3090  _tokenID */\n      dup6\n        /* \"contracts/StakingNFT.sol\":3068:3091  s_stakeReview[_tokenID] */\n      dup2\n      mstore\n      0x20\n      add\n      swap1\n      dup2\n      mstore\n      0x20\n      add\n      0x00\n      keccak256\n        /* \"contracts/StakingNFT.sol\":3068:3105  s_stakeReview[_tokenID].lastClaimTime */\n      0x02\n      add\n        /* \"contracts/StakingNFT.sol\":3068:3123  s_stakeReview[_tokenID].lastClaimTime = block.timestamp */\n      dup2\n      swap1\n      sstore\n      pop\n        /* \"contracts/StakingNFT.sol\":3201:3214  s_stakeReview */\n      0x05\n        /* \"contracts/StakingNFT.sol\":3201:3224  s_stakeReview[_tokenID] */\n      0x00\n        /* \"contracts/StakingNFT.sol\":3215:3223  _tokenID */\n      dup5\n        /* \"contracts/StakingNFT.sol\":3201:3224  s_stakeReview[_tokenID] */\n      dup2\n      mstore\n      0x20\n      add\n      swap1\n      dup2\n      mstore\n      0x20\n      add\n      0x00\n      keccak256\n        /* \"contracts/StakingNFT.sol\":3201:3240  s_stakeReview[_tokenID].claimedTrophies */\n      0x01\n      add\n      sload\n        /* \"contracts/StakingNFT.sol\":3183:3198  currentTrophies */\n      dup2\n        /* \"contracts/StakingNFT.sol\":3183:3240  currentTrophies - s_stakeReview[_tokenID].claimedTrophies */\n      tag_97\n      swap2\n      swap1\n      tag_80\n      jump\t// in\n    tag_97:\n        /* \"contracts/StakingNFT.sol\":3139:3152  s_stakeReview */\n      0x05\n        /* \"contracts/StakingNFT.sol\":3139:3162  s_stakeReview[_tokenID] */\n      0x00\n        /* \"contracts/StakingNFT.sol\":3153:3161  _tokenID */\n      dup6\n        /* \"contracts/StakingNFT.sol\":3139:3162  s_stakeReview[_tokenID] */\n      dup2\n      mstore\n      0x20\n      add\n      swap1\n      dup2\n      mstore\n      0x20\n      add\n      0x00\n      keccak256\n        /* \"contracts/StakingNFT.sol\":3139:3178  s_stakeReview[_tokenID].claimedTrophies */\n      0x01\n      add\n      0x00\n        /* \"contracts/StakingNFT.sol\":3139:3241  s_stakeReview[_tokenID].claimedTrophies += (currentTrophies - s_stakeReview[_tokenID].claimedTrophies) */\n      dup3\n      dup3\n      sload\n      tag_98\n      swap2\n      swap1\n      tag_83\n      jump\t// in\n    tag_98:\n      swap3\n      pop\n      pop\n      dup2\n      swap1\n      sstore\n      pop\n        /* \"contracts/StakingNFT.sol\":3008:3253  if (parentToken.transfer(msg.sender, amount)){\r... */\n    tag_96:\n        /* \"contracts/StakingNFT.sol\":3263:3272  parentNFT */\n      0x02\n      0x00\n      swap1\n      sload\n      swap1\n      0x0100\n      exp\n      swap1\n      div\n      0xffffffffffffffffffffffffffffffffffffffff\n      and\n        /* \"contracts/StakingNFT.sol\":3263:3285  parentNFT.transferFrom */\n      0xffffffffffffffffffffffffffffffffffffffff\n      and\n      0x23b872dd\n        /* \"contracts/StakingNFT.sol\":3294:3298  this */\n      address\n        /* \"contracts/StakingNFT.sol\":3301:3311  msg.sender */\n      caller\n        /* \"contracts/StakingNFT.sol\":3313:3321  _tokenID */\n      dup7\n        /* \"contracts/StakingNFT.sol\":3263:3322  parentNFT.transferFrom(address(this), msg.sender, _tokenID) */\n      mload(0x40)\n      dup5\n      0xffffffff\n      and\n      0xe0\n      shl\n      dup2\n      mstore\n      0x04\n      add\n      tag_99\n      swap4\n      swap3\n      swap2\n      swap1\n      tag_100\n      jump\t// in\n    tag_99:\n      0x00\n      mload(0x40)\n      dup1\n      dup4\n      sub\n      dup2\n      0x00\n      dup8\n      dup1\n      extcodesize\n      iszero\n      dup1\n      iszero\n      tag_101\n      jumpi\n      0x00\n      dup1\n      revert\n    tag_101:\n      pop\n      gas\n      call\n      iszero\n      dup1\n      iszero\n      tag_103\n      jumpi\n      returndatasize\n      0x00\n      dup1\n      returndatacopy\n      revert(0x00, returndatasize)\n    tag_103:\n      pop\n      pop\n      pop\n      pop\n        /* \"contracts/StakingNFT.sol\":3377:3378  0 */\n      0x00\n        /* \"contracts/StakingNFT.sol\":3333:3346  s_stakeReview */\n      0x05\n        /* \"contracts/StakingNFT.sol\":3333:3356  s_stakeReview[_tokenID] */\n      0x00\n        /* \"contracts/StakingNFT.sol\":3347:3355  _tokenID */\n      dup6\n        /* \"contracts/StakingNFT.sol\":3333:3356  s_stakeReview[_tokenID] */\n      dup2\n      mstore\n      0x20\n      add\n      swap1\n      dup2\n      mstore\n      0x20\n      add\n      0x00\n      keccak256\n        /* \"contracts/StakingNFT.sol\":3333:3366  s_stakeReview[_tokenID].realOwner */\n      0x00\n      add\n      0x00\n        /* \"contracts/StakingNFT.sol\":3333:3379  s_stakeReview[_tokenID].realOwner = address(0) */\n      0x0100\n      exp\n      dup2\n      sload\n      dup2\n      0xffffffffffffffffffffffffffffffffffffffff\n      mul\n      not\n      and\n      swap1\n      dup4\n      0xffffffffffffffffffffffffffffffffffffffff\n      and\n      mul\n      or\n      swap1\n      sstore\n      pop\n        /* \"contracts/StakingNFT.sol\":2582:3387  {\r... */\n      pop\n      pop\n        /* \"contracts/StakingNFT.sol\":2540:3387  function unstake(uint256 _tokenID) public {\r... */\n      pop\n      jump\t// out\n        /* \"contracts/StakingNFT.sol\":1738:2534  function claim(uint256 _tokenID) public nonReentrant {\r... */\n    tag_23:\n        /* \"@openzeppelin/contracts/security/ReentrancyGuard.sol\":1744:1745  2 */\n      0x02\n        /* \"@openzeppelin/contracts/security/ReentrancyGuard.sol\":2325:2332  _status */\n      sload(0x00)\n        /* \"@openzeppelin/contracts/security/ReentrancyGuard.sol\":2325:2344  _status != _ENTERED */\n      eq\n      iszero\n        /* \"@openzeppelin/contracts/security/ReentrancyGuard.sol\":2317:2380  require(_status != _ENTERED, \"ReentrancyGuard: reentrant call\") */\n      tag_105\n      jumpi\n      mload(0x40)\n      0x08c379a000000000000000000000000000000000000000000000000000000000\n      dup2\n      mstore\n      0x04\n      add\n      tag_106\n      swap1\n      tag_107\n      jump\t// in\n    tag_106:\n      mload(0x40)\n      dup1\n      swap2\n      sub\n      swap1\n      revert\n    tag_105:\n        /* \"@openzeppelin/contracts/security/ReentrancyGuard.sol\":1744:1745  2 */\n      0x02\n        /* \"@openzeppelin/contracts/security/ReentrancyGuard.sol\":2455:2462  _status */\n      0x00\n        /* \"@openzeppelin/contracts/security/ReentrancyGuard.sol\":2455:2473  _status = _ENTERED */\n      dup2\n      swap1\n      sstore\n      pop\n        /* \"contracts/StakingNFT.sol\":1850:1851  0 */\n      0x00\n        /* \"contracts/StakingNFT.sol\":1810:1823  s_stakeReview */\n      0x05\n        /* \"contracts/StakingNFT.sol\":1810:1833  s_stakeReview[_tokenID] */\n      0x00\n        /* \"contracts/StakingNFT.sol\":1824:1832  _tokenID */\n      dup4\n        /* \"contracts/StakingNFT.sol\":1810:1833  s_stakeReview[_tokenID] */\n      dup2\n      mstore\n      0x20\n      add\n      swap1\n      dup2\n      mstore\n      0x20\n      add\n      0x00\n      keccak256\n        /* \"contracts/StakingNFT.sol\":1810:1847  s_stakeReview[_tokenID].lastClaimTime */\n      0x02\n      add\n      sload\n        /* \"contracts/StakingNFT.sol\":1810:1851  s_stakeReview[_tokenID].lastClaimTime > 0 */\n      gt\n        /* \"contracts/StakingNFT.sol\":1802:1853  require(s_stakeReview[_tokenID].lastClaimTime > 0 ) */\n      tag_109\n      jumpi\n      0x00\n      dup1\n      revert\n    tag_109:\n        /* \"contracts/StakingNFT.sol\":1909:1919  msg.sender */\n      caller\n        /* \"contracts/StakingNFT.sol\":1872:1919  s_stakeReview[_tokenID].realOwner == msg.sender */\n      0xffffffffffffffffffffffffffffffffffffffff\n      and\n        /* \"contracts/StakingNFT.sol\":1872:1885  s_stakeReview */\n      0x05\n        /* \"contracts/StakingNFT.sol\":1872:1895  s_stakeReview[_tokenID] */\n      0x00\n        /* \"contracts/StakingNFT.sol\":1886:1894  _tokenID */\n      dup4\n        /* \"contracts/StakingNFT.sol\":1872:1895  s_stakeReview[_tokenID] */\n      dup2\n      mstore\n      0x20\n      add\n      swap1\n      dup2\n      mstore\n      0x20\n      add\n      0x00\n      keccak256\n        /* \"contracts/StakingNFT.sol\":1872:1905  s_stakeReview[_tokenID].realOwner */\n      0x00\n      add\n      0x00\n      swap1\n      sload\n      swap1\n      0x0100\n      exp\n      swap1\n      div\n      0xffffffffffffffffffffffffffffffffffffffff\n      and\n        /* \"contracts/StakingNFT.sol\":1872:1919  s_stakeReview[_tokenID].realOwner == msg.sender */\n      0xffffffffffffffffffffffffffffffffffffffff\n      and\n      eq\n        /* \"contracts/StakingNFT.sol\":1864:1920  require(s_stakeReview[_tokenID].realOwner == msg.sender) */\n      tag_110\n      jumpi\n      0x00\n      dup1\n      revert\n    tag_110:\n        /* \"contracts/StakingNFT.sol\":1975:1993  parentNftFunctions */\n      0x03\n      0x00\n      swap1\n      sload\n      swap1\n      0x0100\n      exp\n      swap1\n      div\n      0xffffffffffffffffffffffffffffffffffffffff\n      and\n        /* \"contracts/StakingNFT.sol\":1975:2005  parentNftFunctions.getTrophies */\n      0xffffffffffffffffffffffffffffffffffffffff\n      and\n      0xa0c4442d\n        /* \"contracts/StakingNFT.sol\":2006:2014  _tokenID */\n      dup3\n        /* \"contracts/StakingNFT.sol\":1975:2015  parentNftFunctions.getTrophies(_tokenID) */\n      mload(0x40)\n      dup3\n      0xffffffff\n      and\n      0xe0\n      shl\n      dup2\n      mstore\n      0x04\n      add\n      tag_111\n      swap2\n      swap1\n      tag_28\n      jump\t// in\n    tag_111:\n      0x20\n      mload(0x40)\n      dup1\n      dup4\n      sub\n      dup2\n      0x00\n      dup8\n      dup1\n      extcodesize\n      iszero\n      dup1\n      iszero\n      tag_112\n      jumpi\n      0x00\n      dup1\n      revert\n    tag_112:\n      pop\n      gas\n      call\n      iszero\n      dup1\n      iszero\n      tag_114\n      jumpi\n      returndatasize\n      0x00\n      dup1\n      returndatacopy\n      revert(0x00, returndatasize)\n    tag_114:\n      pop\n      pop\n      pop\n      pop\n      mload(0x40)\n      returndatasize\n      not(0x1f)\n      0x1f\n      dup3\n      add\n      and\n      dup3\n      add\n      dup1\n      0x40\n      mstore\n      pop\n      dup2\n      add\n      swap1\n      tag_115\n      swap2\n      swap1\n      tag_60\n      jump\t// in\n    tag_115:\n        /* \"contracts/StakingNFT.sol\":1933:1946  s_stakeReview */\n      0x05\n        /* \"contracts/StakingNFT.sol\":1933:1956  s_stakeReview[_tokenID] */\n      0x00\n        /* \"contracts/StakingNFT.sol\":1947:1955  _tokenID */\n      dup4\n        /* \"contracts/StakingNFT.sol\":1933:1956  s_stakeReview[_tokenID] */\n      dup2\n      mstore\n      0x20\n      add\n      swap1\n      dup2\n      mstore\n      0x20\n      add\n      0x00\n      keccak256\n        /* \"contracts/StakingNFT.sol\":1933:1972  s_stakeReview[_tokenID].claimedTrophies */\n      0x01\n      add\n        /* \"contracts/StakingNFT.sol\":1933:2015  s_stakeReview[_tokenID].claimedTrophies = parentNftFunctions.getTrophies(_tokenID) */\n      dup2\n      swap1\n      sstore\n      pop\n        /* \"contracts/StakingNFT.sol\":2026:2049  uint256 currentTrophies */\n      0x00\n        /* \"contracts/StakingNFT.sol\":2052:2070  parentNftFunctions */\n      0x03\n      0x00\n      swap1\n      sload\n      swap1\n      0x0100\n      exp\n      swap1\n      div\n      0xffffffffffffffffffffffffffffffffffffffff\n      and\n        /* \"contracts/StakingNFT.sol\":2052:2082  parentNftFunctions.getTrophies */\n      0xffffffffffffffffffffffffffffffffffffffff\n      and\n      0xa0c4442d\n        /* \"contracts/StakingNFT.sol\":2083:2091  _tokenID */\n      dup4\n        /* \"contracts/StakingNFT.sol\":2052:2092  parentNftFunctions.getTrophies(_tokenID) */\n      mload(0x40)\n      dup3\n      0xffffffff\n      and\n      0xe0\n      shl\n      dup2\n      mstore\n      0x04\n      add\n      tag_116\n      swap2\n      swap1\n      tag_28\n      jump\t// in\n    tag_116:\n      0x20\n      mload(0x40)\n      dup1\n      dup4\n      sub\n      dup2\n      0x00\n      dup8\n      dup1\n      extcodesize\n      iszero\n      dup1\n      iszero\n      tag_117\n      jumpi\n      0x00\n      dup1\n      revert\n    tag_117:\n      pop\n      gas\n      call\n      iszero\n      dup1\n      iszero\n      tag_119\n      jumpi\n      returndatasize\n      0x00\n      dup1\n      returndatacopy\n      revert(0x00, returndatasize)\n    tag_119:\n      pop\n      pop\n      pop\n      pop\n      mload(0x40)\n      returndatasize\n      not(0x1f)\n      0x1f\n      dup3\n      add\n      and\n      dup3\n      add\n      dup1\n      0x40\n      mstore\n      pop\n      dup2\n      add\n      swap1\n      tag_120\n      swap2\n      swap1\n      tag_60\n      jump\t// in\n    tag_120:\n        /* \"contracts/StakingNFT.sol\":2026:2092  uint256 currentTrophies = parentNftFunctions.getTrophies(_tokenID) */\n      swap1\n      pop\n        /* \"contracts/StakingNFT.sol\":2103:2117  uint256 amount */\n      0x00\n        /* \"contracts/StakingNFT.sol\":2200:2213  s_stakeReview */\n      0x05\n        /* \"contracts/StakingNFT.sol\":2200:2223  s_stakeReview[_tokenID] */\n      0x00\n        /* \"contracts/StakingNFT.sol\":2214:2222  _tokenID */\n      dup5\n        /* \"contracts/StakingNFT.sol\":2200:2223  s_stakeReview[_tokenID] */\n      dup2\n      mstore\n      0x20\n      add\n      swap1\n      dup2\n      mstore\n      0x20\n      add\n      0x00\n      keccak256\n        /* \"contracts/StakingNFT.sol\":2200:2239  s_stakeReview[_tokenID].claimedTrophies */\n      0x01\n      add\n      sload\n        /* \"contracts/StakingNFT.sol\":2182:2197  currentTrophies */\n      dup3\n        /* \"contracts/StakingNFT.sol\":2182:2239  currentTrophies - s_stakeReview[_tokenID].claimedTrophies */\n      tag_121\n      swap2\n      swap1\n      tag_80\n      jump\t// in\n    tag_121:\n        /* \"contracts/StakingNFT.sol\":2140:2153  s_stakeReview */\n      0x05\n        /* \"contracts/StakingNFT.sol\":2140:2163  s_stakeReview[_tokenID] */\n      0x00\n        /* \"contracts/StakingNFT.sol\":2154:2162  _tokenID */\n      dup6\n        /* \"contracts/StakingNFT.sol\":2140:2163  s_stakeReview[_tokenID] */\n      dup2\n      mstore\n      0x20\n      add\n      swap1\n      dup2\n      mstore\n      0x20\n      add\n      0x00\n      keccak256\n        /* \"contracts/StakingNFT.sol\":2140:2177  s_stakeReview[_tokenID].lastClaimTime */\n      0x02\n      add\n      sload\n        /* \"contracts/StakingNFT.sol\":2122:2137  block.timestamp */\n      timestamp\n        /* \"contracts/StakingNFT.sol\":2122:2177  block.timestamp - s_stakeReview[_tokenID].lastClaimTime */\n      tag_122\n      swap2\n      swap1\n      tag_80\n      jump\t// in\n    tag_122:\n        /* \"contracts/StakingNFT.sol\":2121:2240  (block.timestamp - s_stakeReview[_tokenID].lastClaimTime) + (currentTrophies - s_stakeReview[_tokenID].claimedTrophies) */\n      tag_123\n      swap2\n      swap1\n      tag_83\n      jump\t// in\n    tag_123:\n        /* \"contracts/StakingNFT.sol\":2103:2242  uint256 amount = ((block.timestamp - s_stakeReview[_tokenID].lastClaimTime) + (currentTrophies - s_stakeReview[_tokenID].claimedTrophies) ) */\n      swap1\n      pop\n        /* \"contracts/StakingNFT.sol\":2257:2268  parentToken */\n      0x01\n      0x00\n      swap1\n      sload\n      swap1\n      0x0100\n      exp\n      swap1\n      div\n      0xffffffffffffffffffffffffffffffffffffffff\n      and\n        /* \"contracts/StakingNFT.sol\":2257:2277  parentToken.transfer */\n      0xffffffffffffffffffffffffffffffffffffffff\n      and\n      0xa9059cbb\n        /* \"contracts/StakingNFT.sol\":2278:2288  msg.sender */\n      caller\n        /* \"contracts/StakingNFT.sol\":2290:2296  amount */\n      dup4\n        /* \"contracts/StakingNFT.sol\":2257:2297  parentToken.transfer(msg.sender, amount) */\n      mload(0x40)\n      dup4\n      0xffffffff\n      and\n      0xe0\n      shl\n      dup2\n      mstore\n      0x04\n      add\n      tag_124\n      swap3\n      swap2\n      swap1\n      tag_90\n      jump\t// in\n    tag_124:\n      0x20\n      mload(0x40)\n      dup1\n      dup4\n      sub\n      dup2\n      0x00\n      dup8\n      dup1\n      extcodesize\n      iszero\n      dup1\n      iszero\n      tag_125\n      jumpi\n      0x00\n      dup1\n      revert\n    tag_125:\n      pop\n      gas\n      call\n      iszero\n      dup1\n      iszero\n      tag_127\n      jumpi\n      returndatasize\n      0x00\n      dup1\n      returndatacopy\n      revert(0x00, returndatasize)\n    tag_127:\n      pop\n      pop\n      pop\n      pop\n      mload(0x40)\n      returndatasize\n      not(0x1f)\n      0x1f\n      dup3\n      add\n      and\n      dup3\n      add\n      dup1\n      0x40\n      mstore\n      pop\n      dup2\n      add\n      swap1\n      tag_128\n      swap2\n      swap1\n      tag_95\n      jump\t// in\n    tag_128:\n        /* \"contracts/StakingNFT.sol\":2253:2526  if (parentToken.transfer(msg.sender, amount)){\r... */\n      iszero\n      tag_129\n      jumpi\n        /* \"contracts/StakingNFT.sol\":2353:2368  block.timestamp */\n      timestamp\n        /* \"contracts/StakingNFT.sol\":2313:2326  s_stakeReview */\n      0x05\n        /* \"contracts/StakingNFT.sol\":2313:2336  s_stakeReview[_tokenID] */\n      0x00\n        /* \"contracts/StakingNFT.sol\":2327:2335  _tokenID */\n      dup6\n        /* \"contracts/StakingNFT.sol\":2313:2336  s_stakeReview[_tokenID] */\n      dup2\n      mstore\n      0x20\n      add\n      swap1\n      dup2\n      mstore\n      0x20\n      add\n      0x00\n      keccak256\n        /* \"contracts/StakingNFT.sol\":2313:2350  s_stakeReview[_tokenID].lastClaimTime */\n      0x02\n      add\n        /* \"contracts/StakingNFT.sol\":2313:2368  s_stakeReview[_tokenID].lastClaimTime = block.timestamp */\n      dup2\n      swap1\n      sstore\n      pop\n        /* \"contracts/StakingNFT.sol\":2445:2458  s_stakeReview */\n      0x05\n        /* \"contracts/StakingNFT.sol\":2445:2468  s_stakeReview[_tokenID] */\n      0x00\n        /* \"contracts/StakingNFT.sol\":2459:2467  _tokenID */\n      dup5\n        /* \"contracts/StakingNFT.sol\":2445:2468  s_stakeReview[_tokenID] */\n      dup2\n      mstore\n      0x20\n      add\n      swap1\n      dup2\n      mstore\n      0x20\n      add\n      0x00\n      keccak256\n        /* \"contracts/StakingNFT.sol\":2445:2484  s_stakeReview[_tokenID].claimedTrophies */\n      0x01\n      add\n      sload\n        /* \"contracts/StakingNFT.sol\":2427:2442  currentTrophies */\n      dup3\n        /* \"contracts/StakingNFT.sol\":2427:2484  currentTrophies - s_stakeReview[_tokenID].claimedTrophies */\n      tag_130\n      swap2\n      swap1\n      tag_80\n      jump\t// in\n    tag_130:\n        /* \"contracts/StakingNFT.sol\":2383:2396  s_stakeReview */\n      0x05\n        /* \"contracts/StakingNFT.sol\":2383:2406  s_stakeReview[_tokenID] */\n      0x00\n        /* \"contracts/StakingNFT.sol\":2397:2405  _tokenID */\n      dup6\n        /* \"contracts/StakingNFT.sol\":2383:2406  s_stakeReview[_tokenID] */\n      dup2\n      mstore\n      0x20\n      add\n      swap1\n      dup2\n      mstore\n      0x20\n      add\n      0x00\n      keccak256\n        /* \"contracts/StakingNFT.sol\":2383:2422  s_stakeReview[_tokenID].claimedTrophies */\n      0x01\n      add\n      0x00\n        /* \"contracts/StakingNFT.sol\":2383:2485  s_stakeReview[_tokenID].claimedTrophies += (currentTrophies - s_stakeReview[_tokenID].claimedTrophies) */\n      dup3\n      dup3\n      sload\n      tag_131\n      swap2\n      swap1\n      tag_83\n      jump\t// in\n    tag_131:\n      swap3\n      pop\n      pop\n      dup2\n      swap1\n      sstore\n      pop\n        /* \"contracts/StakingNFT.sol\":2253:2526  if (parentToken.transfer(msg.sender, amount)){\r... */\n      jump(tag_132)\n    tag_129:\n        /* \"contracts/StakingNFT.sol\":2503:2526  revert(\"Transfer fail\") */\n      mload(0x40)\n      0x08c379a000000000000000000000000000000000000000000000000000000000\n      dup2\n      mstore\n      0x04\n      add\n      tag_133\n      swap1\n      tag_134\n      jump\t// in\n    tag_133:\n      mload(0x40)\n      dup1\n      swap2\n      sub\n      swap1\n      revert\n        /* \"contracts/StakingNFT.sol\":2253:2526  if (parentToken.transfer(msg.sender, amount)){\r... */\n    tag_132:\n        /* \"contracts/StakingNFT.sol\":1791:2534  {\r... */\n      pop\n      pop\n        /* \"@openzeppelin/contracts/security/ReentrancyGuard.sol\":1701:1702  1 */\n      0x01\n        /* \"@openzeppelin/contracts/security/ReentrancyGuard.sol\":2628:2635  _status */\n      0x00\n        /* \"@openzeppelin/contracts/security/ReentrancyGuard.sol\":2628:2650  _status = _NOT_ENTERED */\n      dup2\n      swap1\n      sstore\n      pop\n        /* \"contracts/StakingNFT.sol\":1738:2534  function claim(uint256 _tokenID) public nonReentrant {\r... */\n      pop\n      jump\t// out\n        /* \"contracts/StakingNFT.sol\":1243:1380  function claimedTrophies(uint256 _tokenID) public view returns (uint256){\r... */\n    tag_26:\n        /* \"contracts/StakingNFT.sol\":1307:1314  uint256 */\n      0x00\n        /* \"contracts/StakingNFT.sol\":1333:1346  s_stakeReview */\n      0x05\n        /* \"contracts/StakingNFT.sol\":1333:1356  s_stakeReview[_tokenID] */\n      0x00\n        /* \"contracts/StakingNFT.sol\":1347:1355  _tokenID */\n      dup4\n        /* \"contracts/StakingNFT.sol\":1333:1356  s_stakeReview[_tokenID] */\n      dup2\n      mstore\n      0x20\n      add\n      swap1\n      dup2\n      mstore\n      0x20\n      add\n      0x00\n      keccak256\n        /* \"contracts/StakingNFT.sol\":1333:1372  s_stakeReview[_tokenID].claimedTrophies */\n      0x01\n      add\n      sload\n        /* \"contracts/StakingNFT.sol\":1326:1372  return s_stakeReview[_tokenID].claimedTrophies */\n      swap1\n      pop\n        /* \"contracts/StakingNFT.sol\":1243:1380  function claimedTrophies(uint256 _tokenID) public view returns (uint256){\r... */\n      swap2\n      swap1\n      pop\n      jump\t// out\n        /* \"contracts/StakingNFT.sol\":488:519  address public parentNFTAddress */\n    tag_30:\n      0x04\n      0x00\n      swap1\n      sload\n      swap1\n      0x0100\n      exp\n      swap1\n      div\n      0xffffffffffffffffffffffffffffffffffffffff\n      and\n      dup2\n      jump\t// out\n        /* \"contracts/StakingNFT.sol\":3415:3701  function onERC721Received(\r... */\n    tag_36:\n        /* \"contracts/StakingNFT.sol\":3591:3597  bytes4 */\n      0x00\n        /* \"contracts/StakingNFT.sol\":3624:3692  keccak256(\"onERC721Received(address,address,uint256,uint256,bytes)\") */\n      0x7636e24523a394e051c4f3b1d9065be73f6b416813ba53a99b779354a5822c58\n        /* \"contracts/StakingNFT.sol\":3610:3693  return bytes4(keccak256(\"onERC721Received(address,address,uint256,uint256,bytes)\")) */\n      swap1\n      pop\n        /* \"contracts/StakingNFT.sol\":3415:3701  function onERC721Received(\r... */\n      swap7\n      swap6\n      pop\n      pop\n      pop\n      pop\n      pop\n      pop\n      jump\t// out\n        /* \"contracts/StakingNFT.sol\":384:409  IERC20 public parentToken */\n    tag_40:\n      0x01\n      0x00\n      swap1\n      sload\n      swap1\n      0x0100\n      exp\n      swap1\n      div\n      0xffffffffffffffffffffffffffffffffffffffff\n      and\n      dup2\n      jump\t// out\n        /* \"contracts/StakingNFT.sol\":1386:1726  function stake(uint256 _tokenID) public nonReentrant() {\r... */\n    tag_45:\n        /* \"@openzeppelin/contracts/security/ReentrancyGuard.sol\":1744:1745  2 */\n      0x02\n        /* \"@openzeppelin/contracts/security/ReentrancyGuard.sol\":2325:2332  _status */\n      sload(0x00)\n        /* \"@openzeppelin/contracts/security/ReentrancyGuard.sol\":2325:2344  _status != _ENTERED */\n      eq\n      iszero\n        /* \"@openzeppelin/contracts/security/ReentrancyGuard.sol\":2317:2380  require(_status != _ENTERED, \"ReentrancyGuard: reentrant call\") */\n      tag_138\n      jumpi\n      mload(0x40)\n      0x08c379a000000000000000000000000000000000000000000000000000000000\n      dup2\n      mstore\n      0x04\n      add\n      tag_139\n      swap1\n      tag_107\n      jump\t// in\n    tag_139:\n      mload(0x40)\n      dup1\n      swap2\n      sub\n      swap1\n      revert\n    tag_138:\n        /* \"@openzeppelin/contracts/security/ReentrancyGuard.sol\":1744:1745  2 */\n      0x02\n        /* \"@openzeppelin/contracts/security/ReentrancyGuard.sol\":2455:2462  _status */\n      0x00\n        /* \"@openzeppelin/contracts/security/ReentrancyGuard.sol\":2455:2473  _status = _ENTERED */\n      dup2\n      swap1\n      sstore\n      pop\n        /* \"contracts/StakingNFT.sol\":1491:1501  msg.sender */\n      caller\n        /* \"contracts/StakingNFT.sol\":1460:1501  parentNFT.ownerOf(_tokenID) == msg.sender */\n      0xffffffffffffffffffffffffffffffffffffffff\n      and\n        /* \"contracts/StakingNFT.sol\":1460:1469  parentNFT */\n      0x02\n      0x00\n      swap1\n      sload\n      swap1\n      0x0100\n      exp\n      swap1\n      div\n      0xffffffffffffffffffffffffffffffffffffffff\n      and\n        /* \"contracts/StakingNFT.sol\":1460:1477  parentNFT.ownerOf */\n      0xffffffffffffffffffffffffffffffffffffffff\n      and\n      0x6352211e\n        /* \"contracts/StakingNFT.sol\":1478:1486  _tokenID */\n      dup4\n        /* \"contracts/StakingNFT.sol\":1460:1487  parentNFT.ownerOf(_tokenID) */\n      mload(0x40)\n      dup3\n      0xffffffff\n      and\n      0xe0\n      shl\n      dup2\n      mstore\n      0x04\n      add\n      tag_141\n      swap2\n      swap1\n      tag_28\n      jump\t// in\n    tag_141:\n      0x20\n      mload(0x40)\n      dup1\n      dup4\n      sub\n      dup2\n      dup7\n      dup1\n      extcodesize\n      iszero\n      dup1\n      iszero\n      tag_142\n      jumpi\n      0x00\n      dup1\n      revert\n    tag_142:\n      pop\n      gas\n      staticcall\n      iszero\n      dup1\n      iszero\n      tag_144\n      jumpi\n      returndatasize\n      0x00\n      dup1\n      returndatacopy\n      revert(0x00, returndatasize)\n    tag_144:\n      pop\n      pop\n      pop\n      pop\n      mload(0x40)\n      returndatasize\n      not(0x1f)\n      0x1f\n      dup3\n      add\n      and\n      dup3\n      add\n      dup1\n      0x40\n      mstore\n      pop\n      dup2\n      add\n      swap1\n      tag_145\n      swap2\n      swap1\n      tag_67\n      jump\t// in\n    tag_145:\n        /* \"contracts/StakingNFT.sol\":1460:1501  parentNFT.ownerOf(_tokenID) == msg.sender */\n      0xffffffffffffffffffffffffffffffffffffffff\n      and\n      eq\n        /* \"contracts/StakingNFT.sol\":1452:1515  require(parentNFT.ownerOf(_tokenID) == msg.sender, \"Not owner\") */\n      tag_146\n      jumpi\n      mload(0x40)\n      0x08c379a000000000000000000000000000000000000000000000000000000000\n      dup2\n      mstore\n      0x04\n      add\n      tag_147\n      swap1\n      tag_148\n      jump\t// in\n    tag_147:\n      mload(0x40)\n      dup1\n      swap2\n      sub\n      swap1\n      revert\n    tag_146:\n        /* \"contracts/StakingNFT.sol\":1536:1545  parentNFT */\n      0x02\n      0x00\n      swap1\n      sload\n      swap1\n      0x0100\n      exp\n      swap1\n      div\n      0xffffffffffffffffffffffffffffffffffffffff\n      and\n        /* \"contracts/StakingNFT.sol\":1536:1558  parentNFT.transferFrom */\n      0xffffffffffffffffffffffffffffffffffffffff\n      and\n      0x23b872dd\n        /* \"contracts/StakingNFT.sol\":1559:1569  msg.sender */\n      caller\n        /* \"contracts/StakingNFT.sol\":1579:1583  this */\n      address\n        /* \"contracts/StakingNFT.sol\":1586:1594  _tokenID */\n      dup5\n        /* \"contracts/StakingNFT.sol\":1536:1595  parentNFT.transferFrom(msg.sender, address(this), _tokenID) */\n      mload(0x40)\n      dup5\n      0xffffffff\n      and\n      0xe0\n      shl\n      dup2\n      mstore\n      0x04\n      add\n      tag_149\n      swap4\n      swap3\n      swap2\n      swap1\n      tag_100\n      jump\t// in\n    tag_149:\n      0x00\n      mload(0x40)\n      dup1\n      dup4\n      sub\n      dup2\n      0x00\n      dup8\n      dup1\n      extcodesize\n      iszero\n      dup1\n      iszero\n      tag_150\n      jumpi\n      0x00\n      dup1\n      revert\n    tag_150:\n      pop\n      gas\n      call\n      iszero\n      dup1\n      iszero\n      tag_152\n      jumpi\n      returndatasize\n      0x00\n      dup1\n      returndatacopy\n      revert(0x00, returndatasize)\n    tag_152:\n      pop\n      pop\n      pop\n      pop\n        /* \"contracts/StakingNFT.sol\":1642:1652  msg.sender */\n      caller\n        /* \"contracts/StakingNFT.sol\":1606:1619  s_stakeReview */\n      0x05\n        /* \"contracts/StakingNFT.sol\":1606:1629  s_stakeReview[_tokenID] */\n      0x00\n        /* \"contracts/StakingNFT.sol\":1620:1628  _tokenID */\n      dup4\n        /* \"contracts/StakingNFT.sol\":1606:1629  s_stakeReview[_tokenID] */\n      dup2\n      mstore\n      0x20\n      add\n      swap1\n      dup2\n      mstore\n      0x20\n      add\n      0x00\n      keccak256\n        /* \"contracts/StakingNFT.sol\":1606:1639  s_stakeReview[_tokenID].realOwner */\n      0x00\n      add\n      0x00\n        /* \"contracts/StakingNFT.sol\":1606:1652  s_stakeReview[_tokenID].realOwner = msg.sender */\n      0x0100\n      exp\n      dup2\n      sload\n      dup2\n      0xffffffffffffffffffffffffffffffffffffffff\n      mul\n      not\n      and\n      swap1\n      dup4\n      0xffffffffffffffffffffffffffffffffffffffff\n      and\n      mul\n      or\n      swap1\n      sstore\n      pop\n        /* \"contracts/StakingNFT.sol\":1703:1718  block.timestamp */\n      timestamp\n        /* \"contracts/StakingNFT.sol\":1663:1676  s_stakeReview */\n      0x05\n        /* \"contracts/StakingNFT.sol\":1663:1686  s_stakeReview[_tokenID] */\n      0x00\n        /* \"contracts/StakingNFT.sol\":1677:1685  _tokenID */\n      dup4\n        /* \"contracts/StakingNFT.sol\":1663:1686  s_stakeReview[_tokenID] */\n      dup2\n      mstore\n      0x20\n      add\n      swap1\n      dup2\n      mstore\n      0x20\n      add\n      0x00\n      keccak256\n        /* \"contracts/StakingNFT.sol\":1663:1700  s_stakeReview[_tokenID].lastClaimTime */\n      0x02\n      add\n        /* \"contracts/StakingNFT.sol\":1663:1718  s_stakeReview[_tokenID].lastClaimTime = block.timestamp */\n      dup2\n      swap1\n      sstore\n      pop\n        /* \"@openzeppelin/contracts/security/ReentrancyGuard.sol\":1701:1702  1 */\n      0x01\n        /* \"@openzeppelin/contracts/security/ReentrancyGuard.sol\":2628:2635  _status */\n      0x00\n        /* \"@openzeppelin/contracts/security/ReentrancyGuard.sol\":2628:2650  _status = _NOT_ENTERED */\n      dup2\n      swap1\n      sstore\n      pop\n        /* \"contracts/StakingNFT.sol\":1386:1726  function stake(uint256 _tokenID) public nonReentrant() {\r... */\n      pop\n      jump\t// out\n        /* \"contracts/StakingNFT.sol\":416:440  IERC721 public parentNFT */\n    tag_47:\n      0x02\n      0x00\n      swap1\n      sload\n      swap1\n      0x0100\n      exp\n      swap1\n      div\n      0xffffffffffffffffffffffffffffffffffffffff\n      and\n      dup2\n      jump\t// out\n        /* \"contracts/StakingNFT.sol\":447:481  INFTGame public parentNftFunctions */\n    tag_51:\n      0x03\n      0x00\n      swap1\n      sload\n      swap1\n      0x0100\n      exp\n      swap1\n      div\n      0xffffffffffffffffffffffffffffffffffffffff\n      and\n      dup2\n      jump\t// out\n        /* \"#utility.yul\":7:146   */\n    tag_154:\n        /* \"#utility.yul\":53:58   */\n      0x00\n        /* \"#utility.yul\":91:97   */\n      dup2\n        /* \"#utility.yul\":78:98   */\n      calldataload\n        /* \"#utility.yul\":69:98   */\n      swap1\n      pop\n        /* \"#utility.yul\":107:140   */\n      tag_156\n        /* \"#utility.yul\":134:139   */\n      dup2\n        /* \"#utility.yul\":107:140   */\n      tag_157\n      jump\t// in\n    tag_156:\n        /* \"#utility.yul\":7:146   */\n      swap3\n      swap2\n      pop\n      pop\n      jump\t// out\n        /* \"#utility.yul\":152:295   */\n    tag_158:\n        /* \"#utility.yul\":209:214   */\n      0x00\n        /* \"#utility.yul\":240:246   */\n      dup2\n        /* \"#utility.yul\":234:247   */\n      mload\n        /* \"#utility.yul\":225:247   */\n      swap1\n      pop\n        /* \"#utility.yul\":256:289   */\n      tag_160\n        /* \"#utility.yul\":283:288   */\n      dup2\n        /* \"#utility.yul\":256:289   */\n      tag_157\n      jump\t// in\n    tag_160:\n        /* \"#utility.yul\":152:295   */\n      swap3\n      swap2\n      pop\n      pop\n      jump\t// out\n        /* \"#utility.yul\":301:438   */\n    tag_161:\n        /* \"#utility.yul\":355:360   */\n      0x00\n        /* \"#utility.yul\":386:392   */\n      dup2\n        /* \"#utility.yul\":380:393   */\n      mload\n        /* \"#utility.yul\":371:393   */\n      swap1\n      pop\n        /* \"#utility.yul\":402:432   */\n      tag_163\n        /* \"#utility.yul\":426:431   */\n      dup2\n        /* \"#utility.yul\":402:432   */\n      tag_164\n      jump\t// in\n    tag_163:\n        /* \"#utility.yul\":301:438   */\n      swap3\n      swap2\n      pop\n      pop\n      jump\t// out\n        /* \"#utility.yul\":457:1009   */\n    tag_165:\n        /* \"#utility.yul\":514:522   */\n      0x00\n        /* \"#utility.yul\":524:530   */\n      dup1\n        /* \"#utility.yul\":574:577   */\n      dup4\n        /* \"#utility.yul\":567:571   */\n      0x1f\n        /* \"#utility.yul\":559:565   */\n      dup5\n        /* \"#utility.yul\":555:572   */\n      add\n        /* \"#utility.yul\":551:578   */\n      slt\n        /* \"#utility.yul\":541:663   */\n      tag_167\n      jumpi\n        /* \"#utility.yul\":582:661   */\n      tag_168\n      tag_169\n      jump\t// in\n    tag_168:\n        /* \"#utility.yul\":541:663   */\n    tag_167:\n        /* \"#utility.yul\":695:701   */\n      dup3\n        /* \"#utility.yul\":682:702   */\n      calldataload\n        /* \"#utility.yul\":672:702   */\n      swap1\n      pop\n        /* \"#utility.yul\":725:743   */\n      0xffffffffffffffff\n        /* \"#utility.yul\":717:723   */\n      dup2\n        /* \"#utility.yul\":714:744   */\n      gt\n        /* \"#utility.yul\":711:828   */\n      iszero\n      tag_170\n      jumpi\n        /* \"#utility.yul\":747:826   */\n      tag_171\n      tag_172\n      jump\t// in\n    tag_171:\n        /* \"#utility.yul\":711:828   */\n    tag_170:\n        /* \"#utility.yul\":861:865   */\n      0x20\n        /* \"#utility.yul\":853:859   */\n      dup4\n        /* \"#utility.yul\":849:866   */\n      add\n        /* \"#utility.yul\":837:866   */\n      swap2\n      pop\n        /* \"#utility.yul\":915:918   */\n      dup4\n        /* \"#utility.yul\":907:911   */\n      0x01\n        /* \"#utility.yul\":899:905   */\n      dup3\n        /* \"#utility.yul\":895:912   */\n      mul\n        /* \"#utility.yul\":885:893   */\n      dup4\n        /* \"#utility.yul\":881:913   */\n      add\n        /* \"#utility.yul\":878:919   */\n      gt\n        /* \"#utility.yul\":875:1003   */\n      iszero\n      tag_173\n      jumpi\n        /* \"#utility.yul\":922:1001   */\n      tag_174\n      tag_175\n      jump\t// in\n    tag_174:\n        /* \"#utility.yul\":875:1003   */\n    tag_173:\n        /* \"#utility.yul\":457:1009   */\n      swap3\n      pop\n      swap3\n      swap1\n      pop\n      jump\t// out\n        /* \"#utility.yul\":1015:1154   */\n    tag_176:\n        /* \"#utility.yul\":1061:1066   */\n      0x00\n        /* \"#utility.yul\":1099:1105   */\n      dup2\n        /* \"#utility.yul\":1086:1106   */\n      calldataload\n        /* \"#utility.yul\":1077:1106   */\n      swap1\n      pop\n        /* \"#utility.yul\":1115:1148   */\n      tag_178\n        /* \"#utility.yul\":1142:1147   */\n      dup2\n        /* \"#utility.yul\":1115:1148   */\n      tag_179\n      jump\t// in\n    tag_178:\n        /* \"#utility.yul\":1015:1154   */\n      swap3\n      swap2\n      pop\n      pop\n      jump\t// out\n        /* \"#utility.yul\":1160:1303   */\n    tag_180:\n        /* \"#utility.yul\":1217:1222   */\n      0x00\n        /* \"#utility.yul\":1248:1254   */\n      dup2\n        /* \"#utility.yul\":1242:1255   */\n      mload\n        /* \"#utility.yul\":1233:1255   */\n      swap1\n      pop\n        /* \"#utility.yul\":1264:1297   */\n      tag_182\n        /* \"#utility.yul\":1291:1296   */\n      dup2\n        /* \"#utility.yul\":1264:1297   */\n      tag_179\n      jump\t// in\n    tag_182:\n        /* \"#utility.yul\":1160:1303   */\n      swap3\n      swap2\n      pop\n      pop\n      jump\t// out\n        /* \"#utility.yul\":1309:1660   */\n    tag_67:\n        /* \"#utility.yul\":1379:1385   */\n      0x00\n        /* \"#utility.yul\":1428:1430   */\n      0x20\n        /* \"#utility.yul\":1416:1425   */\n      dup3\n        /* \"#utility.yul\":1407:1414   */\n      dup5\n        /* \"#utility.yul\":1403:1426   */\n      sub\n        /* \"#utility.yul\":1399:1431   */\n      slt\n        /* \"#utility.yul\":1396:1515   */\n      iszero\n      tag_184\n      jumpi\n        /* \"#utility.yul\":1434:1513   */\n      tag_185\n      tag_186\n      jump\t// in\n    tag_185:\n        /* \"#utility.yul\":1396:1515   */\n    tag_184:\n        /* \"#utility.yul\":1554:1555   */\n      0x00\n        /* \"#utility.yul\":1579:1643   */\n      tag_187\n        /* \"#utility.yul\":1635:1642   */\n      dup5\n        /* \"#utility.yul\":1626:1632   */\n      dup3\n        /* \"#utility.yul\":1615:1624   */\n      dup6\n        /* \"#utility.yul\":1611:1633   */\n      add\n        /* \"#utility.yul\":1579:1643   */\n      tag_158\n      jump\t// in\n    tag_187:\n        /* \"#utility.yul\":1569:1643   */\n      swap2\n      pop\n        /* \"#utility.yul\":1525:1653   */\n      pop\n        /* \"#utility.yul\":1309:1660   */\n      swap3\n      swap2\n      pop\n      pop\n      jump\t// out\n        /* \"#utility.yul\":1666:2775   */\n    tag_35:\n        /* \"#utility.yul\":1772:1778   */\n      0x00\n        /* \"#utility.yul\":1780:1786   */\n      dup1\n        /* \"#utility.yul\":1788:1794   */\n      0x00\n        /* \"#utility.yul\":1796:1802   */\n      dup1\n        /* \"#utility.yul\":1804:1810   */\n      0x00\n        /* \"#utility.yul\":1812:1818   */\n      dup1\n        /* \"#utility.yul\":1861:1864   */\n      0xa0\n        /* \"#utility.yul\":1849:1858   */\n      dup8\n        /* \"#utility.yul\":1840:1847   */\n      dup10\n        /* \"#utility.yul\":1836:1859   */\n      sub\n        /* \"#utility.yul\":1832:1865   */\n      slt\n        /* \"#utility.yul\":1829:1949   */\n      iszero\n      tag_189\n      jumpi\n        /* \"#utility.yul\":1868:1947   */\n      tag_190\n      tag_186\n      jump\t// in\n    tag_190:\n        /* \"#utility.yul\":1829:1949   */\n    tag_189:\n        /* \"#utility.yul\":1988:1989   */\n      0x00\n        /* \"#utility.yul\":2013:2066   */\n      tag_191\n        /* \"#utility.yul\":2058:2065   */\n      dup10\n        /* \"#utility.yul\":2049:2055   */\n      dup3\n        /* \"#utility.yul\":2038:2047   */\n      dup11\n        /* \"#utility.yul\":2034:2056   */\n      add\n        /* \"#utility.yul\":2013:2066   */\n      tag_154\n      jump\t// in\n    tag_191:\n        /* \"#utility.yul\":2003:2066   */\n      swap7\n      pop\n        /* \"#utility.yul\":1959:2076   */\n      pop\n        /* \"#utility.yul\":2115:2117   */\n      0x20\n        /* \"#utility.yul\":2141:2194   */\n      tag_192\n        /* \"#utility.yul\":2186:2193   */\n      dup10\n        /* \"#utility.yul\":2177:2183   */\n      dup3\n        /* \"#utility.yul\":2166:2175   */\n      dup11\n        /* \"#utility.yul\":2162:2184   */\n      add\n        /* \"#utility.yul\":2141:2194   */\n      tag_154\n      jump\t// in\n    tag_192:\n        /* \"#utility.yul\":2131:2194   */\n      swap6\n      pop\n        /* \"#utility.yul\":2086:2204   */\n      pop\n        /* \"#utility.yul\":2243:2245   */\n      0x40\n        /* \"#utility.yul\":2269:2322   */\n      tag_193\n        /* \"#utility.yul\":2314:2321   */\n      dup10\n        /* \"#utility.yul\":2305:2311   */\n      dup3\n        /* \"#utility.yul\":2294:2303   */\n      dup11\n        /* \"#utility.yul\":2290:2312   */\n      add\n        /* \"#utility.yul\":2269:2322   */\n      tag_176\n      jump\t// in\n    tag_193:\n        /* \"#utility.yul\":2259:2322   */\n      swap5\n      pop\n        /* \"#utility.yul\":2214:2332   */\n      pop\n        /* \"#utility.yul\":2371:2373   */\n      0x60\n        /* \"#utility.yul\":2397:2450   */\n      tag_194\n        /* \"#utility.yul\":2442:2449   */\n      dup10\n        /* \"#utility.yul\":2433:2439   */\n      dup3\n        /* \"#utility.yul\":2422:2431   */\n      dup11\n        /* \"#utility.yul\":2418:2440   */\n      add\n        /* \"#utility.yul\":2397:2450   */\n      tag_176\n      jump\t// in\n    tag_194:\n        /* \"#utility.yul\":2387:2450   */\n      swap4\n      pop\n        /* \"#utility.yul\":2342:2460   */\n      pop\n        /* \"#utility.yul\":2527:2530   */\n      0x80\n        /* \"#utility.yul\":2516:2525   */\n      dup8\n        /* \"#utility.yul\":2512:2531   */\n      add\n        /* \"#utility.yul\":2499:2532   */\n      calldataload\n        /* \"#utility.yul\":2559:2577   */\n      0xffffffffffffffff\n        /* \"#utility.yul\":2551:2557   */\n      dup2\n        /* \"#utility.yul\":2548:2578   */\n      gt\n        /* \"#utility.yul\":2545:2662   */\n      iszero\n      tag_195\n      jumpi\n        /* \"#utility.yul\":2581:2660   */\n      tag_196\n      tag_197\n      jump\t// in\n    tag_196:\n        /* \"#utility.yul\":2545:2662   */\n    tag_195:\n        /* \"#utility.yul\":2694:2758   */\n      tag_198\n        /* \"#utility.yul\":2750:2757   */\n      dup10\n        /* \"#utility.yul\":2741:2747   */\n      dup3\n        /* \"#utility.yul\":2730:2739   */\n      dup11\n        /* \"#utility.yul\":2726:2748   */\n      add\n        /* \"#utility.yul\":2694:2758   */\n      tag_165\n      jump\t// in\n    tag_198:\n        /* \"#utility.yul\":2676:2758   */\n      swap3\n      pop\n      swap3\n      pop\n        /* \"#utility.yul\":2470:2768   */\n      pop\n        /* \"#utility.yul\":1666:2775   */\n      swap3\n      swap6\n      pop\n      swap3\n      swap6\n      pop\n      swap3\n      swap6\n      jump\t// out\n        /* \"#utility.yul\":2781:3126   */\n    tag_95:\n        /* \"#utility.yul\":2848:2854   */\n      0x00\n        /* \"#utility.yul\":2897:2899   */\n      0x20\n        /* \"#utility.yul\":2885:2894   */\n      dup3\n        /* \"#utility.yul\":2876:2883   */\n      dup5\n        /* \"#utility.yul\":2872:2895   */\n      sub\n        /* \"#utility.yul\":2868:2900   */\n      slt\n        /* \"#utility.yul\":2865:2984   */\n      iszero\n      tag_200\n      jumpi\n        /* \"#utility.yul\":2903:2982   */\n      tag_201\n      tag_186\n      jump\t// in\n    tag_201:\n        /* \"#utility.yul\":2865:2984   */\n    tag_200:\n        /* \"#utility.yul\":3023:3024   */\n      0x00\n        /* \"#utility.yul\":3048:3109   */\n      tag_202\n        /* \"#utility.yul\":3101:3108   */\n      dup5\n        /* \"#utility.yul\":3092:3098   */\n      dup3\n        /* \"#utility.yul\":3081:3090   */\n      dup6\n        /* \"#utility.yul\":3077:3099   */\n      add\n        /* \"#utility.yul\":3048:3109   */\n      tag_161\n      jump\t// in\n    tag_202:\n        /* \"#utility.yul\":3038:3109   */\n      swap2\n      pop\n        /* \"#utility.yul\":2994:3119   */\n      pop\n        /* \"#utility.yul\":2781:3126   */\n      swap3\n      swap2\n      pop\n      pop\n      jump\t// out\n        /* \"#utility.yul\":3132:3461   */\n    tag_16:\n        /* \"#utility.yul\":3191:3197   */\n      0x00\n        /* \"#utility.yul\":3240:3242   */\n      0x20\n        /* \"#utility.yul\":3228:3237   */\n      dup3\n        /* \"#utility.yul\":3219:3226   */\n      dup5\n        /* \"#utility.yul\":3215:3238   */\n      sub\n        /* \"#utility.yul\":3211:3243   */\n      slt\n        /* \"#utility.yul\":3208:3327   */\n      iszero\n      tag_204\n      jumpi\n        /* \"#utility.yul\":3246:3325   */\n      tag_205\n      tag_186\n      jump\t// in\n    tag_205:\n        /* \"#utility.yul\":3208:3327   */\n    tag_204:\n        /* \"#utility.yul\":3366:3367   */\n      0x00\n        /* \"#utility.yul\":3391:3444   */\n      tag_206\n        /* \"#utility.yul\":3436:3443   */\n      dup5\n        /* \"#utility.yul\":3427:3433   */\n      dup3\n        /* \"#utility.yul\":3416:3425   */\n      dup6\n        /* \"#utility.yul\":3412:3434   */\n      add\n        /* \"#utility.yul\":3391:3444   */\n      tag_176\n      jump\t// in\n    tag_206:\n        /* \"#utility.yul\":3381:3444   */\n      swap2\n      pop\n        /* \"#utility.yul\":3337:3454   */\n      pop\n        /* \"#utility.yul\":3132:3461   */\n      swap3\n      swap2\n      pop\n      pop\n      jump\t// out\n        /* \"#utility.yul\":3467:3818   */\n    tag_60:\n        /* \"#utility.yul\":3537:3543   */\n      0x00\n        /* \"#utility.yul\":3586:3588   */\n      0x20\n        /* \"#utility.yul\":3574:3583   */\n      dup3\n        /* \"#utility.yul\":3565:3572   */\n      dup5\n        /* \"#utility.yul\":3561:3584   */\n      sub\n        /* \"#utility.yul\":3557:3589   */\n      slt\n        /* \"#utility.yul\":3554:3673   */\n      iszero\n      tag_208\n      jumpi\n        /* \"#utility.yul\":3592:3671   */\n      tag_209\n      tag_186\n      jump\t// in\n    tag_209:\n        /* \"#utility.yul\":3554:3673   */\n    tag_208:\n        /* \"#utility.yul\":3712:3713   */\n      0x00\n        /* \"#utility.yul\":3737:3801   */\n      tag_210\n        /* \"#utility.yul\":3793:3800   */\n      dup5\n        /* \"#utility.yul\":3784:3790   */\n      dup3\n        /* \"#utility.yul\":3773:3782   */\n      dup6\n        /* \"#utility.yul\":3769:3791   */\n      add\n        /* \"#utility.yul\":3737:3801   */\n      tag_180\n      jump\t// in\n    tag_210:\n        /* \"#utility.yul\":3727:3801   */\n      swap2\n      pop\n        /* \"#utility.yul\":3683:3811   */\n      pop\n        /* \"#utility.yul\":3467:3818   */\n      swap3\n      swap2\n      pop\n      pop\n      jump\t// out\n        /* \"#utility.yul\":3824:3942   */\n    tag_211:\n        /* \"#utility.yul\":3911:3935   */\n      tag_213\n        /* \"#utility.yul\":3929:3934   */\n      dup2\n        /* \"#utility.yul\":3911:3935   */\n      tag_214\n      jump\t// in\n    tag_213:\n        /* \"#utility.yul\":3906:3909   */\n      dup3\n        /* \"#utility.yul\":3899:3936   */\n      mstore\n        /* \"#utility.yul\":3824:3942   */\n      pop\n      pop\n      jump\t// out\n        /* \"#utility.yul\":3948:4063   */\n    tag_215:\n        /* \"#utility.yul\":4033:4056   */\n      tag_217\n        /* \"#utility.yul\":4050:4055   */\n      dup2\n        /* \"#utility.yul\":4033:4056   */\n      tag_218\n      jump\t// in\n    tag_217:\n        /* \"#utility.yul\":4028:4031   */\n      dup3\n        /* \"#utility.yul\":4021:4057   */\n      mstore\n        /* \"#utility.yul\":3948:4063   */\n      pop\n      pop\n      jump\t// out\n        /* \"#utility.yul\":4069:4228   */\n    tag_219:\n        /* \"#utility.yul\":4170:4221   */\n      tag_221\n        /* \"#utility.yul\":4215:4220   */\n      dup2\n        /* \"#utility.yul\":4170:4221   */\n      tag_222\n      jump\t// in\n    tag_221:\n        /* \"#utility.yul\":4165:4168   */\n      dup3\n        /* \"#utility.yul\":4158:4222   */\n      mstore\n        /* \"#utility.yul\":4069:4228   */\n      pop\n      pop\n      jump\t// out\n        /* \"#utility.yul\":4234:4395   */\n    tag_223:\n        /* \"#utility.yul\":4336:4388   */\n      tag_225\n        /* \"#utility.yul\":4382:4387   */\n      dup2\n        /* \"#utility.yul\":4336:4388   */\n      tag_226\n      jump\t// in\n    tag_225:\n        /* \"#utility.yul\":4331:4334   */\n      dup3\n        /* \"#utility.yul\":4324:4389   */\n      mstore\n        /* \"#utility.yul\":4234:4395   */\n      pop\n      pop\n      jump\t// out\n        /* \"#utility.yul\":4401:4564   */\n    tag_227:\n        /* \"#utility.yul\":4504:4557   */\n      tag_229\n        /* \"#utility.yul\":4551:4556   */\n      dup2\n        /* \"#utility.yul\":4504:4557   */\n      tag_230\n      jump\t// in\n    tag_229:\n        /* \"#utility.yul\":4499:4502   */\n      dup3\n        /* \"#utility.yul\":4492:4558   */\n      mstore\n        /* \"#utility.yul\":4401:4564   */\n      pop\n      pop\n      jump\t// out\n        /* \"#utility.yul\":4570:4936   */\n    tag_231:\n        /* \"#utility.yul\":4712:4715   */\n      0x00\n        /* \"#utility.yul\":4733:4800   */\n      tag_233\n        /* \"#utility.yul\":4797:4799   */\n      0x0a\n        /* \"#utility.yul\":4792:4795   */\n      dup4\n        /* \"#utility.yul\":4733:4800   */\n      tag_234\n      jump\t// in\n    tag_233:\n        /* \"#utility.yul\":4726:4800   */\n      swap2\n      pop\n        /* \"#utility.yul\":4809:4902   */\n      tag_235\n        /* \"#utility.yul\":4898:4901   */\n      dup3\n        /* \"#utility.yul\":4809:4902   */\n      tag_236\n      jump\t// in\n    tag_235:\n        /* \"#utility.yul\":4927:4929   */\n      0x20\n        /* \"#utility.yul\":4922:4925   */\n      dup3\n        /* \"#utility.yul\":4918:4930   */\n      add\n        /* \"#utility.yul\":4911:4930   */\n      swap1\n      pop\n        /* \"#utility.yul\":4570:4936   */\n      swap2\n      swap1\n      pop\n      jump\t// out\n        /* \"#utility.yul\":4942:5308   */\n    tag_237:\n        /* \"#utility.yul\":5084:5087   */\n      0x00\n        /* \"#utility.yul\":5105:5172   */\n      tag_239\n        /* \"#utility.yul\":5169:5171   */\n      0x0d\n        /* \"#utility.yul\":5164:5167   */\n      dup4\n        /* \"#utility.yul\":5105:5172   */\n      tag_234\n      jump\t// in\n    tag_239:\n        /* \"#utility.yul\":5098:5172   */\n      swap2\n      pop\n        /* \"#utility.yul\":5181:5274   */\n      tag_240\n        /* \"#utility.yul\":5270:5273   */\n      dup3\n        /* \"#utility.yul\":5181:5274   */\n      tag_241\n      jump\t// in\n    tag_240:\n        /* \"#utility.yul\":5299:5301   */\n      0x20\n        /* \"#utility.yul\":5294:5297   */\n      dup3\n        /* \"#utility.yul\":5290:5302   */\n      add\n        /* \"#utility.yul\":5283:5302   */\n      swap1\n      pop\n        /* \"#utility.yul\":4942:5308   */\n      swap2\n      swap1\n      pop\n      jump\t// out\n        /* \"#utility.yul\":5314:5680   */\n    tag_242:\n        /* \"#utility.yul\":5456:5459   */\n      0x00\n        /* \"#utility.yul\":5477:5544   */\n      tag_244\n        /* \"#utility.yul\":5541:5543   */\n      0x0d\n        /* \"#utility.yul\":5536:5539   */\n      dup4\n        /* \"#utility.yul\":5477:5544   */\n      tag_234\n      jump\t// in\n    tag_244:\n        /* \"#utility.yul\":5470:5544   */\n      swap2\n      pop\n        /* \"#utility.yul\":5553:5646   */\n      tag_245\n        /* \"#utility.yul\":5642:5645   */\n      dup3\n        /* \"#utility.yul\":5553:5646   */\n      tag_246\n      jump\t// in\n    tag_245:\n        /* \"#utility.yul\":5671:5673   */\n      0x20\n        /* \"#utility.yul\":5666:5669   */\n      dup3\n        /* \"#utility.yul\":5662:5674   */\n      add\n        /* \"#utility.yul\":5655:5674   */\n      swap1\n      pop\n        /* \"#utility.yul\":5314:5680   */\n      swap2\n      swap1\n      pop\n      jump\t// out\n        /* \"#utility.yul\":5686:6051   */\n    tag_247:\n        /* \"#utility.yul\":5828:5831   */\n      0x00\n        /* \"#utility.yul\":5849:5915   */\n      tag_249\n        /* \"#utility.yul\":5913:5914   */\n      0x09\n        /* \"#utility.yul\":5908:5911   */\n      dup4\n        /* \"#utility.yul\":5849:5915   */\n      tag_234\n      jump\t// in\n    tag_249:\n        /* \"#utility.yul\":5842:5915   */\n      swap2\n      pop\n        /* \"#utility.yul\":5924:6017   */\n      tag_250\n        /* \"#utility.yul\":6013:6016   */\n      dup3\n        /* \"#utility.yul\":5924:6017   */\n      tag_251\n      jump\t// in\n    tag_250:\n        /* \"#utility.yul\":6042:6044   */\n      0x20\n        /* \"#utility.yul\":6037:6040   */\n      dup3\n        /* \"#utility.yul\":6033:6045   */\n      add\n        /* \"#utility.yul\":6026:6045   */\n      swap1\n      pop\n        /* \"#utility.yul\":5686:6051   */\n      swap2\n      swap1\n      pop\n      jump\t// out\n        /* \"#utility.yul\":6057:6423   */\n    tag_252:\n        /* \"#utility.yul\":6199:6202   */\n      0x00\n        /* \"#utility.yul\":6220:6287   */\n      tag_254\n        /* \"#utility.yul\":6284:6286   */\n      0x1f\n        /* \"#utility.yul\":6279:6282   */\n      dup4\n        /* \"#utility.yul\":6220:6287   */\n      tag_234\n      jump\t// in\n    tag_254:\n        /* \"#utility.yul\":6213:6287   */\n      swap2\n      pop\n        /* \"#utility.yul\":6296:6389   */\n      tag_255\n        /* \"#utility.yul\":6385:6388   */\n      dup3\n        /* \"#utility.yul\":6296:6389   */\n      tag_256\n      jump\t// in\n    tag_255:\n        /* \"#utility.yul\":6414:6416   */\n      0x20\n        /* \"#utility.yul\":6409:6412   */\n      dup3\n        /* \"#utility.yul\":6405:6417   */\n      add\n        /* \"#utility.yul\":6398:6417   */\n      swap1\n      pop\n        /* \"#utility.yul\":6057:6423   */\n      swap2\n      swap1\n      pop\n      jump\t// out\n        /* \"#utility.yul\":6429:6547   */\n    tag_257:\n        /* \"#utility.yul\":6516:6540   */\n      tag_259\n        /* \"#utility.yul\":6534:6539   */\n      dup2\n        /* \"#utility.yul\":6516:6540   */\n      tag_260\n      jump\t// in\n    tag_259:\n        /* \"#utility.yul\":6511:6514   */\n      dup3\n        /* \"#utility.yul\":6504:6541   */\n      mstore\n        /* \"#utility.yul\":6429:6547   */\n      pop\n      pop\n      jump\t// out\n        /* \"#utility.yul\":6553:6775   */\n    tag_32:\n        /* \"#utility.yul\":6646:6650   */\n      0x00\n        /* \"#utility.yul\":6684:6686   */\n      0x20\n        /* \"#utility.yul\":6673:6682   */\n      dup3\n        /* \"#utility.yul\":6669:6687   */\n      add\n        /* \"#utility.yul\":6661:6687   */\n      swap1\n      pop\n        /* \"#utility.yul\":6697:6768   */\n      tag_262\n        /* \"#utility.yul\":6765:6766   */\n      0x00\n        /* \"#utility.yul\":6754:6763   */\n      dup4\n        /* \"#utility.yul\":6750:6767   */\n      add\n        /* \"#utility.yul\":6741:6747   */\n      dup5\n        /* \"#utility.yul\":6697:6768   */\n      tag_211\n      jump\t// in\n    tag_262:\n        /* \"#utility.yul\":6553:6775   */\n      swap3\n      swap2\n      pop\n      pop\n      jump\t// out\n        /* \"#utility.yul\":6781:7223   */\n    tag_100:\n        /* \"#utility.yul\":6930:6934   */\n      0x00\n        /* \"#utility.yul\":6968:6970   */\n      0x60\n        /* \"#utility.yul\":6957:6966   */\n      dup3\n        /* \"#utility.yul\":6953:6971   */\n      add\n        /* \"#utility.yul\":6945:6971   */\n      swap1\n      pop\n        /* \"#utility.yul\":6981:7052   */\n      tag_264\n        /* \"#utility.yul\":7049:7050   */\n      0x00\n        /* \"#utility.yul\":7038:7047   */\n      dup4\n        /* \"#utility.yul\":7034:7051   */\n      add\n        /* \"#utility.yul\":7025:7031   */\n      dup7\n        /* \"#utility.yul\":6981:7052   */\n      tag_211\n      jump\t// in\n    tag_264:\n        /* \"#utility.yul\":7062:7134   */\n      tag_265\n        /* \"#utility.yul\":7130:7132   */\n      0x20\n        /* \"#utility.yul\":7119:7128   */\n      dup4\n        /* \"#utility.yul\":7115:7133   */\n      add\n        /* \"#utility.yul\":7106:7112   */\n      dup6\n        /* \"#utility.yul\":7062:7134   */\n      tag_211\n      jump\t// in\n    tag_265:\n        /* \"#utility.yul\":7144:7216   */\n      tag_266\n        /* \"#utility.yul\":7212:7214   */\n      0x40\n        /* \"#utility.yul\":7201:7210   */\n      dup4\n        /* \"#utility.yul\":7197:7215   */\n      add\n        /* \"#utility.yul\":7188:7194   */\n      dup5\n        /* \"#utility.yul\":7144:7216   */\n      tag_257\n      jump\t// in\n    tag_266:\n        /* \"#utility.yul\":6781:7223   */\n      swap5\n      swap4\n      pop\n      pop\n      pop\n      pop\n      jump\t// out\n        /* \"#utility.yul\":7229:7561   */\n    tag_90:\n        /* \"#utility.yul\":7350:7354   */\n      0x00\n        /* \"#utility.yul\":7388:7390   */\n      0x40\n        /* \"#utility.yul\":7377:7386   */\n      dup3\n        /* \"#utility.yul\":7373:7391   */\n      add\n        /* \"#utility.yul\":7365:7391   */\n      swap1\n      pop\n        /* \"#utility.yul\":7401:7472   */\n      tag_268\n        /* \"#utility.yul\":7469:7470   */\n      0x00\n        /* \"#utility.yul\":7458:7467   */\n      dup4\n        /* \"#utility.yul\":7454:7471   */\n      add\n        /* \"#utility.yul\":7445:7451   */\n      dup6\n        /* \"#utility.yul\":7401:7472   */\n      tag_211\n      jump\t// in\n    tag_268:\n        /* \"#utility.yul\":7482:7554   */\n      tag_269\n        /* \"#utility.yul\":7550:7552   */\n      0x20\n        /* \"#utility.yul\":7539:7548   */\n      dup4\n        /* \"#utility.yul\":7535:7553   */\n      add\n        /* \"#utility.yul\":7526:7532   */\n      dup5\n        /* \"#utility.yul\":7482:7554   */\n      tag_257\n      jump\t// in\n    tag_269:\n        /* \"#utility.yul\":7229:7561   */\n      swap4\n      swap3\n      pop\n      pop\n      pop\n      jump\t// out\n        /* \"#utility.yul\":7567:7785   */\n    tag_38:\n        /* \"#utility.yul\":7658:7662   */\n      0x00\n        /* \"#utility.yul\":7696:7698   */\n      0x20\n        /* \"#utility.yul\":7685:7694   */\n      dup3\n        /* \"#utility.yul\":7681:7699   */\n      add\n        /* \"#utility.yul\":7673:7699   */\n      swap1\n      pop\n        /* \"#utility.yul\":7709:7778   */\n      tag_271\n        /* \"#utility.yul\":7775:7776   */\n      0x00\n        /* \"#utility.yul\":7764:7773   */\n      dup4\n        /* \"#utility.yul\":7760:7777   */\n      add\n        /* \"#utility.yul\":7751:7757   */\n      dup5\n        /* \"#utility.yul\":7709:7778   */\n      tag_215\n      jump\t// in\n    tag_271:\n        /* \"#utility.yul\":7567:7785   */\n      swap3\n      swap2\n      pop\n      pop\n      jump\t// out\n        /* \"#utility.yul\":7791:8041   */\n    tag_42:\n        /* \"#utility.yul\":7898:7902   */\n      0x00\n        /* \"#utility.yul\":7936:7938   */\n      0x20\n        /* \"#utility.yul\":7925:7934   */\n      dup3\n        /* \"#utility.yul\":7921:7939   */\n      add\n        /* \"#utility.yul\":7913:7939   */\n      swap1\n      pop\n        /* \"#utility.yul\":7949:8034   */\n      tag_273\n        /* \"#utility.yul\":8031:8032   */\n      0x00\n        /* \"#utility.yul\":8020:8029   */\n      dup4\n        /* \"#utility.yul\":8016:8033   */\n      add\n        /* \"#utility.yul\":8007:8013   */\n      dup5\n        /* \"#utility.yul\":7949:8034   */\n      tag_219\n      jump\t// in\n    tag_273:\n        /* \"#utility.yul\":7791:8041   */\n      swap3\n      swap2\n      pop\n      pop\n      jump\t// out\n        /* \"#utility.yul\":8047:8299   */\n    tag_49:\n        /* \"#utility.yul\":8155:8159   */\n      0x00\n        /* \"#utility.yul\":8193:8195   */\n      0x20\n        /* \"#utility.yul\":8182:8191   */\n      dup3\n        /* \"#utility.yul\":8178:8196   */\n      add\n        /* \"#utility.yul\":8170:8196   */\n      swap1\n      pop\n        /* \"#utility.yul\":8206:8292   */\n      tag_275\n        /* \"#utility.yul\":8289:8290   */\n      0x00\n        /* \"#utility.yul\":8278:8287   */\n      dup4\n        /* \"#utility.yul\":8274:8291   */\n      add\n        /* \"#utility.yul\":8265:8271   */\n      dup5\n        /* \"#utility.yul\":8206:8292   */\n      tag_223\n      jump\t// in\n    tag_275:\n        /* \"#utility.yul\":8047:8299   */\n      swap3\n      swap2\n      pop\n      pop\n      jump\t// out\n        /* \"#utility.yul\":8305:8559   */\n    tag_53:\n        /* \"#utility.yul\":8414:8418   */\n      0x00\n        /* \"#utility.yul\":8452:8454   */\n      0x20\n        /* \"#utility.yul\":8441:8450   */\n      dup3\n        /* \"#utility.yul\":8437:8455   */\n      add\n        /* \"#utility.yul\":8429:8455   */\n      swap1\n      pop\n        /* \"#utility.yul\":8465:8552   */\n      tag_277\n        /* \"#utility.yul\":8549:8550   */\n      0x00\n        /* \"#utility.yul\":8538:8547   */\n      dup4\n        /* \"#utility.yul\":8534:8551   */\n      add\n        /* \"#utility.yul\":8525:8531   */\n      dup5\n        /* \"#utility.yul\":8465:8552   */\n      tag_227\n      jump\t// in\n    tag_277:\n        /* \"#utility.yul\":8305:8559   */\n      swap3\n      swap2\n      pop\n      pop\n      jump\t// out\n        /* \"#utility.yul\":8565:8984   */\n    tag_70:\n        /* \"#utility.yul\":8731:8735   */\n      0x00\n        /* \"#utility.yul\":8769:8771   */\n      0x20\n        /* \"#utility.yul\":8758:8767   */\n      dup3\n        /* \"#utility.yul\":8754:8772   */\n      add\n        /* \"#utility.yul\":8746:8772   */\n      swap1\n      pop\n        /* \"#utility.yul\":8818:8827   */\n      dup2\n        /* \"#utility.yul\":8812:8816   */\n      dup2\n        /* \"#utility.yul\":8808:8828   */\n      sub\n        /* \"#utility.yul\":8804:8805   */\n      0x00\n        /* \"#utility.yul\":8793:8802   */\n      dup4\n        /* \"#utility.yul\":8789:8806   */\n      add\n        /* \"#utility.yul\":8782:8829   */\n      mstore\n        /* \"#utility.yul\":8846:8977   */\n      tag_279\n        /* \"#utility.yul\":8972:8976   */\n      dup2\n        /* \"#utility.yul\":8846:8977   */\n      tag_231\n      jump\t// in\n    tag_279:\n        /* \"#utility.yul\":8838:8977   */\n      swap1\n      pop\n        /* \"#utility.yul\":8565:8984   */\n      swap2\n      swap1\n      pop\n      jump\t// out\n        /* \"#utility.yul\":8990:9409   */\n    tag_134:\n        /* \"#utility.yul\":9156:9160   */\n      0x00\n        /* \"#utility.yul\":9194:9196   */\n      0x20\n        /* \"#utility.yul\":9183:9192   */\n      dup3\n        /* \"#utility.yul\":9179:9197   */\n      add\n        /* \"#utility.yul\":9171:9197   */\n      swap1\n      pop\n        /* \"#utility.yul\":9243:9252   */\n      dup2\n        /* \"#utility.yul\":9237:9241   */\n      dup2\n        /* \"#utility.yul\":9233:9253   */\n      sub\n        /* \"#utility.yul\":9229:9230   */\n      0x00\n        /* \"#utility.yul\":9218:9227   */\n      dup4\n        /* \"#utility.yul\":9214:9231   */\n      add\n        /* \"#utility.yul\":9207:9254   */\n      mstore\n        /* \"#utility.yul\":9271:9402   */\n      tag_281\n        /* \"#utility.yul\":9397:9401   */\n      dup2\n        /* \"#utility.yul\":9271:9402   */\n      tag_237\n      jump\t// in\n    tag_281:\n        /* \"#utility.yul\":9263:9402   */\n      swap1\n      pop\n        /* \"#utility.yul\":8990:9409   */\n      swap2\n      swap1\n      pop\n      jump\t// out\n        /* \"#utility.yul\":9415:9834   */\n    tag_73:\n        /* \"#utility.yul\":9581:9585   */\n      0x00\n        /* \"#utility.yul\":9619:9621   */\n      0x20\n        /* \"#utility.yul\":9608:9617   */\n      dup3\n        /* \"#utility.yul\":9604:9622   */\n      add\n        /* \"#utility.yul\":9596:9622   */\n      swap1\n      pop\n        /* \"#utility.yul\":9668:9677   */\n      dup2\n        /* \"#utility.yul\":9662:9666   */\n      dup2\n        /* \"#utility.yul\":9658:9678   */\n      sub\n        /* \"#utility.yul\":9654:9655   */\n      0x00\n        /* \"#utility.yul\":9643:9652   */\n      dup4\n        /* \"#utility.yul\":9639:9656   */\n      add\n        /* \"#utility.yul\":9632:9679   */\n      mstore\n        /* \"#utility.yul\":9696:9827   */\n      tag_283\n        /* \"#utility.yul\":9822:9826   */\n      dup2\n        /* \"#utility.yul\":9696:9827   */\n      tag_242\n      jump\t// in\n    tag_283:\n        /* \"#utility.yul\":9688:9827   */\n      swap1\n      pop\n        /* \"#utility.yul\":9415:9834   */\n      swap2\n      swap1\n      pop\n      jump\t// out\n        /* \"#utility.yul\":9840:10259   */\n    tag_148:\n        /* \"#utility.yul\":10006:10010   */\n      0x00\n        /* \"#utility.yul\":10044:10046   */\n      0x20\n        /* \"#utility.yul\":10033:10042   */\n      dup3\n        /* \"#utility.yul\":10029:10047   */\n      add\n        /* \"#utility.yul\":10021:10047   */\n      swap1\n      pop\n        /* \"#utility.yul\":10093:10102   */\n      dup2\n        /* \"#utility.yul\":10087:10091   */\n      dup2\n        /* \"#utility.yul\":10083:10103   */\n      sub\n        /* \"#utility.yul\":10079:10080   */\n      0x00\n        /* \"#utility.yul\":10068:10077   */\n      dup4\n        /* \"#utility.yul\":10064:10081   */\n      add\n        /* \"#utility.yul\":10057:10104   */\n      mstore\n        /* \"#utility.yul\":10121:10252   */\n      tag_285\n        /* \"#utility.yul\":10247:10251   */\n      dup2\n        /* \"#utility.yul\":10121:10252   */\n      tag_247\n      jump\t// in\n    tag_285:\n        /* \"#utility.yul\":10113:10252   */\n      swap1\n      pop\n        /* \"#utility.yul\":9840:10259   */\n      swap2\n      swap1\n      pop\n      jump\t// out\n        /* \"#utility.yul\":10265:10684   */\n    tag_107:\n        /* \"#utility.yul\":10431:10435   */\n      0x00\n        /* \"#utility.yul\":10469:10471   */\n      0x20\n        /* \"#utility.yul\":10458:10467   */\n      dup3\n        /* \"#utility.yul\":10454:10472   */\n      add\n        /* \"#utility.yul\":10446:10472   */\n      swap1\n      pop\n        /* \"#utility.yul\":10518:10527   */\n      dup2\n        /* \"#utility.yul\":10512:10516   */\n      dup2\n        /* \"#utility.yul\":10508:10528   */\n      sub\n        /* \"#utility.yul\":10504:10505   */\n      0x00\n        /* \"#utility.yul\":10493:10502   */\n      dup4\n        /* \"#utility.yul\":10489:10506   */\n      add\n        /* \"#utility.yul\":10482:10529   */\n      mstore\n        /* \"#utility.yul\":10546:10677   */\n      tag_287\n        /* \"#utility.yul\":10672:10676   */\n      dup2\n        /* \"#utility.yul\":10546:10677   */\n      tag_252\n      jump\t// in\n    tag_287:\n        /* \"#utility.yul\":10538:10677   */\n      swap1\n      pop\n        /* \"#utility.yul\":10265:10684   */\n      swap2\n      swap1\n      pop\n      jump\t// out\n        /* \"#utility.yul\":10690:10912   */\n    tag_28:\n        /* \"#utility.yul\":10783:10787   */\n      0x00\n        /* \"#utility.yul\":10821:10823   */\n      0x20\n        /* \"#utility.yul\":10810:10819   */\n      dup3\n        /* \"#utility.yul\":10806:10824   */\n      add\n        /* \"#utility.yul\":10798:10824   */\n      swap1\n      pop\n        /* \"#utility.yul\":10834:10905   */\n      tag_289\n        /* \"#utility.yul\":10902:10903   */\n      0x00\n        /* \"#utility.yul\":10891:10900   */\n      dup4\n        /* \"#utility.yul\":10887:10904   */\n      add\n        /* \"#utility.yul\":10878:10884   */\n      dup5\n        /* \"#utility.yul\":10834:10905   */\n      tag_257\n      jump\t// in\n    tag_289:\n        /* \"#utility.yul\":10690:10912   */\n      swap3\n      swap2\n      pop\n      pop\n      jump\t// out\n        /* \"#utility.yul\":10999:11168   */\n    tag_234:\n        /* \"#utility.yul\":11083:11094   */\n      0x00\n        /* \"#utility.yul\":11117:11123   */\n      dup3\n        /* \"#utility.yul\":11112:11115   */\n      dup3\n        /* \"#utility.yul\":11105:11124   */\n      mstore\n        /* \"#utility.yul\":11157:11161   */\n      0x20\n        /* \"#utility.yul\":11152:11155   */\n      dup3\n        /* \"#utility.yul\":11148:11162   */\n      add\n        /* \"#utility.yul\":11133:11162   */\n      swap1\n      pop\n        /* \"#utility.yul\":10999:11168   */\n      swap3\n      swap2\n      pop\n      pop\n      jump\t// out\n        /* \"#utility.yul\":11174:11479   */\n    tag_83:\n        /* \"#utility.yul\":11214:11217   */\n      0x00\n        /* \"#utility.yul\":11233:11253   */\n      tag_294\n        /* \"#utility.yul\":11251:11252   */\n      dup3\n        /* \"#utility.yul\":11233:11253   */\n      tag_260\n      jump\t// in\n    tag_294:\n        /* \"#utility.yul\":11228:11253   */\n      swap2\n      pop\n        /* \"#utility.yul\":11267:11287   */\n      tag_295\n        /* \"#utility.yul\":11285:11286   */\n      dup4\n        /* \"#utility.yul\":11267:11287   */\n      tag_260\n      jump\t// in\n    tag_295:\n        /* \"#utility.yul\":11262:11287   */\n      swap3\n      pop\n        /* \"#utility.yul\":11421:11422   */\n      dup3\n        /* \"#utility.yul\":11353:11419   */\n      0xffffffffffffffffffffffffffffffffffffffffffffffffffffffffffffffff\n        /* \"#utility.yul\":11349:11423   */\n      sub\n        /* \"#utility.yul\":11346:11347   */\n      dup3\n        /* \"#utility.yul\":11343:11424   */\n      gt\n        /* \"#utility.yul\":11340:11447   */\n      iszero\n      tag_296\n      jumpi\n        /* \"#utility.yul\":11427:11445   */\n      tag_297\n      tag_298\n      jump\t// in\n    tag_297:\n        /* \"#utility.yul\":11340:11447   */\n    tag_296:\n        /* \"#utility.yul\":11471:11472   */\n      dup3\n        /* \"#utility.yul\":11468:11469   */\n      dup3\n        /* \"#utility.yul\":11464:11473   */\n      add\n        /* \"#utility.yul\":11457:11473   */\n      swap1\n      pop\n        /* \"#utility.yul\":11174:11479   */\n      swap3\n      swap2\n      pop\n      pop\n      jump\t// out\n        /* \"#utility.yul\":11485:11676   */\n    tag_80:\n        /* \"#utility.yul\":11525:11529   */\n      0x00\n        /* \"#utility.yul\":11545:11565   */\n      tag_300\n        /* \"#utility.yul\":11563:11564   */\n      dup3\n        /* \"#utility.yul\":11545:11565   */\n      tag_260\n      jump\t// in\n    tag_300:\n        /* \"#utility.yul\":11540:11565   */\n      swap2\n      pop\n        /* \"#utility.yul\":11579:11599   */\n      tag_301\n        /* \"#utility.yul\":11597:11598   */\n      dup4\n        /* \"#utility.yul\":11579:11599   */\n      tag_260\n      jump\t// in\n    tag_301:\n        /* \"#utility.yul\":11574:11599   */\n      swap3\n      pop\n        /* \"#utility.yul\":11618:11619   */\n      dup3\n        /* \"#utility.yul\":11615:11616   */\n      dup3\n        /* \"#utility.yul\":11612:11620   */\n      lt\n        /* \"#utility.yul\":11609:11643   */\n      iszero\n      tag_302\n      jumpi\n        /* \"#utility.yul\":11623:11641   */\n      tag_303\n      tag_298\n      jump\t// in\n    tag_303:\n        /* \"#utility.yul\":11609:11643   */\n    tag_302:\n        /* \"#utility.yul\":11668:11669   */\n      dup3\n        /* \"#utility.yul\":11665:11666   */\n      dup3\n        /* \"#utility.yul\":11661:11670   */\n      sub\n        /* \"#utility.yul\":11653:11670   */\n      swap1\n      pop\n        /* \"#utility.yul\":11485:11676   */\n      swap3\n      swap2\n      pop\n      pop\n      jump\t// out\n        /* \"#utility.yul\":11682:11778   */\n    tag_214:\n        /* \"#utility.yul\":11719:11726   */\n      0x00\n        /* \"#utility.yul\":11748:11772   */\n      tag_305\n        /* \"#utility.yul\":11766:11771   */\n      dup3\n        /* \"#utility.yul\":11748:11772   */\n      tag_306\n      jump\t// in\n    tag_305:\n        /* \"#utility.yul\":11737:11772   */\n      swap1\n      pop\n        /* \"#utility.yul\":11682:11778   */\n      swap2\n      swap1\n      pop\n      jump\t// out\n        /* \"#utility.yul\":11784:11874   */\n    tag_307:\n        /* \"#utility.yul\":11818:11825   */\n      0x00\n        /* \"#utility.yul\":11861:11866   */\n      dup2\n        /* \"#utility.yul\":11854:11867   */\n      iszero\n        /* \"#utility.yul\":11847:11868   */\n      iszero\n        /* \"#utility.yul\":11836:11868   */\n      swap1\n      pop\n        /* \"#utility.yul\":11784:11874   */\n      swap2\n      swap1\n      pop\n      jump\t// out\n        /* \"#utility.yul\":11880:12029   */\n    tag_218:\n        /* \"#utility.yul\":11916:11923   */\n      0x00\n        /* \"#utility.yul\":11956:12022   */\n      0xffffffff00000000000000000000000000000000000000000000000000000000\n        /* \"#utility.yul\":11949:11954   */\n      dup3\n        /* \"#utility.yul\":11945:12023   */\n      and\n        /* \"#utility.yul\":11934:12023   */\n      swap1\n      pop\n        /* \"#utility.yul\":11880:12029   */\n      swap2\n      swap1\n      pop\n      jump\t// out\n        /* \"#utility.yul\":12035:12161   */\n    tag_306:\n        /* \"#utility.yul\":12072:12079   */\n      0x00\n        /* \"#utility.yul\":12112:12154   */\n      0xffffffffffffffffffffffffffffffffffffffff\n        /* \"#utility.yul\":12105:12110   */\n      dup3\n        /* \"#utility.yul\":12101:12155   */\n      and\n        /* \"#utility.yul\":12090:12155   */\n      swap1\n      pop\n        /* \"#utility.yul\":12035:12161   */\n      swap2\n      swap1\n      pop\n      jump\t// out\n        /* \"#utility.yul\":12167:12244   */\n    tag_260:\n        /* \"#utility.yul\":12204:12211   */\n      0x00\n        /* \"#utility.yul\":12233:12238   */\n      dup2\n        /* \"#utility.yul\":12222:12238   */\n      swap1\n      pop\n        /* \"#utility.yul\":12167:12244   */\n      swap2\n      swap1\n      pop\n      jump\t// out\n        /* \"#utility.yul\":12250:12390   */\n    tag_222:\n        /* \"#utility.yul\":12314:12323   */\n      0x00\n        /* \"#utility.yul\":12347:12384   */\n      tag_313\n        /* \"#utility.yul\":12378:12383   */\n      dup3\n        /* \"#utility.yul\":12347:12384   */\n      tag_314\n      jump\t// in\n    tag_313:\n        /* \"#utility.yul\":12334:12384   */\n      swap1\n      pop\n        /* \"#utility.yul\":12250:12390   */\n      swap2\n      swap1\n      pop\n      jump\t// out\n        /* \"#utility.yul\":12396:12537   */\n    tag_226:\n        /* \"#utility.yul\":12461:12470   */\n      0x00\n        /* \"#utility.yul\":12494:12531   */\n      tag_316\n        /* \"#utility.yul\":12525:12530   */\n      dup3\n        /* \"#utility.yul\":12494:12531   */\n      tag_314\n      jump\t// in\n    tag_316:\n        /* \"#utility.yul\":12481:12531   */\n      swap1\n      pop\n        /* \"#utility.yul\":12396:12537   */\n      swap2\n      swap1\n      pop\n      jump\t// out\n        /* \"#utility.yul\":12543:12685   */\n    tag_230:\n        /* \"#utility.yul\":12609:12618   */\n      0x00\n        /* \"#utility.yul\":12642:12679   */\n      tag_318\n        /* \"#utility.yul\":12673:12678   */\n      dup3\n        /* \"#utility.yul\":12642:12679   */\n      tag_314\n      jump\t// in\n    tag_318:\n        /* \"#utility.yul\":12629:12679   */\n      swap1\n      pop\n        /* \"#utility.yul\":12543:12685   */\n      swap2\n      swap1\n      pop\n      jump\t// out\n        /* \"#utility.yul\":12691:12817   */\n    tag_314:\n        /* \"#utility.yul\":12741:12750   */\n      0x00\n        /* \"#utility.yul\":12774:12811   */\n      tag_320\n        /* \"#utility.yul\":12805:12810   */\n      dup3\n        /* \"#utility.yul\":12774:12811   */\n      tag_321\n      jump\t// in\n    tag_320:\n        /* \"#utility.yul\":12761:12811   */\n      swap1\n      pop\n        /* \"#utility.yul\":12691:12817   */\n      swap2\n      swap1\n      pop\n      jump\t// out\n        /* \"#utility.yul\":12823:12936   */\n    tag_321:\n        /* \"#utility.yul\":12873:12882   */\n      0x00\n        /* \"#utility.yul\":12906:12930   */\n      tag_323\n        /* \"#utility.yul\":12924:12929   */\n      dup3\n        /* \"#utility.yul\":12906:12930   */\n      tag_306\n      jump\t// in\n    tag_323:\n        /* \"#utility.yul\":12893:12930   */\n      swap1\n      pop\n        /* \"#utility.yul\":12823:12936   */\n      swap2\n      swap1\n      pop\n      jump\t// out\n        /* \"#utility.yul\":12942:13122   */\n    tag_298:\n        /* \"#utility.yul\":12990:13067   */\n      0x4e487b7100000000000000000000000000000000000000000000000000000000\n        /* \"#utility.yul\":12987:12988   */\n      0x00\n        /* \"#utility.yul\":12980:13068   */\n      mstore\n        /* \"#utility.yul\":13087:13091   */\n      0x11\n        /* \"#utility.yul\":13084:13085   */\n      0x04\n        /* \"#utility.yul\":13077:13092   */\n      mstore\n        /* \"#utility.yul\":13111:13115   */\n      0x24\n        /* \"#utility.yul\":13108:13109   */\n      0x00\n        /* \"#utility.yul\":13101:13116   */\n      revert\n        /* \"#utility.yul\":13128:13245   */\n    tag_172:\n        /* \"#utility.yul\":13237:13238   */\n      0x00\n        /* \"#utility.yul\":13234:13235   */\n      dup1\n        /* \"#utility.yul\":13227:13239   */\n      revert\n        /* \"#utility.yul\":13251:13368   */\n    tag_169:\n        /* \"#utility.yul\":13360:13361   */\n      0x00\n        /* \"#utility.yul\":13357:13358   */\n      dup1\n        /* \"#utility.yul\":13350:13362   */\n      revert\n        /* \"#utility.yul\":13374:13491   */\n    tag_175:\n        /* \"#utility.yul\":13483:13484   */\n      0x00\n        /* \"#utility.yul\":13480:13481   */\n      dup1\n        /* \"#utility.yul\":13473:13485   */\n      revert\n        /* \"#utility.yul\":13497:13614   */\n    tag_197:\n        /* \"#utility.yul\":13606:13607   */\n      0x00\n        /* \"#utility.yul\":13603:13604   */\n      dup1\n        /* \"#utility.yul\":13596:13608   */\n      revert\n        /* \"#utility.yul\":13620:13737   */\n    tag_186:\n        /* \"#utility.yul\":13729:13730   */\n      0x00\n        /* \"#utility.yul\":13726:13727   */\n      dup1\n        /* \"#utility.yul\":13719:13731   */\n      revert\n        /* \"#utility.yul\":13743:13903   */\n    tag_236:\n        /* \"#utility.yul\":13883:13895   */\n      0x4e6f74207374616b656400000000000000000000000000000000000000000000\n        /* \"#utility.yul\":13879:13880   */\n      0x00\n        /* \"#utility.yul\":13871:13877   */\n      dup3\n        /* \"#utility.yul\":13867:13881   */\n      add\n        /* \"#utility.yul\":13860:13896   */\n      mstore\n        /* \"#utility.yul\":13743:13903   */\n      pop\n      jump\t// out\n        /* \"#utility.yul\":13909:14072   */\n    tag_241:\n        /* \"#utility.yul\":14049:14064   */\n      0x5472616e73666572206661696c00000000000000000000000000000000000000\n        /* \"#utility.yul\":14045:14046   */\n      0x00\n        /* \"#utility.yul\":14037:14043   */\n      dup3\n        /* \"#utility.yul\":14033:14047   */\n      add\n        /* \"#utility.yul\":14026:14065   */\n      mstore\n        /* \"#utility.yul\":13909:14072   */\n      pop\n      jump\t// out\n        /* \"#utility.yul\":14078:14241   */\n    tag_246:\n        /* \"#utility.yul\":14218:14233   */\n      0x4e6f74207265616c4f776e657200000000000000000000000000000000000000\n        /* \"#utility.yul\":14214:14215   */\n      0x00\n        /* \"#utility.yul\":14206:14212   */\n      dup3\n        /* \"#utility.yul\":14202:14216   */\n      add\n        /* \"#utility.yul\":14195:14234   */\n      mstore\n        /* \"#utility.yul\":14078:14241   */\n      pop\n      jump\t// out\n        /* \"#utility.yul\":14247:14406   */\n    tag_251:\n        /* \"#utility.yul\":14387:14398   */\n      0x4e6f74206f776e65720000000000000000000000000000000000000000000000\n        /* \"#utility.yul\":14383:14384   */\n      0x00\n        /* \"#utility.yul\":14375:14381   */\n      dup3\n        /* \"#utility.yul\":14371:14385   */\n      add\n        /* \"#utility.yul\":14364:14399   */\n      mstore\n        /* \"#utility.yul\":14247:14406   */\n      pop\n      jump\t// out\n        /* \"#utility.yul\":14412:14593   */\n    tag_256:\n        /* \"#utility.yul\":14552:14585   */\n      0x5265656e7472616e637947756172643a207265656e7472616e742063616c6c00\n        /* \"#utility.yul\":14548:14549   */\n      0x00\n        /* \"#utility.yul\":14540:14546   */\n      dup3\n        /* \"#utility.yul\":14536:14550   */\n      add\n        /* \"#utility.yul\":14529:14586   */\n      mstore\n        /* \"#utility.yul\":14412:14593   */\n      pop\n      jump\t// out\n        /* \"#utility.yul\":14599:14721   */\n    tag_157:\n        /* \"#utility.yul\":14672:14696   */\n      tag_336\n        /* \"#utility.yul\":14690:14695   */\n      dup2\n        /* \"#utility.yul\":14672:14696   */\n      tag_214\n      jump\t// in\n    tag_336:\n        /* \"#utility.yul\":14665:14670   */\n      dup2\n        /* \"#utility.yul\":14662:14697   */\n      eq\n        /* \"#utility.yul\":14652:14715   */\n      tag_337\n      jumpi\n        /* \"#utility.yul\":14711:14712   */\n      0x00\n        /* \"#utility.yul\":14708:14709   */\n      dup1\n        /* \"#utility.yul\":14701:14713   */\n      revert\n        /* \"#utility.yul\":14652:14715   */\n    tag_337:\n        /* \"#utility.yul\":14599:14721   */\n      pop\n      jump\t// out\n        /* \"#utility.yul\":14727:14843   */\n    tag_164:\n        /* \"#utility.yul\":14797:14818   */\n      tag_339\n        /* \"#utility.yul\":14812:14817   */\n      dup2\n        /* \"#utility.yul\":14797:14818   */\n      tag_307\n      jump\t// in\n    tag_339:\n        /* \"#utility.yul\":14790:14795   */\n      dup2\n        /* \"#utility.yul\":14787:14819   */\n      eq\n        /* \"#utility.yul\":14777:14837   */\n      tag_340\n      jumpi\n        /* \"#utility.yul\":14833:14834   */\n      0x00\n        /* \"#utility.yul\":14830:14831   */\n      dup1\n        /* \"#utility.yul\":14823:14835   */\n      revert\n        /* \"#utility.yul\":14777:14837   */\n    tag_340:\n        /* \"#utility.yul\":14727:14843   */\n      pop\n      jump\t// out\n        /* \"#utility.yul\":14849:14971   */\n    tag_179:\n        /* \"#utility.yul\":14922:14946   */\n      tag_342\n        /* \"#utility.yul\":14940:14945   */\n      dup2\n        /* \"#utility.yul\":14922:14946   */\n      tag_260\n      jump\t// in\n    tag_342:\n        /* \"#utility.yul\":14915:14920   */\n      dup2\n        /* \"#utility.yul\":14912:14947   */\n      eq\n        /* \"#utility.yul\":14902:14965   */\n      tag_343\n      jumpi\n        /* \"#utility.yul\":14961:14962   */\n      0x00\n        /* \"#utility.yul\":14958:14959   */\n      dup1\n        /* \"#utility.yul\":14951:14963   */\n      revert\n        /* \"#utility.yul\":14902:14965   */\n    tag_343:\n        /* \"#utility.yul\":14849:14971   */\n      pop\n      jump\t// out\n\n    auxdata: 0xa26469706673582212207d31ddd157335a93ddcb01bf6b5bd90c2799207d0cb817e76dba5bc24a4668ab64736f6c63430008070033\n}\n",
				"bytecode": {
					"linkReferences": {},
					"object": "60806040523480156200001157600080fd5b506040516200195338038062001953833981810160405281019062000037919062000162565b600160008190555081600260006101000a81548173ffffffffffffffffffffffffffffffffffffffff021916908373ffffffffffffffffffffffffffffffffffffffff16021790555081600360006101000a81548173ffffffffffffffffffffffffffffffffffffffff021916908373ffffffffffffffffffffffffffffffffffffffff16021790555080600160006101000a81548173ffffffffffffffffffffffffffffffffffffffff021916908373ffffffffffffffffffffffffffffffffffffffff16021790555081600460006101000a81548173ffffffffffffffffffffffffffffffffffffffff021916908373ffffffffffffffffffffffffffffffffffffffff1602179055505050620001fc565b6000815190506200015c81620001e2565b92915050565b600080604083850312156200017c576200017b620001dd565b5b60006200018c858286016200014b565b92505060206200019f858286016200014b565b9150509250929050565b6000620001b682620001bd565b9050919050565b600073ffffffffffffffffffffffffffffffffffffffff82169050919050565b600080fd5b620001ed81620001a9565b8114620001f957600080fd5b50565b611747806200020c6000396000f3fe608060405234801561001057600080fd5b506004361061009e5760003560e01c80637636e245116100665780637636e2451461014557806380a5400114610175578063a694fc3a14610193578063b8e33fb2146101af578063fead3d6e146101cd5761009e565b80630eeadd30146100a35780632e17de78146100bf578063379607f5146100db57806353eebc6d146100f757806366bb863b14610127575b600080fd5b6100bd60048036038101906100b89190611149565b6101eb565b005b6100d960048036038101906100d49190611149565b6102b5565b005b6100f560048036038101906100f09190611149565b61082a565b005b610111600480360381019061010c9190611149565b610c3d565b60405161011e9190611433565b60405180910390f35b61012f610c5d565b60405161013c91906112ac565b60405180910390f35b61015f600480360381019061015a9190611082565b610c83565b60405161016c9190611327565b60405180910390f35b61017d610cb2565b60405161018a9190611342565b60405180910390f35b6101ad60048036038101906101a89190611149565b610cd8565b005b6101b7610f4a565b6040516101c4919061135d565b60405180910390f35b6101d5610f70565b6040516101e29190611378565b60405180910390f35b600360009054906101000a900473ffffffffffffffffffffffffffffffffffffffff1673ffffffffffffffffffffffffffffffffffffffff1663a0c4442d826040518263ffffffff1660e01b81526004016102469190611433565b602060405180830381600087803b15801561026057600080fd5b505af1158015610274573d6000803e3d6000fd5b505050506040513d601f19601f820116820180604052508101906102989190611176565b600560008381526020019081526020016000206001018190555050565b3073ffffffffffffffffffffffffffffffffffffffff16600260009054906101000a900473ffffffffffffffffffffffffffffffffffffffff1673ffffffffffffffffffffffffffffffffffffffff16636352211e836040518263ffffffff1660e01b81526004016103279190611433565b60206040518083038186803b15801561033f57600080fd5b505afa158015610353573d6000803e3d6000fd5b505050506040513d601f19601f820116820180604052508101906103779190611055565b73ffffffffffffffffffffffffffffffffffffffff16146103cd576040517f08c379a00000000000000000000000000000000000000000000000000000000081526004016103c490611393565b60405180910390fd5b3373ffffffffffffffffffffffffffffffffffffffff166005600083815260200190815260200160002060000160009054906101000a900473ffffffffffffffffffffffffffffffffffffffff1673ffffffffffffffffffffffffffffffffffffffff1614610471576040517f08c379a0000000000000000000000000000000000000000000000000000000008152600401610468906113d3565b60405180910390fd5b60006005600083815260200190815260200160002060010154600360009054906101000a900473ffffffffffffffffffffffffffffffffffffffff1673ffffffffffffffffffffffffffffffffffffffff1663a0c4442d846040518263ffffffff1660e01b81526004016104e59190611433565b602060405180830381600087803b1580156104ff57600080fd5b505af1158015610513573d6000803e3d6000fd5b505050506040513d601f19601f820116820180604052508101906105379190611176565b61054191906114b5565b60056000848152602001908152602001600020600201544261056391906114b5565b61056d919061145f565b90506000600360009054906101000a900473ffffffffffffffffffffffffffffffffffffffff1673ffffffffffffffffffffffffffffffffffffffff1663a0c4442d846040518263ffffffff1660e01b81526004016105cc9190611433565b602060405180830381600087803b1580156105e657600080fd5b505af11580156105fa573d6000803e3d6000fd5b505050506040513d601f19601f8201168201806040525081019061061e9190611176565b9050600160009054906101000a900473ffffffffffffffffffffffffffffffffffffffff1673ffffffffffffffffffffffffffffffffffffffff1663a9059cbb33846040518363ffffffff1660e01b815260040161067d9291906112fe565b602060405180830381600087803b15801561069757600080fd5b505af11580156106ab573d6000803e3d6000fd5b505050506040513d601f19601f820116820180604052508101906106cf919061111c565b1561073e5742600560008581526020019081526020016000206002018190555060056000848152602001908152602001600020600101548161071191906114b5565b600560008581526020019081526020016000206001016000828254610736919061145f565b925050819055505b600260009054906101000a900473ffffffffffffffffffffffffffffffffffffffff1673ffffffffffffffffffffffffffffffffffffffff166323b872dd3033866040518463ffffffff1660e01b815260040161079d939291906112c7565b600060405180830381600087803b1580156107b757600080fd5b505af11580156107cb573d6000803e3d6000fd5b5050505060006005600085815260200190815260200160002060000160006101000a81548173ffffffffffffffffffffffffffffffffffffffff021916908373ffffffffffffffffffffffffffffffffffffffff160217905550505050565b60026000541415610870576040517f08c379a000000000000000000000000000000000000000000000000000000000815260040161086790611413565b60405180910390fd5b6002600081905550600060056000838152602001908152602001600020600201541161089b57600080fd5b3373ffffffffffffffffffffffffffffffffffffffff166005600083815260200190815260200160002060000160009054906101000a900473ffffffffffffffffffffffffffffffffffffffff1673ffffffffffffffffffffffffffffffffffffffff161461090957600080fd5b600360009054906101000a900473ffffffffffffffffffffffffffffffffffffffff1673ffffffffffffffffffffffffffffffffffffffff1663a0c4442d826040518263ffffffff1660e01b81526004016109649190611433565b602060405180830381600087803b15801561097e57600080fd5b505af1158015610992573d6000803e3d6000fd5b505050506040513d601f19601f820116820180604052508101906109b69190611176565b60056000838152602001908152602001600020600101819055506000600360009054906101000a900473ffffffffffffffffffffffffffffffffffffffff1673ffffffffffffffffffffffffffffffffffffffff1663a0c4442d836040518263ffffffff1660e01b8152600401610a2d9190611433565b602060405180830381600087803b158015610a4757600080fd5b505af1158015610a5b573d6000803e3d6000fd5b505050506040513d601f19601f82011682018060405250810190610a7f9190611176565b90506000600560008481526020019081526020016000206001015482610aa591906114b5565b600560008581526020019081526020016000206002015442610ac791906114b5565b610ad1919061145f565b9050600160009054906101000a900473ffffffffffffffffffffffffffffffffffffffff1673ffffffffffffffffffffffffffffffffffffffff1663a9059cbb33836040518363ffffffff1660e01b8152600401610b309291906112fe565b602060405180830381600087803b158015610b4a57600080fd5b505af1158015610b5e573d6000803e3d6000fd5b505050506040513d601f19601f82011682018060405250810190610b82919061111c565b15610bf557426005600085815260200190815260200160002060020181905550600560008481526020019081526020016000206001015482610bc491906114b5565b600560008581526020019081526020016000206001016000828254610be9919061145f565b92505081905550610c30565b6040517f08c379a0000000000000000000000000000000000000000000000000000000008152600401610c27906113b3565b60405180910390fd5b5050600160008190555050565b600060056000838152602001908152602001600020600101549050919050565b600460009054906101000a900473ffffffffffffffffffffffffffffffffffffffff1681565b60007f7636e24523a394e051c4f3b1d9065be73f6b416813ba53a99b779354a5822c5890509695505050505050565b600160009054906101000a900473ffffffffffffffffffffffffffffffffffffffff1681565b60026000541415610d1e576040517f08c379a0000000000000000000000000000000000000000000000000000000008152600401610d1590611413565b60405180910390fd5b60026000819055503373ffffffffffffffffffffffffffffffffffffffff16600260009054906101000a900473ffffffffffffffffffffffffffffffffffffffff1673ffffffffffffffffffffffffffffffffffffffff16636352211e836040518263ffffffff1660e01b8152600401610d989190611433565b60206040518083038186803b158015610db057600080fd5b505afa158015610dc4573d6000803e3d6000fd5b505050506040513d601f19601f82011682018060405250810190610de89190611055565b73ffffffffffffffffffffffffffffffffffffffff1614610e3e576040517f08c379a0000000000000000000000000000000000000000000000000000000008152600401610e35906113f3565b60405180910390fd5b600260009054906101000a900473ffffffffffffffffffffffffffffffffffffffff1673ffffffffffffffffffffffffffffffffffffffff166323b872dd3330846040518463ffffffff1660e01b8152600401610e9d939291906112c7565b600060405180830381600087803b158015610eb757600080fd5b505af1158015610ecb573d6000803e3d6000fd5b50505050336005600083815260200190815260200160002060000160006101000a81548173ffffffffffffffffffffffffffffffffffffffff021916908373ffffffffffffffffffffffffffffffffffffffff160217905550426005600083815260200190815260200160002060020181905550600160008190555050565b600260009054906101000a900473ffffffffffffffffffffffffffffffffffffffff1681565b600360009054906101000a900473ffffffffffffffffffffffffffffffffffffffff1681565b600081359050610fa5816116cc565b92915050565b600081519050610fba816116cc565b92915050565b600081519050610fcf816116e3565b92915050565b60008083601f840112610feb57610fea6115eb565b5b8235905067ffffffffffffffff811115611008576110076115e6565b5b602083019150836001820283011115611024576110236115f0565b5b9250929050565b60008135905061103a816116fa565b92915050565b60008151905061104f816116fa565b92915050565b60006020828403121561106b5761106a6115fa565b5b600061107984828501610fab565b91505092915050565b60008060008060008060a0878903121561109f5761109e6115fa565b5b60006110ad89828a01610f96565b96505060206110be89828a01610f96565b95505060406110cf89828a0161102b565b94505060606110e089828a0161102b565b935050608087013567ffffffffffffffff811115611101576111006115f5565b5b61110d89828a01610fd5565b92509250509295509295509295565b600060208284031215611132576111316115fa565b5b600061114084828501610fc0565b91505092915050565b60006020828403121561115f5761115e6115fa565b5b600061116d8482850161102b565b91505092915050565b60006020828403121561118c5761118b6115fa565b5b600061119a84828501611040565b91505092915050565b6111ac816114e9565b82525050565b6111bb81611507565b82525050565b6111ca8161155d565b82525050565b6111d98161156f565b82525050565b6111e881611581565b82525050565b60006111fb600a8361144e565b9150611206826115ff565b602082019050919050565b600061121e600d8361144e565b915061122982611628565b602082019050919050565b6000611241600d8361144e565b915061124c82611651565b602082019050919050565b600061126460098361144e565b915061126f8261167a565b602082019050919050565b6000611287601f8361144e565b9150611292826116a3565b602082019050919050565b6112a681611553565b82525050565b60006020820190506112c160008301846111a3565b92915050565b60006060820190506112dc60008301866111a3565b6112e960208301856111a3565b6112f6604083018461129d565b949350505050565b600060408201905061131360008301856111a3565b611320602083018461129d565b9392505050565b600060208201905061133c60008301846111b2565b92915050565b600060208201905061135760008301846111c1565b92915050565b600060208201905061137260008301846111d0565b92915050565b600060208201905061138d60008301846111df565b92915050565b600060208201905081810360008301526113ac816111ee565b9050919050565b600060208201905081810360008301526113cc81611211565b9050919050565b600060208201905081810360008301526113ec81611234565b9050919050565b6000602082019050818103600083015261140c81611257565b9050919050565b6000602082019050818103600083015261142c8161127a565b9050919050565b6000602082019050611448600083018461129d565b92915050565b600082825260208201905092915050565b600061146a82611553565b915061147583611553565b9250827fffffffffffffffffffffffffffffffffffffffffffffffffffffffffffffffff038211156114aa576114a96115b7565b5b828201905092915050565b60006114c082611553565b91506114cb83611553565b9250828210156114de576114dd6115b7565b5b828203905092915050565b60006114f482611533565b9050919050565b60008115159050919050565b60007fffffffff0000000000000000000000000000000000000000000000000000000082169050919050565b600073ffffffffffffffffffffffffffffffffffffffff82169050919050565b6000819050919050565b600061156882611593565b9050919050565b600061157a82611593565b9050919050565b600061158c82611593565b9050919050565b600061159e826115a5565b9050919050565b60006115b082611533565b9050919050565b7f4e487b7100000000000000000000000000000000000000000000000000000000600052601160045260246000fd5b600080fd5b600080fd5b600080fd5b600080fd5b600080fd5b7f4e6f74207374616b656400000000000000000000000000000000000000000000600082015250565b7f5472616e73666572206661696c00000000000000000000000000000000000000600082015250565b7f4e6f74207265616c4f776e657200000000000000000000000000000000000000600082015250565b7f4e6f74206f776e65720000000000000000000000000000000000000000000000600082015250565b7f5265656e7472616e637947756172643a207265656e7472616e742063616c6c00600082015250565b6116d5816114e9565b81146116e057600080fd5b50565b6116ec816114fb565b81146116f757600080fd5b50565b61170381611553565b811461170e57600080fd5b5056fea26469706673582212207d31ddd157335a93ddcb01bf6b5bd90c2799207d0cb817e76dba5bc24a4668ab64736f6c63430008070033",
					"opcodes": "PUSH1 0x80 PUSH1 0x40 MSTORE CALLVALUE DUP1 ISZERO PUSH3 0x11 JUMPI PUSH1 0x0 DUP1 REVERT JUMPDEST POP PUSH1 0x40 MLOAD PUSH3 0x1953 CODESIZE SUB DUP1 PUSH3 0x1953 DUP4 CODECOPY DUP2 DUP2 ADD PUSH1 0x40 MSTORE DUP2 ADD SWAP1 PUSH3 0x37 SWAP2 SWAP1 PUSH3 0x162 JUMP JUMPDEST PUSH1 0x1 PUSH1 0x0 DUP2 SWAP1 SSTORE POP DUP2 PUSH1 0x2 PUSH1 0x0 PUSH2 0x100 EXP DUP2 SLOAD DUP2 PUSH20 0xFFFFFFFFFFFFFFFFFFFFFFFFFFFFFFFFFFFFFFFF MUL NOT AND SWAP1 DUP4 PUSH20 0xFFFFFFFFFFFFFFFFFFFFFFFFFFFFFFFFFFFFFFFF AND MUL OR SWAP1 SSTORE POP DUP2 PUSH1 0x3 PUSH1 0x0 PUSH2 0x100 EXP DUP2 SLOAD DUP2 PUSH20 0xFFFFFFFFFFFFFFFFFFFFFFFFFFFFFFFFFFFFFFFF MUL NOT AND SWAP1 DUP4 PUSH20 0xFFFFFFFFFFFFFFFFFFFFFFFFFFFFFFFFFFFFFFFF AND MUL OR SWAP1 SSTORE POP DUP1 PUSH1 0x1 PUSH1 0x0 PUSH2 0x100 EXP DUP2 SLOAD DUP2 PUSH20 0xFFFFFFFFFFFFFFFFFFFFFFFFFFFFFFFFFFFFFFFF MUL NOT AND SWAP1 DUP4 PUSH20 0xFFFFFFFFFFFFFFFFFFFFFFFFFFFFFFFFFFFFFFFF AND MUL OR SWAP1 SSTORE POP DUP2 PUSH1 0x4 PUSH1 0x0 PUSH2 0x100 EXP DUP2 SLOAD DUP2 PUSH20 0xFFFFFFFFFFFFFFFFFFFFFFFFFFFFFFFFFFFFFFFF MUL NOT AND SWAP1 DUP4 PUSH20 0xFFFFFFFFFFFFFFFFFFFFFFFFFFFFFFFFFFFFFFFF AND MUL OR SWAP1 SSTORE POP POP POP PUSH3 0x1FC JUMP JUMPDEST PUSH1 0x0 DUP2 MLOAD SWAP1 POP PUSH3 0x15C DUP2 PUSH3 0x1E2 JUMP JUMPDEST SWAP3 SWAP2 POP POP JUMP JUMPDEST PUSH1 0x0 DUP1 PUSH1 0x40 DUP4 DUP6 SUB SLT ISZERO PUSH3 0x17C JUMPI PUSH3 0x17B PUSH3 0x1DD JUMP JUMPDEST JUMPDEST PUSH1 0x0 PUSH3 0x18C DUP6 DUP3 DUP7 ADD PUSH3 0x14B JUMP JUMPDEST SWAP3 POP POP PUSH1 0x20 PUSH3 0x19F DUP6 DUP3 DUP7 ADD PUSH3 0x14B JUMP JUMPDEST SWAP2 POP POP SWAP3 POP SWAP3 SWAP1 POP JUMP JUMPDEST PUSH1 0x0 PUSH3 0x1B6 DUP3 PUSH3 0x1BD JUMP JUMPDEST SWAP1 POP SWAP2 SWAP1 POP JUMP JUMPDEST PUSH1 0x0 PUSH20 0xFFFFFFFFFFFFFFFFFFFFFFFFFFFFFFFFFFFFFFFF DUP3 AND SWAP1 POP SWAP2 SWAP1 POP JUMP JUMPDEST PUSH1 0x0 DUP1 REVERT JUMPDEST PUSH3 0x1ED DUP2 PUSH3 0x1A9 JUMP JUMPDEST DUP2 EQ PUSH3 0x1F9 JUMPI PUSH1 0x0 DUP1 REVERT JUMPDEST POP JUMP JUMPDEST PUSH2 0x1747 DUP1 PUSH3 0x20C PUSH1 0x0 CODECOPY PUSH1 0x0 RETURN INVALID PUSH1 0x80 PUSH1 0x40 MSTORE CALLVALUE DUP1 ISZERO PUSH2 0x10 JUMPI PUSH1 0x0 DUP1 REVERT JUMPDEST POP PUSH1 0x4 CALLDATASIZE LT PUSH2 0x9E JUMPI PUSH1 0x0 CALLDATALOAD PUSH1 0xE0 SHR DUP1 PUSH4 0x7636E245 GT PUSH2 0x66 JUMPI DUP1 PUSH4 0x7636E245 EQ PUSH2 0x145 JUMPI DUP1 PUSH4 0x80A54001 EQ PUSH2 0x175 JUMPI DUP1 PUSH4 0xA694FC3A EQ PUSH2 0x193 JUMPI DUP1 PUSH4 0xB8E33FB2 EQ PUSH2 0x1AF JUMPI DUP1 PUSH4 0xFEAD3D6E EQ PUSH2 0x1CD JUMPI PUSH2 0x9E JUMP JUMPDEST DUP1 PUSH4 0xEEADD30 EQ PUSH2 0xA3 JUMPI DUP1 PUSH4 0x2E17DE78 EQ PUSH2 0xBF JUMPI DUP1 PUSH4 0x379607F5 EQ PUSH2 0xDB JUMPI DUP1 PUSH4 0x53EEBC6D EQ PUSH2 0xF7 JUMPI DUP1 PUSH4 0x66BB863B EQ PUSH2 0x127 JUMPI JUMPDEST PUSH1 0x0 DUP1 REVERT JUMPDEST PUSH2 0xBD PUSH1 0x4 DUP1 CALLDATASIZE SUB DUP2 ADD SWAP1 PUSH2 0xB8 SWAP2 SWAP1 PUSH2 0x1149 JUMP JUMPDEST PUSH2 0x1EB JUMP JUMPDEST STOP JUMPDEST PUSH2 0xD9 PUSH1 0x4 DUP1 CALLDATASIZE SUB DUP2 ADD SWAP1 PUSH2 0xD4 SWAP2 SWAP1 PUSH2 0x1149 JUMP JUMPDEST PUSH2 0x2B5 JUMP JUMPDEST STOP JUMPDEST PUSH2 0xF5 PUSH1 0x4 DUP1 CALLDATASIZE SUB DUP2 ADD SWAP1 PUSH2 0xF0 SWAP2 SWAP1 PUSH2 0x1149 JUMP JUMPDEST PUSH2 0x82A JUMP JUMPDEST STOP JUMPDEST PUSH2 0x111 PUSH1 0x4 DUP1 CALLDATASIZE SUB DUP2 ADD SWAP1 PUSH2 0x10C SWAP2 SWAP1 PUSH2 0x1149 JUMP JUMPDEST PUSH2 0xC3D JUMP JUMPDEST PUSH1 0x40 MLOAD PUSH2 0x11E SWAP2 SWAP1 PUSH2 0x1433 JUMP JUMPDEST PUSH1 0x40 MLOAD DUP1 SWAP2 SUB SWAP1 RETURN JUMPDEST PUSH2 0x12F PUSH2 0xC5D JUMP JUMPDEST PUSH1 0x40 MLOAD PUSH2 0x13C SWAP2 SWAP1 PUSH2 0x12AC JUMP JUMPDEST PUSH1 0x40 MLOAD DUP1 SWAP2 SUB SWAP1 RETURN JUMPDEST PUSH2 0x15F PUSH1 0x4 DUP1 CALLDATASIZE SUB DUP2 ADD SWAP1 PUSH2 0x15A SWAP2 SWAP1 PUSH2 0x1082 JUMP JUMPDEST PUSH2 0xC83 JUMP JUMPDEST PUSH1 0x40 MLOAD PUSH2 0x16C SWAP2 SWAP1 PUSH2 0x1327 JUMP JUMPDEST PUSH1 0x40 MLOAD DUP1 SWAP2 SUB SWAP1 RETURN JUMPDEST PUSH2 0x17D PUSH2 0xCB2 JUMP JUMPDEST PUSH1 0x40 MLOAD PUSH2 0x18A SWAP2 SWAP1 PUSH2 0x1342 JUMP JUMPDEST PUSH1 0x40 MLOAD DUP1 SWAP2 SUB SWAP1 RETURN JUMPDEST PUSH2 0x1AD PUSH1 0x4 DUP1 CALLDATASIZE SUB DUP2 ADD SWAP1 PUSH2 0x1A8 SWAP2 SWAP1 PUSH2 0x1149 JUMP JUMPDEST PUSH2 0xCD8 JUMP JUMPDEST STOP JUMPDEST PUSH2 0x1B7 PUSH2 0xF4A JUMP JUMPDEST PUSH1 0x40 MLOAD PUSH2 0x1C4 SWAP2 SWAP1 PUSH2 0x135D JUMP JUMPDEST PUSH1 0x40 MLOAD DUP1 SWAP2 SUB SWAP1 RETURN JUMPDEST PUSH2 0x1D5 PUSH2 0xF70 JUMP JUMPDEST PUSH1 0x40 MLOAD PUSH2 0x1E2 SWAP2 SWAP1 PUSH2 0x1378 JUMP JUMPDEST PUSH1 0x40 MLOAD DUP1 SWAP2 SUB SWAP1 RETURN JUMPDEST PUSH1 0x3 PUSH1 0x0 SWAP1 SLOAD SWAP1 PUSH2 0x100 EXP SWAP1 DIV PUSH20 0xFFFFFFFFFFFFFFFFFFFFFFFFFFFFFFFFFFFFFFFF AND PUSH20 0xFFFFFFFFFFFFFFFFFFFFFFFFFFFFFFFFFFFFFFFF AND PUSH4 0xA0C4442D DUP3 PUSH1 0x40 MLOAD DUP3 PUSH4 0xFFFFFFFF AND PUSH1 0xE0 SHL DUP2 MSTORE PUSH1 0x4 ADD PUSH2 0x246 SWAP2 SWAP1 PUSH2 0x1433 JUMP JUMPDEST PUSH1 0x20 PUSH1 0x40 MLOAD DUP1 DUP4 SUB DUP2 PUSH1 0x0 DUP8 DUP1 EXTCODESIZE ISZERO DUP1 ISZERO PUSH2 0x260 JUMPI PUSH1 0x0 DUP1 REVERT JUMPDEST POP GAS CALL ISZERO DUP1 ISZERO PUSH2 0x274 JUMPI RETURNDATASIZE PUSH1 0x0 DUP1 RETURNDATACOPY RETURNDATASIZE PUSH1 0x0 REVERT JUMPDEST POP POP POP POP PUSH1 0x40 MLOAD RETURNDATASIZE PUSH1 0x1F NOT PUSH1 0x1F DUP3 ADD AND DUP3 ADD DUP1 PUSH1 0x40 MSTORE POP DUP2 ADD SWAP1 PUSH2 0x298 SWAP2 SWAP1 PUSH2 0x1176 JUMP JUMPDEST PUSH1 0x5 PUSH1 0x0 DUP4 DUP2 MSTORE PUSH1 0x20 ADD SWAP1 DUP2 MSTORE PUSH1 0x20 ADD PUSH1 0x0 KECCAK256 PUSH1 0x1 ADD DUP2 SWAP1 SSTORE POP POP JUMP JUMPDEST ADDRESS PUSH20 0xFFFFFFFFFFFFFFFFFFFFFFFFFFFFFFFFFFFFFFFF AND PUSH1 0x2 PUSH1 0x0 SWAP1 SLOAD SWAP1 PUSH2 0x100 EXP SWAP1 DIV PUSH20 0xFFFFFFFFFFFFFFFFFFFFFFFFFFFFFFFFFFFFFFFF AND PUSH20 0xFFFFFFFFFFFFFFFFFFFFFFFFFFFFFFFFFFFFFFFF AND PUSH4 0x6352211E DUP4 PUSH1 0x40 MLOAD DUP3 PUSH4 0xFFFFFFFF AND PUSH1 0xE0 SHL DUP2 MSTORE PUSH1 0x4 ADD PUSH2 0x327 SWAP2 SWAP1 PUSH2 0x1433 JUMP JUMPDEST PUSH1 0x20 PUSH1 0x40 MLOAD DUP1 DUP4 SUB DUP2 DUP7 DUP1 EXTCODESIZE ISZERO DUP1 ISZERO PUSH2 0x33F JUMPI PUSH1 0x0 DUP1 REVERT JUMPDEST POP GAS STATICCALL ISZERO DUP1 ISZERO PUSH2 0x353 JUMPI RETURNDATASIZE PUSH1 0x0 DUP1 RETURNDATACOPY RETURNDATASIZE PUSH1 0x0 REVERT JUMPDEST POP POP POP POP PUSH1 0x40 MLOAD RETURNDATASIZE PUSH1 0x1F NOT PUSH1 0x1F DUP3 ADD AND DUP3 ADD DUP1 PUSH1 0x40 MSTORE POP DUP2 ADD SWAP1 PUSH2 0x377 SWAP2 SWAP1 PUSH2 0x1055 JUMP JUMPDEST PUSH20 0xFFFFFFFFFFFFFFFFFFFFFFFFFFFFFFFFFFFFFFFF AND EQ PUSH2 0x3CD JUMPI PUSH1 0x40 MLOAD PUSH32 0x8C379A000000000000000000000000000000000000000000000000000000000 DUP2 MSTORE PUSH1 0x4 ADD PUSH2 0x3C4 SWAP1 PUSH2 0x1393 JUMP JUMPDEST PUSH1 0x40 MLOAD DUP1 SWAP2 SUB SWAP1 REVERT JUMPDEST CALLER PUSH20 0xFFFFFFFFFFFFFFFFFFFFFFFFFFFFFFFFFFFFFFFF AND PUSH1 0x5 PUSH1 0x0 DUP4 DUP2 MSTORE PUSH1 0x20 ADD SWAP1 DUP2 MSTORE PUSH1 0x20 ADD PUSH1 0x0 KECCAK256 PUSH1 0x0 ADD PUSH1 0x0 SWAP1 SLOAD SWAP1 PUSH2 0x100 EXP SWAP1 DIV PUSH20 0xFFFFFFFFFFFFFFFFFFFFFFFFFFFFFFFFFFFFFFFF AND PUSH20 0xFFFFFFFFFFFFFFFFFFFFFFFFFFFFFFFFFFFFFFFF AND EQ PUSH2 0x471 JUMPI PUSH1 0x40 MLOAD PUSH32 0x8C379A000000000000000000000000000000000000000000000000000000000 DUP2 MSTORE PUSH1 0x4 ADD PUSH2 0x468 SWAP1 PUSH2 0x13D3 JUMP JUMPDEST PUSH1 0x40 MLOAD DUP1 SWAP2 SUB SWAP1 REVERT JUMPDEST PUSH1 0x0 PUSH1 0x5 PUSH1 0x0 DUP4 DUP2 MSTORE PUSH1 0x20 ADD SWAP1 DUP2 MSTORE PUSH1 0x20 ADD PUSH1 0x0 KECCAK256 PUSH1 0x1 ADD SLOAD PUSH1 0x3 PUSH1 0x0 SWAP1 SLOAD SWAP1 PUSH2 0x100 EXP SWAP1 DIV PUSH20 0xFFFFFFFFFFFFFFFFFFFFFFFFFFFFFFFFFFFFFFFF AND PUSH20 0xFFFFFFFFFFFFFFFFFFFFFFFFFFFFFFFFFFFFFFFF AND PUSH4 0xA0C4442D DUP5 PUSH1 0x40 MLOAD DUP3 PUSH4 0xFFFFFFFF AND PUSH1 0xE0 SHL DUP2 MSTORE PUSH1 0x4 ADD PUSH2 0x4E5 SWAP2 SWAP1 PUSH2 0x1433 JUMP JUMPDEST PUSH1 0x20 PUSH1 0x40 MLOAD DUP1 DUP4 SUB DUP2 PUSH1 0x0 DUP8 DUP1 EXTCODESIZE ISZERO DUP1 ISZERO PUSH2 0x4FF JUMPI PUSH1 0x0 DUP1 REVERT JUMPDEST POP GAS CALL ISZERO DUP1 ISZERO PUSH2 0x513 JUMPI RETURNDATASIZE PUSH1 0x0 DUP1 RETURNDATACOPY RETURNDATASIZE PUSH1 0x0 REVERT JUMPDEST POP POP POP POP PUSH1 0x40 MLOAD RETURNDATASIZE PUSH1 0x1F NOT PUSH1 0x1F DUP3 ADD AND DUP3 ADD DUP1 PUSH1 0x40 MSTORE POP DUP2 ADD SWAP1 PUSH2 0x537 SWAP2 SWAP1 PUSH2 0x1176 JUMP JUMPDEST PUSH2 0x541 SWAP2 SWAP1 PUSH2 0x14B5 JUMP JUMPDEST PUSH1 0x5 PUSH1 0x0 DUP5 DUP2 MSTORE PUSH1 0x20 ADD SWAP1 DUP2 MSTORE PUSH1 0x20 ADD PUSH1 0x0 KECCAK256 PUSH1 0x2 ADD SLOAD TIMESTAMP PUSH2 0x563 SWAP2 SWAP1 PUSH2 0x14B5 JUMP JUMPDEST PUSH2 0x56D SWAP2 SWAP1 PUSH2 0x145F JUMP JUMPDEST SWAP1 POP PUSH1 0x0 PUSH1 0x3 PUSH1 0x0 SWAP1 SLOAD SWAP1 PUSH2 0x100 EXP SWAP1 DIV PUSH20 0xFFFFFFFFFFFFFFFFFFFFFFFFFFFFFFFFFFFFFFFF AND PUSH20 0xFFFFFFFFFFFFFFFFFFFFFFFFFFFFFFFFFFFFFFFF AND PUSH4 0xA0C4442D DUP5 PUSH1 0x40 MLOAD DUP3 PUSH4 0xFFFFFFFF AND PUSH1 0xE0 SHL DUP2 MSTORE PUSH1 0x4 ADD PUSH2 0x5CC SWAP2 SWAP1 PUSH2 0x1433 JUMP JUMPDEST PUSH1 0x20 PUSH1 0x40 MLOAD DUP1 DUP4 SUB DUP2 PUSH1 0x0 DUP8 DUP1 EXTCODESIZE ISZERO DUP1 ISZERO PUSH2 0x5E6 JUMPI PUSH1 0x0 DUP1 REVERT JUMPDEST POP GAS CALL ISZERO DUP1 ISZERO PUSH2 0x5FA JUMPI RETURNDATASIZE PUSH1 0x0 DUP1 RETURNDATACOPY RETURNDATASIZE PUSH1 0x0 REVERT JUMPDEST POP POP POP POP PUSH1 0x40 MLOAD RETURNDATASIZE PUSH1 0x1F NOT PUSH1 0x1F DUP3 ADD AND DUP3 ADD DUP1 PUSH1 0x40 MSTORE POP DUP2 ADD SWAP1 PUSH2 0x61E SWAP2 SWAP1 PUSH2 0x1176 JUMP JUMPDEST SWAP1 POP PUSH1 0x1 PUSH1 0x0 SWAP1 SLOAD SWAP1 PUSH2 0x100 EXP SWAP1 DIV PUSH20 0xFFFFFFFFFFFFFFFFFFFFFFFFFFFFFFFFFFFFFFFF AND PUSH20 0xFFFFFFFFFFFFFFFFFFFFFFFFFFFFFFFFFFFFFFFF AND PUSH4 0xA9059CBB CALLER DUP5 PUSH1 0x40 MLOAD DUP4 PUSH4 0xFFFFFFFF AND PUSH1 0xE0 SHL DUP2 MSTORE PUSH1 0x4 ADD PUSH2 0x67D SWAP3 SWAP2 SWAP1 PUSH2 0x12FE JUMP JUMPDEST PUSH1 0x20 PUSH1 0x40 MLOAD DUP1 DUP4 SUB DUP2 PUSH1 0x0 DUP8 DUP1 EXTCODESIZE ISZERO DUP1 ISZERO PUSH2 0x697 JUMPI PUSH1 0x0 DUP1 REVERT JUMPDEST POP GAS CALL ISZERO DUP1 ISZERO PUSH2 0x6AB JUMPI RETURNDATASIZE PUSH1 0x0 DUP1 RETURNDATACOPY RETURNDATASIZE PUSH1 0x0 REVERT JUMPDEST POP POP POP POP PUSH1 0x40 MLOAD RETURNDATASIZE PUSH1 0x1F NOT PUSH1 0x1F DUP3 ADD AND DUP3 ADD DUP1 PUSH1 0x40 MSTORE POP DUP2 ADD SWAP1 PUSH2 0x6CF SWAP2 SWAP1 PUSH2 0x111C JUMP JUMPDEST ISZERO PUSH2 0x73E JUMPI TIMESTAMP PUSH1 0x5 PUSH1 0x0 DUP6 DUP2 MSTORE PUSH1 0x20 ADD SWAP1 DUP2 MSTORE PUSH1 0x20 ADD PUSH1 0x0 KECCAK256 PUSH1 0x2 ADD DUP2 SWAP1 SSTORE POP PUSH1 0x5 PUSH1 0x0 DUP5 DUP2 MSTORE PUSH1 0x20 ADD SWAP1 DUP2 MSTORE PUSH1 0x20 ADD PUSH1 0x0 KECCAK256 PUSH1 0x1 ADD SLOAD DUP2 PUSH2 0x711 SWAP2 SWAP1 PUSH2 0x14B5 JUMP JUMPDEST PUSH1 0x5 PUSH1 0x0 DUP6 DUP2 MSTORE PUSH1 0x20 ADD SWAP1 DUP2 MSTORE PUSH1 0x20 ADD PUSH1 0x0 KECCAK256 PUSH1 0x1 ADD PUSH1 0x0 DUP3 DUP3 SLOAD PUSH2 0x736 SWAP2 SWAP1 PUSH2 0x145F JUMP JUMPDEST SWAP3 POP POP DUP2 SWAP1 SSTORE POP JUMPDEST PUSH1 0x2 PUSH1 0x0 SWAP1 SLOAD SWAP1 PUSH2 0x100 EXP SWAP1 DIV PUSH20 0xFFFFFFFFFFFFFFFFFFFFFFFFFFFFFFFFFFFFFFFF AND PUSH20 0xFFFFFFFFFFFFFFFFFFFFFFFFFFFFFFFFFFFFFFFF AND PUSH4 0x23B872DD ADDRESS CALLER DUP7 PUSH1 0x40 MLOAD DUP5 PUSH4 0xFFFFFFFF AND PUSH1 0xE0 SHL DUP2 MSTORE PUSH1 0x4 ADD PUSH2 0x79D SWAP4 SWAP3 SWAP2 SWAP1 PUSH2 0x12C7 JUMP JUMPDEST PUSH1 0x0 PUSH1 0x40 MLOAD DUP1 DUP4 SUB DUP2 PUSH1 0x0 DUP8 DUP1 EXTCODESIZE ISZERO DUP1 ISZERO PUSH2 0x7B7 JUMPI PUSH1 0x0 DUP1 REVERT JUMPDEST POP GAS CALL ISZERO DUP1 ISZERO PUSH2 0x7CB JUMPI RETURNDATASIZE PUSH1 0x0 DUP1 RETURNDATACOPY RETURNDATASIZE PUSH1 0x0 REVERT JUMPDEST POP POP POP POP PUSH1 0x0 PUSH1 0x5 PUSH1 0x0 DUP6 DUP2 MSTORE PUSH1 0x20 ADD SWAP1 DUP2 MSTORE PUSH1 0x20 ADD PUSH1 0x0 KECCAK256 PUSH1 0x0 ADD PUSH1 0x0 PUSH2 0x100 EXP DUP2 SLOAD DUP2 PUSH20 0xFFFFFFFFFFFFFFFFFFFFFFFFFFFFFFFFFFFFFFFF MUL NOT AND SWAP1 DUP4 PUSH20 0xFFFFFFFFFFFFFFFFFFFFFFFFFFFFFFFFFFFFFFFF AND MUL OR SWAP1 SSTORE POP POP POP POP JUMP JUMPDEST PUSH1 0x2 PUSH1 0x0 SLOAD EQ ISZERO PUSH2 0x870 JUMPI PUSH1 0x40 MLOAD PUSH32 0x8C379A000000000000000000000000000000000000000000000000000000000 DUP2 MSTORE PUSH1 0x4 ADD PUSH2 0x867 SWAP1 PUSH2 0x1413 JUMP JUMPDEST PUSH1 0x40 MLOAD DUP1 SWAP2 SUB SWAP1 REVERT JUMPDEST PUSH1 0x2 PUSH1 0x0 DUP2 SWAP1 SSTORE POP PUSH1 0x0 PUSH1 0x5 PUSH1 0x0 DUP4 DUP2 MSTORE PUSH1 0x20 ADD SWAP1 DUP2 MSTORE PUSH1 0x20 ADD PUSH1 0x0 KECCAK256 PUSH1 0x2 ADD SLOAD GT PUSH2 0x89B JUMPI PUSH1 0x0 DUP1 REVERT JUMPDEST CALLER PUSH20 0xFFFFFFFFFFFFFFFFFFFFFFFFFFFFFFFFFFFFFFFF AND PUSH1 0x5 PUSH1 0x0 DUP4 DUP2 MSTORE PUSH1 0x20 ADD SWAP1 DUP2 MSTORE PUSH1 0x20 ADD PUSH1 0x0 KECCAK256 PUSH1 0x0 ADD PUSH1 0x0 SWAP1 SLOAD SWAP1 PUSH2 0x100 EXP SWAP1 DIV PUSH20 0xFFFFFFFFFFFFFFFFFFFFFFFFFFFFFFFFFFFFFFFF AND PUSH20 0xFFFFFFFFFFFFFFFFFFFFFFFFFFFFFFFFFFFFFFFF AND EQ PUSH2 0x909 JUMPI PUSH1 0x0 DUP1 REVERT JUMPDEST PUSH1 0x3 PUSH1 0x0 SWAP1 SLOAD SWAP1 PUSH2 0x100 EXP SWAP1 DIV PUSH20 0xFFFFFFFFFFFFFFFFFFFFFFFFFFFFFFFFFFFFFFFF AND PUSH20 0xFFFFFFFFFFFFFFFFFFFFFFFFFFFFFFFFFFFFFFFF AND PUSH4 0xA0C4442D DUP3 PUSH1 0x40 MLOAD DUP3 PUSH4 0xFFFFFFFF AND PUSH1 0xE0 SHL DUP2 MSTORE PUSH1 0x4 ADD PUSH2 0x964 SWAP2 SWAP1 PUSH2 0x1433 JUMP JUMPDEST PUSH1 0x20 PUSH1 0x40 MLOAD DUP1 DUP4 SUB DUP2 PUSH1 0x0 DUP8 DUP1 EXTCODESIZE ISZERO DUP1 ISZERO PUSH2 0x97E JUMPI PUSH1 0x0 DUP1 REVERT JUMPDEST POP GAS CALL ISZERO DUP1 ISZERO PUSH2 0x992 JUMPI RETURNDATASIZE PUSH1 0x0 DUP1 RETURNDATACOPY RETURNDATASIZE PUSH1 0x0 REVERT JUMPDEST POP POP POP POP PUSH1 0x40 MLOAD RETURNDATASIZE PUSH1 0x1F NOT PUSH1 0x1F DUP3 ADD AND DUP3 ADD DUP1 PUSH1 0x40 MSTORE POP DUP2 ADD SWAP1 PUSH2 0x9B6 SWAP2 SWAP1 PUSH2 0x1176 JUMP JUMPDEST PUSH1 0x5 PUSH1 0x0 DUP4 DUP2 MSTORE PUSH1 0x20 ADD SWAP1 DUP2 MSTORE PUSH1 0x20 ADD PUSH1 0x0 KECCAK256 PUSH1 0x1 ADD DUP2 SWAP1 SSTORE POP PUSH1 0x0 PUSH1 0x3 PUSH1 0x0 SWAP1 SLOAD SWAP1 PUSH2 0x100 EXP SWAP1 DIV PUSH20 0xFFFFFFFFFFFFFFFFFFFFFFFFFFFFFFFFFFFFFFFF AND PUSH20 0xFFFFFFFFFFFFFFFFFFFFFFFFFFFFFFFFFFFFFFFF AND PUSH4 0xA0C4442D DUP4 PUSH1 0x40 MLOAD DUP3 PUSH4 0xFFFFFFFF AND PUSH1 0xE0 SHL DUP2 MSTORE PUSH1 0x4 ADD PUSH2 0xA2D SWAP2 SWAP1 PUSH2 0x1433 JUMP JUMPDEST PUSH1 0x20 PUSH1 0x40 MLOAD DUP1 DUP4 SUB DUP2 PUSH1 0x0 DUP8 DUP1 EXTCODESIZE ISZERO DUP1 ISZERO PUSH2 0xA47 JUMPI PUSH1 0x0 DUP1 REVERT JUMPDEST POP GAS CALL ISZERO DUP1 ISZERO PUSH2 0xA5B JUMPI RETURNDATASIZE PUSH1 0x0 DUP1 RETURNDATACOPY RETURNDATASIZE PUSH1 0x0 REVERT JUMPDEST POP POP POP POP PUSH1 0x40 MLOAD RETURNDATASIZE PUSH1 0x1F NOT PUSH1 0x1F DUP3 ADD AND DUP3 ADD DUP1 PUSH1 0x40 MSTORE POP DUP2 ADD SWAP1 PUSH2 0xA7F SWAP2 SWAP1 PUSH2 0x1176 JUMP JUMPDEST SWAP1 POP PUSH1 0x0 PUSH1 0x5 PUSH1 0x0 DUP5 DUP2 MSTORE PUSH1 0x20 ADD SWAP1 DUP2 MSTORE PUSH1 0x20 ADD PUSH1 0x0 KECCAK256 PUSH1 0x1 ADD SLOAD DUP3 PUSH2 0xAA5 SWAP2 SWAP1 PUSH2 0x14B5 JUMP JUMPDEST PUSH1 0x5 PUSH1 0x0 DUP6 DUP2 MSTORE PUSH1 0x20 ADD SWAP1 DUP2 MSTORE PUSH1 0x20 ADD PUSH1 0x0 KECCAK256 PUSH1 0x2 ADD SLOAD TIMESTAMP PUSH2 0xAC7 SWAP2 SWAP1 PUSH2 0x14B5 JUMP JUMPDEST PUSH2 0xAD1 SWAP2 SWAP1 PUSH2 0x145F JUMP JUMPDEST SWAP1 POP PUSH1 0x1 PUSH1 0x0 SWAP1 SLOAD SWAP1 PUSH2 0x100 EXP SWAP1 DIV PUSH20 0xFFFFFFFFFFFFFFFFFFFFFFFFFFFFFFFFFFFFFFFF AND PUSH20 0xFFFFFFFFFFFFFFFFFFFFFFFFFFFFFFFFFFFFFFFF AND PUSH4 0xA9059CBB CALLER DUP4 PUSH1 0x40 MLOAD DUP4 PUSH4 0xFFFFFFFF AND PUSH1 0xE0 SHL DUP2 MSTORE PUSH1 0x4 ADD PUSH2 0xB30 SWAP3 SWAP2 SWAP1 PUSH2 0x12FE JUMP JUMPDEST PUSH1 0x20 PUSH1 0x40 MLOAD DUP1 DUP4 SUB DUP2 PUSH1 0x0 DUP8 DUP1 EXTCODESIZE ISZERO DUP1 ISZERO PUSH2 0xB4A JUMPI PUSH1 0x0 DUP1 REVERT JUMPDEST POP GAS CALL ISZERO DUP1 ISZERO PUSH2 0xB5E JUMPI RETURNDATASIZE PUSH1 0x0 DUP1 RETURNDATACOPY RETURNDATASIZE PUSH1 0x0 REVERT JUMPDEST POP POP POP POP PUSH1 0x40 MLOAD RETURNDATASIZE PUSH1 0x1F NOT PUSH1 0x1F DUP3 ADD AND DUP3 ADD DUP1 PUSH1 0x40 MSTORE POP DUP2 ADD SWAP1 PUSH2 0xB82 SWAP2 SWAP1 PUSH2 0x111C JUMP JUMPDEST ISZERO PUSH2 0xBF5 JUMPI TIMESTAMP PUSH1 0x5 PUSH1 0x0 DUP6 DUP2 MSTORE PUSH1 0x20 ADD SWAP1 DUP2 MSTORE PUSH1 0x20 ADD PUSH1 0x0 KECCAK256 PUSH1 0x2 ADD DUP2 SWAP1 SSTORE POP PUSH1 0x5 PUSH1 0x0 DUP5 DUP2 MSTORE PUSH1 0x20 ADD SWAP1 DUP2 MSTORE PUSH1 0x20 ADD PUSH1 0x0 KECCAK256 PUSH1 0x1 ADD SLOAD DUP3 PUSH2 0xBC4 SWAP2 SWAP1 PUSH2 0x14B5 JUMP JUMPDEST PUSH1 0x5 PUSH1 0x0 DUP6 DUP2 MSTORE PUSH1 0x20 ADD SWAP1 DUP2 MSTORE PUSH1 0x20 ADD PUSH1 0x0 KECCAK256 PUSH1 0x1 ADD PUSH1 0x0 DUP3 DUP3 SLOAD PUSH2 0xBE9 SWAP2 SWAP1 PUSH2 0x145F JUMP JUMPDEST SWAP3 POP POP DUP2 SWAP1 SSTORE POP PUSH2 0xC30 JUMP JUMPDEST PUSH1 0x40 MLOAD PUSH32 0x8C379A000000000000000000000000000000000000000000000000000000000 DUP2 MSTORE PUSH1 0x4 ADD PUSH2 0xC27 SWAP1 PUSH2 0x13B3 JUMP JUMPDEST PUSH1 0x40 MLOAD DUP1 SWAP2 SUB SWAP1 REVERT JUMPDEST POP POP PUSH1 0x1 PUSH1 0x0 DUP2 SWAP1 SSTORE POP POP JUMP JUMPDEST PUSH1 0x0 PUSH1 0x5 PUSH1 0x0 DUP4 DUP2 MSTORE PUSH1 0x20 ADD SWAP1 DUP2 MSTORE PUSH1 0x20 ADD PUSH1 0x0 KECCAK256 PUSH1 0x1 ADD SLOAD SWAP1 POP SWAP2 SWAP1 POP JUMP JUMPDEST PUSH1 0x4 PUSH1 0x0 SWAP1 SLOAD SWAP1 PUSH2 0x100 EXP SWAP1 DIV PUSH20 0xFFFFFFFFFFFFFFFFFFFFFFFFFFFFFFFFFFFFFFFF AND DUP2 JUMP JUMPDEST PUSH1 0x0 PUSH32 0x7636E24523A394E051C4F3B1D9065BE73F6B416813BA53A99B779354A5822C58 SWAP1 POP SWAP7 SWAP6 POP POP POP POP POP POP JUMP JUMPDEST PUSH1 0x1 PUSH1 0x0 SWAP1 SLOAD SWAP1 PUSH2 0x100 EXP SWAP1 DIV PUSH20 0xFFFFFFFFFFFFFFFFFFFFFFFFFFFFFFFFFFFFFFFF AND DUP2 JUMP JUMPDEST PUSH1 0x2 PUSH1 0x0 SLOAD EQ ISZERO PUSH2 0xD1E JUMPI PUSH1 0x40 MLOAD PUSH32 0x8C379A000000000000000000000000000000000000000000000000000000000 DUP2 MSTORE PUSH1 0x4 ADD PUSH2 0xD15 SWAP1 PUSH2 0x1413 JUMP JUMPDEST PUSH1 0x40 MLOAD DUP1 SWAP2 SUB SWAP1 REVERT JUMPDEST PUSH1 0x2 PUSH1 0x0 DUP2 SWAP1 SSTORE POP CALLER PUSH20 0xFFFFFFFFFFFFFFFFFFFFFFFFFFFFFFFFFFFFFFFF AND PUSH1 0x2 PUSH1 0x0 SWAP1 SLOAD SWAP1 PUSH2 0x100 EXP SWAP1 DIV PUSH20 0xFFFFFFFFFFFFFFFFFFFFFFFFFFFFFFFFFFFFFFFF AND PUSH20 0xFFFFFFFFFFFFFFFFFFFFFFFFFFFFFFFFFFFFFFFF AND PUSH4 0x6352211E DUP4 PUSH1 0x40 MLOAD DUP3 PUSH4 0xFFFFFFFF AND PUSH1 0xE0 SHL DUP2 MSTORE PUSH1 0x4 ADD PUSH2 0xD98 SWAP2 SWAP1 PUSH2 0x1433 JUMP JUMPDEST PUSH1 0x20 PUSH1 0x40 MLOAD DUP1 DUP4 SUB DUP2 DUP7 DUP1 EXTCODESIZE ISZERO DUP1 ISZERO PUSH2 0xDB0 JUMPI PUSH1 0x0 DUP1 REVERT JUMPDEST POP GAS STATICCALL ISZERO DUP1 ISZERO PUSH2 0xDC4 JUMPI RETURNDATASIZE PUSH1 0x0 DUP1 RETURNDATACOPY RETURNDATASIZE PUSH1 0x0 REVERT JUMPDEST POP POP POP POP PUSH1 0x40 MLOAD RETURNDATASIZE PUSH1 0x1F NOT PUSH1 0x1F DUP3 ADD AND DUP3 ADD DUP1 PUSH1 0x40 MSTORE POP DUP2 ADD SWAP1 PUSH2 0xDE8 SWAP2 SWAP1 PUSH2 0x1055 JUMP JUMPDEST PUSH20 0xFFFFFFFFFFFFFFFFFFFFFFFFFFFFFFFFFFFFFFFF AND EQ PUSH2 0xE3E JUMPI PUSH1 0x40 MLOAD PUSH32 0x8C379A000000000000000000000000000000000000000000000000000000000 DUP2 MSTORE PUSH1 0x4 ADD PUSH2 0xE35 SWAP1 PUSH2 0x13F3 JUMP JUMPDEST PUSH1 0x40 MLOAD DUP1 SWAP2 SUB SWAP1 REVERT JUMPDEST PUSH1 0x2 PUSH1 0x0 SWAP1 SLOAD SWAP1 PUSH2 0x100 EXP SWAP1 DIV PUSH20 0xFFFFFFFFFFFFFFFFFFFFFFFFFFFFFFFFFFFFFFFF AND PUSH20 0xFFFFFFFFFFFFFFFFFFFFFFFFFFFFFFFFFFFFFFFF AND PUSH4 0x23B872DD CALLER ADDRESS DUP5 PUSH1 0x40 MLOAD DUP5 PUSH4 0xFFFFFFFF AND PUSH1 0xE0 SHL DUP2 MSTORE PUSH1 0x4 ADD PUSH2 0xE9D SWAP4 SWAP3 SWAP2 SWAP1 PUSH2 0x12C7 JUMP JUMPDEST PUSH1 0x0 PUSH1 0x40 MLOAD DUP1 DUP4 SUB DUP2 PUSH1 0x0 DUP8 DUP1 EXTCODESIZE ISZERO DUP1 ISZERO PUSH2 0xEB7 JUMPI PUSH1 0x0 DUP1 REVERT JUMPDEST POP GAS CALL ISZERO DUP1 ISZERO PUSH2 0xECB JUMPI RETURNDATASIZE PUSH1 0x0 DUP1 RETURNDATACOPY RETURNDATASIZE PUSH1 0x0 REVERT JUMPDEST POP POP POP POP CALLER PUSH1 0x5 PUSH1 0x0 DUP4 DUP2 MSTORE PUSH1 0x20 ADD SWAP1 DUP2 MSTORE PUSH1 0x20 ADD PUSH1 0x0 KECCAK256 PUSH1 0x0 ADD PUSH1 0x0 PUSH2 0x100 EXP DUP2 SLOAD DUP2 PUSH20 0xFFFFFFFFFFFFFFFFFFFFFFFFFFFFFFFFFFFFFFFF MUL NOT AND SWAP1 DUP4 PUSH20 0xFFFFFFFFFFFFFFFFFFFFFFFFFFFFFFFFFFFFFFFF AND MUL OR SWAP1 SSTORE POP TIMESTAMP PUSH1 0x5 PUSH1 0x0 DUP4 DUP2 MSTORE PUSH1 0x20 ADD SWAP1 DUP2 MSTORE PUSH1 0x20 ADD PUSH1 0x0 KECCAK256 PUSH1 0x2 ADD DUP2 SWAP1 SSTORE POP PUSH1 0x1 PUSH1 0x0 DUP2 SWAP1 SSTORE POP POP JUMP JUMPDEST PUSH1 0x2 PUSH1 0x0 SWAP1 SLOAD SWAP1 PUSH2 0x100 EXP SWAP1 DIV PUSH20 0xFFFFFFFFFFFFFFFFFFFFFFFFFFFFFFFFFFFFFFFF AND DUP2 JUMP JUMPDEST PUSH1 0x3 PUSH1 0x0 SWAP1 SLOAD SWAP1 PUSH2 0x100 EXP SWAP1 DIV PUSH20 0xFFFFFFFFFFFFFFFFFFFFFFFFFFFFFFFFFFFFFFFF AND DUP2 JUMP JUMPDEST PUSH1 0x0 DUP2 CALLDATALOAD SWAP1 POP PUSH2 0xFA5 DUP2 PUSH2 0x16CC JUMP JUMPDEST SWAP3 SWAP2 POP POP JUMP JUMPDEST PUSH1 0x0 DUP2 MLOAD SWAP1 POP PUSH2 0xFBA DUP2 PUSH2 0x16CC JUMP JUMPDEST SWAP3 SWAP2 POP POP JUMP JUMPDEST PUSH1 0x0 DUP2 MLOAD SWAP1 POP PUSH2 0xFCF DUP2 PUSH2 0x16E3 JUMP JUMPDEST SWAP3 SWAP2 POP POP JUMP JUMPDEST PUSH1 0x0 DUP1 DUP4 PUSH1 0x1F DUP5 ADD SLT PUSH2 0xFEB JUMPI PUSH2 0xFEA PUSH2 0x15EB JUMP JUMPDEST JUMPDEST DUP3 CALLDATALOAD SWAP1 POP PUSH8 0xFFFFFFFFFFFFFFFF DUP2 GT ISZERO PUSH2 0x1008 JUMPI PUSH2 0x1007 PUSH2 0x15E6 JUMP JUMPDEST JUMPDEST PUSH1 0x20 DUP4 ADD SWAP2 POP DUP4 PUSH1 0x1 DUP3 MUL DUP4 ADD GT ISZERO PUSH2 0x1024 JUMPI PUSH2 0x1023 PUSH2 0x15F0 JUMP JUMPDEST JUMPDEST SWAP3 POP SWAP3 SWAP1 POP JUMP JUMPDEST PUSH1 0x0 DUP2 CALLDATALOAD SWAP1 POP PUSH2 0x103A DUP2 PUSH2 0x16FA JUMP JUMPDEST SWAP3 SWAP2 POP POP JUMP JUMPDEST PUSH1 0x0 DUP2 MLOAD SWAP1 POP PUSH2 0x104F DUP2 PUSH2 0x16FA JUMP JUMPDEST SWAP3 SWAP2 POP POP JUMP JUMPDEST PUSH1 0x0 PUSH1 0x20 DUP3 DUP5 SUB SLT ISZERO PUSH2 0x106B JUMPI PUSH2 0x106A PUSH2 0x15FA JUMP JUMPDEST JUMPDEST PUSH1 0x0 PUSH2 0x1079 DUP5 DUP3 DUP6 ADD PUSH2 0xFAB JUMP JUMPDEST SWAP2 POP POP SWAP3 SWAP2 POP POP JUMP JUMPDEST PUSH1 0x0 DUP1 PUSH1 0x0 DUP1 PUSH1 0x0 DUP1 PUSH1 0xA0 DUP8 DUP10 SUB SLT ISZERO PUSH2 0x109F JUMPI PUSH2 0x109E PUSH2 0x15FA JUMP JUMPDEST JUMPDEST PUSH1 0x0 PUSH2 0x10AD DUP10 DUP3 DUP11 ADD PUSH2 0xF96 JUMP JUMPDEST SWAP7 POP POP PUSH1 0x20 PUSH2 0x10BE DUP10 DUP3 DUP11 ADD PUSH2 0xF96 JUMP JUMPDEST SWAP6 POP POP PUSH1 0x40 PUSH2 0x10CF DUP10 DUP3 DUP11 ADD PUSH2 0x102B JUMP JUMPDEST SWAP5 POP POP PUSH1 0x60 PUSH2 0x10E0 DUP10 DUP3 DUP11 ADD PUSH2 0x102B JUMP JUMPDEST SWAP4 POP POP PUSH1 0x80 DUP8 ADD CALLDATALOAD PUSH8 0xFFFFFFFFFFFFFFFF DUP2 GT ISZERO PUSH2 0x1101 JUMPI PUSH2 0x1100 PUSH2 0x15F5 JUMP JUMPDEST JUMPDEST PUSH2 0x110D DUP10 DUP3 DUP11 ADD PUSH2 0xFD5 JUMP JUMPDEST SWAP3 POP SWAP3 POP POP SWAP3 SWAP6 POP SWAP3 SWAP6 POP SWAP3 SWAP6 JUMP JUMPDEST PUSH1 0x0 PUSH1 0x20 DUP3 DUP5 SUB SLT ISZERO PUSH2 0x1132 JUMPI PUSH2 0x1131 PUSH2 0x15FA JUMP JUMPDEST JUMPDEST PUSH1 0x0 PUSH2 0x1140 DUP5 DUP3 DUP6 ADD PUSH2 0xFC0 JUMP JUMPDEST SWAP2 POP POP SWAP3 SWAP2 POP POP JUMP JUMPDEST PUSH1 0x0 PUSH1 0x20 DUP3 DUP5 SUB SLT ISZERO PUSH2 0x115F JUMPI PUSH2 0x115E PUSH2 0x15FA JUMP JUMPDEST JUMPDEST PUSH1 0x0 PUSH2 0x116D DUP5 DUP3 DUP6 ADD PUSH2 0x102B JUMP JUMPDEST SWAP2 POP POP SWAP3 SWAP2 POP POP JUMP JUMPDEST PUSH1 0x0 PUSH1 0x20 DUP3 DUP5 SUB SLT ISZERO PUSH2 0x118C JUMPI PUSH2 0x118B PUSH2 0x15FA JUMP JUMPDEST JUMPDEST PUSH1 0x0 PUSH2 0x119A DUP5 DUP3 DUP6 ADD PUSH2 0x1040 JUMP JUMPDEST SWAP2 POP POP SWAP3 SWAP2 POP POP JUMP JUMPDEST PUSH2 0x11AC DUP2 PUSH2 0x14E9 JUMP JUMPDEST DUP3 MSTORE POP POP JUMP JUMPDEST PUSH2 0x11BB DUP2 PUSH2 0x1507 JUMP JUMPDEST DUP3 MSTORE POP POP JUMP JUMPDEST PUSH2 0x11CA DUP2 PUSH2 0x155D JUMP JUMPDEST DUP3 MSTORE POP POP JUMP JUMPDEST PUSH2 0x11D9 DUP2 PUSH2 0x156F JUMP JUMPDEST DUP3 MSTORE POP POP JUMP JUMPDEST PUSH2 0x11E8 DUP2 PUSH2 0x1581 JUMP JUMPDEST DUP3 MSTORE POP POP JUMP JUMPDEST PUSH1 0x0 PUSH2 0x11FB PUSH1 0xA DUP4 PUSH2 0x144E JUMP JUMPDEST SWAP2 POP PUSH2 0x1206 DUP3 PUSH2 0x15FF JUMP JUMPDEST PUSH1 0x20 DUP3 ADD SWAP1 POP SWAP2 SWAP1 POP JUMP JUMPDEST PUSH1 0x0 PUSH2 0x121E PUSH1 0xD DUP4 PUSH2 0x144E JUMP JUMPDEST SWAP2 POP PUSH2 0x1229 DUP3 PUSH2 0x1628 JUMP JUMPDEST PUSH1 0x20 DUP3 ADD SWAP1 POP SWAP2 SWAP1 POP JUMP JUMPDEST PUSH1 0x0 PUSH2 0x1241 PUSH1 0xD DUP4 PUSH2 0x144E JUMP JUMPDEST SWAP2 POP PUSH2 0x124C DUP3 PUSH2 0x1651 JUMP JUMPDEST PUSH1 0x20 DUP3 ADD SWAP1 POP SWAP2 SWAP1 POP JUMP JUMPDEST PUSH1 0x0 PUSH2 0x1264 PUSH1 0x9 DUP4 PUSH2 0x144E JUMP JUMPDEST SWAP2 POP PUSH2 0x126F DUP3 PUSH2 0x167A JUMP JUMPDEST PUSH1 0x20 DUP3 ADD SWAP1 POP SWAP2 SWAP1 POP JUMP JUMPDEST PUSH1 0x0 PUSH2 0x1287 PUSH1 0x1F DUP4 PUSH2 0x144E JUMP JUMPDEST SWAP2 POP PUSH2 0x1292 DUP3 PUSH2 0x16A3 JUMP JUMPDEST PUSH1 0x20 DUP3 ADD SWAP1 POP SWAP2 SWAP1 POP JUMP JUMPDEST PUSH2 0x12A6 DUP2 PUSH2 0x1553 JUMP JUMPDEST DUP3 MSTORE POP POP JUMP JUMPDEST PUSH1 0x0 PUSH1 0x20 DUP3 ADD SWAP1 POP PUSH2 0x12C1 PUSH1 0x0 DUP4 ADD DUP5 PUSH2 0x11A3 JUMP JUMPDEST SWAP3 SWAP2 POP POP JUMP JUMPDEST PUSH1 0x0 PUSH1 0x60 DUP3 ADD SWAP1 POP PUSH2 0x12DC PUSH1 0x0 DUP4 ADD DUP7 PUSH2 0x11A3 JUMP JUMPDEST PUSH2 0x12E9 PUSH1 0x20 DUP4 ADD DUP6 PUSH2 0x11A3 JUMP JUMPDEST PUSH2 0x12F6 PUSH1 0x40 DUP4 ADD DUP5 PUSH2 0x129D JUMP JUMPDEST SWAP5 SWAP4 POP POP POP POP JUMP JUMPDEST PUSH1 0x0 PUSH1 0x40 DUP3 ADD SWAP1 POP PUSH2 0x1313 PUSH1 0x0 DUP4 ADD DUP6 PUSH2 0x11A3 JUMP JUMPDEST PUSH2 0x1320 PUSH1 0x20 DUP4 ADD DUP5 PUSH2 0x129D JUMP JUMPDEST SWAP4 SWAP3 POP POP POP JUMP JUMPDEST PUSH1 0x0 PUSH1 0x20 DUP3 ADD SWAP1 POP PUSH2 0x133C PUSH1 0x0 DUP4 ADD DUP5 PUSH2 0x11B2 JUMP JUMPDEST SWAP3 SWAP2 POP POP JUMP JUMPDEST PUSH1 0x0 PUSH1 0x20 DUP3 ADD SWAP1 POP PUSH2 0x1357 PUSH1 0x0 DUP4 ADD DUP5 PUSH2 0x11C1 JUMP JUMPDEST SWAP3 SWAP2 POP POP JUMP JUMPDEST PUSH1 0x0 PUSH1 0x20 DUP3 ADD SWAP1 POP PUSH2 0x1372 PUSH1 0x0 DUP4 ADD DUP5 PUSH2 0x11D0 JUMP JUMPDEST SWAP3 SWAP2 POP POP JUMP JUMPDEST PUSH1 0x0 PUSH1 0x20 DUP3 ADD SWAP1 POP PUSH2 0x138D PUSH1 0x0 DUP4 ADD DUP5 PUSH2 0x11DF JUMP JUMPDEST SWAP3 SWAP2 POP POP JUMP JUMPDEST PUSH1 0x0 PUSH1 0x20 DUP3 ADD SWAP1 POP DUP2 DUP2 SUB PUSH1 0x0 DUP4 ADD MSTORE PUSH2 0x13AC DUP2 PUSH2 0x11EE JUMP JUMPDEST SWAP1 POP SWAP2 SWAP1 POP JUMP JUMPDEST PUSH1 0x0 PUSH1 0x20 DUP3 ADD SWAP1 POP DUP2 DUP2 SUB PUSH1 0x0 DUP4 ADD MSTORE PUSH2 0x13CC DUP2 PUSH2 0x1211 JUMP JUMPDEST SWAP1 POP SWAP2 SWAP1 POP JUMP JUMPDEST PUSH1 0x0 PUSH1 0x20 DUP3 ADD SWAP1 POP DUP2 DUP2 SUB PUSH1 0x0 DUP4 ADD MSTORE PUSH2 0x13EC DUP2 PUSH2 0x1234 JUMP JUMPDEST SWAP1 POP SWAP2 SWAP1 POP JUMP JUMPDEST PUSH1 0x0 PUSH1 0x20 DUP3 ADD SWAP1 POP DUP2 DUP2 SUB PUSH1 0x0 DUP4 ADD MSTORE PUSH2 0x140C DUP2 PUSH2 0x1257 JUMP JUMPDEST SWAP1 POP SWAP2 SWAP1 POP JUMP JUMPDEST PUSH1 0x0 PUSH1 0x20 DUP3 ADD SWAP1 POP DUP2 DUP2 SUB PUSH1 0x0 DUP4 ADD MSTORE PUSH2 0x142C DUP2 PUSH2 0x127A JUMP JUMPDEST SWAP1 POP SWAP2 SWAP1 POP JUMP JUMPDEST PUSH1 0x0 PUSH1 0x20 DUP3 ADD SWAP1 POP PUSH2 0x1448 PUSH1 0x0 DUP4 ADD DUP5 PUSH2 0x129D JUMP JUMPDEST SWAP3 SWAP2 POP POP JUMP JUMPDEST PUSH1 0x0 DUP3 DUP3 MSTORE PUSH1 0x20 DUP3 ADD SWAP1 POP SWAP3 SWAP2 POP POP JUMP JUMPDEST PUSH1 0x0 PUSH2 0x146A DUP3 PUSH2 0x1553 JUMP JUMPDEST SWAP2 POP PUSH2 0x1475 DUP4 PUSH2 0x1553 JUMP JUMPDEST SWAP3 POP DUP3 PUSH32 0xFFFFFFFFFFFFFFFFFFFFFFFFFFFFFFFFFFFFFFFFFFFFFFFFFFFFFFFFFFFFFFFF SUB DUP3 GT ISZERO PUSH2 0x14AA JUMPI PUSH2 0x14A9 PUSH2 0x15B7 JUMP JUMPDEST JUMPDEST DUP3 DUP3 ADD SWAP1 POP SWAP3 SWAP2 POP POP JUMP JUMPDEST PUSH1 0x0 PUSH2 0x14C0 DUP3 PUSH2 0x1553 JUMP JUMPDEST SWAP2 POP PUSH2 0x14CB DUP4 PUSH2 0x1553 JUMP JUMPDEST SWAP3 POP DUP3 DUP3 LT ISZERO PUSH2 0x14DE JUMPI PUSH2 0x14DD PUSH2 0x15B7 JUMP JUMPDEST JUMPDEST DUP3 DUP3 SUB SWAP1 POP SWAP3 SWAP2 POP POP JUMP JUMPDEST PUSH1 0x0 PUSH2 0x14F4 DUP3 PUSH2 0x1533 JUMP JUMPDEST SWAP1 POP SWAP2 SWAP1 POP JUMP JUMPDEST PUSH1 0x0 DUP2 ISZERO ISZERO SWAP1 POP SWAP2 SWAP1 POP JUMP JUMPDEST PUSH1 0x0 PUSH32 0xFFFFFFFF00000000000000000000000000000000000000000000000000000000 DUP3 AND SWAP1 POP SWAP2 SWAP1 POP JUMP JUMPDEST PUSH1 0x0 PUSH20 0xFFFFFFFFFFFFFFFFFFFFFFFFFFFFFFFFFFFFFFFF DUP3 AND SWAP1 POP SWAP2 SWAP1 POP JUMP JUMPDEST PUSH1 0x0 DUP2 SWAP1 POP SWAP2 SWAP1 POP JUMP JUMPDEST PUSH1 0x0 PUSH2 0x1568 DUP3 PUSH2 0x1593 JUMP JUMPDEST SWAP1 POP SWAP2 SWAP1 POP JUMP JUMPDEST PUSH1 0x0 PUSH2 0x157A DUP3 PUSH2 0x1593 JUMP JUMPDEST SWAP1 POP SWAP2 SWAP1 POP JUMP JUMPDEST PUSH1 0x0 PUSH2 0x158C DUP3 PUSH2 0x1593 JUMP JUMPDEST SWAP1 POP SWAP2 SWAP1 POP JUMP JUMPDEST PUSH1 0x0 PUSH2 0x159E DUP3 PUSH2 0x15A5 JUMP JUMPDEST SWAP1 POP SWAP2 SWAP1 POP JUMP JUMPDEST PUSH1 0x0 PUSH2 0x15B0 DUP3 PUSH2 0x1533 JUMP JUMPDEST SWAP1 POP SWAP2 SWAP1 POP JUMP JUMPDEST PUSH32 0x4E487B7100000000000000000000000000000000000000000000000000000000 PUSH1 0x0 MSTORE PUSH1 0x11 PUSH1 0x4 MSTORE PUSH1 0x24 PUSH1 0x0 REVERT JUMPDEST PUSH1 0x0 DUP1 REVERT JUMPDEST PUSH1 0x0 DUP1 REVERT JUMPDEST PUSH1 0x0 DUP1 REVERT JUMPDEST PUSH1 0x0 DUP1 REVERT JUMPDEST PUSH1 0x0 DUP1 REVERT JUMPDEST PUSH32 0x4E6F74207374616B656400000000000000000000000000000000000000000000 PUSH1 0x0 DUP3 ADD MSTORE POP JUMP JUMPDEST PUSH32 0x5472616E73666572206661696C00000000000000000000000000000000000000 PUSH1 0x0 DUP3 ADD MSTORE POP JUMP JUMPDEST PUSH32 0x4E6F74207265616C4F776E657200000000000000000000000000000000000000 PUSH1 0x0 DUP3 ADD MSTORE POP JUMP JUMPDEST PUSH32 0x4E6F74206F776E65720000000000000000000000000000000000000000000000 PUSH1 0x0 DUP3 ADD MSTORE POP JUMP JUMPDEST PUSH32 0x5265656E7472616E637947756172643A207265656E7472616E742063616C6C00 PUSH1 0x0 DUP3 ADD MSTORE POP JUMP JUMPDEST PUSH2 0x16D5 DUP2 PUSH2 0x14E9 JUMP JUMPDEST DUP2 EQ PUSH2 0x16E0 JUMPI PUSH1 0x0 DUP1 REVERT JUMPDEST POP JUMP JUMPDEST PUSH2 0x16EC DUP2 PUSH2 0x14FB JUMP JUMPDEST DUP2 EQ PUSH2 0x16F7 JUMPI PUSH1 0x0 DUP1 REVERT JUMPDEST POP JUMP JUMPDEST PUSH2 0x1703 DUP2 PUSH2 0x1553 JUMP JUMPDEST DUP2 EQ PUSH2 0x170E JUMPI PUSH1 0x0 DUP1 REVERT JUMPDEST POP JUMP INVALID LOG2 PUSH5 0x6970667358 0x22 SLT KECCAK256 PUSH30 0x31DDD157335A93DDCB01BF6B5BD90C2799207D0CB817E76DBA5BC24A4668 0xAB PUSH5 0x736F6C6343 STOP ADDMOD SMOD STOP CALLER "
				},
				"gasEstimates": {
					"creation": {
						"codeDepositCost": "1191800",
						"executionCost": "infinite",
						"totalCost": "infinite"
					},
					"external": {
						"claim(uint256)": "infinite",
						"claimedTrophies(uint256)": "infinite",
						"onERC721Received(address,address,uint256,uint256,bytes)": "infinite",
						"parentNFT()": "2666",
						"parentNFTAddress()": "2603",
						"parentNftFunctions()": "2688",
						"parentToken()": "2622",
						"refreshTrophies(uint256)": "infinite",
						"stake(uint256)": "infinite",
						"unstake(uint256)": "infinite"
					}
				},
				"methodIdentifiers": {
					"claim(uint256)": "379607f5",
					"claimedTrophies(uint256)": "53eebc6d",
					"onERC721Received(address,address,uint256,uint256,bytes)": "7636e245",
					"parentNFT()": "b8e33fb2",
					"parentNFTAddress()": "66bb863b",
					"parentNftFunctions()": "fead3d6e",
					"parentToken()": "80a54001",
					"refreshTrophies(uint256)": "0eeadd30",
					"stake(uint256)": "a694fc3a",
					"unstake(uint256)": "2e17de78"
				}
			},
			"storageLayout": {
				"storage": [
					{
						"astId": 10,
						"contract": "contracts/StakingNFT.sol:Staking",
						"label": "_status",
						"offset": 0,
						"slot": "0",
						"type": "t_uint256"
					},
					{
						"astId": 263,
						"contract": "contracts/StakingNFT.sol:Staking",
						"label": "parentToken",
						"offset": 0,
						"slot": "1",
						"type": "t_contract(IERC20)117"
					},
					{
						"astId": 266,
						"contract": "contracts/StakingNFT.sol:Staking",
						"label": "parentNFT",
						"offset": 0,
						"slot": "2",
						"type": "t_contract(IERC721)233"
					},
					{
						"astId": 269,
						"contract": "contracts/StakingNFT.sol:Staking",
						"label": "parentNftFunctions",
						"offset": 0,
						"slot": "3",
						"type": "t_contract(INFTGame)258"
					},
					{
						"astId": 271,
						"contract": "contracts/StakingNFT.sol:Staking",
						"label": "parentNFTAddress",
						"offset": 0,
						"slot": "4",
						"type": "t_address"
					},
					{
						"astId": 318,
						"contract": "contracts/StakingNFT.sol:Staking",
						"label": "s_stakeReview",
						"offset": 0,
						"slot": "5",
						"type": "t_mapping(t_uint256,t_struct(StakeReview)325_storage)"
					}
				],
				"types": {
					"t_address": {
						"encoding": "inplace",
						"label": "address",
						"numberOfBytes": "20"
					},
					"t_contract(IERC20)117": {
						"encoding": "inplace",
						"label": "contract IERC20",
						"numberOfBytes": "20"
					},
					"t_contract(IERC721)233": {
						"encoding": "inplace",
						"label": "contract IERC721",
						"numberOfBytes": "20"
					},
					"t_contract(INFTGame)258": {
						"encoding": "inplace",
						"label": "contract INFTGame",
						"numberOfBytes": "20"
					},
					"t_mapping(t_uint256,t_struct(StakeReview)325_storage)": {
						"encoding": "mapping",
						"key": "t_uint256",
						"label": "mapping(uint256 => struct Staking.StakeReview)",
						"numberOfBytes": "32",
						"value": "t_struct(StakeReview)325_storage"
					},
					"t_struct(StakeReview)325_storage": {
						"encoding": "inplace",
						"label": "struct Staking.StakeReview",
						"members": [
							{
								"astId": 320,
								"contract": "contracts/StakingNFT.sol:Staking",
								"label": "realOwner",
								"offset": 0,
								"slot": "0",
								"type": "t_address"
							},
							{
								"astId": 322,
								"contract": "contracts/StakingNFT.sol:Staking",
								"label": "claimedTrophies",
								"offset": 0,
								"slot": "1",
								"type": "t_uint256"
							},
							{
								"astId": 324,
								"contract": "contracts/StakingNFT.sol:Staking",
								"label": "lastClaimTime",
								"offset": 0,
								"slot": "2",
								"type": "t_uint256"
							}
						],
						"numberOfBytes": "96"
					},
					"t_uint256": {
						"encoding": "inplace",
						"label": "uint256",
						"numberOfBytes": "32"
					}
				}
			},
			"userdoc": {
				"kind": "user",
				"methods": {},
				"version": 1
			}
		}
	}
}